{
  "contractName": "ESTile",
  "abi": [
    {
      "inputs": [
        {
          "internalType": "string",
          "name": "_uri",
          "type": "string"
        },
        {
          "internalType": "address",
          "name": "_proxyRegistryAddress",
          "type": "address"
        },
        {
          "internalType": "address",
          "name": "_escapeERC20Address",
          "type": "address"
        }
      ],
      "stateMutability": "nonpayable",
      "type": "constructor"
    },
    {
      "anonymous": false,
      "inputs": [
        {
          "indexed": true,
          "internalType": "address",
          "name": "account",
          "type": "address"
        },
        {
          "indexed": true,
          "internalType": "address",
          "name": "operator",
          "type": "address"
        },
        {
          "indexed": false,
          "internalType": "bool",
          "name": "approved",
          "type": "bool"
        }
      ],
      "name": "ApprovalForAll",
      "type": "event"
    },
    {
      "anonymous": false,
      "inputs": [
        {
          "indexed": true,
          "internalType": "address",
          "name": "previousOwner",
          "type": "address"
        },
        {
          "indexed": true,
          "internalType": "address",
          "name": "newOwner",
          "type": "address"
        }
      ],
      "name": "OwnershipTransferred",
      "type": "event"
    },
    {
      "anonymous": false,
      "inputs": [
        {
          "indexed": true,
          "internalType": "bytes32",
          "name": "role",
          "type": "bytes32"
        },
        {
          "indexed": true,
          "internalType": "bytes32",
          "name": "previousAdminRole",
          "type": "bytes32"
        },
        {
          "indexed": true,
          "internalType": "bytes32",
          "name": "newAdminRole",
          "type": "bytes32"
        }
      ],
      "name": "RoleAdminChanged",
      "type": "event"
    },
    {
      "anonymous": false,
      "inputs": [
        {
          "indexed": true,
          "internalType": "bytes32",
          "name": "role",
          "type": "bytes32"
        },
        {
          "indexed": true,
          "internalType": "address",
          "name": "account",
          "type": "address"
        },
        {
          "indexed": true,
          "internalType": "address",
          "name": "sender",
          "type": "address"
        }
      ],
      "name": "RoleGranted",
      "type": "event"
    },
    {
      "anonymous": false,
      "inputs": [
        {
          "indexed": true,
          "internalType": "bytes32",
          "name": "role",
          "type": "bytes32"
        },
        {
          "indexed": true,
          "internalType": "address",
          "name": "account",
          "type": "address"
        },
        {
          "indexed": true,
          "internalType": "address",
          "name": "sender",
          "type": "address"
        }
      ],
      "name": "RoleRevoked",
      "type": "event"
    },
    {
      "anonymous": false,
      "inputs": [
        {
          "indexed": true,
          "internalType": "address",
          "name": "operator",
          "type": "address"
        },
        {
          "indexed": true,
          "internalType": "address",
          "name": "from",
          "type": "address"
        },
        {
          "indexed": true,
          "internalType": "address",
          "name": "to",
          "type": "address"
        },
        {
          "indexed": false,
          "internalType": "uint256[]",
          "name": "ids",
          "type": "uint256[]"
        },
        {
          "indexed": false,
          "internalType": "uint256[]",
          "name": "values",
          "type": "uint256[]"
        }
      ],
      "name": "TransferBatch",
      "type": "event"
    },
    {
      "anonymous": false,
      "inputs": [
        {
          "indexed": true,
          "internalType": "address",
          "name": "operator",
          "type": "address"
        },
        {
          "indexed": true,
          "internalType": "address",
          "name": "from",
          "type": "address"
        },
        {
          "indexed": true,
          "internalType": "address",
          "name": "to",
          "type": "address"
        },
        {
          "indexed": false,
          "internalType": "uint256",
          "name": "id",
          "type": "uint256"
        },
        {
          "indexed": false,
          "internalType": "uint256",
          "name": "value",
          "type": "uint256"
        }
      ],
      "name": "TransferSingle",
      "type": "event"
    },
    {
      "anonymous": false,
      "inputs": [
        {
          "indexed": false,
          "internalType": "string",
          "name": "value",
          "type": "string"
        },
        {
          "indexed": true,
          "internalType": "uint256",
          "name": "id",
          "type": "uint256"
        }
      ],
      "name": "URI",
      "type": "event"
    },
    {
      "inputs": [],
      "name": "CREATOR_ADMIN_ROLE",
      "outputs": [
        {
          "internalType": "bytes32",
          "name": "",
          "type": "bytes32"
        }
      ],
      "stateMutability": "view",
      "type": "function",
      "constant": true
    },
    {
      "inputs": [],
      "name": "CREATOR_ROLE",
      "outputs": [
        {
          "internalType": "bytes32",
          "name": "",
          "type": "bytes32"
        }
      ],
      "stateMutability": "view",
      "type": "function",
      "constant": true
    },
    {
      "inputs": [],
      "name": "DEFAULT_ADMIN_ROLE",
      "outputs": [
        {
          "internalType": "bytes32",
          "name": "",
          "type": "bytes32"
        }
      ],
      "stateMutability": "view",
      "type": "function",
      "constant": true
    },
    {
      "inputs": [],
      "name": "MINTER_ADMIN_ROLE",
      "outputs": [
        {
          "internalType": "bytes32",
          "name": "",
          "type": "bytes32"
        }
      ],
      "stateMutability": "view",
      "type": "function",
      "constant": true
    },
    {
      "inputs": [],
      "name": "MINTER_ROLE",
      "outputs": [
        {
          "internalType": "bytes32",
          "name": "",
          "type": "bytes32"
        }
      ],
      "stateMutability": "view",
      "type": "function",
      "constant": true
    },
    {
      "inputs": [
        {
          "internalType": "address",
          "name": "account",
          "type": "address"
        },
        {
          "internalType": "uint256",
          "name": "id",
          "type": "uint256"
        }
      ],
      "name": "balanceOf",
      "outputs": [
        {
          "internalType": "uint256",
          "name": "",
          "type": "uint256"
        }
      ],
      "stateMutability": "view",
      "type": "function",
      "constant": true
    },
    {
      "inputs": [
        {
          "internalType": "address[]",
          "name": "accounts",
          "type": "address[]"
        },
        {
          "internalType": "uint256[]",
          "name": "ids",
          "type": "uint256[]"
        }
      ],
      "name": "balanceOfBatch",
      "outputs": [
        {
          "internalType": "uint256[]",
          "name": "",
          "type": "uint256[]"
        }
      ],
      "stateMutability": "view",
      "type": "function",
      "constant": true
    },
    {
      "inputs": [
        {
          "internalType": "address",
          "name": "",
          "type": "address"
        }
      ],
      "name": "claimLength",
      "outputs": [
        {
          "internalType": "uint256",
          "name": "",
          "type": "uint256"
        }
      ],
      "stateMutability": "view",
      "type": "function",
      "constant": true
    },
    {
      "inputs": [
        {
          "internalType": "bytes32",
          "name": "role",
          "type": "bytes32"
        }
      ],
      "name": "getRoleAdmin",
      "outputs": [
        {
          "internalType": "bytes32",
          "name": "",
          "type": "bytes32"
        }
      ],
      "stateMutability": "view",
      "type": "function",
      "constant": true
    },
    {
      "inputs": [
        {
          "internalType": "bytes32",
          "name": "role",
          "type": "bytes32"
        },
        {
          "internalType": "uint256",
          "name": "index",
          "type": "uint256"
        }
      ],
      "name": "getRoleMember",
      "outputs": [
        {
          "internalType": "address",
          "name": "",
          "type": "address"
        }
      ],
      "stateMutability": "view",
      "type": "function",
      "constant": true
    },
    {
      "inputs": [
        {
          "internalType": "bytes32",
          "name": "role",
          "type": "bytes32"
        }
      ],
      "name": "getRoleMemberCount",
      "outputs": [
        {
          "internalType": "uint256",
          "name": "",
          "type": "uint256"
        }
      ],
      "stateMutability": "view",
      "type": "function",
      "constant": true
    },
    {
      "inputs": [
        {
          "internalType": "bytes32",
          "name": "_adminRole",
          "type": "bytes32"
        },
        {
          "internalType": "address",
          "name": "_address",
          "type": "address"
        }
      ],
      "name": "grantAdmin",
      "outputs": [],
      "stateMutability": "nonpayable",
      "type": "function"
    },
    {
      "inputs": [
        {
          "internalType": "bytes32",
          "name": "role",
          "type": "bytes32"
        },
        {
          "internalType": "address",
          "name": "account",
          "type": "address"
        }
      ],
      "name": "grantRole",
      "outputs": [],
      "stateMutability": "nonpayable",
      "type": "function"
    },
    {
      "inputs": [
        {
          "internalType": "bytes32",
          "name": "role",
          "type": "bytes32"
        },
        {
          "internalType": "address",
          "name": "account",
          "type": "address"
        }
      ],
      "name": "hasRole",
      "outputs": [
        {
          "internalType": "bool",
          "name": "",
          "type": "bool"
        }
      ],
      "stateMutability": "view",
      "type": "function",
      "constant": true
    },
    {
      "inputs": [
        {
          "internalType": "address",
          "name": "_owner",
          "type": "address"
        },
        {
          "internalType": "address",
          "name": "_operator",
          "type": "address"
        }
      ],
      "name": "isApprovedForAll",
      "outputs": [
        {
          "internalType": "bool",
          "name": "isOperator",
          "type": "bool"
        }
      ],
      "stateMutability": "view",
      "type": "function",
      "constant": true
    },
    {
      "inputs": [],
      "name": "maxTokenID",
      "outputs": [
        {
          "internalType": "uint256",
          "name": "",
          "type": "uint256"
        }
      ],
      "stateMutability": "view",
      "type": "function",
      "constant": true
    },
    {
      "inputs": [
        {
          "internalType": "address",
          "name": "_to",
          "type": "address"
        },
        {
          "internalType": "uint256",
          "name": "_id",
          "type": "uint256"
        },
        {
          "internalType": "uint256",
          "name": "_quantity",
          "type": "uint256"
        },
        {
          "internalType": "bytes",
          "name": "_data",
          "type": "bytes"
        }
      ],
      "name": "mint",
      "outputs": [],
      "stateMutability": "nonpayable",
      "type": "function"
    },
    {
      "inputs": [
        {
          "internalType": "address",
          "name": "_to",
          "type": "address"
        },
        {
          "internalType": "uint256[]",
          "name": "_ids",
          "type": "uint256[]"
        },
        {
          "internalType": "uint256[]",
          "name": "_quantities",
          "type": "uint256[]"
        },
        {
          "internalType": "bytes",
          "name": "_data",
          "type": "bytes"
        }
      ],
      "name": "mintBatch",
      "outputs": [],
      "stateMutability": "nonpayable",
      "type": "function"
    },
    {
      "inputs": [],
      "name": "name",
      "outputs": [
        {
          "internalType": "string",
          "name": "",
          "type": "string"
        }
      ],
      "stateMutability": "view",
      "type": "function",
      "constant": true
    },
    {
      "inputs": [],
      "name": "owner",
      "outputs": [
        {
          "internalType": "address",
          "name": "",
          "type": "address"
        }
      ],
      "stateMutability": "view",
      "type": "function",
      "constant": true
    },
    {
      "inputs": [],
      "name": "renounceOwnership",
      "outputs": [],
      "stateMutability": "nonpayable",
      "type": "function"
    },
    {
      "inputs": [
        {
          "internalType": "bytes32",
          "name": "role",
          "type": "bytes32"
        },
        {
          "internalType": "address",
          "name": "account",
          "type": "address"
        }
      ],
      "name": "renounceRole",
      "outputs": [],
      "stateMutability": "nonpayable",
      "type": "function"
    },
    {
      "inputs": [
        {
          "internalType": "bytes32",
          "name": "_adminRole",
          "type": "bytes32"
        },
        {
          "internalType": "address",
          "name": "_address",
          "type": "address"
        }
      ],
      "name": "revokeAdmin",
      "outputs": [],
      "stateMutability": "nonpayable",
      "type": "function"
    },
    {
      "inputs": [
        {
          "internalType": "bytes32",
          "name": "role",
          "type": "bytes32"
        },
        {
          "internalType": "address",
          "name": "account",
          "type": "address"
        }
      ],
      "name": "revokeRole",
      "outputs": [],
      "stateMutability": "nonpayable",
      "type": "function"
    },
    {
      "inputs": [
        {
          "internalType": "address",
          "name": "from",
          "type": "address"
        },
        {
          "internalType": "address",
          "name": "to",
          "type": "address"
        },
        {
          "internalType": "uint256[]",
          "name": "ids",
          "type": "uint256[]"
        },
        {
          "internalType": "uint256[]",
          "name": "amounts",
          "type": "uint256[]"
        },
        {
          "internalType": "bytes",
          "name": "data",
          "type": "bytes"
        }
      ],
      "name": "safeBatchTransferFrom",
      "outputs": [],
      "stateMutability": "nonpayable",
      "type": "function"
    },
    {
      "inputs": [
        {
          "internalType": "address",
          "name": "from",
          "type": "address"
        },
        {
          "internalType": "address",
          "name": "to",
          "type": "address"
        },
        {
          "internalType": "uint256",
          "name": "id",
          "type": "uint256"
        },
        {
          "internalType": "uint256",
          "name": "amount",
          "type": "uint256"
        },
        {
          "internalType": "bytes",
          "name": "data",
          "type": "bytes"
        }
      ],
      "name": "safeTransferFrom",
      "outputs": [],
      "stateMutability": "nonpayable",
      "type": "function"
    },
    {
      "inputs": [],
      "name": "sceneCount",
      "outputs": [
        {
          "internalType": "uint256",
          "name": "",
          "type": "uint256"
        }
      ],
      "stateMutability": "view",
      "type": "function",
      "constant": true
    },
    {
      "inputs": [
        {
          "internalType": "address",
          "name": "operator",
          "type": "address"
        },
        {
          "internalType": "bool",
          "name": "approved",
          "type": "bool"
        }
      ],
      "name": "setApprovalForAll",
      "outputs": [],
      "stateMutability": "nonpayable",
      "type": "function"
    },
    {
      "inputs": [
        {
          "internalType": "address",
          "name": "_proxyRegistryAddress",
          "type": "address"
        }
      ],
      "name": "setProxyRegistryAddress",
      "outputs": [],
      "stateMutability": "nonpayable",
      "type": "function"
    },
    {
      "inputs": [
        {
          "internalType": "string",
          "name": "_newBaseMetadataURI",
          "type": "string"
        }
      ],
      "name": "setURI",
      "outputs": [],
      "stateMutability": "nonpayable",
      "type": "function"
    },
    {
      "inputs": [
        {
          "internalType": "bytes4",
          "name": "interfaceId",
          "type": "bytes4"
        }
      ],
      "name": "supportsInterface",
      "outputs": [
        {
          "internalType": "bool",
          "name": "",
          "type": "bool"
        }
      ],
      "stateMutability": "view",
      "type": "function",
      "constant": true
    },
    {
      "inputs": [],
      "name": "symbol",
      "outputs": [
        {
          "internalType": "string",
          "name": "",
          "type": "string"
        }
      ],
      "stateMutability": "view",
      "type": "function",
      "constant": true
    },
    {
      "inputs": [
        {
          "internalType": "uint256",
          "name": "",
          "type": "uint256"
        }
      ],
      "name": "totalSupply",
      "outputs": [
        {
          "internalType": "uint256",
          "name": "",
          "type": "uint256"
        }
      ],
      "stateMutability": "view",
      "type": "function",
      "constant": true
    },
    {
      "inputs": [
        {
          "internalType": "address",
          "name": "newOwner",
          "type": "address"
        }
      ],
      "name": "transferOwnership",
      "outputs": [],
      "stateMutability": "nonpayable",
      "type": "function"
    },
    {
      "inputs": [
        {
          "internalType": "uint256",
          "name": "",
          "type": "uint256"
        }
      ],
      "name": "uri",
      "outputs": [
        {
          "internalType": "string",
          "name": "",
          "type": "string"
        }
      ],
      "stateMutability": "view",
      "type": "function",
      "constant": true
    },
    {
      "inputs": [
        {
          "internalType": "uint256",
          "name": "numPuzzles",
          "type": "uint256"
        },
        {
          "internalType": "uint256",
          "name": "numTilesPerPuzzle",
          "type": "uint256"
        },
        {
          "internalType": "uint256",
          "name": "maxTilesForSale",
          "type": "uint256"
        }
      ],
      "name": "createScene",
      "outputs": [],
      "stateMutability": "nonpayable",
      "type": "function"
    },
    {
      "inputs": [
        {
          "internalType": "uint256",
          "name": "sceneId",
          "type": "uint256"
        }
      ],
      "name": "sceneExists",
      "outputs": [
        {
          "internalType": "bool",
          "name": "",
          "type": "bool"
        }
      ],
      "stateMutability": "view",
      "type": "function",
      "constant": true
    },
    {
      "inputs": [
        {
          "internalType": "uint256",
          "name": "sceneId",
          "type": "uint256"
        }
      ],
      "name": "sceneTilesLeft",
      "outputs": [
        {
          "internalType": "uint256",
          "name": "",
          "type": "uint256"
        }
      ],
      "stateMutability": "view",
      "type": "function",
      "constant": true
    },
    {
      "inputs": [
        {
          "internalType": "uint256",
          "name": "sceneId",
          "type": "uint256"
        }
      ],
      "name": "tokenRangeForScene",
      "outputs": [
        {
          "internalType": "uint256",
          "name": "",
          "type": "uint256"
        },
        {
          "internalType": "uint256",
          "name": "",
          "type": "uint256"
        },
        {
          "internalType": "uint256",
          "name": "",
          "type": "uint256"
        }
      ],
      "stateMutability": "view",
      "type": "function",
      "constant": true
    },
    {
      "inputs": [
        {
          "internalType": "uint256",
          "name": "sceneId",
          "type": "uint256"
        },
        {
          "internalType": "uint256",
          "name": "puzzleId",
          "type": "uint256"
        }
      ],
      "name": "redeemPuzzle",
      "outputs": [
        {
          "internalType": "uint256",
          "name": "",
          "type": "uint256"
        }
      ],
      "stateMutability": "nonpayable",
      "type": "function"
    },
    {
      "inputs": [],
      "name": "getClaimInfo",
      "outputs": [
        {
          "internalType": "uint256",
          "name": "",
          "type": "uint256"
        }
      ],
      "stateMutability": "view",
      "type": "function",
      "constant": true
    },
    {
      "inputs": [],
      "name": "claimReward",
      "outputs": [],
      "stateMutability": "nonpayable",
      "type": "function"
    },
    {
      "inputs": [
        {
          "internalType": "uint256",
          "name": "sceneId",
          "type": "uint256"
        },
        {
          "internalType": "uint256",
          "name": "puzzleId",
          "type": "uint256"
        }
      ],
      "name": "getPuzzleToken",
      "outputs": [
        {
          "internalType": "uint256",
          "name": "",
          "type": "uint256"
        }
      ],
      "stateMutability": "view",
      "type": "function",
      "constant": true
    }
  ],
  "bytecode": "0x608060405260006007553480156200001657600080fd5b506040516200652838038062006528833981810160405260608110156200003c57600080fd5b81019080805160405193929190846401000000008211156200005d57600080fd5b838201915060208201858111156200007457600080fd5b82518660018202830111640100000000821117156200009257600080fd5b8083526020830192505050908051906020019080838360005b83811015620000c8578082015181840152602081019050620000ab565b50505050905090810190601f168015620000f65780820380516001836020036101000a031916815260200191505b5060405260200180519060200190929190805190602001909291905050506040518060400160405280601281526020017f45746865725363617065732073686172647300000000000000000000000000008152506040518060400160405280600581526020017f53484152440000000000000000000000000000000000000000000000000000008152508484816000620001956200050760201b60201c565b905080600160006101000a81548173ffffffffffffffffffffffffffffffffffffffff021916908373ffffffffffffffffffffffffffffffffffffffff1602179055508073ffffffffffffffffffffffffffffffffffffffff16600073ffffffffffffffffffffffffffffffffffffffff167f8be0079c531659141344cd1fd0a4f28419497f9722a3daafe3b4186f6b6457e060405160405180910390a3506200024c6301ffc9a760e01b6200050f60201b60201c565b6200025d816200061960201b60201c565b6200027563d9b67a2660e01b6200050f60201b60201c565b6200028d630e89341c60e01b6200050f60201b60201c565b508360099080519060200190620002a692919062000825565b5082600a9080519060200190620002bf92919062000825565b5080600660006101000a81548173ffffffffffffffffffffffffffffffffffffffff021916908373ffffffffffffffffffffffffffffffffffffffff160217905550620003427f828634d95e775031b9ff576b159a8509d3053581a8c9c4d7d86899e0afcd882f620003366200050760201b60201c565b6200063560201b60201c565b620003837f9f2df0fed2c77648de5860a4cc508cd0818c85b8b8a1ab4ceeef8d981c8956a6620003776200050760201b60201c565b6200063560201b60201c565b620003d57f828634d95e775031b9ff576b159a8509d3053581a8c9c4d7d86899e0afcd882f7f5721171b1e9186284262a02aac3a681e12de7388ebccd0c2d06623651b6af6f86200064b60201b60201c565b620004277f9f2df0fed2c77648de5860a4cc508cd0818c85b8b8a1ab4ceeef8d981c8956a67f70480ee89cb38eff00b7d23da25713d52ce19c6ed428691d22c58b2f615e3d676200064b60201b60201c565b620004687f5721171b1e9186284262a02aac3a681e12de7388ebccd0c2d06623651b6af6f86200045c6200050760201b60201c565b6200063560201b60201c565b620004a97f70480ee89cb38eff00b7d23da25713d52ce19c6ed428691d22c58b2f615e3d676200049d6200050760201b60201c565b6200063560201b60201c565b5050505060016007819055506000600e8190555080600d60006101000a81548173ffffffffffffffffffffffffffffffffffffffff021916908373ffffffffffffffffffffffffffffffffffffffff160217905550505050620008cb565b600033905090565b63ffffffff60e01b817bffffffffffffffffffffffffffffffffffffffffffffffffffffffff19161415620005ac576040517f08c379a000000000000000000000000000000000000000000000000000000000815260040180806020018281038252601c8152602001807f4552433136353a20696e76616c696420696e746572666163652069640000000081525060200191505060405180910390fd5b600160026000837bffffffffffffffffffffffffffffffffffffffffffffffffffffffff19167bffffffffffffffffffffffffffffffffffffffffffffffffffffffff1916815260200190815260200160002060006101000a81548160ff02191690831515021790555050565b80600590805190602001906200063192919062000825565b5050565b620006478282620006ad60201b60201c565b5050565b8060008084815260200190815260200160002060020154837fbd79b86ffe0ab8e8776151514217cd7cacd52c909f66475c3af44e129f0b00ff60405160405180910390a480600080848152602001908152602001600020600201819055505050565b620006db816000808581526020019081526020016000206000016200075060201b62003a2e1790919060201c565b156200074c57620006f16200050760201b60201c565b73ffffffffffffffffffffffffffffffffffffffff168173ffffffffffffffffffffffffffffffffffffffff16837f2f8788117e7eff1d82e926ec794901d17c78024a50270940304540a733656f0d60405160405180910390a45b5050565b600062000780836000018373ffffffffffffffffffffffffffffffffffffffff1660001b6200078860201b60201c565b905092915050565b60006200079c83836200080260201b60201c565b620007f7578260000182908060018154018082558091505060019003906000526020600020016000909190919091505582600001805490508360010160008481526020019081526020016000208190555060019050620007fc565b600090505b92915050565b600080836001016000848152602001908152602001600020541415905092915050565b828054600181600116156101000203166002900490600052602060002090601f016020900481019282601f106200086857805160ff191683800117855562000899565b8280016001018555821562000899579182015b82811115620008985782518255916020019190600101906200087b565b5b509050620008a89190620008ac565b5090565b5b80821115620008c7576000816000905550600101620008ad565b5090565b615c4d80620008db6000396000f3fe608060405234801561001057600080fd5b50600436106102685760003560e01c8063715018a611610151578063a217fddf116100c3578063d26ea6c011610087578063d26ea6c014611286578063d5391393146112ca578063d547741f146112e8578063e985e9c514611336578063f242432a146113b0578063f2fde38b146114bf57610268565b8063a217fddf1461118a578063a22cb465146111a8578063b88a802f146111f8578063bd85b03914611202578063ca15c8731461124457610268565b80638da5cb5b116101155780638da5cb5b14610f875780639010d07c14610fbb57806391d02c431461101d57806391d148541461105f57806395d89b41146110c3578063992d09b61461114657610268565b8063715018a614610e02578063731133e914610e0c57806380e6548e14610efb5780638518241614610f4b5780638aeda25a14610f6957610268565b80632eb2c2d6116101ea5780634df6e605116101ae5780634df6e60514610b0d5780634e1273f414610b5b57806350d2fe4114610cfc5780635a570c0c14610d3e5780635df7d82f14610d5c5780636ca556e614610daa57610268565b80632eb2c2d6146107b65780632f2ff15d146109d957806336568abe14610a275780634623d80f14610a755780634c83eaa014610ac157610268565b80630e89341c116102315780630e89341c1461048e5780631339324b14610535578063197702da146105535780631f7fdffa14610571578063248a9ca31461077457610268565b8062fdd58e1461026d57806301ffc9a7146102cf57806302fe530514610332578063052b9da7146103ed57806306fdde031461040b575b600080fd5b6102b96004803603604081101561028357600080fd5b81019080803573ffffffffffffffffffffffffffffffffffffffff16906020019092919080359060200190929190505050611503565b6040518082815260200191505060405180910390f35b61031a600480360360208110156102e557600080fd5b8101908080357bffffffffffffffffffffffffffffffffffffffffffffffffffffffff191690602001909291905050506115e3565b60405180821515815260200191505060405180910390f35b6103eb6004803603602081101561034857600080fd5b810190808035906020019064010000000081111561036557600080fd5b82018360208201111561037757600080fd5b8035906020019184600183028401116401000000008311171561039957600080fd5b91908080601f016020809104026020016040519081016040528093929190818152602001838380828437600081840152601f19601f82011690508083019250505050505050919291929050505061164b565b005b6103f5611706565b6040518082815260200191505060405180910390f35b61041361170c565b6040518080602001828103825283818151815260200191508051906020019080838360005b83811015610453578082015181840152602081019050610438565b50505050905090810190601f1680156104805780820380516001836020036101000a031916815260200191505b509250505060405180910390f35b6104ba600480360360208110156104a457600080fd5b81019080803590602001909291905050506117aa565b6040518080602001828103825283818151815260200191508051906020019080838360005b838110156104fa5780820151818401526020810190506104df565b50505050905090810190601f1680156105275780820380516001836020036101000a031916815260200191505b509250505060405180910390f35b61053d61184e565b6040518082815260200191505060405180910390f35b61055b611872565b6040518082815260200191505060405180910390f35b6107726004803603608081101561058757600080fd5b81019080803573ffffffffffffffffffffffffffffffffffffffff169060200190929190803590602001906401000000008111156105c457600080fd5b8201836020820111156105d657600080fd5b803590602001918460208302840111640100000000831117156105f857600080fd5b919080806020026020016040519081016040528093929190818152602001838360200280828437600081840152601f19601f8201169050808301925050505050505091929192908035906020019064010000000081111561065857600080fd5b82018360208201111561066a57600080fd5b8035906020019184602083028401116401000000008311171561068c57600080fd5b919080806020026020016040519081016040528093929190818152602001838360200280828437600081840152601f19601f820116905080830192505050505050509192919290803590602001906401000000008111156106ec57600080fd5b8201836020820111156106fe57600080fd5b8035906020019184600183028401116401000000008311171561072057600080fd5b91908080601f016020809104026020016040519081016040528093929190818152602001838380828437600081840152601f19601f820116905080830192505050505050509192919290505050611896565b005b6107a06004803603602081101561078a57600080fd5b81019080803590602001909291905050506119db565b6040518082815260200191505060405180910390f35b6109d7600480360360a08110156107cc57600080fd5b81019080803573ffffffffffffffffffffffffffffffffffffffff169060200190929190803573ffffffffffffffffffffffffffffffffffffffff1690602001909291908035906020019064010000000081111561082957600080fd5b82018360208201111561083b57600080fd5b8035906020019184602083028401116401000000008311171561085d57600080fd5b919080806020026020016040519081016040528093929190818152602001838360200280828437600081840152601f19601f820116905080830192505050505050509192919290803590602001906401000000008111156108bd57600080fd5b8201836020820111156108cf57600080fd5b803590602001918460208302840111640100000000831117156108f157600080fd5b919080806020026020016040519081016040528093929190818152602001838360200280828437600081840152601f19601f8201169050808301925050505050505091929192908035906020019064010000000081111561095157600080fd5b82018360208201111561096357600080fd5b8035906020019184600183028401116401000000008311171561098557600080fd5b91908080601f016020809104026020016040519081016040528093929190818152602001838380828437600081840152601f19601f8201169050808301925050505050505091929192905050506119fa565b005b610a25600480360360408110156109ef57600080fd5b8101908080359060200190929190803573ffffffffffffffffffffffffffffffffffffffff169060200190929190505050611e85565b005b610a7360048036036040811015610a3d57600080fd5b8101908080359060200190929190803573ffffffffffffffffffffffffffffffffffffffff169060200190929190505050611f0e565b005b610aab60048036036040811015610a8b57600080fd5b810190808035906020019092919080359060200190929190505050611fa7565b6040518082815260200191505060405180910390f35b610af760048036036040811015610ad757600080fd5b8101908080359060200190929190803590602001909291905050506120e9565b6040518082815260200191505060405180910390f35b610b5960048036036040811015610b2357600080fd5b8101908080359060200190929190803573ffffffffffffffffffffffffffffffffffffffff169060200190929190505050612201565b005b610ca560048036036040811015610b7157600080fd5b8101908080359060200190640100000000811115610b8e57600080fd5b820183602082011115610ba057600080fd5b80359060200191846020830284011164010000000083111715610bc257600080fd5b919080806020026020016040519081016040528093929190818152602001838360200280828437600081840152601f19601f82011690508083019250505050505050919291929080359060200190640100000000811115610c2257600080fd5b820183602082011115610c3457600080fd5b80359060200191846020830284011164010000000083111715610c5657600080fd5b919080806020026020016040519081016040528093929190818152602001838360200280828437600081840152601f19601f820116905080830192505050505050509192919290505050612340565b6040518080602001828103825283818151815260200191508051906020019060200280838360005b83811015610ce8578082015181840152602081019050610ccd565b505050509050019250505060405180910390f35b610d2860048036036020811015610d1257600080fd5b8101908080359060200190929190505050612532565b6040518082815260200191505060405180910390f35b610d46612552565b6040518082815260200191505060405180910390f35b610da860048036036040811015610d7257600080fd5b8101908080359060200190929190803573ffffffffffffffffffffffffffffffffffffffff169060200190929190505050612558565b005b610dec60048036036020811015610dc057600080fd5b81019080803573ffffffffffffffffffffffffffffffffffffffff169060200190929190505050612697565b6040518082815260200191505060405180910390f35b610e0a6126af565b005b610ef960048036036080811015610e2257600080fd5b81019080803573ffffffffffffffffffffffffffffffffffffffff169060200190929190803590602001909291908035906020019092919080359060200190640100000000811115610e7357600080fd5b820183602082011115610e8557600080fd5b80359060200191846001830284011164010000000083111715610ea757600080fd5b91908080601f016020809104026020016040519081016040528093929190818152602001838380828437600081840152601f19601f82011690508083019250505050505050919291929050505061281f565b005b610f2760048036036020811015610f1157600080fd5b8101908080359060200190929190505050612989565b60405180848152602001838152602001828152602001935050505060405180910390f35b610f536129e0565b6040518082815260200191505060405180910390f35b610f71612adc565b6040518082815260200191505060405180910390f35b610f8f612b00565b604051808273ffffffffffffffffffffffffffffffffffffffff16815260200191505060405180910390f35b610ff160048036036040811015610fd157600080fd5b810190808035906020019092919080359060200190929190505050612b2a565b604051808273ffffffffffffffffffffffffffffffffffffffff16815260200191505060405180910390f35b61105d6004803603606081101561103357600080fd5b81019080803590602001909291908035906020019092919080359060200190929190505050612b5b565b005b6110ab6004803603604081101561107557600080fd5b8101908080359060200190929190803573ffffffffffffffffffffffffffffffffffffffff169060200190929190505050612d59565b60405180821515815260200191505060405180910390f35b6110cb612d8a565b6040518080602001828103825283818151815260200191508051906020019080838360005b8381101561110b5780820151818401526020810190506110f0565b50505050905090810190601f1680156111385780820380516001836020036101000a031916815260200191505b509250505060405180910390f35b6111726004803603602081101561115c57600080fd5b8101908080359060200190929190505050612e28565b60405180821515815260200191505060405180910390f35b611192612e5c565b6040518082815260200191505060405180910390f35b6111f6600480360360408110156111be57600080fd5b81019080803573ffffffffffffffffffffffffffffffffffffffff169060200190929190803515159060200190929190505050612e63565b005b611200612ffc565b005b61122e6004803603602081101561121857600080fd5b8101908080359060200190929190505050613174565b6040518082815260200191505060405180910390f35b6112706004803603602081101561125a57600080fd5b810190808035906020019092919050505061318c565b6040518082815260200191505060405180910390f35b6112c86004803603602081101561129c57600080fd5b81019080803573ffffffffffffffffffffffffffffffffffffffff1690602001909291905050506131b2565b005b6112d26132a5565b6040518082815260200191505060405180910390f35b611334600480360360408110156112fe57600080fd5b8101908080359060200190929190803573ffffffffffffffffffffffffffffffffffffffff1690602001909291905050506132c9565b005b6113986004803603604081101561134c57600080fd5b81019080803573ffffffffffffffffffffffffffffffffffffffff169060200190929190803573ffffffffffffffffffffffffffffffffffffffff169060200190929190505050613352565b60405180821515815260200191505060405180910390f35b6114bd600480360360a08110156113c657600080fd5b81019080803573ffffffffffffffffffffffffffffffffffffffff169060200190929190803573ffffffffffffffffffffffffffffffffffffffff16906020019092919080359060200190929190803590602001909291908035906020019064010000000081111561143757600080fd5b82018360208201111561144957600080fd5b8035906020019184600183028401116401000000008311171561146b57600080fd5b91908080601f016020809104026020016040519081016040528093929190818152602001838380828437600081840152601f19601f8201169050808301925050505050505091929192905050506134c4565b005b611501600480360360208110156114d557600080fd5b81019080803573ffffffffffffffffffffffffffffffffffffffff169060200190929190505050613839565b005b60008073ffffffffffffffffffffffffffffffffffffffff168373ffffffffffffffffffffffffffffffffffffffff16141561158a576040517f08c379a000000000000000000000000000000000000000000000000000000000815260040180806020018281038252602b81526020018061598a602b913960400191505060405180910390fd5b6003600083815260200190815260200160002060008473ffffffffffffffffffffffffffffffffffffffff1673ffffffffffffffffffffffffffffffffffffffff16815260200190815260200160002054905092915050565b600060026000837bffffffffffffffffffffffffffffffffffffffffffffffffffffffff19167bffffffffffffffffffffffffffffffffffffffffffffffffffffffff1916815260200190815260200160002060009054906101000a900460ff169050919050565b611653613a5e565b73ffffffffffffffffffffffffffffffffffffffff16611671612b00565b73ffffffffffffffffffffffffffffffffffffffff16146116fa576040517f08c379a00000000000000000000000000000000000000000000000000000000081526004018080602001828103825260208152602001807f4f776e61626c653a2063616c6c6572206973206e6f7420746865206f776e657281525060200191505060405180910390fd5b61170381613a66565b50565b600e5481565b60098054600181600116156101000203166002900480601f0160208091040260200160405190810160405280929190818152602001828054600181600116156101000203166002900480156117a25780601f10611777576101008083540402835291602001916117a2565b820191906000526020600020905b81548152906001019060200180831161178557829003601f168201915b505050505081565b606060058054600181600116156101000203166002900480601f0160208091040260200160405190810160405280929190818152602001828054600181600116156101000203166002900480156118425780601f1061181757610100808354040283529160200191611842565b820191906000526020600020905b81548152906001019060200180831161182557829003601f168201915b50505050509050919050565b7f70480ee89cb38eff00b7d23da25713d52ce19c6ed428691d22c58b2f615e3d6781565b7f5721171b1e9186284262a02aac3a681e12de7388ebccd0c2d06623651b6af6f881565b6118c77f9f2df0fed2c77648de5860a4cc508cd0818c85b8b8a1ab4ceeef8d981c8956a66118c2613a5e565b612d59565b611939576040517f08c379a00000000000000000000000000000000000000000000000000000000081526004018080602001828103825260148152602001807f43616c6c6572206973206e6f74206d696e74657200000000000000000000000081525060200191505060405180910390fd5b60005b83518110156119c85761199183828151811061195457fe5b60200260200101516008600087858151811061196c57fe5b6020026020010151815260200190815260200160002054613a8090919063ffffffff16565b600860008684815181106119a157fe5b6020026020010151815260200190815260200160002081905550808060010191505061193c565b506119d584848484613b08565b50505050565b6000806000838152602001908152602001600020600201549050919050565b8151835114611a54576040517f08c379a0000000000000000000000000000000000000000000000000000000008152600401808060200182810382526028815260200180615ba06028913960400191505060405180910390fd5b600073ffffffffffffffffffffffffffffffffffffffff168473ffffffffffffffffffffffffffffffffffffffff161415611ada576040517f08c379a0000000000000000000000000000000000000000000000000000000008152600401808060200182810382526025815260200180615a896025913960400191505060405180910390fd5b611ae2613a5e565b73ffffffffffffffffffffffffffffffffffffffff168573ffffffffffffffffffffffffffffffffffffffff161480611b285750611b2785611b22613a5e565b613352565b5b611b7d576040517f08c379a0000000000000000000000000000000000000000000000000000000008152600401808060200182810382526032815260200180615aae6032913960400191505060405180910390fd5b6000611b87613a5e565b9050611b97818787878787613e2a565b60005b8451811015611d68576000858281518110611bb157fe5b602002602001015190506000858381518110611bc957fe5b60200260200101519050611c50816040518060600160405280602a8152602001615b03602a91396003600086815260200190815260200160002060008d73ffffffffffffffffffffffffffffffffffffffff1673ffffffffffffffffffffffffffffffffffffffff1681526020019081526020016000205461420c9092919063ffffffff16565b6003600084815260200190815260200160002060008b73ffffffffffffffffffffffffffffffffffffffff1673ffffffffffffffffffffffffffffffffffffffff16815260200190815260200160002081905550611d07816003600085815260200190815260200160002060008b73ffffffffffffffffffffffffffffffffffffffff1673ffffffffffffffffffffffffffffffffffffffff16815260200190815260200160002054613a8090919063ffffffff16565b6003600084815260200190815260200160002060008a73ffffffffffffffffffffffffffffffffffffffff1673ffffffffffffffffffffffffffffffffffffffff168152602001908152602001600020819055505050806001019050611b9a565b508473ffffffffffffffffffffffffffffffffffffffff168673ffffffffffffffffffffffffffffffffffffffff168273ffffffffffffffffffffffffffffffffffffffff167f4a39dc06d4c0dbc64b70af90fd698a233a518aa5d07e595d983b8c0526c8f7fb8787604051808060200180602001838103835285818151815260200191508051906020019060200280838360005b83811015611e18578082015181840152602081019050611dfd565b50505050905001838103825284818151815260200191508051906020019060200280838360005b83811015611e5a578082015181840152602081019050611e3f565b5050505090500194505050505060405180910390a4611e7d8187878787876142c6565b505050505050565b611eab60008084815260200190815260200160002060020154611ea6613a5e565b612d59565b611f00576040517f08c379a000000000000000000000000000000000000000000000000000000000815260040180806020018281038252602f81526020018061595b602f913960400191505060405180910390fd5b611f0a8282614655565b5050565b611f16613a5e565b73ffffffffffffffffffffffffffffffffffffffff168173ffffffffffffffffffffffffffffffffffffffff1614611f99576040517f08c379a000000000000000000000000000000000000000000000000000000000815260040180806020018281038252602f815260200180615be9602f913960400191505060405180910390fd5b611fa382826146e8565b5050565b600060011515600f600085815260200190815260200160002060000160009054906101000a900460ff16151514612046576040517f08c379a00000000000000000000000000000000000000000000000000000000081526004018080602001828103825260148152602001807f7363656e6520646f6573206e6f7420657869737400000000000000000000000081525060200191505060405180910390fd5b81600f6000858152602001908152602001600020600101541161206857600080fd5b6120e16120aa600f600086815260200190815260200160002060010154600f60008781526020019081526020016000206002015461477b90919063ffffffff16565b6120d384600f600088815260200190815260200160002060030154613a8090919063ffffffff16565b613a8090919063ffffffff16565b905092915050565b6000806120f68484611fa7565b9050600061210685856000614801565b90506000600f600087815260200190815260200160002060020154905060005b8181101561219d5760006121438285613a8090919063ffffffff16565b905061216c6001600860008481526020019081526020016000205461495090919063ffffffff16565b600860008381526020019081526020016000208190555061218f338260016149d3565b508080600101915050612126565b506121c560016008600086815260200190815260200160002054613a8090919063ffffffff16565b60086000858152602001908152602001600020819055506121f83384600160405180602001604052806000815250614bef565b50505092915050565b7f5721171b1e9186284262a02aac3a681e12de7388ebccd0c2d06623651b6af6f88214801561225d575061225c7f5721171b1e9186284262a02aac3a681e12de7388ebccd0c2d06623651b6af6f8612257613a5e565b612d59565b5b806122c057507f70480ee89cb38eff00b7d23da25713d52ce19c6ed428691d22c58b2f615e3d67821480156122bf57506122be7f70480ee89cb38eff00b7d23da25713d52ce19c6ed428691d22c58b2f615e3d676122b9613a5e565b612d59565b5b5b612332576040517f08c379a000000000000000000000000000000000000000000000000000000000815260040180806020018281038252600c8152602001807f4e6f7420616e2061646d696e000000000000000000000000000000000000000081525060200191505060405180910390fd5b61233c8282614655565b5050565b6060815183511461239c576040517f08c379a0000000000000000000000000000000000000000000000000000000008152600401808060200182810382526029815260200180615b776029913960400191505060405180910390fd5b6060835167ffffffffffffffff811180156123b657600080fd5b506040519080825280602002602001820160405280156123e55781602001602082028036833780820191505090505b50905060005b845181101561252757600073ffffffffffffffffffffffffffffffffffffffff1685828151811061241857fe5b602002602001015173ffffffffffffffffffffffffffffffffffffffff16141561248d576040517f08c379a00000000000000000000000000000000000000000000000000000000081526004018080602001828103825260318152602001806159b56031913960400191505060405180910390fd5b6003600085838151811061249d57fe5b6020026020010151815260200190815260200160002060008683815181106124c157fe5b602002602001015173ffffffffffffffffffffffffffffffffffffffff1673ffffffffffffffffffffffffffffffffffffffff1681526020019081526020016000205482828151811061251057fe5b6020026020010181815250508060010190506123eb565b508091505092915050565b6000600f6000838152602001908152602001600020600501549050919050565b60075481565b7f5721171b1e9186284262a02aac3a681e12de7388ebccd0c2d06623651b6af6f8821480156125b457506125b37f5721171b1e9186284262a02aac3a681e12de7388ebccd0c2d06623651b6af6f86125ae613a5e565b612d59565b5b8061261757507f70480ee89cb38eff00b7d23da25713d52ce19c6ed428691d22c58b2f615e3d678214801561261657506126157f70480ee89cb38eff00b7d23da25713d52ce19c6ed428691d22c58b2f615e3d67612610613a5e565b612d59565b5b5b612689576040517f08c379a000000000000000000000000000000000000000000000000000000000815260040180806020018281038252600c8152602001807f4e6f7420616e2061646d696e000000000000000000000000000000000000000081525060200191505060405180910390fd5b61269382826146e8565b5050565b600c6020528060005260406000206000915090505481565b6126b7613a5e565b73ffffffffffffffffffffffffffffffffffffffff166126d5612b00565b73ffffffffffffffffffffffffffffffffffffffff161461275e576040517f08c379a00000000000000000000000000000000000000000000000000000000081526004018080602001828103825260208152602001807f4f776e61626c653a2063616c6c6572206973206e6f7420746865206f776e657281525060200191505060405180910390fd5b600073ffffffffffffffffffffffffffffffffffffffff16600160009054906101000a900473ffffffffffffffffffffffffffffffffffffffff1673ffffffffffffffffffffffffffffffffffffffff167f8be0079c531659141344cd1fd0a4f28419497f9722a3daafe3b4186f6b6457e060405160405180910390a36000600160006101000a81548173ffffffffffffffffffffffffffffffffffffffff021916908373ffffffffffffffffffffffffffffffffffffffff160217905550565b6128507f9f2df0fed2c77648de5860a4cc508cd0818c85b8b8a1ab4ceeef8d981c8956a661284b613a5e565b612d59565b6128c2576040517f08c379a00000000000000000000000000000000000000000000000000000000081526004018080602001828103825260148152602001807f43616c6c6572206973206e6f74206d696e74657200000000000000000000000081525060200191505060405180910390fd5b60075483111561293a576040517f08c379a000000000000000000000000000000000000000000000000000000000815260040180806020018281038252600c8152602001807f546f6b656e20494420444e45000000000000000000000000000000000000000081525060200191505060405180910390fd5b612960826008600086815260200190815260200160002054613a8090919063ffffffff16565b600860008581526020019081526020016000208190555061298384848484614bef565b50505050565b6000806000600f600085815260200190815260200160002060030154600f600086815260200190815260200160002060020154600f6000878152602001908152602001600020600101549250925092509193909250565b6000806000905060005b600c60003373ffffffffffffffffffffffffffffffffffffffff1673ffffffffffffffffffffffffffffffffffffffff16815260200190815260200160002054811015612ad4576000612aaf62015180612aa1600b60003373ffffffffffffffffffffffffffffffffffffffff1673ffffffffffffffffffffffffffffffffffffffff1681526020019081526020016000208581548110612a8757fe5b90600052602060002001544261495090919063ffffffff16565b614df290919063ffffffff16565b9050612ac48184613a8090919063ffffffff16565b92505080806001019150506129ea565b508091505090565b7f828634d95e775031b9ff576b159a8509d3053581a8c9c4d7d86899e0afcd882f81565b6000600160009054906101000a900473ffffffffffffffffffffffffffffffffffffffff16905090565b6000612b5382600080868152602001908152602001600020600001614e7b90919063ffffffff16565b905092915050565b612b8c7f828634d95e775031b9ff576b159a8509d3053581a8c9c4d7d86899e0afcd882f612b87613a5e565b612d59565b612bfe576040517f08c379a000000000000000000000000000000000000000000000000000000000815260040180806020018281038252600d8152602001807f6e6f7420612063726561746f720000000000000000000000000000000000000081525060200191505060405180910390fd5b600083118015612c0e5750600082115b612c80576040517f08c379a00000000000000000000000000000000000000000000000000000000081526004018080602001828103825260088152602001807f6261642064696d7300000000000000000000000000000000000000000000000081525060200191505060405180910390fd5b612c966001600e54613a8090919063ffffffff16565b600e819055506000600e549050600060075490506000612cd286612cc4600188613a8090919063ffffffff16565b61477b90919063ffffffff16565b9050612ce981600754613a8090919063ffffffff16565b6007819055506000600f6000858152602001908152602001600020905060018160000160006101000a81548160ff02191690831515021790555086816001018190555085816002018190555082816003018190555084816005018190555084816004018190555050505050505050565b6000612d8282600080868152602001908152602001600020600001614e9590919063ffffffff16565b905092915050565b600a8054600181600116156101000203166002900480601f016020809104026020016040519081016040528092919081815260200182805460018160011615610100020316600290048015612e205780601f10612df557610100808354040283529160200191612e20565b820191906000526020600020905b815481529060010190602001808311612e0357829003601f168201915b505050505081565b600060011515600f600084815260200190815260200160002060000160009054906101000a900460ff161515149050919050565b6000801b81565b8173ffffffffffffffffffffffffffffffffffffffff16612e82613a5e565b73ffffffffffffffffffffffffffffffffffffffff161415612eef576040517f08c379a0000000000000000000000000000000000000000000000000000000008152600401808060200182810382526029815260200180615b4e6029913960400191505060405180910390fd5b8060046000612efc613a5e565b73ffffffffffffffffffffffffffffffffffffffff1673ffffffffffffffffffffffffffffffffffffffff16815260200190815260200160002060008473ffffffffffffffffffffffffffffffffffffffff1673ffffffffffffffffffffffffffffffffffffffff16815260200190815260200160002060006101000a81548160ff0219169083151502179055508173ffffffffffffffffffffffffffffffffffffffff16612fa9613a5e565b73ffffffffffffffffffffffffffffffffffffffff167f17307eab39ab6107e8899845ad3d59bd9653f200f220920489ca2b5937696c318360405180821515815260200191505060405180910390a35050565b60006130066129e0565b90506000811161301557600080fd5b60005b600c60003373ffffffffffffffffffffffffffffffffffffffff1673ffffffffffffffffffffffffffffffffffffffff168152602001908152602001600020548110156130c55742600b60003373ffffffffffffffffffffffffffffffffffffffff1673ffffffffffffffffffffffffffffffffffffffff16815260200190815260200160002082815481106130aa57fe5b90600052602060002001819055508080600101915050613018565b50600d60009054906101000a900473ffffffffffffffffffffffffffffffffffffffff1673ffffffffffffffffffffffffffffffffffffffff16631662b2f933836040518363ffffffff1660e01b8152600401808373ffffffffffffffffffffffffffffffffffffffff16815260200182815260200192505050600060405180830381600087803b15801561315957600080fd5b505af115801561316d573d6000803e3d6000fd5b5050505050565b60086020528060005260406000206000915090505481565b60006131ab600080848152602001908152602001600020600001614ec5565b9050919050565b6131ba613a5e565b73ffffffffffffffffffffffffffffffffffffffff166131d8612b00565b73ffffffffffffffffffffffffffffffffffffffff1614613261576040517f08c379a00000000000000000000000000000000000000000000000000000000081526004018080602001828103825260208152602001807f4f776e61626c653a2063616c6c6572206973206e6f7420746865206f776e657281525060200191505060405180910390fd5b80600660006101000a81548173ffffffffffffffffffffffffffffffffffffffff021916908373ffffffffffffffffffffffffffffffffffffffff16021790555050565b7f9f2df0fed2c77648de5860a4cc508cd0818c85b8b8a1ab4ceeef8d981c8956a681565b6132ef600080848152602001908152602001600020600201546132ea613a5e565b612d59565b613344576040517f08c379a0000000000000000000000000000000000000000000000000000000008152600401808060200182810382526030815260200180615a596030913960400191505060405180910390fd5b61334e82826146e8565b5050565b60008073ffffffffffffffffffffffffffffffffffffffff16600660009054906101000a900473ffffffffffffffffffffffffffffffffffffffff1673ffffffffffffffffffffffffffffffffffffffff16146134b1576000600660009054906101000a900473ffffffffffffffffffffffffffffffffffffffff1690508273ffffffffffffffffffffffffffffffffffffffff168173ffffffffffffffffffffffffffffffffffffffff1663c4552791866040518263ffffffff1660e01b8152600401808273ffffffffffffffffffffffffffffffffffffffff16815260200191505060206040518083038186803b15801561344e57600080fd5b505afa158015613462573d6000803e3d6000fd5b505050506040513d602081101561347857600080fd5b810190808051906020019092919050505073ffffffffffffffffffffffffffffffffffffffff1614156134af5760019150506134be565b505b6134bb8383614eda565b90505b92915050565b600073ffffffffffffffffffffffffffffffffffffffff168473ffffffffffffffffffffffffffffffffffffffff16141561354a576040517f08c379a0000000000000000000000000000000000000000000000000000000008152600401808060200182810382526025815260200180615a896025913960400191505060405180910390fd5b613552613a5e565b73ffffffffffffffffffffffffffffffffffffffff168573ffffffffffffffffffffffffffffffffffffffff161480613598575061359785613592613a5e565b613352565b5b6135ed576040517f08c379a0000000000000000000000000000000000000000000000000000000008152600401808060200182810382526029815260200180615a306029913960400191505060405180910390fd5b60006135f7613a5e565b905061361781878761360888614f6e565b61361188614f6e565b87613e2a565b613694836040518060600160405280602a8152602001615b03602a91396003600088815260200190815260200160002060008a73ffffffffffffffffffffffffffffffffffffffff1673ffffffffffffffffffffffffffffffffffffffff1681526020019081526020016000205461420c9092919063ffffffff16565b6003600086815260200190815260200160002060008873ffffffffffffffffffffffffffffffffffffffff1673ffffffffffffffffffffffffffffffffffffffff1681526020019081526020016000208190555061374b836003600087815260200190815260200160002060008873ffffffffffffffffffffffffffffffffffffffff1673ffffffffffffffffffffffffffffffffffffffff16815260200190815260200160002054613a8090919063ffffffff16565b6003600086815260200190815260200160002060008773ffffffffffffffffffffffffffffffffffffffff1673ffffffffffffffffffffffffffffffffffffffff168152602001908152602001600020819055508473ffffffffffffffffffffffffffffffffffffffff168673ffffffffffffffffffffffffffffffffffffffff168273ffffffffffffffffffffffffffffffffffffffff167fc3d58168c5ae7397731d063d5bbf3d657854427343f4c083240f7aacaa2d0f628787604051808381526020018281526020019250505060405180910390a4613831818787878787614fde565b505050505050565b613841613a5e565b73ffffffffffffffffffffffffffffffffffffffff1661385f612b00565b73ffffffffffffffffffffffffffffffffffffffff16146138e8576040517f08c379a00000000000000000000000000000000000000000000000000000000081526004018080602001828103825260208152602001807f4f776e61626c653a2063616c6c6572206973206e6f7420746865206f776e657281525060200191505060405180910390fd5b600073ffffffffffffffffffffffffffffffffffffffff168173ffffffffffffffffffffffffffffffffffffffff16141561396e576040517f08c379a00000000000000000000000000000000000000000000000000000000081526004018080602001828103825260268152602001806159e66026913960400191505060405180910390fd5b8073ffffffffffffffffffffffffffffffffffffffff16600160009054906101000a900473ffffffffffffffffffffffffffffffffffffffff1673ffffffffffffffffffffffffffffffffffffffff167f8be0079c531659141344cd1fd0a4f28419497f9722a3daafe3b4186f6b6457e060405160405180910390a380600160006101000a81548173ffffffffffffffffffffffffffffffffffffffff021916908373ffffffffffffffffffffffffffffffffffffffff16021790555050565b6000613a56836000018373ffffffffffffffffffffffffffffffffffffffff1660001b6152eb565b905092915050565b600033905090565b8060059080519060200190613a7c92919061576b565b5050565b600080828401905083811015613afe576040517f08c379a000000000000000000000000000000000000000000000000000000000815260040180806020018281038252601b8152602001807f536166654d6174683a206164646974696f6e206f766572666c6f77000000000081525060200191505060405180910390fd5b8091505092915050565b600073ffffffffffffffffffffffffffffffffffffffff168473ffffffffffffffffffffffffffffffffffffffff161415613b8e576040517f08c379a0000000000000000000000000000000000000000000000000000000008152600401808060200182810382526021815260200180615bc86021913960400191505060405180910390fd5b8151835114613be8576040517f08c379a0000000000000000000000000000000000000000000000000000000008152600401808060200182810382526028815260200180615ba06028913960400191505060405180910390fd5b6000613bf2613a5e565b9050613c0381600087878787613e2a565b60005b8451811015613d0c57613c9860036000878481518110613c2257fe5b6020026020010151815260200190815260200160002060008873ffffffffffffffffffffffffffffffffffffffff1673ffffffffffffffffffffffffffffffffffffffff16815260200190815260200160002054858381518110613c8257fe5b6020026020010151613a8090919063ffffffff16565b60036000878481518110613ca857fe5b6020026020010151815260200190815260200160002060008873ffffffffffffffffffffffffffffffffffffffff1673ffffffffffffffffffffffffffffffffffffffff168152602001908152602001600020819055508080600101915050613c06565b508473ffffffffffffffffffffffffffffffffffffffff16600073ffffffffffffffffffffffffffffffffffffffff168273ffffffffffffffffffffffffffffffffffffffff167f4a39dc06d4c0dbc64b70af90fd698a233a518aa5d07e595d983b8c0526c8f7fb8787604051808060200180602001838103835285818151815260200191508051906020019060200280838360005b83811015613dbd578082015181840152602081019050613da2565b50505050905001838103825284818151815260200191508051906020019060200280838360005b83811015613dff578082015181840152602081019050613de4565b5050505090500194505050505060405180910390a4613e23816000878787876142c6565b5050505050565b60005b835181101561420357613e52848281518110613e4557fe5b602002602001015161535b565b1561414857600073ffffffffffffffffffffffffffffffffffffffff168573ffffffffffffffffffffffffffffffffffffffff1614614066576000600c60008773ffffffffffffffffffffffffffffffffffffffff1673ffffffffffffffffffffffffffffffffffffffff16815260200190815260200160002054905060005b848381518110613ede57fe5b602002602001015181101561401f5781600b60008973ffffffffffffffffffffffffffffffffffffffff1673ffffffffffffffffffffffffffffffffffffffff168152602001908152602001600020805490501115613f955742600b60008973ffffffffffffffffffffffffffffffffffffffff1673ffffffffffffffffffffffffffffffffffffffff1681526020019081526020016000208381548110613f8257fe5b9060005260206000200181905550613ffc565b600b60008873ffffffffffffffffffffffffffffffffffffffff1673ffffffffffffffffffffffffffffffffffffffff1681526020019081526020016000204290806001815401808255809150506001900390600052602060002001600090919091909150555b614010600183613a8090919063ffffffff16565b91508080600101915050613ed2565b5080600c60008873ffffffffffffffffffffffffffffffffffffffff1673ffffffffffffffffffffffffffffffffffffffff16815260200190815260200160002081905550505b600073ffffffffffffffffffffffffffffffffffffffff168673ffffffffffffffffffffffffffffffffffffffff1614614143576140ff8382815181106140a957fe5b6020026020010151600c60008973ffffffffffffffffffffffffffffffffffffffff1673ffffffffffffffffffffffffffffffffffffffff1681526020019081526020016000205461495090919063ffffffff16565b600c60008873ffffffffffffffffffffffffffffffffffffffff1673ffffffffffffffffffffffffffffffffffffffff168152602001908152602001600020819055505b6141f6565b600061416685838151811061415957fe5b602002602001015161543e565b9050600073ffffffffffffffffffffffffffffffffffffffff168773ffffffffffffffffffffffffffffffffffffffff1614156141f4576141d98483815181106141ac57fe5b6020026020010151600f60008481526020019081526020016000206005015461495090919063ffffffff16565b600f6000838152602001908152602001600020600501819055505b505b8080600101915050613e2d565b50505050505050565b60008383111582906142b9576040517f08c379a00000000000000000000000000000000000000000000000000000000081526004018080602001828103825283818151815260200191508051906020019080838360005b8381101561427e578082015181840152602081019050614263565b50505050905090810190601f1680156142ab5780820380516001836020036101000a031916815260200191505b509250505060405180910390fd5b5082840390509392505050565b6142e58473ffffffffffffffffffffffffffffffffffffffff16615589565b1561464d578373ffffffffffffffffffffffffffffffffffffffff1663bc197c8187878686866040518663ffffffff1660e01b8152600401808673ffffffffffffffffffffffffffffffffffffffff1681526020018573ffffffffffffffffffffffffffffffffffffffff168152602001806020018060200180602001848103845287818151815260200191508051906020019060200280838360005b8381101561439d578082015181840152602081019050614382565b50505050905001848103835286818151815260200191508051906020019060200280838360005b838110156143df5780820151818401526020810190506143c4565b50505050905001848103825285818151815260200191508051906020019080838360005b8381101561441e578082015181840152602081019050614403565b50505050905090810190601f16801561444b5780820380516001836020036101000a031916815260200191505b5098505050505050505050602060405180830381600087803b15801561447057600080fd5b505af19250505080156144a457506040513d602081101561449057600080fd5b810190808051906020019092919050505060015b6145ae576144b0615826565b806144bb575061455d565b806040517f08c379a00000000000000000000000000000000000000000000000000000000081526004018080602001828103825283818151815260200191508051906020019080838360005b83811015614522578082015181840152602081019050614507565b50505050905090810190601f16801561454f5780820380516001836020036101000a031916815260200191505b509250505060405180910390fd5b6040517f08c379a00000000000000000000000000000000000000000000000000000000081526004018080602001828103825260348152602001806158dd6034913960400191505060405180910390fd5b63bc197c8160e01b7bffffffffffffffffffffffffffffffffffffffffffffffffffffffff1916817bffffffffffffffffffffffffffffffffffffffffffffffffffffffff19161461464b576040517f08c379a00000000000000000000000000000000000000000000000000000000081526004018080602001828103825260288152602001806159336028913960400191505060405180910390fd5b505b505050505050565b61467c81600080858152602001908152602001600020600001613a2e90919063ffffffff16565b156146e457614689613a5e565b73ffffffffffffffffffffffffffffffffffffffff168173ffffffffffffffffffffffffffffffffffffffff16837f2f8788117e7eff1d82e926ec794901d17c78024a50270940304540a733656f0d60405160405180910390a45b5050565b61470f8160008085815260200190815260200160002060000161559c90919063ffffffff16565b156147775761471c613a5e565b73ffffffffffffffffffffffffffffffffffffffff168173ffffffffffffffffffffffffffffffffffffffff16837ff6391f5c32d9c69d2a47ea670b442974b53935d1edc7fd64eb21e047a839171b60405160405180910390a45b5050565b60008083141561478e57600090506147fb565b600082840290508284828161479f57fe5b04146147f6576040517f08c379a0000000000000000000000000000000000000000000000000000000008152600401808060200182810382526021815260200180615b2d6021913960400191505060405180910390fd5b809150505b92915050565b600060011515600f600086815260200190815260200160002060000160009054906101000a900460ff161515146148a0576040517f08c379a00000000000000000000000000000000000000000000000000000000081526004018080602001828103825260148152602001807f7363656e6520646f6573206e6f7420657869737400000000000000000000000081525060200191505060405180910390fd5b82600f600086815260200190815260200160002060010154116148c257600080fd5b81600f600086815260200190815260200160002060020154116148e457600080fd5b61494761491084600f60008881526020019081526020016000206002015461477b90919063ffffffff16565b61493984600f600089815260200190815260200160002060030154613a8090919063ffffffff16565b613a8090919063ffffffff16565b90509392505050565b6000828211156149c8576040517f08c379a000000000000000000000000000000000000000000000000000000000815260040180806020018281038252601e8152602001807f536166654d6174683a207375627472616374696f6e206f766572666c6f77000081525060200191505060405180910390fd5b818303905092915050565b600073ffffffffffffffffffffffffffffffffffffffff168373ffffffffffffffffffffffffffffffffffffffff161415614a59576040517f08c379a0000000000000000000000000000000000000000000000000000000008152600401808060200182810382526023815260200180615ae06023913960400191505060405180910390fd5b6000614a63613a5e565b9050614a9381856000614a7587614f6e565b614a7e87614f6e565b60405180602001604052806000815250613e2a565b614b1082604051806060016040528060248152602001615a0c602491396003600087815260200190815260200160002060008873ffffffffffffffffffffffffffffffffffffffff1673ffffffffffffffffffffffffffffffffffffffff1681526020019081526020016000205461420c9092919063ffffffff16565b6003600085815260200190815260200160002060008673ffffffffffffffffffffffffffffffffffffffff1673ffffffffffffffffffffffffffffffffffffffff16815260200190815260200160002081905550600073ffffffffffffffffffffffffffffffffffffffff168473ffffffffffffffffffffffffffffffffffffffff168273ffffffffffffffffffffffffffffffffffffffff167fc3d58168c5ae7397731d063d5bbf3d657854427343f4c083240f7aacaa2d0f628686604051808381526020018281526020019250505060405180910390a450505050565b600073ffffffffffffffffffffffffffffffffffffffff168473ffffffffffffffffffffffffffffffffffffffff161415614c75576040517f08c379a0000000000000000000000000000000000000000000000000000000008152600401808060200182810382526021815260200180615bc86021913960400191505060405180910390fd5b6000614c7f613a5e565b9050614ca081600087614c9188614f6e565b614c9a88614f6e565b87613e2a565b614d03836003600087815260200190815260200160002060008873ffffffffffffffffffffffffffffffffffffffff1673ffffffffffffffffffffffffffffffffffffffff16815260200190815260200160002054613a8090919063ffffffff16565b6003600086815260200190815260200160002060008773ffffffffffffffffffffffffffffffffffffffff1673ffffffffffffffffffffffffffffffffffffffff168152602001908152602001600020819055508473ffffffffffffffffffffffffffffffffffffffff16600073ffffffffffffffffffffffffffffffffffffffff168273ffffffffffffffffffffffffffffffffffffffff167fc3d58168c5ae7397731d063d5bbf3d657854427343f4c083240f7aacaa2d0f628787604051808381526020018281526020019250505060405180910390a4614deb81600087878787614fde565b5050505050565b6000808211614e69576040517f08c379a000000000000000000000000000000000000000000000000000000000815260040180806020018281038252601a8152602001807f536166654d6174683a206469766973696f6e206279207a65726f00000000000081525060200191505060405180910390fd5b818381614e7257fe5b04905092915050565b6000614e8a83600001836155cc565b60001c905092915050565b6000614ebd836000018373ffffffffffffffffffffffffffffffffffffffff1660001b61564f565b905092915050565b6000614ed382600001615672565b9050919050565b6000600460008473ffffffffffffffffffffffffffffffffffffffff1673ffffffffffffffffffffffffffffffffffffffff16815260200190815260200160002060008373ffffffffffffffffffffffffffffffffffffffff1673ffffffffffffffffffffffffffffffffffffffff16815260200190815260200160002060009054906101000a900460ff16905092915050565b606080600167ffffffffffffffff81118015614f8957600080fd5b50604051908082528060200260200182016040528015614fb85781602001602082028036833780820191505090505b5090508281600081518110614fc957fe5b60200260200101818152505080915050919050565b614ffd8473ffffffffffffffffffffffffffffffffffffffff16615589565b156152e3578373ffffffffffffffffffffffffffffffffffffffff1663f23a6e6187878686866040518663ffffffff1660e01b8152600401808673ffffffffffffffffffffffffffffffffffffffff1681526020018573ffffffffffffffffffffffffffffffffffffffff16815260200184815260200183815260200180602001828103825283818151815260200191508051906020019080838360005b838110156150b657808201518184015260208101905061509b565b50505050905090810190601f1680156150e35780820380516001836020036101000a031916815260200191505b509650505050505050602060405180830381600087803b15801561510657600080fd5b505af192505050801561513a57506040513d602081101561512657600080fd5b810190808051906020019092919050505060015b61524457615146615826565b8061515157506151f3565b806040517f08c379a00000000000000000000000000000000000000000000000000000000081526004018080602001828103825283818151815260200191508051906020019080838360005b838110156151b857808201518184015260208101905061519d565b50505050905090810190601f1680156151e55780820380516001836020036101000a031916815260200191505b509250505060405180910390fd5b6040517f08c379a00000000000000000000000000000000000000000000000000000000081526004018080602001828103825260348152602001806158dd6034913960400191505060405180910390fd5b63f23a6e6160e01b7bffffffffffffffffffffffffffffffffffffffffffffffffffffffff1916817bffffffffffffffffffffffffffffffffffffffffffffffffffffffff1916146152e1576040517f08c379a00000000000000000000000000000000000000000000000000000000081526004018080602001828103825260288152602001806159336028913960400191505060405180910390fd5b505b505050505050565b60006152f7838361564f565b615350578260000182908060018154018082558091505060019003906000526020600020016000909190919091505582600001805490508360010160008481526020019081526020016000208190555060019050615355565b600090505b92915050565b600080600190505b600e5481116154335760006153d56153b0600f600085815260200190815260200160002060020154600f60008681526020019081526020016000206001015461477b90919063ffffffff16565b600f600085815260200190815260200160002060030154613a8090919063ffffffff16565b90506000615402600f60008581526020019081526020016000206001015483613a8090919063ffffffff16565b905081851015801561541357508085105b156154245760019350505050615439565b50508080600101915050615363565b50600090505b919050565b600080600190505b600e548111615515576000600f600083815260200190815260200160002060030154905060006154e56154ae600f600086815260200190815260200160002060020154600f60008781526020019081526020016000206001015461477b90919063ffffffff16565b6154d7600f60008781526020019081526020016000206001015485613a8090919063ffffffff16565b613a8090919063ffffffff16565b90508185101580156154f657508085105b1561550657829350505050615584565b50508080600101915050615446565b506040517f08c379a00000000000000000000000000000000000000000000000000000000081526004018080602001828103825260098152602001807f626164207363656e65000000000000000000000000000000000000000000000081525060200191505060405180910390fd5b919050565b600080823b905060008111915050919050565b60006155c4836000018373ffffffffffffffffffffffffffffffffffffffff1660001b615683565b905092915050565b60008183600001805490501161562d576040517f08c379a00000000000000000000000000000000000000000000000000000000081526004018080602001828103825260228152602001806159116022913960400191505060405180910390fd5b82600001828154811061563c57fe5b9060005260206000200154905092915050565b600080836001016000848152602001908152602001600020541415905092915050565b600081600001805490509050919050565b6000808360010160008481526020019081526020016000205490506000811461575f57600060018203905060006001866000018054905003905060008660000182815481106156ce57fe5b90600052602060002001549050808760000184815481106156eb57fe5b906000526020600020018190555060018301876001016000838152602001908152602001600020819055508660000180548061572357fe5b60019003818190600052602060002001600090559055866001016000878152602001908152602001600020600090556001945050505050615765565b60009150505b92915050565b828054600181600116156101000203166002900490600052602060002090601f016020900481019282601f106157ac57805160ff19168380011785556157da565b828001600101855582156157da579182015b828111156157d95782518255916020019190600101906157be565b5b5090506157e791906157eb565b5090565b5b808211156158045760008160009055506001016157ec565b5090565b6000601f19601f8301169050919050565b60008160e01c9050919050565b600060443d1015615836576158d9565b60046000803e615847600051615819565b6308c379a0811461585857506158d9565b60405160043d036004823e80513d602482011167ffffffffffffffff82111715615884575050506158d9565b808201805167ffffffffffffffff8111156158a35750505050506158d9565b8060208301013d85018111156158be575050505050506158d9565b6158c782615808565b60208401016040528296505050505050505b9056fe455243313135353a207472616e7366657220746f206e6f6e2045524331313535526563656976657220696d706c656d656e746572456e756d657261626c655365743a20696e646578206f7574206f6620626f756e6473455243313135353a204552433131353552656365697665722072656a656374656420746f6b656e73416363657373436f6e74726f6c3a2073656e646572206d75737420626520616e2061646d696e20746f206772616e74455243313135353a2062616c616e636520717565727920666f7220746865207a65726f2061646472657373455243313135353a2062617463682062616c616e636520717565727920666f7220746865207a65726f20616464726573734f776e61626c653a206e6577206f776e657220697320746865207a65726f2061646472657373455243313135353a206275726e20616d6f756e7420657863656564732062616c616e6365455243313135353a2063616c6c6572206973206e6f74206f776e6572206e6f7220617070726f766564416363657373436f6e74726f6c3a2073656e646572206d75737420626520616e2061646d696e20746f207265766f6b65455243313135353a207472616e7366657220746f20746865207a65726f2061646472657373455243313135353a207472616e736665722063616c6c6572206973206e6f74206f776e6572206e6f7220617070726f766564455243313135353a206275726e2066726f6d20746865207a65726f2061646472657373455243313135353a20696e73756666696369656e742062616c616e636520666f72207472616e73666572536166654d6174683a206d756c7469706c69636174696f6e206f766572666c6f77455243313135353a2073657474696e6720617070726f76616c2073746174757320666f722073656c66455243313135353a206163636f756e747320616e6420696473206c656e677468206d69736d61746368455243313135353a2069647320616e6420616d6f756e7473206c656e677468206d69736d61746368455243313135353a206d696e7420746f20746865207a65726f2061646472657373416363657373436f6e74726f6c3a2063616e206f6e6c792072656e6f756e636520726f6c657320666f722073656c66a2646970667358221220a57200d1ae002ab00a8affb2d7bfecdc2cff1ceaaacd6893f2daa842fefb865964736f6c634300060c0033",
  "immutableReferences": {},
  "source": "// SPDX-License-Identifier: MIT\n\npragma solidity ^0.6.0;\n\nimport \"./BaseERC1155.sol\";\nimport \"./NamingContract.sol\";\nimport \"./escape/EscapeToken.sol\";\n\n/*\n *  ESTile - This is a ERC1155 contract which allows for tiles and completed \n *  puzzles to be tokenized. Scenes are a collection of puzzles, and puzzles\n *  are a collection of tiles. \n *\n *  Basic rules:\n *  \n *  Only this contract can mint the finished puzzle tokens, and it will only\n *  do so when the a user tx trades in all N puzzle tiles for the said puzzle.\n *\n *  Only the creator can create scenes.\n *\n *  Only the minter can mint tiles and tokens.\n */\ncontract ESTile is BaseERC1155\n{\n  using SafeMath for uint256;\n\n  /*\n   *  Scenes are N number of pictures that have been split into a jigsaw. \n   *  Etherscapes are usually 6x4 tile puzzles and each scene will have N\n   *  number of images within the scene - some unlockable via the packs for \n   *  sale, some unlockable only via solving puzzles (collect all N tiles in a\n   *  single puzzle).\n   */\n  struct Scene {\n    bool exists;\n    \n    // The number of purchaseable vs unlockable puzzles.\n    uint256 numPuzzles;\n    \n    // Number of shards in a single puzzle.\n    uint256 numTilesPerPuzzle;\n\n    // The startToken for a scene is the first tile token of the first puzzle in\n    // the scene. The startToken + (i * numTilesPerPuzzle) gets us the i'th \n    // puzzle's first tile token and so on. The start token + (numPuzzles * \n    // numTilesPerPuzzle) will get us to the first completed puzzle token.\n    uint256 startToken;\n\n    uint256 maxTiles;\n    uint256 tilesLeft;\n  }\n\n  // Collect a way to keep track of all full puzzle token holders. This is a \n  // claim database which tracks the block at which a user has a claim for, this\n  // is unique per completed puzzle token and per user.\n  mapping (address => uint256[]) claims;\n  mapping (address => uint256) public claimLength;\n  \n  /*\n   *  Deployed contracts that we interact with. \n   *\n   *  The EscapeToken is needed so we can issue ESCAPE credits based on the \n   *  scene bonus pool (if applicable).\n   *\n   *  The NamingContract is needed to rename finished puzzles that the owner has\n   *  solved (and owns the finished puzzle tile for).\n   */\n  EscapeToken internal escapeTokenContract;\n\n  uint256 public sceneCount;\n  mapping (uint256 => Scene) internal scenes;\n\n  // Debugging ... \n  // uint256 constant REWARD_INTERVAL = 2 seconds;\n  uint256 constant REWARD_INTERVAL = 1 days;\n    \n  //////////////////////////////////////////////////////////////////////////////\n\n  /*\n   *  Constructor!\n   */\n  constructor(\n    string memory _uri,\n    address _proxyRegistryAddress,\n    address _escapeERC20Address\n  )\n    BaseERC1155(\n      \"EtherScapes shards\",\n      \"SHARD\",\n      _uri,\n      _proxyRegistryAddress\n    )\n    public\n  {\n      maxTokenID = 1;\n      sceneCount = 0;\n      escapeTokenContract = EscapeToken(_escapeERC20Address);\n  }\n\n  //////////////////////////////////////////////////////////////////////////////\n\n  /*\n   *  Assign a scene worth of tokens, this will be based on the sceneId, the\n   *  puzzleId and then width x height of tokens.\n   */\n  function createScene(\n    uint256 numPuzzles,\n    uint256 numTilesPerPuzzle,\n    uint256 maxTilesForSale\n  )\n    external\n  {\n    require(hasRole(CREATOR_ROLE, _msgSender()), \"not a creator\");\n    require(numPuzzles > 0 && numTilesPerPuzzle > 0, \"bad dims\");\n    \n    /*\n     *  Create tokens to represent each puzzle in this scene. \n     *\n     *  Each puzzle will have one additional token to track the completed puzzle\n     *  that can only be acquired by burning all the subsequent puzzle tiles (1\n     *  of each that make up the image).\n     */\n    sceneCount = sceneCount.add(1);\n\n    uint256 sceneId = sceneCount;\n    uint256 tid = maxTokenID;\n    uint256 numTokens = numTilesPerPuzzle\n                          .add(1)\n                          .mul(numPuzzles);\n    maxTokenID = maxTokenID.add(numTokens);\n\n    Scene storage s = scenes[sceneId];\n    s.exists = true;\n    s.numPuzzles = numPuzzles;\n    s.numTilesPerPuzzle = numTilesPerPuzzle;\n    s.startToken = tid;\n    s.tilesLeft = maxTilesForSale;\n    s.maxTiles = maxTilesForSale;\n  }\n\n  //////////////////////////////////////////////////////////////////////////////\n\n  /*\n   *  Public and inter-contract queries for scene desc info.\n   */\n  function sceneExists(uint256 sceneId) view external returns (bool) { return (scenes[sceneId].exists == true); }\n  function sceneTilesLeft(uint256 sceneId) view external returns (uint256) { return (scenes[sceneId].tilesLeft); }\n  function tokenRangeForScene(uint256 sceneId) view public returns (uint256, uint256, uint256) {\n    return (scenes[sceneId].startToken, scenes[sceneId].numTilesPerPuzzle, scenes[sceneId].numPuzzles);\n  }\n  \n  //////////////////////////////////////////////////////////////////////////////\n\n  /*\n   *  User - contract interaction.\n   */\n\n  /*\n   *  For a given scene, and puzzle - checks that the sender owns at-least one \n   *  each of the tile tokens that make up the puzzle. If so the sender burns \n   *  the tokens, and earns ESC and the completed token for the puzzle.\n   */\n  function redeemPuzzle(\n    uint256 sceneId,\n    uint256 puzzleId\n  ) \n    external \n    returns (uint256) \n  {\n    uint256 puzzleTokenId = getPuzzleToken(sceneId, puzzleId);\n    uint256 tileTokenStart = getTileToken(sceneId, puzzleId, 0);\n    uint256 tilesPerPuzzle = scenes[sceneId].numTilesPerPuzzle;\n    for (uint256 i = 0; i < tilesPerPuzzle; i++) {\n      uint256 tid = tileTokenStart.add(i);\n      totalSupply[tid] = totalSupply[tid].sub(1);\n      _burn(msg.sender, tid, 1);\n    }\n    \n    // Figure out the reward (full image token) for this pictureId and award it\n    // the the sender who just burned all their puzzle tokens! In this case we \n    // bypass the mint() logic and directly award the token here as this is now\n    // mintable by the redemption.\n    totalSupply[puzzleTokenId] = totalSupply[puzzleTokenId].add(1);\n    _mint(msg.sender, puzzleTokenId, 1, \"\");\n  }\n\n  /*\n   *  A claim is opened anytime a puzzle is solved, each claim is worth one \n   *  ESCAPE per day. When a token is transferred - you give up your oldest \n   *  claim! So it is best to claim rewards before transferring any completed \n   *  puzzle tokens.\n   */\n  function getClaimInfo()\n    view \n    public \n    returns (uint256) \n  {\n    uint256 total = 0;\n    for (uint256 i = 0; i < claimLength[msg.sender]; i++) {\n      uint256 reward = now.sub(claims[msg.sender][i])\n                          .div(REWARD_INTERVAL);\n      total = total.add(reward);\n    }\n    return total;\n  } \n\n  function claimReward()\n    public \n  {\n    uint256 total = getClaimInfo();\n    require(total > 0);\n    for (uint256 i = 0; i < claimLength[msg.sender]; i++) {\n      claims[msg.sender][i] = now;\n    }\n    escapeTokenContract.mintForAccount(msg.sender, total);\n  } \n\n  function isPuzzleTokenId\n  (\n    uint256 id\n  ) \n    view\n    internal\n    returns (bool) \n  {\n    for (uint s = 1; s <= sceneCount; s++) {\n      uint256 pts = scenes[s].startToken\n                      .add(scenes[s].numPuzzles.mul(scenes[s].numTilesPerPuzzle));\n      uint256 pte = pts.add(scenes[s].numPuzzles);\n      if (id >= pts && id < pte) return true;\n    }\n    return false;\n  }\n\n  function getSceneForToken\n  (\n    uint256 id\n  ) \n    view\n    internal\n    returns (uint256) \n  {\n    for (uint s = 1; s <= sceneCount; s++) {\n      uint256 pts = scenes[s].startToken;\n      uint256 pte = pts\n                      .add(scenes[s].numPuzzles)\n                      .add(scenes[s].numPuzzles.mul(scenes[s].numTilesPerPuzzle));\n      if (id >= pts && id < pte) return s;\n    }\n    revert(\"bad scene\");\n  }\n\n  function _beforeTokenTransfer\n  (\n    address /*operator*/,\n    address from,\n    address to,\n    uint256[] memory ids,\n    uint256[] memory amounts,\n    bytes memory /*data*/\n  )\n    internal\n    override\n  {\n    /*\n     *  A new token was minted! If it is a full piece token - add the tracking\n     *  for its claim here.\n     */\n    for (uint i = 0; i < ids.length; i++) {\n      if (isPuzzleTokenId(ids[i])) {\n        if (to != address(0)) {\n          // New token minted, and its a puzzle token - add a claim for the \n          // count minted here.\n          uint256 claimIdx = claimLength[to];\n          for (uint n = 0; n < amounts[i]; n++) {\n            if (claims[to].length > claimIdx) {\n              claims[to][claimIdx] = now;\n            } else {\n              claims[to].push(now);\n            }\n            claimIdx = claimIdx.add(1);\n          }\n          claimLength[to] = claimIdx;\n        }\n        if (from != address(0)) {\n          // This is a burn or a transfer, remove claims.\n          claimLength[from] = claimLength[from].sub(amounts[i]);\n        }\n      } else {\n        /* else this is a non puzzle token, these are limited by scene */\n        uint256 sid = getSceneForToken(ids[i]);\n        if (from == address(0)) {\n          scenes[sid].tilesLeft = scenes[sid].tilesLeft.sub(amounts[i]);\n        }\n      }\n    }\n  }\n  \n  function getTileToken(\n    uint256 sceneId,\n    uint256 puzzleId,\n    uint256 tileNum\n  )\n    internal \n    view\n    returns (uint256) \n  {\n    require(scenes[sceneId].exists == true, \"scene does not exist\");\n    require(scenes[sceneId].numPuzzles > puzzleId);\n    require(scenes[sceneId].numTilesPerPuzzle > tileNum);\n    return scenes[sceneId].startToken\n            .add(tileNum)\n            .add(scenes[sceneId].numTilesPerPuzzle.mul(puzzleId));\n  }\n\n  function getPuzzleToken(\n    uint256 sceneId,\n    uint256 puzzleId\n  )\n    public\n    view\n    returns (uint256) \n  {\n    require(scenes[sceneId].exists == true, \"scene does not exist\");\n    require(scenes[sceneId].numPuzzles > puzzleId);\n    return scenes[sceneId].startToken\n            .add(puzzleId)\n            .add(scenes[sceneId].numTilesPerPuzzle.mul(scenes[sceneId].numPuzzles));\n  }\n}\n",
  "sourcePath": "/Users/shaba/work/github/private/crypto/etherscapes/contract/contracts/ESTile.sol",
  "compiler": {
    "name": "solc",
    "version": "0.6.12+commit.27d51765.Emscripten.clang"
  },
  "schemaVersion": "3.3.3",
  "updatedAt": "2021-02-28T23:55:03.900Z",
  "networkType": "ethereum",
  "devdoc": {
    "kind": "dev",
    "methods": {
      "balanceOf(address,uint256)": {
        "details": "See {IERC1155-balanceOf}. Requirements: - `account` cannot be the zero address."
      },
      "balanceOfBatch(address[],uint256[])": {
        "details": "See {IERC1155-balanceOfBatch}. Requirements: - `accounts` and `ids` must have the same length."
      },
      "getRoleAdmin(bytes32)": {
        "details": "Returns the admin role that controls `role`. See {grantRole} and {revokeRole}. To change a role's admin, use {_setRoleAdmin}."
      },
      "getRoleMember(bytes32,uint256)": {
        "details": "Returns one of the accounts that have `role`. `index` must be a value between 0 and {getRoleMemberCount}, non-inclusive. Role bearers are not sorted in any particular way, and their ordering may change at any point. WARNING: When using {getRoleMember} and {getRoleMemberCount}, make sure you perform all queries on the same block. See the following https://forum.openzeppelin.com/t/iterating-over-elements-on-enumerableset-in-openzeppelin-contracts/2296[forum post] for more information."
      },
      "getRoleMemberCount(bytes32)": {
        "details": "Returns the number of accounts that have `role`. Can be used together with {getRoleMember} to enumerate all bearers of a role."
      },
      "grantRole(bytes32,address)": {
        "details": "Grants `role` to `account`. If `account` had not been already granted `role`, emits a {RoleGranted} event. Requirements: - the caller must have ``role``'s admin role."
      },
      "hasRole(bytes32,address)": {
        "details": "Returns `true` if `account` has been granted `role`."
      },
      "owner()": {
        "details": "Returns the address of the current owner."
      },
      "renounceOwnership()": {
        "details": "Leaves the contract without owner. It will not be possible to call `onlyOwner` functions anymore. Can only be called by the current owner. NOTE: Renouncing ownership will leave the contract without an owner, thereby removing any functionality that is only available to the owner."
      },
      "renounceRole(bytes32,address)": {
        "details": "Revokes `role` from the calling account. Roles are often managed via {grantRole} and {revokeRole}: this function's purpose is to provide a mechanism for accounts to lose their privileges if they are compromised (such as when a trusted device is misplaced). If the calling account had been granted `role`, emits a {RoleRevoked} event. Requirements: - the caller must be `account`."
      },
      "revokeRole(bytes32,address)": {
        "details": "Revokes `role` from `account`. If `account` had been granted `role`, emits a {RoleRevoked} event. Requirements: - the caller must have ``role``'s admin role."
      },
      "safeBatchTransferFrom(address,address,uint256[],uint256[],bytes)": {
        "details": "See {IERC1155-safeBatchTransferFrom}."
      },
      "safeTransferFrom(address,address,uint256,uint256,bytes)": {
        "details": "See {IERC1155-safeTransferFrom}."
      },
      "setApprovalForAll(address,bool)": {
        "details": "See {IERC1155-setApprovalForAll}."
      },
      "supportsInterface(bytes4)": {
        "details": "See {IERC165-supportsInterface}. Time complexity O(1), guaranteed to always use less than 30 000 gas."
      },
      "transferOwnership(address)": {
        "details": "Transfers ownership of the contract to a new account (`newOwner`). Can only be called by the current owner."
      },
      "uri(uint256)": {
        "details": "See {IERC1155MetadataURI-uri}. This implementation returns the same URI for *all* token types. It relies on the token type ID substituion mechanism https://eips.ethereum.org/EIPS/eip-1155#metadata[defined in the EIP]. Clients calling this function must replace the `\\{id\\}` substring with the actual token type ID."
      }
    },
    "version": 1
  },
  "userdoc": {
    "kind": "user",
    "methods": {
      "grantAdmin(bytes32,address)": {
        "notice": "Only Token Creator Admin Functions*"
      },
      "isApprovedForAll(address,address)": {
        "notice": "Override isApprovedForAll to whitelist user's OpenSea proxy accounts to enable gas-free listings."
      },
      "mint(address,uint256,uint256,bytes)": {
        "notice": "Only Token Minter Functions*"
      },
      "setProxyRegistryAddress(address)": {
        "notice": "Only Owner Functions*"
      }
    },
    "version": 1
  }
}