{
  "contractName": "ESTile",
  "abi": [
    {
      "inputs": [
        {
          "internalType": "string",
          "name": "_uri",
          "type": "string"
        },
        {
          "internalType": "address",
          "name": "_proxyRegistryAddress",
          "type": "address"
        },
        {
          "internalType": "address",
          "name": "_escapeERC20Address",
          "type": "address"
        },
        {
          "internalType": "address",
          "name": "_namingContractAddress",
          "type": "address"
        }
      ],
      "stateMutability": "nonpayable",
      "type": "constructor"
    },
    {
      "anonymous": false,
      "inputs": [
        {
          "indexed": true,
          "internalType": "address",
          "name": "account",
          "type": "address"
        },
        {
          "indexed": true,
          "internalType": "address",
          "name": "operator",
          "type": "address"
        },
        {
          "indexed": false,
          "internalType": "bool",
          "name": "approved",
          "type": "bool"
        }
      ],
      "name": "ApprovalForAll",
      "type": "event"
    },
    {
      "anonymous": false,
      "inputs": [
        {
          "indexed": true,
          "internalType": "address",
          "name": "previousOwner",
          "type": "address"
        },
        {
          "indexed": true,
          "internalType": "address",
          "name": "newOwner",
          "type": "address"
        }
      ],
      "name": "OwnershipTransferred",
      "type": "event"
    },
    {
      "anonymous": false,
      "inputs": [
        {
          "indexed": true,
          "internalType": "bytes32",
          "name": "role",
          "type": "bytes32"
        },
        {
          "indexed": true,
          "internalType": "bytes32",
          "name": "previousAdminRole",
          "type": "bytes32"
        },
        {
          "indexed": true,
          "internalType": "bytes32",
          "name": "newAdminRole",
          "type": "bytes32"
        }
      ],
      "name": "RoleAdminChanged",
      "type": "event"
    },
    {
      "anonymous": false,
      "inputs": [
        {
          "indexed": true,
          "internalType": "bytes32",
          "name": "role",
          "type": "bytes32"
        },
        {
          "indexed": true,
          "internalType": "address",
          "name": "account",
          "type": "address"
        },
        {
          "indexed": true,
          "internalType": "address",
          "name": "sender",
          "type": "address"
        }
      ],
      "name": "RoleGranted",
      "type": "event"
    },
    {
      "anonymous": false,
      "inputs": [
        {
          "indexed": true,
          "internalType": "bytes32",
          "name": "role",
          "type": "bytes32"
        },
        {
          "indexed": true,
          "internalType": "address",
          "name": "account",
          "type": "address"
        },
        {
          "indexed": true,
          "internalType": "address",
          "name": "sender",
          "type": "address"
        }
      ],
      "name": "RoleRevoked",
      "type": "event"
    },
    {
      "anonymous": false,
      "inputs": [
        {
          "indexed": true,
          "internalType": "address",
          "name": "operator",
          "type": "address"
        },
        {
          "indexed": true,
          "internalType": "address",
          "name": "from",
          "type": "address"
        },
        {
          "indexed": true,
          "internalType": "address",
          "name": "to",
          "type": "address"
        },
        {
          "indexed": false,
          "internalType": "uint256[]",
          "name": "ids",
          "type": "uint256[]"
        },
        {
          "indexed": false,
          "internalType": "uint256[]",
          "name": "values",
          "type": "uint256[]"
        }
      ],
      "name": "TransferBatch",
      "type": "event"
    },
    {
      "anonymous": false,
      "inputs": [
        {
          "indexed": true,
          "internalType": "address",
          "name": "operator",
          "type": "address"
        },
        {
          "indexed": true,
          "internalType": "address",
          "name": "from",
          "type": "address"
        },
        {
          "indexed": true,
          "internalType": "address",
          "name": "to",
          "type": "address"
        },
        {
          "indexed": false,
          "internalType": "uint256",
          "name": "id",
          "type": "uint256"
        },
        {
          "indexed": false,
          "internalType": "uint256",
          "name": "value",
          "type": "uint256"
        }
      ],
      "name": "TransferSingle",
      "type": "event"
    },
    {
      "anonymous": false,
      "inputs": [
        {
          "indexed": false,
          "internalType": "string",
          "name": "value",
          "type": "string"
        },
        {
          "indexed": true,
          "internalType": "uint256",
          "name": "id",
          "type": "uint256"
        }
      ],
      "name": "URI",
      "type": "event"
    },
    {
      "inputs": [],
      "name": "CREATOR_ADMIN_ROLE",
      "outputs": [
        {
          "internalType": "bytes32",
          "name": "",
          "type": "bytes32"
        }
      ],
      "stateMutability": "view",
      "type": "function",
      "constant": true
    },
    {
      "inputs": [],
      "name": "CREATOR_ROLE",
      "outputs": [
        {
          "internalType": "bytes32",
          "name": "",
          "type": "bytes32"
        }
      ],
      "stateMutability": "view",
      "type": "function",
      "constant": true
    },
    {
      "inputs": [],
      "name": "DEFAULT_ADMIN_ROLE",
      "outputs": [
        {
          "internalType": "bytes32",
          "name": "",
          "type": "bytes32"
        }
      ],
      "stateMutability": "view",
      "type": "function",
      "constant": true
    },
    {
      "inputs": [],
      "name": "MINTER_ADMIN_ROLE",
      "outputs": [
        {
          "internalType": "bytes32",
          "name": "",
          "type": "bytes32"
        }
      ],
      "stateMutability": "view",
      "type": "function",
      "constant": true
    },
    {
      "inputs": [],
      "name": "MINTER_ROLE",
      "outputs": [
        {
          "internalType": "bytes32",
          "name": "",
          "type": "bytes32"
        }
      ],
      "stateMutability": "view",
      "type": "function",
      "constant": true
    },
    {
      "inputs": [
        {
          "internalType": "address",
          "name": "account",
          "type": "address"
        },
        {
          "internalType": "uint256",
          "name": "id",
          "type": "uint256"
        }
      ],
      "name": "balanceOf",
      "outputs": [
        {
          "internalType": "uint256",
          "name": "",
          "type": "uint256"
        }
      ],
      "stateMutability": "view",
      "type": "function",
      "constant": true
    },
    {
      "inputs": [
        {
          "internalType": "address[]",
          "name": "accounts",
          "type": "address[]"
        },
        {
          "internalType": "uint256[]",
          "name": "ids",
          "type": "uint256[]"
        }
      ],
      "name": "balanceOfBatch",
      "outputs": [
        {
          "internalType": "uint256[]",
          "name": "",
          "type": "uint256[]"
        }
      ],
      "stateMutability": "view",
      "type": "function",
      "constant": true
    },
    {
      "inputs": [
        {
          "internalType": "bytes32",
          "name": "role",
          "type": "bytes32"
        }
      ],
      "name": "getRoleAdmin",
      "outputs": [
        {
          "internalType": "bytes32",
          "name": "",
          "type": "bytes32"
        }
      ],
      "stateMutability": "view",
      "type": "function",
      "constant": true
    },
    {
      "inputs": [
        {
          "internalType": "bytes32",
          "name": "role",
          "type": "bytes32"
        },
        {
          "internalType": "uint256",
          "name": "index",
          "type": "uint256"
        }
      ],
      "name": "getRoleMember",
      "outputs": [
        {
          "internalType": "address",
          "name": "",
          "type": "address"
        }
      ],
      "stateMutability": "view",
      "type": "function",
      "constant": true
    },
    {
      "inputs": [
        {
          "internalType": "bytes32",
          "name": "role",
          "type": "bytes32"
        }
      ],
      "name": "getRoleMemberCount",
      "outputs": [
        {
          "internalType": "uint256",
          "name": "",
          "type": "uint256"
        }
      ],
      "stateMutability": "view",
      "type": "function",
      "constant": true
    },
    {
      "inputs": [
        {
          "internalType": "bytes32",
          "name": "_adminRole",
          "type": "bytes32"
        },
        {
          "internalType": "address",
          "name": "_address",
          "type": "address"
        }
      ],
      "name": "grantAdmin",
      "outputs": [],
      "stateMutability": "nonpayable",
      "type": "function"
    },
    {
      "inputs": [
        {
          "internalType": "bytes32",
          "name": "role",
          "type": "bytes32"
        },
        {
          "internalType": "address",
          "name": "account",
          "type": "address"
        }
      ],
      "name": "grantRole",
      "outputs": [],
      "stateMutability": "nonpayable",
      "type": "function"
    },
    {
      "inputs": [
        {
          "internalType": "bytes32",
          "name": "role",
          "type": "bytes32"
        },
        {
          "internalType": "address",
          "name": "account",
          "type": "address"
        }
      ],
      "name": "hasRole",
      "outputs": [
        {
          "internalType": "bool",
          "name": "",
          "type": "bool"
        }
      ],
      "stateMutability": "view",
      "type": "function",
      "constant": true
    },
    {
      "inputs": [
        {
          "internalType": "address",
          "name": "_owner",
          "type": "address"
        },
        {
          "internalType": "address",
          "name": "_operator",
          "type": "address"
        }
      ],
      "name": "isApprovedForAll",
      "outputs": [
        {
          "internalType": "bool",
          "name": "isOperator",
          "type": "bool"
        }
      ],
      "stateMutability": "view",
      "type": "function",
      "constant": true
    },
    {
      "inputs": [],
      "name": "maxTokenID",
      "outputs": [
        {
          "internalType": "uint256",
          "name": "",
          "type": "uint256"
        }
      ],
      "stateMutability": "view",
      "type": "function",
      "constant": true
    },
    {
      "inputs": [
        {
          "internalType": "address",
          "name": "_to",
          "type": "address"
        },
        {
          "internalType": "uint256",
          "name": "_id",
          "type": "uint256"
        },
        {
          "internalType": "uint256",
          "name": "_quantity",
          "type": "uint256"
        },
        {
          "internalType": "bytes",
          "name": "_data",
          "type": "bytes"
        }
      ],
      "name": "mint",
      "outputs": [],
      "stateMutability": "nonpayable",
      "type": "function"
    },
    {
      "inputs": [
        {
          "internalType": "address",
          "name": "_to",
          "type": "address"
        },
        {
          "internalType": "uint256[]",
          "name": "_ids",
          "type": "uint256[]"
        },
        {
          "internalType": "uint256[]",
          "name": "_quantities",
          "type": "uint256[]"
        },
        {
          "internalType": "bytes",
          "name": "_data",
          "type": "bytes"
        }
      ],
      "name": "mintBatch",
      "outputs": [],
      "stateMutability": "nonpayable",
      "type": "function"
    },
    {
      "inputs": [],
      "name": "name",
      "outputs": [
        {
          "internalType": "string",
          "name": "",
          "type": "string"
        }
      ],
      "stateMutability": "view",
      "type": "function",
      "constant": true
    },
    {
      "inputs": [],
      "name": "owner",
      "outputs": [
        {
          "internalType": "address",
          "name": "",
          "type": "address"
        }
      ],
      "stateMutability": "view",
      "type": "function",
      "constant": true
    },
    {
      "inputs": [],
      "name": "renounceOwnership",
      "outputs": [],
      "stateMutability": "nonpayable",
      "type": "function"
    },
    {
      "inputs": [
        {
          "internalType": "bytes32",
          "name": "role",
          "type": "bytes32"
        },
        {
          "internalType": "address",
          "name": "account",
          "type": "address"
        }
      ],
      "name": "renounceRole",
      "outputs": [],
      "stateMutability": "nonpayable",
      "type": "function"
    },
    {
      "inputs": [
        {
          "internalType": "bytes32",
          "name": "_adminRole",
          "type": "bytes32"
        },
        {
          "internalType": "address",
          "name": "_address",
          "type": "address"
        }
      ],
      "name": "revokeAdmin",
      "outputs": [],
      "stateMutability": "nonpayable",
      "type": "function"
    },
    {
      "inputs": [
        {
          "internalType": "bytes32",
          "name": "role",
          "type": "bytes32"
        },
        {
          "internalType": "address",
          "name": "account",
          "type": "address"
        }
      ],
      "name": "revokeRole",
      "outputs": [],
      "stateMutability": "nonpayable",
      "type": "function"
    },
    {
      "inputs": [
        {
          "internalType": "address",
          "name": "from",
          "type": "address"
        },
        {
          "internalType": "address",
          "name": "to",
          "type": "address"
        },
        {
          "internalType": "uint256[]",
          "name": "ids",
          "type": "uint256[]"
        },
        {
          "internalType": "uint256[]",
          "name": "amounts",
          "type": "uint256[]"
        },
        {
          "internalType": "bytes",
          "name": "data",
          "type": "bytes"
        }
      ],
      "name": "safeBatchTransferFrom",
      "outputs": [],
      "stateMutability": "nonpayable",
      "type": "function"
    },
    {
      "inputs": [
        {
          "internalType": "address",
          "name": "from",
          "type": "address"
        },
        {
          "internalType": "address",
          "name": "to",
          "type": "address"
        },
        {
          "internalType": "uint256",
          "name": "id",
          "type": "uint256"
        },
        {
          "internalType": "uint256",
          "name": "amount",
          "type": "uint256"
        },
        {
          "internalType": "bytes",
          "name": "data",
          "type": "bytes"
        }
      ],
      "name": "safeTransferFrom",
      "outputs": [],
      "stateMutability": "nonpayable",
      "type": "function"
    },
    {
      "inputs": [],
      "name": "sceneCount",
      "outputs": [
        {
          "internalType": "uint256",
          "name": "",
          "type": "uint256"
        }
      ],
      "stateMutability": "view",
      "type": "function",
      "constant": true
    },
    {
      "inputs": [
        {
          "internalType": "address",
          "name": "operator",
          "type": "address"
        },
        {
          "internalType": "bool",
          "name": "approved",
          "type": "bool"
        }
      ],
      "name": "setApprovalForAll",
      "outputs": [],
      "stateMutability": "nonpayable",
      "type": "function"
    },
    {
      "inputs": [
        {
          "internalType": "address",
          "name": "_proxyRegistryAddress",
          "type": "address"
        }
      ],
      "name": "setProxyRegistryAddress",
      "outputs": [],
      "stateMutability": "nonpayable",
      "type": "function"
    },
    {
      "inputs": [
        {
          "internalType": "string",
          "name": "_newBaseMetadataURI",
          "type": "string"
        }
      ],
      "name": "setURI",
      "outputs": [],
      "stateMutability": "nonpayable",
      "type": "function"
    },
    {
      "inputs": [
        {
          "internalType": "bytes4",
          "name": "interfaceId",
          "type": "bytes4"
        }
      ],
      "name": "supportsInterface",
      "outputs": [
        {
          "internalType": "bool",
          "name": "",
          "type": "bool"
        }
      ],
      "stateMutability": "view",
      "type": "function",
      "constant": true
    },
    {
      "inputs": [],
      "name": "symbol",
      "outputs": [
        {
          "internalType": "string",
          "name": "",
          "type": "string"
        }
      ],
      "stateMutability": "view",
      "type": "function",
      "constant": true
    },
    {
      "inputs": [
        {
          "internalType": "uint256",
          "name": "",
          "type": "uint256"
        }
      ],
      "name": "totalSupply",
      "outputs": [
        {
          "internalType": "uint256",
          "name": "",
          "type": "uint256"
        }
      ],
      "stateMutability": "view",
      "type": "function",
      "constant": true
    },
    {
      "inputs": [
        {
          "internalType": "address",
          "name": "newOwner",
          "type": "address"
        }
      ],
      "name": "transferOwnership",
      "outputs": [],
      "stateMutability": "nonpayable",
      "type": "function"
    },
    {
      "inputs": [
        {
          "internalType": "uint256",
          "name": "",
          "type": "uint256"
        }
      ],
      "name": "uri",
      "outputs": [
        {
          "internalType": "string",
          "name": "",
          "type": "string"
        }
      ],
      "stateMutability": "view",
      "type": "function",
      "constant": true
    },
    {
      "inputs": [
        {
          "internalType": "uint256",
          "name": "sceneId",
          "type": "uint256"
        },
        {
          "internalType": "uint256",
          "name": "numPuzzles",
          "type": "uint256"
        },
        {
          "internalType": "uint256",
          "name": "numTilesPerPuzzle",
          "type": "uint256"
        }
      ],
      "name": "createScene",
      "outputs": [],
      "stateMutability": "nonpayable",
      "type": "function"
    },
    {
      "inputs": [
        {
          "internalType": "uint256",
          "name": "sceneId",
          "type": "uint256"
        }
      ],
      "name": "sceneExists",
      "outputs": [
        {
          "internalType": "bool",
          "name": "",
          "type": "bool"
        }
      ],
      "stateMutability": "view",
      "type": "function",
      "constant": true
    },
    {
      "inputs": [
        {
          "internalType": "uint256",
          "name": "sceneId",
          "type": "uint256"
        }
      ],
      "name": "tokenRangeForScene",
      "outputs": [
        {
          "internalType": "uint256",
          "name": "",
          "type": "uint256"
        },
        {
          "internalType": "uint256",
          "name": "",
          "type": "uint256"
        },
        {
          "internalType": "uint256",
          "name": "",
          "type": "uint256"
        }
      ],
      "stateMutability": "view",
      "type": "function",
      "constant": true
    },
    {
      "inputs": [
        {
          "internalType": "uint256",
          "name": "sceneId",
          "type": "uint256"
        },
        {
          "internalType": "uint256",
          "name": "puzzleId",
          "type": "uint256"
        }
      ],
      "name": "getScenePuzzleInfo",
      "outputs": [
        {
          "internalType": "uint256",
          "name": "",
          "type": "uint256"
        },
        {
          "internalType": "string",
          "name": "",
          "type": "string"
        },
        {
          "internalType": "address",
          "name": "",
          "type": "address"
        }
      ],
      "stateMutability": "view",
      "type": "function",
      "constant": true
    },
    {
      "inputs": [
        {
          "internalType": "uint256",
          "name": "sceneId",
          "type": "uint256"
        },
        {
          "internalType": "uint256",
          "name": "puzzleId",
          "type": "uint256"
        }
      ],
      "name": "redeemPuzzle",
      "outputs": [
        {
          "internalType": "uint256",
          "name": "",
          "type": "uint256"
        }
      ],
      "stateMutability": "nonpayable",
      "type": "function"
    },
    {
      "inputs": [],
      "name": "getClaimInfo",
      "outputs": [
        {
          "internalType": "uint256",
          "name": "",
          "type": "uint256"
        }
      ],
      "stateMutability": "view",
      "type": "function",
      "constant": true
    },
    {
      "inputs": [],
      "name": "claimReward",
      "outputs": [],
      "stateMutability": "nonpayable",
      "type": "function"
    },
    {
      "inputs": [
        {
          "internalType": "uint256",
          "name": "sceneId",
          "type": "uint256"
        },
        {
          "internalType": "uint256",
          "name": "puzzleId",
          "type": "uint256"
        },
        {
          "internalType": "string",
          "name": "name",
          "type": "string"
        }
      ],
      "name": "nameScenePuzzle",
      "outputs": [],
      "stateMutability": "nonpayable",
      "type": "function"
    }
  ],
  "bytecode": "0x608060405260006007553480156200001657600080fd5b50604051620068e2380380620068e2833981810160405260808110156200003c57600080fd5b81019080805160405193929190846401000000008211156200005d57600080fd5b838201915060208201858111156200007457600080fd5b82518660018202830111640100000000821117156200009257600080fd5b8083526020830192505050908051906020019080838360005b83811015620000c8578082015181840152602081019050620000ab565b50505050905090810190601f168015620000f65780820380516001836020036101000a031916815260200191505b506040526020018051906020019092919080519060200190929190805190602001909291905050506040518060400160405280601181526020017f45746865725363617065207368617264730000000000000000000000000000008152506040518060400160405280600581526020017f534841524400000000000000000000000000000000000000000000000000000081525085858160006200019f6200054b60201b60201c565b905080600160006101000a81548173ffffffffffffffffffffffffffffffffffffffff021916908373ffffffffffffffffffffffffffffffffffffffff1602179055508073ffffffffffffffffffffffffffffffffffffffff16600073ffffffffffffffffffffffffffffffffffffffff167f8be0079c531659141344cd1fd0a4f28419497f9722a3daafe3b4186f6b6457e060405160405180910390a350620002566301ffc9a760e01b6200055360201b60201c565b62000267816200065d60201b60201c565b6200027f63d9b67a2660e01b6200055360201b60201c565b62000297630e89341c60e01b6200055360201b60201c565b508360099080519060200190620002b092919062000869565b5082600a9080519060200190620002c992919062000869565b5080600660006101000a81548173ffffffffffffffffffffffffffffffffffffffff021916908373ffffffffffffffffffffffffffffffffffffffff1602179055506200034c7f828634d95e775031b9ff576b159a8509d3053581a8c9c4d7d86899e0afcd882f620003406200054b60201b60201c565b6200067960201b60201c565b6200038d7f9f2df0fed2c77648de5860a4cc508cd0818c85b8b8a1ab4ceeef8d981c8956a6620003816200054b60201b60201c565b6200067960201b60201c565b620003df7f828634d95e775031b9ff576b159a8509d3053581a8c9c4d7d86899e0afcd882f7f5721171b1e9186284262a02aac3a681e12de7388ebccd0c2d06623651b6af6f86200068f60201b60201c565b620004317f9f2df0fed2c77648de5860a4cc508cd0818c85b8b8a1ab4ceeef8d981c8956a67f70480ee89cb38eff00b7d23da25713d52ce19c6ed428691d22c58b2f615e3d676200068f60201b60201c565b620004727f5721171b1e9186284262a02aac3a681e12de7388ebccd0c2d06623651b6af6f8620004666200054b60201b60201c565b6200067960201b60201c565b620004b37f70480ee89cb38eff00b7d23da25713d52ce19c6ed428691d22c58b2f615e3d67620004a76200054b60201b60201c565b6200067960201b60201c565b50505050600160078190555081600e60006101000a81548173ffffffffffffffffffffffffffffffffffffffff021916908373ffffffffffffffffffffffffffffffffffffffff16021790555080600f60006101000a81548173ffffffffffffffffffffffffffffffffffffffff021916908373ffffffffffffffffffffffffffffffffffffffff160217905550505050506200090f565b600033905090565b63ffffffff60e01b817bffffffffffffffffffffffffffffffffffffffffffffffffffffffff19161415620005f0576040517f08c379a000000000000000000000000000000000000000000000000000000000815260040180806020018281038252601c8152602001807f4552433136353a20696e76616c696420696e746572666163652069640000000081525060200191505060405180910390fd5b600160026000837bffffffffffffffffffffffffffffffffffffffffffffffffffffffff19167bffffffffffffffffffffffffffffffffffffffffffffffffffffffff1916815260200190815260200160002060006101000a81548160ff02191690831515021790555050565b80600590805190602001906200067592919062000869565b5050565b6200068b8282620006f160201b60201c565b5050565b8060008084815260200190815260200160002060020154837fbd79b86ffe0ab8e8776151514217cd7cacd52c909f66475c3af44e129f0b00ff60405160405180910390a480600080848152602001908152602001600020600201819055505050565b6200071f816000808581526020019081526020016000206000016200079460201b62003de91790919060201c565b156200079057620007356200054b60201b60201c565b73ffffffffffffffffffffffffffffffffffffffff168173ffffffffffffffffffffffffffffffffffffffff16837f2f8788117e7eff1d82e926ec794901d17c78024a50270940304540a733656f0d60405160405180910390a45b5050565b6000620007c4836000018373ffffffffffffffffffffffffffffffffffffffff1660001b620007cc60201b60201c565b905092915050565b6000620007e083836200084660201b60201c565b6200083b57826000018290806001815401808255809150506001900390600052602060002001600090919091909150558260000180549050836001016000848152602001908152602001600020819055506001905062000840565b600090505b92915050565b600080836001016000848152602001908152602001600020541415905092915050565b828054600181600116156101000203166002900490600052602060002090601f016020900481019282601f10620008ac57805160ff1916838001178555620008dd565b82800160010185558215620008dd579182015b82811115620008dc578251825591602001919060010190620008bf565b5b509050620008ec9190620008f0565b5090565b5b808211156200090b576000816000905550600101620008f1565b5090565b615fc3806200091f6000396000f3fe608060405234801561001057600080fd5b506004361061025d5760003560e01c806380e6548e11610146578063a22cb465116100c3578063d26ea6c011610087578063d26ea6c0146112f7578063d53913931461133b578063d547741f14611359578063e985e9c5146113a7578063f242432a14611421578063f2fde38b146115305761025d565b8063a22cb4651461118c578063b88a802f146111dc578063bd85b039146111e6578063c5a113d214611228578063ca15c873146112b55761025d565b806391d02c431161010a57806391d02c431461100157806391d148541461104357806395d89b41146110a7578063992d09b61461112a578063a217fddf1461116e5761025d565b806380e6548e14610edf5780638518241614610f2f5780638aeda25a14610f4d5780638da5cb5b14610f6b5780639010d07c14610f9f5761025d565b80632c236ebd116101df5780634df6e605116101a35780634df6e60514610b8b5780634e1273f414610bd95780635a570c0c14610d7a5780635df7d82f14610d98578063715018a614610de6578063731133e914610df05761025d565b80632c236ebd146107ab5780632eb2c2d6146108805780632f2ff15d14610aa357806336568abe14610af15780634c83eaa014610b3f5761025d565b80630e89341c116102265780630e89341c146104835780631339324b1461052a578063197702da146105485780631f7fdffa14610566578063248a9ca3146107695761025d565b8062fdd58e1461026257806301ffc9a7146102c457806302fe530514610327578063052b9da7146103e257806306fdde0314610400575b600080fd5b6102ae6004803603604081101561027857600080fd5b81019080803573ffffffffffffffffffffffffffffffffffffffff16906020019092919080359060200190929190505050611574565b6040518082815260200191505060405180910390f35b61030f600480360360208110156102da57600080fd5b8101908080357bffffffffffffffffffffffffffffffffffffffffffffffffffffffff19169060200190929190505050611654565b60405180821515815260200191505060405180910390f35b6103e06004803603602081101561033d57600080fd5b810190808035906020019064010000000081111561035a57600080fd5b82018360208201111561036c57600080fd5b8035906020019184600183028401116401000000008311171561038e57600080fd5b91908080601f016020809104026020016040519081016040528093929190818152602001838380828437600081840152601f19601f8201169050808301925050505050505091929192905050506116bc565b005b6103ea611777565b6040518082815260200191505060405180910390f35b61040861177d565b6040518080602001828103825283818151815260200191508051906020019080838360005b8381101561044857808201518184015260208101905061042d565b50505050905090810190601f1680156104755780820380516001836020036101000a031916815260200191505b509250505060405180910390f35b6104af6004803603602081101561049957600080fd5b810190808035906020019092919050505061181b565b6040518080602001828103825283818151815260200191508051906020019080838360005b838110156104ef5780820151818401526020810190506104d4565b50505050905090810190601f16801561051c5780820380516001836020036101000a031916815260200191505b509250505060405180910390f35b6105326118bf565b6040518082815260200191505060405180910390f35b6105506118e3565b6040518082815260200191505060405180910390f35b6107676004803603608081101561057c57600080fd5b81019080803573ffffffffffffffffffffffffffffffffffffffff169060200190929190803590602001906401000000008111156105b957600080fd5b8201836020820111156105cb57600080fd5b803590602001918460208302840111640100000000831117156105ed57600080fd5b919080806020026020016040519081016040528093929190818152602001838360200280828437600081840152601f19601f8201169050808301925050505050505091929192908035906020019064010000000081111561064d57600080fd5b82018360208201111561065f57600080fd5b8035906020019184602083028401116401000000008311171561068157600080fd5b919080806020026020016040519081016040528093929190818152602001838360200280828437600081840152601f19601f820116905080830192505050505050509192919290803590602001906401000000008111156106e157600080fd5b8201836020820111156106f357600080fd5b8035906020019184600183028401116401000000008311171561071557600080fd5b91908080601f016020809104026020016040519081016040528093929190818152602001838380828437600081840152601f19601f820116905080830192505050505050509192919290505050611907565b005b6107956004803603602081101561077f57600080fd5b8101908080359060200190929190505050611a4c565b6040518082815260200191505060405180910390f35b6107e1600480360360408110156107c157600080fd5b810190808035906020019092919080359060200190929190505050611a6b565b60405180848152602001806020018373ffffffffffffffffffffffffffffffffffffffff168152602001828103825284818151815260200191508051906020019080838360005b83811015610843578082015181840152602081019050610828565b50505050905090810190601f1680156108705780820380516001836020036101000a031916815260200191505b5094505050505060405180910390f35b610aa1600480360360a081101561089657600080fd5b81019080803573ffffffffffffffffffffffffffffffffffffffff169060200190929190803573ffffffffffffffffffffffffffffffffffffffff169060200190929190803590602001906401000000008111156108f357600080fd5b82018360208201111561090557600080fd5b8035906020019184602083028401116401000000008311171561092757600080fd5b919080806020026020016040519081016040528093929190818152602001838360200280828437600081840152601f19601f8201169050808301925050505050505091929192908035906020019064010000000081111561098757600080fd5b82018360208201111561099957600080fd5b803590602001918460208302840111640100000000831117156109bb57600080fd5b919080806020026020016040519081016040528093929190818152602001838360200280828437600081840152601f19601f82011690508083019250505050505050919291929080359060200190640100000000811115610a1b57600080fd5b820183602082011115610a2d57600080fd5b80359060200191846001830284011164010000000083111715610a4f57600080fd5b91908080601f016020809104026020016040519081016040528093929190818152602001838380828437600081840152601f19601f820116905080830192505050505050509192919290505050611c0a565b005b610aef60048036036040811015610ab957600080fd5b8101908080359060200190929190803573ffffffffffffffffffffffffffffffffffffffff169060200190929190505050612095565b005b610b3d60048036036040811015610b0757600080fd5b8101908080359060200190929190803573ffffffffffffffffffffffffffffffffffffffff16906020019092919050505061211e565b005b610b7560048036036040811015610b5557600080fd5b8101908080359060200190929190803590602001909291905050506121b7565b6040518082815260200191505060405180910390f35b610bd760048036036040811015610ba157600080fd5b8101908080359060200190929190803573ffffffffffffffffffffffffffffffffffffffff1690602001909291905050506123fe565b005b610d2360048036036040811015610bef57600080fd5b8101908080359060200190640100000000811115610c0c57600080fd5b820183602082011115610c1e57600080fd5b80359060200191846020830284011164010000000083111715610c4057600080fd5b919080806020026020016040519081016040528093929190818152602001838360200280828437600081840152601f19601f82011690508083019250505050505050919291929080359060200190640100000000811115610ca057600080fd5b820183602082011115610cb257600080fd5b80359060200191846020830284011164010000000083111715610cd457600080fd5b919080806020026020016040519081016040528093929190818152602001838360200280828437600081840152601f19601f82011690508083019250505050505050919291929050505061253d565b6040518080602001828103825283818151815260200191508051906020019060200280838360005b83811015610d66578082015181840152602081019050610d4b565b505050509050019250505060405180910390f35b610d8261272f565b6040518082815260200191505060405180910390f35b610de460048036036040811015610dae57600080fd5b8101908080359060200190929190803573ffffffffffffffffffffffffffffffffffffffff169060200190929190505050612735565b005b610dee612874565b005b610edd60048036036080811015610e0657600080fd5b81019080803573ffffffffffffffffffffffffffffffffffffffff169060200190929190803590602001909291908035906020019092919080359060200190640100000000811115610e5757600080fd5b820183602082011115610e6957600080fd5b80359060200191846001830284011164010000000083111715610e8b57600080fd5b91908080601f016020809104026020016040519081016040528093929190818152602001838380828437600081840152601f19601f8201169050808301925050505050505091929192905050506129e4565b005b610f0b60048036036020811015610ef557600080fd5b8101908080359060200190929190505050612b4e565b60405180848152602001838152602001828152602001935050505060405180910390f35b610f37612ba5565b6040518082815260200191505060405180910390f35b610f55612ca1565b6040518082815260200191505060405180910390f35b610f73612cc5565b604051808273ffffffffffffffffffffffffffffffffffffffff16815260200191505060405180910390f35b610fd560048036036040811015610fb557600080fd5b810190808035906020019092919080359060200190929190505050612cef565b604051808273ffffffffffffffffffffffffffffffffffffffff16815260200191505060405180910390f35b6110416004803603606081101561101757600080fd5b81019080803590602001909291908035906020019092919080359060200190929190505050612d20565b005b61108f6004803603604081101561105957600080fd5b8101908080359060200190929190803573ffffffffffffffffffffffffffffffffffffffff169060200190929190505050612fa1565b60405180821515815260200191505060405180910390f35b6110af612fd2565b6040518080602001828103825283818151815260200191508051906020019080838360005b838110156110ef5780820151818401526020810190506110d4565b50505050905090810190601f16801561111c5780820380516001836020036101000a031916815260200191505b509250505060405180910390f35b6111566004803603602081101561114057600080fd5b8101908080359060200190929190505050613070565b60405180821515815260200191505060405180910390f35b6111766130a4565b6040518082815260200191505060405180910390f35b6111da600480360360408110156111a257600080fd5b81019080803573ffffffffffffffffffffffffffffffffffffffff1690602001909291908035151590602001909291905050506130ab565b005b6111e4613244565b005b611212600480360360208110156111fc57600080fd5b81019080803590602001909291905050506133bc565b6040518082815260200191505060405180910390f35b6112b36004803603606081101561123e57600080fd5b8101908080359060200190929190803590602001909291908035906020019064010000000081111561126f57600080fd5b82018360208201111561128157600080fd5b803590602001918460018302840111640100000000831117156112a357600080fd5b90919293919293905050506133d4565b005b6112e1600480360360208110156112cb57600080fd5b8101908080359060200190929190505050613547565b6040518082815260200191505060405180910390f35b6113396004803603602081101561130d57600080fd5b81019080803573ffffffffffffffffffffffffffffffffffffffff16906020019092919050505061356d565b005b611343613660565b6040518082815260200191505060405180910390f35b6113a56004803603604081101561136f57600080fd5b8101908080359060200190929190803573ffffffffffffffffffffffffffffffffffffffff169060200190929190505050613684565b005b611409600480360360408110156113bd57600080fd5b81019080803573ffffffffffffffffffffffffffffffffffffffff169060200190929190803573ffffffffffffffffffffffffffffffffffffffff16906020019092919050505061370d565b60405180821515815260200191505060405180910390f35b61152e600480360360a081101561143757600080fd5b81019080803573ffffffffffffffffffffffffffffffffffffffff169060200190929190803573ffffffffffffffffffffffffffffffffffffffff1690602001909291908035906020019092919080359060200190929190803590602001906401000000008111156114a857600080fd5b8201836020820111156114ba57600080fd5b803590602001918460018302840111640100000000831117156114dc57600080fd5b91908080601f016020809104026020016040519081016040528093929190818152602001838380828437600081840152601f19601f82011690508083019250505050505050919291929050505061387f565b005b6115726004803603602081101561154657600080fd5b81019080803573ffffffffffffffffffffffffffffffffffffffff169060200190929190505050613bf4565b005b60008073ffffffffffffffffffffffffffffffffffffffff168373ffffffffffffffffffffffffffffffffffffffff1614156115fb576040517f08c379a000000000000000000000000000000000000000000000000000000000815260040180806020018281038252602b815260200180615d00602b913960400191505060405180910390fd5b6003600083815260200190815260200160002060008473ffffffffffffffffffffffffffffffffffffffff1673ffffffffffffffffffffffffffffffffffffffff16815260200190815260200160002054905092915050565b600060026000837bffffffffffffffffffffffffffffffffffffffffffffffffffffffff19167bffffffffffffffffffffffffffffffffffffffffffffffffffffffff1916815260200190815260200160002060009054906101000a900460ff169050919050565b6116c4613e19565b73ffffffffffffffffffffffffffffffffffffffff166116e2612cc5565b73ffffffffffffffffffffffffffffffffffffffff161461176b576040517f08c379a00000000000000000000000000000000000000000000000000000000081526004018080602001828103825260208152602001807f4f776e61626c653a2063616c6c6572206973206e6f7420746865206f776e657281525060200191505060405180910390fd5b61177481613e21565b50565b60105481565b60098054600181600116156101000203166002900480601f0160208091040260200160405190810160405280929190818152602001828054600181600116156101000203166002900480156118135780601f106117e857610100808354040283529160200191611813565b820191906000526020600020905b8154815290600101906020018083116117f657829003601f168201915b505050505081565b606060058054600181600116156101000203166002900480601f0160208091040260200160405190810160405280929190818152602001828054600181600116156101000203166002900480156118b35780601f10611888576101008083540402835291602001916118b3565b820191906000526020600020905b81548152906001019060200180831161189657829003601f168201915b50505050509050919050565b7f70480ee89cb38eff00b7d23da25713d52ce19c6ed428691d22c58b2f615e3d6781565b7f5721171b1e9186284262a02aac3a681e12de7388ebccd0c2d06623651b6af6f881565b6119387f9f2df0fed2c77648de5860a4cc508cd0818c85b8b8a1ab4ceeef8d981c8956a6611933613e19565b612fa1565b6119aa576040517f08c379a00000000000000000000000000000000000000000000000000000000081526004018080602001828103825260148152602001807f43616c6c6572206973206e6f74206d696e74657200000000000000000000000081525060200191505060405180910390fd5b60005b8351811015611a3957611a028382815181106119c557fe5b6020026020010151600860008785815181106119dd57fe5b6020026020010151815260200190815260200160002054613e3b90919063ffffffff16565b60086000868481518110611a1257fe5b602002602001015181526020019081526020016000208190555080806001019150506119ad565b50611a4684848484613ec3565b50505050565b6000806000838152602001908152602001600020600201549050919050565b600060606000600f60009054906101000a900473ffffffffffffffffffffffffffffffffffffffff1673ffffffffffffffffffffffffffffffffffffffff1663fcf2aa7f611ab987876141e5565b6040518263ffffffff1660e01b81526004018082815260200191505060006040518083038186803b158015611aed57600080fd5b505afa158015611b01573d6000803e3d6000fd5b505050506040513d6000823e3d601f19601f820116820180604052506060811015611b2b57600080fd5b810190808051906020019092919080516040519392919084640100000000821115611b5557600080fd5b83820191506020820185811115611b6b57600080fd5b8251866001820283011164010000000082111715611b8857600080fd5b8083526020830192505050908051906020019080838360005b83811015611bbc578082015181840152602081019050611ba1565b50505050905090810190601f168015611be95780820380516001836020036101000a031916815260200191505b50604052602001805190602001909291905050509250925092509250925092565b8151835114611c64576040517f08c379a0000000000000000000000000000000000000000000000000000000008152600401808060200182810382526028815260200180615f166028913960400191505060405180910390fd5b600073ffffffffffffffffffffffffffffffffffffffff168473ffffffffffffffffffffffffffffffffffffffff161415611cea576040517f08c379a0000000000000000000000000000000000000000000000000000000008152600401808060200182810382526025815260200180615dff6025913960400191505060405180910390fd5b611cf2613e19565b73ffffffffffffffffffffffffffffffffffffffff168573ffffffffffffffffffffffffffffffffffffffff161480611d385750611d3785611d32613e19565b61370d565b5b611d8d576040517f08c379a0000000000000000000000000000000000000000000000000000000008152600401808060200182810382526032815260200180615e246032913960400191505060405180910390fd5b6000611d97613e19565b9050611da7818787878787614327565b60005b8451811015611f78576000858281518110611dc157fe5b602002602001015190506000858381518110611dd957fe5b60200260200101519050611e60816040518060600160405280602a8152602001615e79602a91396003600086815260200190815260200160002060008d73ffffffffffffffffffffffffffffffffffffffff1673ffffffffffffffffffffffffffffffffffffffff168152602001908152602001600020546146cc9092919063ffffffff16565b6003600084815260200190815260200160002060008b73ffffffffffffffffffffffffffffffffffffffff1673ffffffffffffffffffffffffffffffffffffffff16815260200190815260200160002081905550611f17816003600085815260200190815260200160002060008b73ffffffffffffffffffffffffffffffffffffffff1673ffffffffffffffffffffffffffffffffffffffff16815260200190815260200160002054613e3b90919063ffffffff16565b6003600084815260200190815260200160002060008a73ffffffffffffffffffffffffffffffffffffffff1673ffffffffffffffffffffffffffffffffffffffff168152602001908152602001600020819055505050806001019050611daa565b508473ffffffffffffffffffffffffffffffffffffffff168673ffffffffffffffffffffffffffffffffffffffff168273ffffffffffffffffffffffffffffffffffffffff167f4a39dc06d4c0dbc64b70af90fd698a233a518aa5d07e595d983b8c0526c8f7fb8787604051808060200180602001838103835285818151815260200191508051906020019060200280838360005b8381101561202857808201518184015260208101905061200d565b50505050905001838103825284818151815260200191508051906020019060200280838360005b8381101561206a57808201518184015260208101905061204f565b5050505090500194505050505060405180910390a461208d818787878787614786565b505050505050565b6120bb600080848152602001908152602001600020600201546120b6613e19565b612fa1565b612110576040517f08c379a000000000000000000000000000000000000000000000000000000000815260040180806020018281038252602f815260200180615cd1602f913960400191505060405180910390fd5b61211a8282614b15565b5050565b612126613e19565b73ffffffffffffffffffffffffffffffffffffffff168173ffffffffffffffffffffffffffffffffffffffff16146121a9576040517f08c379a000000000000000000000000000000000000000000000000000000000815260040180806020018281038252602f815260200180615f5f602f913960400191505060405180910390fd5b6121b38282614ba8565b5050565b6000600115156011600085815260200190815260200160002060000160009054906101000a900460ff16151514612256576040517f08c379a00000000000000000000000000000000000000000000000000000000081526004018080602001828103825260148152602001807f7363656e6520646f6573206e6f7420657869737400000000000000000000000081525060200191505060405180910390fd5b600061226284846141e5565b9050600061227285856000614c3b565b905060006011600087815260200190815260200160002060020154905060005b8181101561239a5760006122af8285613e3b90919063ffffffff16565b905060006122cf336122ca8588613e3b90919063ffffffff16565b611574565b11612342576040517f08c379a000000000000000000000000000000000000000000000000000000000815260040180806020018281038252601d8152602001807f646f206e6f74206861766520616c6c2070757a7a6c6520746f6b656e7300000081525060200191505060405180910390fd5b61236960016008600084815260200190815260200160002054614d8a90919063ffffffff16565b600860008381526020019081526020016000208190555061238c33826001614e0d565b508080600101915050612292565b506123c260016008600086815260200190815260200160002054613e3b90919063ffffffff16565b60086000858152602001908152602001600020819055506123f53384600160405180602001604052806000815250615029565b50505092915050565b7f5721171b1e9186284262a02aac3a681e12de7388ebccd0c2d06623651b6af6f88214801561245a57506124597f5721171b1e9186284262a02aac3a681e12de7388ebccd0c2d06623651b6af6f8612454613e19565b612fa1565b5b806124bd57507f70480ee89cb38eff00b7d23da25713d52ce19c6ed428691d22c58b2f615e3d67821480156124bc57506124bb7f70480ee89cb38eff00b7d23da25713d52ce19c6ed428691d22c58b2f615e3d676124b6613e19565b612fa1565b5b5b61252f576040517f08c379a000000000000000000000000000000000000000000000000000000000815260040180806020018281038252600c8152602001807f4e6f7420616e2061646d696e000000000000000000000000000000000000000081525060200191505060405180910390fd5b6125398282614b15565b5050565b60608151835114612599576040517f08c379a0000000000000000000000000000000000000000000000000000000008152600401808060200182810382526029815260200180615eed6029913960400191505060405180910390fd5b6060835167ffffffffffffffff811180156125b357600080fd5b506040519080825280602002602001820160405280156125e25781602001602082028036833780820191505090505b50905060005b845181101561272457600073ffffffffffffffffffffffffffffffffffffffff1685828151811061261557fe5b602002602001015173ffffffffffffffffffffffffffffffffffffffff16141561268a576040517f08c379a0000000000000000000000000000000000000000000000000000000008152600401808060200182810382526031815260200180615d2b6031913960400191505060405180910390fd5b6003600085838151811061269a57fe5b6020026020010151815260200190815260200160002060008683815181106126be57fe5b602002602001015173ffffffffffffffffffffffffffffffffffffffff1673ffffffffffffffffffffffffffffffffffffffff1681526020019081526020016000205482828151811061270d57fe5b6020026020010181815250508060010190506125e8565b508091505092915050565b60075481565b7f5721171b1e9186284262a02aac3a681e12de7388ebccd0c2d06623651b6af6f88214801561279157506127907f5721171b1e9186284262a02aac3a681e12de7388ebccd0c2d06623651b6af6f861278b613e19565b612fa1565b5b806127f457507f70480ee89cb38eff00b7d23da25713d52ce19c6ed428691d22c58b2f615e3d67821480156127f357506127f27f70480ee89cb38eff00b7d23da25713d52ce19c6ed428691d22c58b2f615e3d676127ed613e19565b612fa1565b5b5b612866576040517f08c379a000000000000000000000000000000000000000000000000000000000815260040180806020018281038252600c8152602001807f4e6f7420616e2061646d696e000000000000000000000000000000000000000081525060200191505060405180910390fd5b6128708282614ba8565b5050565b61287c613e19565b73ffffffffffffffffffffffffffffffffffffffff1661289a612cc5565b73ffffffffffffffffffffffffffffffffffffffff1614612923576040517f08c379a00000000000000000000000000000000000000000000000000000000081526004018080602001828103825260208152602001807f4f776e61626c653a2063616c6c6572206973206e6f7420746865206f776e657281525060200191505060405180910390fd5b600073ffffffffffffffffffffffffffffffffffffffff16600160009054906101000a900473ffffffffffffffffffffffffffffffffffffffff1673ffffffffffffffffffffffffffffffffffffffff167f8be0079c531659141344cd1fd0a4f28419497f9722a3daafe3b4186f6b6457e060405160405180910390a36000600160006101000a81548173ffffffffffffffffffffffffffffffffffffffff021916908373ffffffffffffffffffffffffffffffffffffffff160217905550565b612a157f9f2df0fed2c77648de5860a4cc508cd0818c85b8b8a1ab4ceeef8d981c8956a6612a10613e19565b612fa1565b612a87576040517f08c379a00000000000000000000000000000000000000000000000000000000081526004018080602001828103825260148152602001807f43616c6c6572206973206e6f74206d696e74657200000000000000000000000081525060200191505060405180910390fd5b600754831115612aff576040517f08c379a000000000000000000000000000000000000000000000000000000000815260040180806020018281038252600c8152602001807f546f6b656e20494420444e45000000000000000000000000000000000000000081525060200191505060405180910390fd5b612b25826008600086815260200190815260200160002054613e3b90919063ffffffff16565b6008600085815260200190815260200160002081905550612b4884848484615029565b50505050565b60008060006011600085815260200190815260200160002060030154601160008681526020019081526020016000206002015460116000878152602001908152602001600020600101549250925092509193909250565b6000806000905060005b600c60003373ffffffffffffffffffffffffffffffffffffffff1673ffffffffffffffffffffffffffffffffffffffff16815260200190815260200160002054811015612c99576000612c7462015180612c66600b60003373ffffffffffffffffffffffffffffffffffffffff1673ffffffffffffffffffffffffffffffffffffffff1681526020019081526020016000208581548110612c4c57fe5b906000526020600020015442614d8a90919063ffffffff16565b61522c90919063ffffffff16565b9050612c898184613e3b90919063ffffffff16565b9250508080600101915050612baf565b508091505090565b7f828634d95e775031b9ff576b159a8509d3053581a8c9c4d7d86899e0afcd882f81565b6000600160009054906101000a900473ffffffffffffffffffffffffffffffffffffffff16905090565b6000612d18826000808681526020019081526020016000206000016152b590919063ffffffff16565b905092915050565b612d517f828634d95e775031b9ff576b159a8509d3053581a8c9c4d7d86899e0afcd882f612d4c613e19565b612fa1565b612dc3576040517f08c379a000000000000000000000000000000000000000000000000000000000815260040180806020018281038252600d8152602001807f6e6f7420612063726561746f720000000000000000000000000000000000000081525060200191505060405180910390fd5b600082118015612dd35750600081115b612e45576040517f08c379a00000000000000000000000000000000000000000000000000000000081526004018080602001828103825260088152602001807f6261642064696d7300000000000000000000000000000000000000000000000081525060200191505060405180910390fd5b600015156011600085815260200190815260200160002060000160009054906101000a900460ff16151514612ee2576040517f08c379a00000000000000000000000000000000000000000000000000000000081526004018080602001828103825260128152602001807f7363656e6520616c72656164792068657265000000000000000000000000000081525060200191505060405180910390fd5b600060116000858152602001908152602001600020905060018160000160006101000a81548160ff021916908315150217905550828160010181905550818160020181905550600060075490508082600301819055506000612f6085612f52600187613e3b90919063ffffffff16565b6152cf90919063ffffffff16565b9050612f7781600754613e3b90919063ffffffff16565b600781905550612f936001601054613e3b90919063ffffffff16565b601081905550505050505050565b6000612fca8260008086815260200190815260200160002060000161535590919063ffffffff16565b905092915050565b600a8054600181600116156101000203166002900480601f0160208091040260200160405190810160405280929190818152602001828054600181600116156101000203166002900480156130685780601f1061303d57610100808354040283529160200191613068565b820191906000526020600020905b81548152906001019060200180831161304b57829003601f168201915b505050505081565b6000600115156011600084815260200190815260200160002060000160009054906101000a900460ff161515149050919050565b6000801b81565b8173ffffffffffffffffffffffffffffffffffffffff166130ca613e19565b73ffffffffffffffffffffffffffffffffffffffff161415613137576040517f08c379a0000000000000000000000000000000000000000000000000000000008152600401808060200182810382526029815260200180615ec46029913960400191505060405180910390fd5b8060046000613144613e19565b73ffffffffffffffffffffffffffffffffffffffff1673ffffffffffffffffffffffffffffffffffffffff16815260200190815260200160002060008473ffffffffffffffffffffffffffffffffffffffff1673ffffffffffffffffffffffffffffffffffffffff16815260200190815260200160002060006101000a81548160ff0219169083151502179055508173ffffffffffffffffffffffffffffffffffffffff166131f1613e19565b73ffffffffffffffffffffffffffffffffffffffff167f17307eab39ab6107e8899845ad3d59bd9653f200f220920489ca2b5937696c318360405180821515815260200191505060405180910390a35050565b600061324e612ba5565b90506000811161325d57600080fd5b60005b600c60003373ffffffffffffffffffffffffffffffffffffffff1673ffffffffffffffffffffffffffffffffffffffff1681526020019081526020016000205481101561330d5742600b60003373ffffffffffffffffffffffffffffffffffffffff1673ffffffffffffffffffffffffffffffffffffffff16815260200190815260200160002082815481106132f257fe5b90600052602060002001819055508080600101915050613260565b50600e60009054906101000a900473ffffffffffffffffffffffffffffffffffffffff1673ffffffffffffffffffffffffffffffffffffffff16631662b2f933836040518363ffffffff1660e01b8152600401808373ffffffffffffffffffffffffffffffffffffffff16815260200182815260200192505050600060405180830381600087803b1580156133a157600080fd5b505af11580156133b5573d6000803e3d6000fd5b5050505050565b60086020528060005260406000206000915090505481565b60006133e085856141e5565b905060006133ee3383611574565b11613461576040517f08c379a00000000000000000000000000000000000000000000000000000000081526004018080602001828103825260198152602001807f6f6e6c792072656e616d65206f776e65642070757a7a6c65730000000000000081525060200191505060405180910390fd5b600f60009054906101000a900473ffffffffffffffffffffffffffffffffffffffff1673ffffffffffffffffffffffffffffffffffffffff1663245d58c1338386866040518563ffffffff1660e01b8152600401808573ffffffffffffffffffffffffffffffffffffffff168152602001848152602001806020018281038252848482818152602001925080828437600081840152601f19601f82011690508083019250505095505050505050600060405180830381600087803b15801561352857600080fd5b505af115801561353c573d6000803e3d6000fd5b505050505050505050565b6000613566600080848152602001908152602001600020600001615385565b9050919050565b613575613e19565b73ffffffffffffffffffffffffffffffffffffffff16613593612cc5565b73ffffffffffffffffffffffffffffffffffffffff161461361c576040517f08c379a00000000000000000000000000000000000000000000000000000000081526004018080602001828103825260208152602001807f4f776e61626c653a2063616c6c6572206973206e6f7420746865206f776e657281525060200191505060405180910390fd5b80600660006101000a81548173ffffffffffffffffffffffffffffffffffffffff021916908373ffffffffffffffffffffffffffffffffffffffff16021790555050565b7f9f2df0fed2c77648de5860a4cc508cd0818c85b8b8a1ab4ceeef8d981c8956a681565b6136aa600080848152602001908152602001600020600201546136a5613e19565b612fa1565b6136ff576040517f08c379a0000000000000000000000000000000000000000000000000000000008152600401808060200182810382526030815260200180615dcf6030913960400191505060405180910390fd5b6137098282614ba8565b5050565b60008073ffffffffffffffffffffffffffffffffffffffff16600660009054906101000a900473ffffffffffffffffffffffffffffffffffffffff1673ffffffffffffffffffffffffffffffffffffffff161461386c576000600660009054906101000a900473ffffffffffffffffffffffffffffffffffffffff1690508273ffffffffffffffffffffffffffffffffffffffff168173ffffffffffffffffffffffffffffffffffffffff1663c4552791866040518263ffffffff1660e01b8152600401808273ffffffffffffffffffffffffffffffffffffffff16815260200191505060206040518083038186803b15801561380957600080fd5b505afa15801561381d573d6000803e3d6000fd5b505050506040513d602081101561383357600080fd5b810190808051906020019092919050505073ffffffffffffffffffffffffffffffffffffffff16141561386a576001915050613879565b505b613876838361539a565b90505b92915050565b600073ffffffffffffffffffffffffffffffffffffffff168473ffffffffffffffffffffffffffffffffffffffff161415613905576040517f08c379a0000000000000000000000000000000000000000000000000000000008152600401808060200182810382526025815260200180615dff6025913960400191505060405180910390fd5b61390d613e19565b73ffffffffffffffffffffffffffffffffffffffff168573ffffffffffffffffffffffffffffffffffffffff16148061395357506139528561394d613e19565b61370d565b5b6139a8576040517f08c379a0000000000000000000000000000000000000000000000000000000008152600401808060200182810382526029815260200180615da66029913960400191505060405180910390fd5b60006139b2613e19565b90506139d28187876139c38861542e565b6139cc8861542e565b87614327565b613a4f836040518060600160405280602a8152602001615e79602a91396003600088815260200190815260200160002060008a73ffffffffffffffffffffffffffffffffffffffff1673ffffffffffffffffffffffffffffffffffffffff168152602001908152602001600020546146cc9092919063ffffffff16565b6003600086815260200190815260200160002060008873ffffffffffffffffffffffffffffffffffffffff1673ffffffffffffffffffffffffffffffffffffffff16815260200190815260200160002081905550613b06836003600087815260200190815260200160002060008873ffffffffffffffffffffffffffffffffffffffff1673ffffffffffffffffffffffffffffffffffffffff16815260200190815260200160002054613e3b90919063ffffffff16565b6003600086815260200190815260200160002060008773ffffffffffffffffffffffffffffffffffffffff1673ffffffffffffffffffffffffffffffffffffffff168152602001908152602001600020819055508473ffffffffffffffffffffffffffffffffffffffff168673ffffffffffffffffffffffffffffffffffffffff168273ffffffffffffffffffffffffffffffffffffffff167fc3d58168c5ae7397731d063d5bbf3d657854427343f4c083240f7aacaa2d0f628787604051808381526020018281526020019250505060405180910390a4613bec81878787878761549e565b505050505050565b613bfc613e19565b73ffffffffffffffffffffffffffffffffffffffff16613c1a612cc5565b73ffffffffffffffffffffffffffffffffffffffff1614613ca3576040517f08c379a00000000000000000000000000000000000000000000000000000000081526004018080602001828103825260208152602001807f4f776e61626c653a2063616c6c6572206973206e6f7420746865206f776e657281525060200191505060405180910390fd5b600073ffffffffffffffffffffffffffffffffffffffff168173ffffffffffffffffffffffffffffffffffffffff161415613d29576040517f08c379a0000000000000000000000000000000000000000000000000000000008152600401808060200182810382526026815260200180615d5c6026913960400191505060405180910390fd5b8073ffffffffffffffffffffffffffffffffffffffff16600160009054906101000a900473ffffffffffffffffffffffffffffffffffffffff1673ffffffffffffffffffffffffffffffffffffffff167f8be0079c531659141344cd1fd0a4f28419497f9722a3daafe3b4186f6b6457e060405160405180910390a380600160006101000a81548173ffffffffffffffffffffffffffffffffffffffff021916908373ffffffffffffffffffffffffffffffffffffffff16021790555050565b6000613e11836000018373ffffffffffffffffffffffffffffffffffffffff1660001b6157ab565b905092915050565b600033905090565b8060059080519060200190613e37929190615ae1565b5050565b600080828401905083811015613eb9576040517f08c379a000000000000000000000000000000000000000000000000000000000815260040180806020018281038252601b8152602001807f536166654d6174683a206164646974696f6e206f766572666c6f77000000000081525060200191505060405180910390fd5b8091505092915050565b600073ffffffffffffffffffffffffffffffffffffffff168473ffffffffffffffffffffffffffffffffffffffff161415613f49576040517f08c379a0000000000000000000000000000000000000000000000000000000008152600401808060200182810382526021815260200180615f3e6021913960400191505060405180910390fd5b8151835114613fa3576040517f08c379a0000000000000000000000000000000000000000000000000000000008152600401808060200182810382526028815260200180615f166028913960400191505060405180910390fd5b6000613fad613e19565b9050613fbe81600087878787614327565b60005b84518110156140c75761405360036000878481518110613fdd57fe5b6020026020010151815260200190815260200160002060008873ffffffffffffffffffffffffffffffffffffffff1673ffffffffffffffffffffffffffffffffffffffff1681526020019081526020016000205485838151811061403d57fe5b6020026020010151613e3b90919063ffffffff16565b6003600087848151811061406357fe5b6020026020010151815260200190815260200160002060008873ffffffffffffffffffffffffffffffffffffffff1673ffffffffffffffffffffffffffffffffffffffff168152602001908152602001600020819055508080600101915050613fc1565b508473ffffffffffffffffffffffffffffffffffffffff16600073ffffffffffffffffffffffffffffffffffffffff168273ffffffffffffffffffffffffffffffffffffffff167f4a39dc06d4c0dbc64b70af90fd698a233a518aa5d07e595d983b8c0526c8f7fb8787604051808060200180602001838103835285818151815260200191508051906020019060200280838360005b8381101561417857808201518184015260208101905061415d565b50505050905001838103825284818151815260200191508051906020019060200280838360005b838110156141ba57808201518184015260208101905061419f565b5050505090500194505050505060405180910390a46141de81600087878787614786565b5050505050565b6000600115156011600085815260200190815260200160002060000160009054906101000a900460ff16151514614284576040517f08c379a00000000000000000000000000000000000000000000000000000000081526004018080602001828103825260148152602001807f7363656e6520646f6573206e6f7420657869737400000000000000000000000081525060200191505060405180910390fd5b816011600085815260200190815260200160002060010154116142a657600080fd5b61431f6142e8601160008681526020019081526020016000206001015460116000878152602001908152602001600020600201546152cf90919063ffffffff16565b614311846011600088815260200190815260200160002060030154613e3b90919063ffffffff16565b613e3b90919063ffffffff16565b905092915050565b60005b83518110156146c35761434f84828151811061434257fe5b602002602001015161581b565b156146b657600073ffffffffffffffffffffffffffffffffffffffff168573ffffffffffffffffffffffffffffffffffffffff16146145d85760005b83828151811061439757fe5b60200260200101518110156145d657600c60008773ffffffffffffffffffffffffffffffffffffffff1673ffffffffffffffffffffffffffffffffffffffff16815260200190815260200160002054600b60008873ffffffffffffffffffffffffffffffffffffffff1673ffffffffffffffffffffffffffffffffffffffff1681526020019081526020016000208054905011156144cc5742600b60008873ffffffffffffffffffffffffffffffffffffffff1673ffffffffffffffffffffffffffffffffffffffff168152602001908152602001600020600c60008973ffffffffffffffffffffffffffffffffffffffff1673ffffffffffffffffffffffffffffffffffffffff16815260200190815260200160002054815481106144b957fe5b9060005260206000200181905550614533565b600b60008773ffffffffffffffffffffffffffffffffffffffff1673ffffffffffffffffffffffffffffffffffffffff1681526020019081526020016000204290806001815401808255809150506001900390600052602060002001600090919091909150555b6145866001600c60008973ffffffffffffffffffffffffffffffffffffffff1673ffffffffffffffffffffffffffffffffffffffff16815260200190815260200160002054613e3b90919063ffffffff16565b600c60008873ffffffffffffffffffffffffffffffffffffffff1673ffffffffffffffffffffffffffffffffffffffff16815260200190815260200160002081905550808060010191505061438b565b505b600073ffffffffffffffffffffffffffffffffffffffff168673ffffffffffffffffffffffffffffffffffffffff16146146b55761467183828151811061461b57fe5b6020026020010151600c60008973ffffffffffffffffffffffffffffffffffffffff1673ffffffffffffffffffffffffffffffffffffffff16815260200190815260200160002054614d8a90919063ffffffff16565b600c60008873ffffffffffffffffffffffffffffffffffffffff1673ffffffffffffffffffffffffffffffffffffffff168152602001908152602001600020819055505b5b808060010191505061432a565b50505050505050565b6000838311158290614779576040517f08c379a00000000000000000000000000000000000000000000000000000000081526004018080602001828103825283818151815260200191508051906020019080838360005b8381101561473e578082015181840152602081019050614723565b50505050905090810190601f16801561476b5780820380516001836020036101000a031916815260200191505b509250505060405180910390fd5b5082840390509392505050565b6147a58473ffffffffffffffffffffffffffffffffffffffff166158ff565b15614b0d578373ffffffffffffffffffffffffffffffffffffffff1663bc197c8187878686866040518663ffffffff1660e01b8152600401808673ffffffffffffffffffffffffffffffffffffffff1681526020018573ffffffffffffffffffffffffffffffffffffffff168152602001806020018060200180602001848103845287818151815260200191508051906020019060200280838360005b8381101561485d578082015181840152602081019050614842565b50505050905001848103835286818151815260200191508051906020019060200280838360005b8381101561489f578082015181840152602081019050614884565b50505050905001848103825285818151815260200191508051906020019080838360005b838110156148de5780820151818401526020810190506148c3565b50505050905090810190601f16801561490b5780820380516001836020036101000a031916815260200191505b5098505050505050505050602060405180830381600087803b15801561493057600080fd5b505af192505050801561496457506040513d602081101561495057600080fd5b810190808051906020019092919050505060015b614a6e57614970615b9c565b8061497b5750614a1d565b806040517f08c379a00000000000000000000000000000000000000000000000000000000081526004018080602001828103825283818151815260200191508051906020019080838360005b838110156149e25780820151818401526020810190506149c7565b50505050905090810190601f168015614a0f5780820380516001836020036101000a031916815260200191505b509250505060405180910390fd5b6040517f08c379a0000000000000000000000000000000000000000000000000000000008152600401808060200182810382526034815260200180615c536034913960400191505060405180910390fd5b63bc197c8160e01b7bffffffffffffffffffffffffffffffffffffffffffffffffffffffff1916817bffffffffffffffffffffffffffffffffffffffffffffffffffffffff191614614b0b576040517f08c379a0000000000000000000000000000000000000000000000000000000008152600401808060200182810382526028815260200180615ca96028913960400191505060405180910390fd5b505b505050505050565b614b3c81600080858152602001908152602001600020600001613de990919063ffffffff16565b15614ba457614b49613e19565b73ffffffffffffffffffffffffffffffffffffffff168173ffffffffffffffffffffffffffffffffffffffff16837f2f8788117e7eff1d82e926ec794901d17c78024a50270940304540a733656f0d60405160405180910390a45b5050565b614bcf8160008085815260200190815260200160002060000161591290919063ffffffff16565b15614c3757614bdc613e19565b73ffffffffffffffffffffffffffffffffffffffff168173ffffffffffffffffffffffffffffffffffffffff16837ff6391f5c32d9c69d2a47ea670b442974b53935d1edc7fd64eb21e047a839171b60405160405180910390a45b5050565b6000600115156011600086815260200190815260200160002060000160009054906101000a900460ff16151514614cda576040517f08c379a00000000000000000000000000000000000000000000000000000000081526004018080602001828103825260148152602001807f7363656e6520646f6573206e6f7420657869737400000000000000000000000081525060200191505060405180910390fd5b82601160008681526020019081526020016000206001015411614cfc57600080fd5b81601160008681526020019081526020016000206002015411614d1e57600080fd5b614d81614d4a8460116000888152602001908152602001600020600201546152cf90919063ffffffff16565b614d73846011600089815260200190815260200160002060030154613e3b90919063ffffffff16565b613e3b90919063ffffffff16565b90509392505050565b600082821115614e02576040517f08c379a000000000000000000000000000000000000000000000000000000000815260040180806020018281038252601e8152602001807f536166654d6174683a207375627472616374696f6e206f766572666c6f77000081525060200191505060405180910390fd5b818303905092915050565b600073ffffffffffffffffffffffffffffffffffffffff168373ffffffffffffffffffffffffffffffffffffffff161415614e93576040517f08c379a0000000000000000000000000000000000000000000000000000000008152600401808060200182810382526023815260200180615e566023913960400191505060405180910390fd5b6000614e9d613e19565b9050614ecd81856000614eaf8761542e565b614eb88761542e565b60405180602001604052806000815250614327565b614f4a82604051806060016040528060248152602001615d82602491396003600087815260200190815260200160002060008873ffffffffffffffffffffffffffffffffffffffff1673ffffffffffffffffffffffffffffffffffffffff168152602001908152602001600020546146cc9092919063ffffffff16565b6003600085815260200190815260200160002060008673ffffffffffffffffffffffffffffffffffffffff1673ffffffffffffffffffffffffffffffffffffffff16815260200190815260200160002081905550600073ffffffffffffffffffffffffffffffffffffffff168473ffffffffffffffffffffffffffffffffffffffff168273ffffffffffffffffffffffffffffffffffffffff167fc3d58168c5ae7397731d063d5bbf3d657854427343f4c083240f7aacaa2d0f628686604051808381526020018281526020019250505060405180910390a450505050565b600073ffffffffffffffffffffffffffffffffffffffff168473ffffffffffffffffffffffffffffffffffffffff1614156150af576040517f08c379a0000000000000000000000000000000000000000000000000000000008152600401808060200182810382526021815260200180615f3e6021913960400191505060405180910390fd5b60006150b9613e19565b90506150da816000876150cb8861542e565b6150d48861542e565b87614327565b61513d836003600087815260200190815260200160002060008873ffffffffffffffffffffffffffffffffffffffff1673ffffffffffffffffffffffffffffffffffffffff16815260200190815260200160002054613e3b90919063ffffffff16565b6003600086815260200190815260200160002060008773ffffffffffffffffffffffffffffffffffffffff1673ffffffffffffffffffffffffffffffffffffffff168152602001908152602001600020819055508473ffffffffffffffffffffffffffffffffffffffff16600073ffffffffffffffffffffffffffffffffffffffff168273ffffffffffffffffffffffffffffffffffffffff167fc3d58168c5ae7397731d063d5bbf3d657854427343f4c083240f7aacaa2d0f628787604051808381526020018281526020019250505060405180910390a46152258160008787878761549e565b5050505050565b60008082116152a3576040517f08c379a000000000000000000000000000000000000000000000000000000000815260040180806020018281038252601a8152602001807f536166654d6174683a206469766973696f6e206279207a65726f00000000000081525060200191505060405180910390fd5b8183816152ac57fe5b04905092915050565b60006152c48360000183615942565b60001c905092915050565b6000808314156152e2576000905061534f565b60008284029050828482816152f357fe5b041461534a576040517f08c379a0000000000000000000000000000000000000000000000000000000008152600401808060200182810382526021815260200180615ea36021913960400191505060405180910390fd5b809150505b92915050565b600061537d836000018373ffffffffffffffffffffffffffffffffffffffff1660001b6159c5565b905092915050565b6000615393826000016159e8565b9050919050565b6000600460008473ffffffffffffffffffffffffffffffffffffffff1673ffffffffffffffffffffffffffffffffffffffff16815260200190815260200160002060008373ffffffffffffffffffffffffffffffffffffffff1673ffffffffffffffffffffffffffffffffffffffff16815260200190815260200160002060009054906101000a900460ff16905092915050565b606080600167ffffffffffffffff8111801561544957600080fd5b506040519080825280602002602001820160405280156154785781602001602082028036833780820191505090505b509050828160008151811061548957fe5b60200260200101818152505080915050919050565b6154bd8473ffffffffffffffffffffffffffffffffffffffff166158ff565b156157a3578373ffffffffffffffffffffffffffffffffffffffff1663f23a6e6187878686866040518663ffffffff1660e01b8152600401808673ffffffffffffffffffffffffffffffffffffffff1681526020018573ffffffffffffffffffffffffffffffffffffffff16815260200184815260200183815260200180602001828103825283818151815260200191508051906020019080838360005b8381101561557657808201518184015260208101905061555b565b50505050905090810190601f1680156155a35780820380516001836020036101000a031916815260200191505b509650505050505050602060405180830381600087803b1580156155c657600080fd5b505af19250505080156155fa57506040513d60208110156155e657600080fd5b810190808051906020019092919050505060015b61570457615606615b9c565b8061561157506156b3565b806040517f08c379a00000000000000000000000000000000000000000000000000000000081526004018080602001828103825283818151815260200191508051906020019080838360005b8381101561567857808201518184015260208101905061565d565b50505050905090810190601f1680156156a55780820380516001836020036101000a031916815260200191505b509250505060405180910390fd5b6040517f08c379a0000000000000000000000000000000000000000000000000000000008152600401808060200182810382526034815260200180615c536034913960400191505060405180910390fd5b63f23a6e6160e01b7bffffffffffffffffffffffffffffffffffffffffffffffffffffffff1916817bffffffffffffffffffffffffffffffffffffffffffffffffffffffff1916146157a1576040517f08c379a0000000000000000000000000000000000000000000000000000000008152600401808060200182810382526028815260200180615ca96028913960400191505060405180910390fd5b505b505050505050565b60006157b783836159c5565b615810578260000182908060018154018082558091505060019003906000526020600020016000909190919091505582600001805490508360010160008481526020019081526020016000208190555060019050615815565b600090505b92915050565b600080600090505b6010548110156158f4576000615896615871601160008581526020019081526020016000206002015460116000868152602001908152602001600020600101546152cf90919063ffffffff16565b6011600085815260200190815260200160002060030154613e3b90919063ffffffff16565b905060006158c3601160008581526020019081526020016000206001015483613e3b90919063ffffffff16565b90508185101580156158d457508085105b156158e557600193505050506158fa565b50508080600101915050615823565b50600090505b919050565b600080823b905060008111915050919050565b600061593a836000018373ffffffffffffffffffffffffffffffffffffffff1660001b6159f9565b905092915050565b6000818360000180549050116159a3576040517f08c379a0000000000000000000000000000000000000000000000000000000008152600401808060200182810382526022815260200180615c876022913960400191505060405180910390fd5b8260000182815481106159b257fe5b9060005260206000200154905092915050565b600080836001016000848152602001908152602001600020541415905092915050565b600081600001805490509050919050565b60008083600101600084815260200190815260200160002054905060008114615ad55760006001820390506000600186600001805490500390506000866000018281548110615a4457fe5b9060005260206000200154905080876000018481548110615a6157fe5b9060005260206000200181905550600183018760010160008381526020019081526020016000208190555086600001805480615a9957fe5b60019003818190600052602060002001600090559055866001016000878152602001908152602001600020600090556001945050505050615adb565b60009150505b92915050565b828054600181600116156101000203166002900490600052602060002090601f016020900481019282601f10615b2257805160ff1916838001178555615b50565b82800160010185558215615b50579182015b82811115615b4f578251825591602001919060010190615b34565b5b509050615b5d9190615b61565b5090565b5b80821115615b7a576000816000905550600101615b62565b5090565b6000601f19601f8301169050919050565b60008160e01c9050919050565b600060443d1015615bac57615c4f565b60046000803e615bbd600051615b8f565b6308c379a08114615bce5750615c4f565b60405160043d036004823e80513d602482011167ffffffffffffffff82111715615bfa57505050615c4f565b808201805167ffffffffffffffff811115615c19575050505050615c4f565b8060208301013d8501811115615c3457505050505050615c4f565b615c3d82615b7e565b60208401016040528296505050505050505b9056fe455243313135353a207472616e7366657220746f206e6f6e2045524331313535526563656976657220696d706c656d656e746572456e756d657261626c655365743a20696e646578206f7574206f6620626f756e6473455243313135353a204552433131353552656365697665722072656a656374656420746f6b656e73416363657373436f6e74726f6c3a2073656e646572206d75737420626520616e2061646d696e20746f206772616e74455243313135353a2062616c616e636520717565727920666f7220746865207a65726f2061646472657373455243313135353a2062617463682062616c616e636520717565727920666f7220746865207a65726f20616464726573734f776e61626c653a206e6577206f776e657220697320746865207a65726f2061646472657373455243313135353a206275726e20616d6f756e7420657863656564732062616c616e6365455243313135353a2063616c6c6572206973206e6f74206f776e6572206e6f7220617070726f766564416363657373436f6e74726f6c3a2073656e646572206d75737420626520616e2061646d696e20746f207265766f6b65455243313135353a207472616e7366657220746f20746865207a65726f2061646472657373455243313135353a207472616e736665722063616c6c6572206973206e6f74206f776e6572206e6f7220617070726f766564455243313135353a206275726e2066726f6d20746865207a65726f2061646472657373455243313135353a20696e73756666696369656e742062616c616e636520666f72207472616e73666572536166654d6174683a206d756c7469706c69636174696f6e206f766572666c6f77455243313135353a2073657474696e6720617070726f76616c2073746174757320666f722073656c66455243313135353a206163636f756e747320616e6420696473206c656e677468206d69736d61746368455243313135353a2069647320616e6420616d6f756e7473206c656e677468206d69736d61746368455243313135353a206d696e7420746f20746865207a65726f2061646472657373416363657373436f6e74726f6c3a2063616e206f6e6c792072656e6f756e636520726f6c657320666f722073656c66a26469706673582212205815a08806460ef68ee4ac7d07606f82df85c5b698bee670b9d49da0b877104d64736f6c634300060c0033",
  "immutableReferences": {},
  "source": "// SPDX-License-Identifier: MIT\n\npragma solidity ^0.6.0;\n\nimport \"./BaseERC1155.sol\";\nimport \"./NamingContract.sol\";\nimport \"./escape/EscapeToken.sol\";\n\n/*\n *  ESTile - This is a ERC1155 contract which allows for tiles and completed \n *  puzzles to be tokenized. Scenes are a collection of puzzles, and puzzles\n *  are a collection of tiles. \n *\n *  Basic rules:\n *  \n *  Only this contract can mint the finished puzzle tokens, and it will only\n *  do so when the a user tx trades in all N puzzle tiles for the said puzzle.\n *\n *  Only the creator can create scenes.\n *\n *  Only the minter can mint tiles and tokens.\n */\ncontract ESTile is BaseERC1155\n{\n  using SafeMath for uint256;\n\n  /*\n   *  Scenes are N number of pictures that have been split into a jigsaw. \n   *  Etherscapes are usually 6x4 tile puzzles and each scene will have N\n   *  number of images within the scene - some unlockable via the packs for \n   *  sale, some unlockable only via solving puzzles (collect all N tiles in a\n   *  single puzzle).\n   */\n  struct Scene {\n    bool exists;\n    \n    // The number of purchaseable vs unlockable puzzles.\n    uint256 numPuzzles;\n    \n    // Number of shards in a single puzzle.\n    uint256 numTilesPerPuzzle;\n\n    // The startToken for a scene is the first tile token of the first puzzle in\n    // the scene. The startToken + (i * numTilesPerPuzzle) gets us the i'th \n    // puzzle's first tile token and so on. The start token + (numPuzzles * \n    // numTilesPerPuzzle) will get us to the first completed puzzle token.\n    uint256 startToken;\n  }\n\n  // Collect a way to keep track of all full puzzle token holders. This is a \n  // claim database which tracks the block at which a user has a claim for, this\n  // is unique per completed puzzle token and per user.\n  mapping (address => uint256[]) claims;\n  mapping (address => uint256) claimLength;\n  \n  /*\n   *  Seed so the owner can update randomness once in a while. Eventually this\n   *  can be replaced with an oracle.\n   */\n  uint256 seed;\n\n  /*\n   *  Deployed contracts that we interact with. \n   *\n   *  The EscapeToken is needed so we can issue ESCAPE credits based on the \n   *  scene bonus pool (if applicable).\n   *\n   *  The NamingContract is needed to rename finished puzzles that the owner has\n   *  solved (and owns the finished puzzle tile for).\n   */\n  EscapeToken internal escapeTokenContract;\n  NamingContract internal namingContract;\n\n  uint256 public sceneCount;\n  mapping (uint256 => Scene) internal scenes;\n  \n  //////////////////////////////////////////////////////////////////////////////\n\n  /*\n   *  Constructor!\n   */\n  constructor(\n    string memory _uri,\n    address _proxyRegistryAddress,\n    address _escapeERC20Address,\n    address _namingContractAddress\n  )\n    BaseERC1155(\n      \"EtherScape shards\",\n      \"SHARD\",\n      _uri,\n      _proxyRegistryAddress\n    )\n    public\n  {\n      maxTokenID = 1;\n      escapeTokenContract = EscapeToken(_escapeERC20Address);\n      namingContract = NamingContract(_namingContractAddress);\n  }\n\n  //////////////////////////////////////////////////////////////////////////////\n\n  /*\n   *  Assign a scene worth of tokens, this will be based on the sceneId, the\n   *  puzzleId and then width x height of tokens.\n   */\n  function createScene(\n    uint256 sceneId,\n    uint256 numPuzzles,\n    uint256 numTilesPerPuzzle\n  )\n    external\n  {\n    require(hasRole(CREATOR_ROLE, _msgSender()), \"not a creator\");\n    require(numPuzzles > 0 && numTilesPerPuzzle > 0, \"bad dims\");\n    require(scenes[sceneId].exists == false, \"scene already here\");\n\n    Scene storage s = scenes[sceneId];\n    s.exists = true;\n    s.numPuzzles = numPuzzles;\n    s.numTilesPerPuzzle = numTilesPerPuzzle;\n    \n    // Setup the total scene reward for this scene that is available.\n    // s.puzzleRewardTotal = puzzleRewardTotal;\n    // s.puzzleRewardRate = puzzleRewardRate;\n    // sceneRewardLeft[sceneId] = puzzleRewardTotal;\n    \n    uint256 tid = maxTokenID;\n    s.startToken = tid;\n\n    /*\n     *  Create tokens to represent each puzzle in this scene. \n     *\n     *  Each puzzle will have one additional token to track the completed puzzle\n     *  that can only be acquired by burning all the subsequent puzzle tiles (1\n     *  of each that make up the image).\n     */\n    uint256 numTokens = numTilesPerPuzzle\n                          .add(1)\n                          .mul(numPuzzles);\n\n    // for (uint256 _p = 0; _p < numPuzzles; _p++) {\n    //   for (uint256 _i = 0; _i < numTilesPerPuzzle; _i++) {\n    //     sceneToPuzzleTileTokens[sceneId][_p].push(tid);\n    //     tid = tid.add(1);\n    //   }\n    // }\n    // for (uint256 _p = 0; _p < numPuzzles; _p++) {\n    //   sceneToPuzzleToken[sceneId][_p] = tid;\n    //   tid = tid.add(1);\n    // }\n\n    // Update latest id with the last \n    maxTokenID = maxTokenID.add(numTokens);\n    sceneCount = sceneCount.add(1);\n  }\n\n  //////////////////////////////////////////////////////////////////////////////\n\n  /*\n   *  Public and inter-contract queries for scene desc info.\n   */\n  function sceneExists(uint256 sceneId) view external returns (bool) { return (scenes[sceneId].exists == true); }\n  function tokenRangeForScene(uint256 sceneId) view public returns (uint256, uint256, uint256) {\n    return (scenes[sceneId].startToken, scenes[sceneId].numTilesPerPuzzle, scenes[sceneId].numPuzzles);\n  }\n  function getScenePuzzleInfo(uint256 sceneId, uint256 puzzleId) public view returns (uint256, string memory, address) {\n    return namingContract.tokenNameInfo(getPuzzleToken(sceneId, puzzleId));\n  }\n  \n  //////////////////////////////////////////////////////////////////////////////\n\n  /*\n   *  User - contract interaction.\n   */\n\n  /*\n   *  For a given scene, and puzzle - checks that the sender owns at-least one \n   *  each of the tile tokens that make up the puzzle. If so the sender burns \n   *  the tokens, and earns ESC and the completed token for the puzzle.\n   */\n  function redeemPuzzle(\n    uint256 sceneId,\n    uint256 puzzleId\n  ) \n    external \n    returns (uint256) \n  {\n    require(scenes[sceneId].exists == true, \"scene does not exist\");\n    uint256 puzzleTokenId = getPuzzleToken(sceneId, puzzleId);\n    uint256 tileTokenStart = getTileToken(sceneId, puzzleId, 0);\n    uint256 tilesPerPuzzle = scenes[sceneId].numTilesPerPuzzle;\n    for (uint256 i = 0; i < tilesPerPuzzle; i++) {\n      uint256 tid = tileTokenStart.add(i);\n      if (balanceOf(msg.sender, tileTokenStart.add(i)) <= 0) {\n        revert(\"do not have all puzzle tokens\");\n      }\n      totalSupply[tid] = totalSupply[tid].sub(1);\n      _burn(msg.sender, tid, 1);\n    }\n    \n    // Figure out the reward (full image token) for this pictureId and award it\n    // the the sender who just burned all their puzzle tokens! In this case we \n    // bypass the mint() logic and directly award the token here as this is now\n    // mintable by the redemption.\n    totalSupply[puzzleTokenId] = totalSupply[puzzleTokenId].add(1);\n    _mint(msg.sender, puzzleTokenId, 1, \"\");\n\n    // Push a claim with this block number for this token.\n    // claims[msg.sender].push(now);\n\n    // // Mint additional ESCAPE tokens for the puzzle solver. The reward that the \n    // // solver gets is the `left * (rate / 10000)` of the pool. This can be per\n    // // scene - and can be set to something like 5% (500) for example.\n    // if (sceneRewardLeft[sceneId] > 0) {\n    //   uint256 amt = sceneRewardLeft[sceneId].mul(scenes[sceneId].puzzleRewardRate).div(10000);\n    //   sceneRewardLeft[sceneId] = sceneRewardLeft[sceneId].sub(amt);\n    //   escapeTokenContract.mintForAccount(msg.sender, amt);\n    // }\n  }\n\n  /*\n   *  A claim is opened anytime a puzzle is solved, each claim is worth one \n   *  ESCAPE per day. When a token is transferred - you give up your oldest \n   *  claim! So it is best to claim rewards before transferring any completed \n   *  puzzle tokens.\n   */\n  function getClaimInfo()\n    view \n    public \n    returns (uint256) \n  {\n    uint256 total = 0;\n    for (uint256 i = 0; i < claimLength[msg.sender]; i++) {\n      uint256 reward = now.sub(claims[msg.sender][i])\n                          .div(1 days);\n      total = total.add(reward);\n    }\n    return total;\n  } \n\n  function claimReward()\n    public \n  {\n    uint256 total = getClaimInfo();\n    require(total > 0);\n    for (uint256 i = 0; i < claimLength[msg.sender]; i++) {\n      claims[msg.sender][i] = now;\n    }\n    escapeTokenContract.mintForAccount(msg.sender, total);\n  } \n\n  function isPuzzleTokenId\n  (\n    uint256 id\n  ) \n    view\n    internal\n    returns (bool) \n  {\n    for (uint s = 0; s < sceneCount; s++) {\n      uint256 pts = scenes[s].startToken\n                      .add(scenes[s].numPuzzles.mul(scenes[s].numTilesPerPuzzle));\n      uint256 pte = pts.add(scenes[s].numPuzzles);\n      if (id >= pts && id < pte) return true;\n    }\n    return false;\n  }\n\n  function _beforeTokenTransfer\n  (\n    address /*operator*/,\n    address from,\n    address to,\n    uint256[] memory ids,\n    uint256[] memory amounts,\n    bytes memory /*data*/\n  )\n    internal\n    override\n  {\n    /*\n     *  A new token was minted! If it is a full piece token - add the tracking\n     *  for its claim here.\n     */\n    for (uint i = 0; i < ids.length; i++) {\n      if (isPuzzleTokenId(ids[i])) {\n        if (to != address(0)) {\n          // New token minted, and its a puzzle token - add a claim for the \n          // count minted here.\n          for (uint n = 0; n < amounts[i]; n++) {\n            if (claims[to].length > claimLength[to]) {\n              claims[to][claimLength[to]] = now;\n            } else {\n              claims[to].push(now);\n            }\n            claimLength[to] = claimLength[to].add(1);\n          }\n        }\n        if (from != address(0)) {\n          // This is a burn or a transfer, remove claims.\n          claimLength[from] = claimLength[from].sub(amounts[i]);\n        }\n      }\n    }\n  }\n  \n  function getTileToken(\n    uint256 sceneId,\n    uint256 puzzleId,\n    uint256 tileNum\n  )\n    internal \n    view\n    returns (uint256) \n  {\n    require(scenes[sceneId].exists == true, \"scene does not exist\");\n    require(scenes[sceneId].numPuzzles > puzzleId);\n    require(scenes[sceneId].numTilesPerPuzzle > tileNum);\n    return scenes[sceneId].startToken\n            .add(tileNum)\n            .add(scenes[sceneId].numTilesPerPuzzle.mul(puzzleId));\n  }\n\n  function getPuzzleToken(\n    uint256 sceneId,\n    uint256 puzzleId\n  )\n    internal \n    view\n    returns (uint256) \n  {\n    require(scenes[sceneId].exists == true, \"scene does not exist\");\n    require(scenes[sceneId].numPuzzles > puzzleId);\n    return scenes[sceneId].startToken\n            .add(puzzleId)\n            .add(scenes[sceneId].numTilesPerPuzzle.mul(scenes[sceneId].numPuzzles));\n  }\n\n  /*\n   *  Name a puzzle in a scene using the NamingContract (which has no idea about\n   *  scenes or puzzles, just tokens). This will only invoke the naming contract\n   *  if we have the appropriate puzzle token (solved picture).\n   */\n  function nameScenePuzzle(\n    uint256 sceneId,\n    uint256 puzzleId,\n    string calldata name\n  )\n    external \n  {\n    uint256 puzzleTokenId = getPuzzleToken(sceneId, puzzleId);\n    require(balanceOf(msg.sender, puzzleTokenId) > 0, \"only rename owned puzzles\");\n    namingContract.nameTokenFor(msg.sender, puzzleTokenId, name);\n  }\n}\n",
  "sourcePath": "/Users/shaba/work/github/private/crypto/etherscapes/contract/contracts/ESTile.sol",
  "compiler": {
    "name": "solc",
    "version": "0.6.12+commit.27d51765.Emscripten.clang"
  },
  "schemaVersion": "3.3.3",
  "updatedAt": "2021-02-18T06:30:20.471Z",
  "networkType": "ethereum",
  "devdoc": {
    "kind": "dev",
    "methods": {
      "balanceOf(address,uint256)": {
        "details": "See {IERC1155-balanceOf}. Requirements: - `account` cannot be the zero address."
      },
      "balanceOfBatch(address[],uint256[])": {
        "details": "See {IERC1155-balanceOfBatch}. Requirements: - `accounts` and `ids` must have the same length."
      },
      "getRoleAdmin(bytes32)": {
        "details": "Returns the admin role that controls `role`. See {grantRole} and {revokeRole}. To change a role's admin, use {_setRoleAdmin}."
      },
      "getRoleMember(bytes32,uint256)": {
        "details": "Returns one of the accounts that have `role`. `index` must be a value between 0 and {getRoleMemberCount}, non-inclusive. Role bearers are not sorted in any particular way, and their ordering may change at any point. WARNING: When using {getRoleMember} and {getRoleMemberCount}, make sure you perform all queries on the same block. See the following https://forum.openzeppelin.com/t/iterating-over-elements-on-enumerableset-in-openzeppelin-contracts/2296[forum post] for more information."
      },
      "getRoleMemberCount(bytes32)": {
        "details": "Returns the number of accounts that have `role`. Can be used together with {getRoleMember} to enumerate all bearers of a role."
      },
      "grantRole(bytes32,address)": {
        "details": "Grants `role` to `account`. If `account` had not been already granted `role`, emits a {RoleGranted} event. Requirements: - the caller must have ``role``'s admin role."
      },
      "hasRole(bytes32,address)": {
        "details": "Returns `true` if `account` has been granted `role`."
      },
      "owner()": {
        "details": "Returns the address of the current owner."
      },
      "renounceOwnership()": {
        "details": "Leaves the contract without owner. It will not be possible to call `onlyOwner` functions anymore. Can only be called by the current owner. NOTE: Renouncing ownership will leave the contract without an owner, thereby removing any functionality that is only available to the owner."
      },
      "renounceRole(bytes32,address)": {
        "details": "Revokes `role` from the calling account. Roles are often managed via {grantRole} and {revokeRole}: this function's purpose is to provide a mechanism for accounts to lose their privileges if they are compromised (such as when a trusted device is misplaced). If the calling account had been granted `role`, emits a {RoleRevoked} event. Requirements: - the caller must be `account`."
      },
      "revokeRole(bytes32,address)": {
        "details": "Revokes `role` from `account`. If `account` had been granted `role`, emits a {RoleRevoked} event. Requirements: - the caller must have ``role``'s admin role."
      },
      "safeBatchTransferFrom(address,address,uint256[],uint256[],bytes)": {
        "details": "See {IERC1155-safeBatchTransferFrom}."
      },
      "safeTransferFrom(address,address,uint256,uint256,bytes)": {
        "details": "See {IERC1155-safeTransferFrom}."
      },
      "setApprovalForAll(address,bool)": {
        "details": "See {IERC1155-setApprovalForAll}."
      },
      "supportsInterface(bytes4)": {
        "details": "See {IERC165-supportsInterface}. Time complexity O(1), guaranteed to always use less than 30 000 gas."
      },
      "transferOwnership(address)": {
        "details": "Transfers ownership of the contract to a new account (`newOwner`). Can only be called by the current owner."
      },
      "uri(uint256)": {
        "details": "See {IERC1155MetadataURI-uri}. This implementation returns the same URI for *all* token types. It relies on the token type ID substituion mechanism https://eips.ethereum.org/EIPS/eip-1155#metadata[defined in the EIP]. Clients calling this function must replace the `\\{id\\}` substring with the actual token type ID."
      }
    },
    "version": 1
  },
  "userdoc": {
    "kind": "user",
    "methods": {
      "grantAdmin(bytes32,address)": {
        "notice": "Only Token Creator Admin Functions*"
      },
      "isApprovedForAll(address,address)": {
        "notice": "Override isApprovedForAll to whitelist user's OpenSea proxy accounts to enable gas-free listings."
      },
      "mint(address,uint256,uint256,bytes)": {
        "notice": "Only Token Minter Functions*"
      },
      "setProxyRegistryAddress(address)": {
        "notice": "Only Owner Functions*"
      }
    },
    "version": 1
  }
}