{
  "contractName": "ESTileWrapper",
  "abi": [
    {
      "inputs": [
        {
          "internalType": "address",
          "name": "_escapeAddress",
          "type": "address"
        },
        {
          "internalType": "address",
          "name": "_estileAddress",
          "type": "address"
        }
      ],
      "stateMutability": "nonpayable",
      "type": "constructor"
    },
    {
      "anonymous": false,
      "inputs": [
        {
          "indexed": true,
          "internalType": "address",
          "name": "previousOwner",
          "type": "address"
        },
        {
          "indexed": true,
          "internalType": "address",
          "name": "newOwner",
          "type": "address"
        }
      ],
      "name": "OwnershipTransferred",
      "type": "event"
    },
    {
      "inputs": [],
      "name": "esTileContract",
      "outputs": [
        {
          "internalType": "contract ESTile",
          "name": "",
          "type": "address"
        }
      ],
      "stateMutability": "view",
      "type": "function",
      "constant": true
    },
    {
      "inputs": [],
      "name": "escapeTokenContract",
      "outputs": [
        {
          "internalType": "contract EscapeToken",
          "name": "",
          "type": "address"
        }
      ],
      "stateMutability": "view",
      "type": "function",
      "constant": true
    },
    {
      "inputs": [],
      "name": "owner",
      "outputs": [
        {
          "internalType": "address",
          "name": "",
          "type": "address"
        }
      ],
      "stateMutability": "view",
      "type": "function",
      "constant": true
    },
    {
      "inputs": [],
      "name": "renounceOwnership",
      "outputs": [],
      "stateMutability": "nonpayable",
      "type": "function"
    },
    {
      "inputs": [
        {
          "internalType": "address",
          "name": "newOwner",
          "type": "address"
        }
      ],
      "name": "transferOwnership",
      "outputs": [],
      "stateMutability": "nonpayable",
      "type": "function"
    },
    {
      "inputs": [
        {
          "internalType": "address",
          "name": "_address",
          "type": "address"
        }
      ],
      "name": "setEscapeTokenAddress",
      "outputs": [],
      "stateMutability": "nonpayable",
      "type": "function"
    },
    {
      "inputs": [
        {
          "internalType": "address",
          "name": "_address",
          "type": "address"
        }
      ],
      "name": "setESTileAddress",
      "outputs": [],
      "stateMutability": "nonpayable",
      "type": "function"
    },
    {
      "inputs": [
        {
          "internalType": "uint256",
          "name": "sceneId",
          "type": "uint256"
        },
        {
          "internalType": "uint256",
          "name": "count",
          "type": "uint256"
        }
      ],
      "name": "buyTilesForEscape",
      "outputs": [],
      "stateMutability": "nonpayable",
      "type": "function"
    },
    {
      "inputs": [
        {
          "internalType": "uint256",
          "name": "sceneId",
          "type": "uint256"
        },
        {
          "internalType": "uint256",
          "name": "count",
          "type": "uint256"
        }
      ],
      "name": "buyTilesForETH",
      "outputs": [],
      "stateMutability": "payable",
      "type": "function",
      "payable": true
    },
    {
      "inputs": [
        {
          "internalType": "uint256",
          "name": "sceneId",
          "type": "uint256"
        },
        {
          "internalType": "address[]",
          "name": "tos",
          "type": "address[]"
        },
        {
          "internalType": "uint256",
          "name": "count",
          "type": "uint256"
        }
      ],
      "name": "airdropTiles",
      "outputs": [],
      "stateMutability": "nonpayable",
      "type": "function"
    },
    {
      "inputs": [],
      "name": "withdrawBalance",
      "outputs": [],
      "stateMutability": "nonpayable",
      "type": "function"
    },
    {
      "inputs": [
        {
          "internalType": "uint256",
          "name": "_newSeed",
          "type": "uint256"
        }
      ],
      "name": "setSeed",
      "outputs": [],
      "stateMutability": "nonpayable",
      "type": "function"
    }
  ],
  "bytecode": "0x608060405234801561001057600080fd5b50604051611d3f380380611d3f8339818101604052604081101561003357600080fd5b810190808051906020019092919080519060200190929190505050600061005e61018560201b60201c565b9050806000806101000a81548173ffffffffffffffffffffffffffffffffffffffff021916908373ffffffffffffffffffffffffffffffffffffffff1602179055508073ffffffffffffffffffffffffffffffffffffffff16600073ffffffffffffffffffffffffffffffffffffffff167f8be0079c531659141344cd1fd0a4f28419497f9722a3daafe3b4186f6b6457e060405160405180910390a35081600160006101000a81548173ffffffffffffffffffffffffffffffffffffffff021916908373ffffffffffffffffffffffffffffffffffffffff16021790555080600260006101000a81548173ffffffffffffffffffffffffffffffffffffffff021916908373ffffffffffffffffffffffffffffffffffffffff160217905550505061018d565b600033905090565b611ba38061019c6000396000f3fe6080604052600436106100a75760003560e01c8063857ac4bb11610064578063857ac4bb146101e95780638d84b50f1461023a5780638da5cb5b14610313578063c32a50f914610354578063ebe0e1b31461038f578063f2fde38b146103d0576100a7565b80631314b5e7146100ac57806356e20044146100ed5780635fd8c710146101255780636a4b88541461013c578063715018a61461018d5780637a8bd2dc146101a4575b600080fd5b3480156100b857600080fd5b506100c1610421565b604051808273ffffffffffffffffffffffffffffffffffffffff16815260200191505060405180910390f35b6101236004803603604081101561010357600080fd5b810190808035906020019092919080359060200190929190505050610447565b005b34801561013157600080fd5b5061013a6105d4565b005b34801561014857600080fd5b5061018b6004803603602081101561015f57600080fd5b81019080803573ffffffffffffffffffffffffffffffffffffffff169060200190929190505050610755565b005b34801561019957600080fd5b506101a26108eb565b005b3480156101b057600080fd5b506101e7600480360360408110156101c757600080fd5b810190808035906020019092919080359060200190929190505050610a58565b005b3480156101f557600080fd5b506102386004803603602081101561020c57600080fd5b81019080803573ffffffffffffffffffffffffffffffffffffffff169060200190929190505050610c1b565b005b34801561024657600080fd5b506103116004803603606081101561025d57600080fd5b81019080803590602001909291908035906020019064010000000081111561028457600080fd5b82018360208201111561029657600080fd5b803590602001918460208302840111640100000000831117156102b857600080fd5b919080806020026020016040519081016040528093929190818152602001838360200280828437600081840152601f19601f82011690508083019250505050505050919291929080359060200190929190505050610db1565b005b34801561031f57600080fd5b5061032861122d565b604051808273ffffffffffffffffffffffffffffffffffffffff16815260200191505060405180910390f35b34801561036057600080fd5b5061038d6004803603602081101561037757600080fd5b8101908080359060200190929190505050611256565b005b34801561039b57600080fd5b506103a461130f565b604051808273ffffffffffffffffffffffffffffffffffffffff16815260200191505060405180910390f35b3480156103dc57600080fd5b5061041f600480360360208110156103f357600080fd5b81019080803573ffffffffffffffffffffffffffffffffffffffff169060200190929190505050611335565b005b600160009054906101000a900473ffffffffffffffffffffffffffffffffffffffff1681565b6000806000600260009054906101000a900473ffffffffffffffffffffffffffffffffffffffff1673ffffffffffffffffffffffffffffffffffffffff166310fafd0d866040518263ffffffff1660e01b81526004018082815260200191505060606040518083038186803b1580156104bf57600080fd5b505afa1580156104d3573d6000803e3d6000fd5b505050506040513d60608110156104e957600080fd5b810190808051906020019092919080519060200190929190805190602001909291905050508093508194508295505050506000821161052757600080fd5b8383101561053457600080fd5b6000610549858461152790919063ffffffff16565b9050803410156105c1576040517f08c379a000000000000000000000000000000000000000000000000000000000815260040180806020018281038252600e8152602001807f6e6f7420656e6f7567682065746800000000000000000000000000000000000081525060200191505060405180910390fd5b6105cc3387876115ad565b505050505050565b6105dc6118f9565b73ffffffffffffffffffffffffffffffffffffffff166105fa61122d565b73ffffffffffffffffffffffffffffffffffffffff1614610683576040517f08c379a00000000000000000000000000000000000000000000000000000000081526004018080602001828103825260208152602001807f4f776e61626c653a2063616c6c6572206973206e6f7420746865206f776e657281525060200191505060405180910390fd5b6000479050600081116106fe576040517f08c379a000000000000000000000000000000000000000000000000000000000815260040180806020018281038252600f8152602001807f6e6f2062616c616e6365206c656674000000000000000000000000000000000081525060200191505060405180910390fd5b600061070861122d565b90508073ffffffffffffffffffffffffffffffffffffffff166108fc839081150290604051600060405180830381858888f19350505050158015610750573d6000803e3d6000fd5b505050565b61075d6118f9565b73ffffffffffffffffffffffffffffffffffffffff1661077b61122d565b73ffffffffffffffffffffffffffffffffffffffff1614610804576040517f08c379a00000000000000000000000000000000000000000000000000000000081526004018080602001828103825260208152602001807f4f776e61626c653a2063616c6c6572206973206e6f7420746865206f776e657281525060200191505060405180910390fd5b600073ffffffffffffffffffffffffffffffffffffffff168173ffffffffffffffffffffffffffffffffffffffff1614156108a7576040517f08c379a00000000000000000000000000000000000000000000000000000000081526004018080602001828103825260168152602001807f43616e277420736574207a65726f20616464726573730000000000000000000081525060200191505060405180910390fd5b80600160006101000a81548173ffffffffffffffffffffffffffffffffffffffff021916908373ffffffffffffffffffffffffffffffffffffffff16021790555050565b6108f36118f9565b73ffffffffffffffffffffffffffffffffffffffff1661091161122d565b73ffffffffffffffffffffffffffffffffffffffff161461099a576040517f08c379a00000000000000000000000000000000000000000000000000000000081526004018080602001828103825260208152602001807f4f776e61626c653a2063616c6c6572206973206e6f7420746865206f776e657281525060200191505060405180910390fd5b600073ffffffffffffffffffffffffffffffffffffffff1660008054906101000a900473ffffffffffffffffffffffffffffffffffffffff1673ffffffffffffffffffffffffffffffffffffffff167f8be0079c531659141344cd1fd0a4f28419497f9722a3daafe3b4186f6b6457e060405160405180910390a360008060006101000a81548173ffffffffffffffffffffffffffffffffffffffff021916908373ffffffffffffffffffffffffffffffffffffffff160217905550565b6000806000600260009054906101000a900473ffffffffffffffffffffffffffffffffffffffff1673ffffffffffffffffffffffffffffffffffffffff166310fafd0d866040518263ffffffff1660e01b81526004018082815260200191505060606040518083038186803b158015610ad057600080fd5b505afa158015610ae4573d6000803e3d6000fd5b505050506040513d6060811015610afa57600080fd5b8101908080519060200190929190805190602001909291908051906020019092919050505080935081945082955050505060008111610b3857600080fd5b83831015610b4557600080fd5b600160009054906101000a900473ffffffffffffffffffffffffffffffffffffffff1673ffffffffffffffffffffffffffffffffffffffff16639dc29fac610b8b6118f9565b610b9e878561152790919063ffffffff16565b6040518363ffffffff1660e01b8152600401808373ffffffffffffffffffffffffffffffffffffffff16815260200182815260200192505050600060405180830381600087803b158015610bf157600080fd5b505af1158015610c05573d6000803e3d6000fd5b50505050610c143386866115ad565b5050505050565b610c236118f9565b73ffffffffffffffffffffffffffffffffffffffff16610c4161122d565b73ffffffffffffffffffffffffffffffffffffffff1614610cca576040517f08c379a00000000000000000000000000000000000000000000000000000000081526004018080602001828103825260208152602001807f4f776e61626c653a2063616c6c6572206973206e6f7420746865206f776e657281525060200191505060405180910390fd5b600073ffffffffffffffffffffffffffffffffffffffff168173ffffffffffffffffffffffffffffffffffffffff161415610d6d576040517f08c379a00000000000000000000000000000000000000000000000000000000081526004018080602001828103825260168152602001807f43616e277420736574207a65726f20616464726573730000000000000000000081525060200191505060405180910390fd5b80600260006101000a81548173ffffffffffffffffffffffffffffffffffffffff021916908373ffffffffffffffffffffffffffffffffffffffff16021790555050565b610db96118f9565b73ffffffffffffffffffffffffffffffffffffffff16610dd761122d565b73ffffffffffffffffffffffffffffffffffffffff1614610e60576040517f08c379a00000000000000000000000000000000000000000000000000000000081526004018080602001828103825260208152602001807f4f776e61626c653a2063616c6c6572206973206e6f7420746865206f776e657281525060200191505060405180910390fd5b60008111610e6d57600080fd5b6000806000600260009054906101000a900473ffffffffffffffffffffffffffffffffffffffff1673ffffffffffffffffffffffffffffffffffffffff166380e6548e876040518263ffffffff1660e01b81526004018082815260200191505060606040518083038186803b158015610ee557600080fd5b505afa158015610ef9573d6000803e3d6000fd5b505050506040513d6060811015610f0f57600080fd5b810190808051906020019092919080519060200190929190805190602001909291905050508093508194508295505050506000610f55828461152790919063ffffffff16565b905060608567ffffffffffffffff81118015610f7057600080fd5b50604051908082528060200260200182016040528015610f9f5781602001602082028036833780820191505090505b50905060608667ffffffffffffffff81118015610fbb57600080fd5b50604051908082528060200260200182016040528015610fea5781602001602082028036833780820191505090505b5090506000610ff833611901565b905060005b89518110156112205760005b898110156110b657611036611027878561198c90919063ffffffff16565b8a611a1590919063ffffffff16565b85828151811061104257fe5b602002602001018181525050600184828151811061105c57fe5b6020026020010181815250508583111561108a576110838684611a9d90919063ffffffff16565b92506110a9565b6110a68b838151811061109957fe5b6020026020010151611901565b92505b8080600101915050611009565b50600260009054906101000a900473ffffffffffffffffffffffffffffffffffffffff1673ffffffffffffffffffffffffffffffffffffffff16631f7fdffa8b838151811061110157fe5b602002602001015186866040518463ffffffff1660e01b8152600401808473ffffffffffffffffffffffffffffffffffffffff168152602001806020018060200180602001848103845286818151815260200191508051906020019060200280838360005b83811015611181578082015181840152602081019050611166565b50505050905001848103835285818151815260200191508051906020019060200280838360005b838110156111c35780820151818401526020810190506111a8565b505050509050018481038252600081526020016020019650505050505050600060405180830381600087803b1580156111fb57600080fd5b505af115801561120f573d6000803e3d6000fd5b505050508080600101915050610ffd565b5050505050505050505050565b60008060009054906101000a900473ffffffffffffffffffffffffffffffffffffffff16905090565b61125e6118f9565b73ffffffffffffffffffffffffffffffffffffffff1661127c61122d565b73ffffffffffffffffffffffffffffffffffffffff1614611305576040517f08c379a00000000000000000000000000000000000000000000000000000000081526004018080602001828103825260208152602001807f4f776e61626c653a2063616c6c6572206973206e6f7420746865206f776e657281525060200191505060405180910390fd5b8060038190555050565b600260009054906101000a900473ffffffffffffffffffffffffffffffffffffffff1681565b61133d6118f9565b73ffffffffffffffffffffffffffffffffffffffff1661135b61122d565b73ffffffffffffffffffffffffffffffffffffffff16146113e4576040517f08c379a00000000000000000000000000000000000000000000000000000000081526004018080602001828103825260208152602001807f4f776e61626c653a2063616c6c6572206973206e6f7420746865206f776e657281525060200191505060405180910390fd5b600073ffffffffffffffffffffffffffffffffffffffff168173ffffffffffffffffffffffffffffffffffffffff16141561146a576040517f08c379a0000000000000000000000000000000000000000000000000000000008152600401808060200182810382526026815260200180611b276026913960400191505060405180910390fd5b8073ffffffffffffffffffffffffffffffffffffffff1660008054906101000a900473ffffffffffffffffffffffffffffffffffffffff1673ffffffffffffffffffffffffffffffffffffffff167f8be0079c531659141344cd1fd0a4f28419497f9722a3daafe3b4186f6b6457e060405160405180910390a3806000806101000a81548173ffffffffffffffffffffffffffffffffffffffff021916908373ffffffffffffffffffffffffffffffffffffffff16021790555050565b60008083141561153a57600090506115a7565b600082840290508284828161154b57fe5b04146115a2576040517f08c379a0000000000000000000000000000000000000000000000000000000008152600401808060200182810382526021815260200180611b4d6021913960400191505060405180910390fd5b809150505b92915050565b6000806000600260009054906101000a900473ffffffffffffffffffffffffffffffffffffffff1673ffffffffffffffffffffffffffffffffffffffff166380e6548e866040518263ffffffff1660e01b81526004018082815260200191505060606040518083038186803b15801561162557600080fd5b505afa158015611639573d6000803e3d6000fd5b505050506040513d606081101561164f57600080fd5b810190808051906020019092919080519060200190929190805190602001909291905050508093508194508295505050506000611695828461152790919063ffffffff16565b905060608567ffffffffffffffff811180156116b057600080fd5b506040519080825280602002602001820160405280156116df5781602001602082028036833780820191505090505b50905060608667ffffffffffffffff811180156116fb57600080fd5b5060405190808252806020026020018201604052801561172a5781602001602082028036833780820191505090505b50905060005b878110156117a457611765611756856117488d611901565b61198c90919063ffffffff16565b88611a1590919063ffffffff16565b83828151811061177157fe5b602002602001018181525050600182828151811061178b57fe5b6020026020010181815250508080600101915050611730565b50600260009054906101000a900473ffffffffffffffffffffffffffffffffffffffff1673ffffffffffffffffffffffffffffffffffffffff16631f7fdffa8a84846040518463ffffffff1660e01b8152600401808473ffffffffffffffffffffffffffffffffffffffff168152602001806020018060200180602001848103845286818151815260200191508051906020019060200280838360005b8381101561185c578082015181840152602081019050611841565b50505050905001848103835285818151815260200191508051906020019060200280838360005b8381101561189e578082015181840152602081019050611883565b505050509050018481038252600081526020016020019650505050505050600060405180830381600087803b1580156118d657600080fd5b505af11580156118ea573d6000803e3d6000fd5b50505050505050505050505050565b600033905090565b60006004600081548092919060010191905055506000600143034083600454600354604051602001808581526020018473ffffffffffffffffffffffffffffffffffffffff1660601b81526014018381526020018281526020019450505050506040516020818303038152906040528051906020012060001c90508060038190555080915050919050565b6000808211611a03576040517f08c379a00000000000000000000000000000000000000000000000000000000081526004018080602001828103825260188152602001807f536166654d6174683a206d6f64756c6f206279207a65726f000000000000000081525060200191505060405180910390fd5b818381611a0c57fe5b06905092915050565b600080828401905083811015611a93576040517f08c379a000000000000000000000000000000000000000000000000000000000815260040180806020018281038252601b8152602001807f536166654d6174683a206164646974696f6e206f766572666c6f77000000000081525060200191505060405180910390fd5b8091505092915050565b6000808211611b14576040517f08c379a000000000000000000000000000000000000000000000000000000000815260040180806020018281038252601a8152602001807f536166654d6174683a206469766973696f6e206279207a65726f00000000000081525060200191505060405180910390fd5b818381611b1d57fe5b0490509291505056fe4f776e61626c653a206e6577206f776e657220697320746865207a65726f2061646472657373536166654d6174683a206d756c7469706c69636174696f6e206f766572666c6f77a2646970667358221220c79bf8f757dcdf9046448d360bd6adca0ada141b4c3bcb040b5ed47d7e29f95064736f6c634300060c0033",
  "immutableReferences": {},
  "source": "// SPDX-License-Identifier: MIT\n\npragma solidity ^0.6.0;\n\nimport \"@openzeppelin/contracts/access/Ownable.sol\";\nimport \"@openzeppelin/contracts/token/ERC20/ERC20.sol\";\nimport \"@openzeppelin/contracts/token/ERC20/ERC20Burnable.sol\";\nimport \"@openzeppelin/contracts/token/ERC20/SafeERC20.sol\";\nimport \"@openzeppelin/contracts/math/SafeMath.sol\";\n\n////////////////////////////////////////////////////////////////////////////////\n\nimport \"./escape/EscapeToken.sol\";\nimport \"./ESTile.sol\";\n\n////////////////////////////////////////////////////////////////////////////////\n\n/*\n *  ESTileWrapper implements a contract which allows shards to be purcahsed for\n *  ESCAPE or ETH.\n */\ncontract ESTileWrapper is Ownable\n{\n  using SafeMath for uint256;\n\n  //////////////////////////////////////////////////////////////////////////////\n\n  EscapeToken public escapeTokenContract;\n  ESTile public esTileContract;\n\n  //////////////////////////////////////////////////////////////////////////////\n\n  uint256 seed;\n\n  constructor(\n    address _escapeAddress,\n    address _estileAddress\n  )\n    Ownable()\n    public\n  {\n    escapeTokenContract = EscapeToken(_escapeAddress);\n    esTileContract = ESTile(_estileAddress);\n  }\n\n  //////////////////////////////////////////////////////////////////////////////\n\n  /*\n   *  Update contract address for the ESCAPE token.\n   */\n  function setEscapeTokenAddress(\n    address _address\n  )\n    external\n    onlyOwner\n  {\n    require(_address != address(0), \"Can't set zero address\");\n    escapeTokenContract = EscapeToken(_address);\n  }\n  \n  /*\n   *  Update contract address for the ESTile contract.\n   */\n  function setESTileAddress(\n    address _address\n  )\n    external\n    onlyOwner\n  {\n    require(_address != address(0), \"Can't set zero address\");\n    esTileContract = ESTile(_address);\n  }\n\n  //////////////////////////////////////////////////////////////////////////////\n\n  function _mintTokensForScene(\n    address recipient,\n    uint256 sceneId,\n    uint256 count\n  )\n    internal \n  {\n    uint256 tokenStart;\n    uint256 numTiles;\n    uint256 numPuzzles;\n    (tokenStart, numTiles, numPuzzles) = esTileContract.tokenRangeForScene(sceneId);\n    uint256 numTilesInScene = numTiles.mul(numPuzzles);\n    \n    uint256[] memory tokenIdsToMint = new uint256[](count);\n    uint256[] memory quantitiesToMint = new uint256[](count);\n\n    for (uint256 i = 0; i < count; i++) {\n      tokenIdsToMint[i] = tokenStart.add(_random(recipient).mod(numTilesInScene));\n      quantitiesToMint[i] = 1;\n    }\n\n    esTileContract.mintBatch(recipient, tokenIdsToMint, quantitiesToMint, \"\");\n  }\n\n  function buyTilesForEscape(\n    uint256 sceneId,\n    uint256 count\n  )\n    public \n  {\n    uint256 shardsLeft;\n    uint256 ethCost;\n    uint256 escCost;\n    (shardsLeft, ethCost, escCost) = esTileContract.sceneShardInfo(sceneId);\n    require(escCost > 0);\n    require(shardsLeft >= count);\n    escapeTokenContract.burn(_msgSender(), escCost.mul(count));\n    _mintTokensForScene(msg.sender, sceneId, count);\n  }\n\n  function buyTilesForETH(\n    uint256 sceneId,\n    uint256 count\n  )\n    payable public \n  {\n    uint256 shardsLeft;\n    uint256 ethCost;\n    uint256 escCost;\n    (shardsLeft, ethCost, escCost) = esTileContract.sceneShardInfo(sceneId);\n    require(ethCost > 0);\n    require(shardsLeft >= count);\n\n    uint256 tilesCost = ethCost.mul(count);\n    require(msg.value >= tilesCost, \"not enough eth\");\n    _mintTokensForScene(msg.sender, sceneId, count);\n  }\n\n  function airdropTiles(\n    uint256 sceneId,\n    address[] memory tos,\n    uint256 count\n  )\n    public \n    onlyOwner\n  {\n    require(count > 0);\n    uint256 tokenStart;\n    uint256 numTiles;\n    uint256 numPuzzles;\n    (tokenStart, numTiles, numPuzzles) = esTileContract.tokenRangeForScene(sceneId);\n    uint256 numTilesInScene = numTiles.mul(numPuzzles);\n    \n    uint256[] memory tokenIdsToMint = new uint256[](count);\n    uint256[] memory quantitiesToMint = new uint256[](count);\n    uint256 r = _random(msg.sender);\n    \n    for (uint256 ti = 0; ti < tos.length; ti++) {\n      for (uint256 i = 0; i < count; i++) {\n        tokenIdsToMint[i] = tokenStart.add(r.mod(numTilesInScene));\n        quantitiesToMint[i] = 1;\n        if (r > numTilesInScene) {\n          r = r.div(numTilesInScene);\n        } else {\n          r = _random(tos[ti]);\n        }\n      }\n      esTileContract.mintBatch(tos[ti], tokenIdsToMint, quantitiesToMint, \"\");\n    }\n  }\n\n  //////////////////////////////////////////////////////////////////////////////\n\n  function withdrawBalance() \n    public \n    onlyOwner \n  {\n    uint256 balance = address(this).balance;\n    require(balance > 0, \"no balance left\");\n    address payable owner = payable(owner());\n    owner.transfer(balance);\n  }\n\n  uint256 internal nonce;\n\n  function _random(address behalf)\n    internal\n    returns (uint256)\n  {\n    nonce++;\n    uint256 randomNumber = uint256(\n      keccak256(\n        abi.encodePacked(\n          blockhash(block.number - 1),\n          behalf,\n          nonce,\n          seed\n        )\n      )\n    );\n    seed = randomNumber;\n    return randomNumber;\n  }\n  \n  function setSeed(\n    uint256 _newSeed\n  )\n    public\n    onlyOwner\n  {\n    seed = _newSeed;\n  }\n}\n",
  "sourcePath": "/Users/shaba/work/github/private/crypto/etherscapes/contract/contracts/ESTileWrapper.sol",
  "compiler": {
    "name": "solc",
    "version": "0.6.12+commit.27d51765.Emscripten.clang"
  },
  "schemaVersion": "3.3.3",
  "updatedAt": "2021-03-03T21:11:50.248Z",
  "networkType": "ethereum",
  "devdoc": {
    "kind": "dev",
    "methods": {
      "owner()": {
        "details": "Returns the address of the current owner."
      },
      "renounceOwnership()": {
        "details": "Leaves the contract without owner. It will not be possible to call `onlyOwner` functions anymore. Can only be called by the current owner. NOTE: Renouncing ownership will leave the contract without an owner, thereby removing any functionality that is only available to the owner."
      },
      "transferOwnership(address)": {
        "details": "Transfers ownership of the contract to a new account (`newOwner`). Can only be called by the current owner."
      }
    },
    "version": 1
  },
  "userdoc": {
    "kind": "user",
    "methods": {},
    "version": 1
  }
}