{
  "contractName": "ESTilePack",
  "abi": [
    {
      "inputs": [
        {
          "internalType": "string",
          "name": "_uri",
          "type": "string"
        },
        {
          "internalType": "address",
          "name": "_nftAddress",
          "type": "address"
        },
        {
          "internalType": "address",
          "name": "_proxyRegistryAddress",
          "type": "address"
        }
      ],
      "stateMutability": "nonpayable",
      "type": "constructor"
    },
    {
      "anonymous": false,
      "inputs": [
        {
          "indexed": true,
          "internalType": "address",
          "name": "account",
          "type": "address"
        },
        {
          "indexed": true,
          "internalType": "address",
          "name": "operator",
          "type": "address"
        },
        {
          "indexed": false,
          "internalType": "bool",
          "name": "approved",
          "type": "bool"
        }
      ],
      "name": "ApprovalForAll",
      "type": "event"
    },
    {
      "anonymous": false,
      "inputs": [
        {
          "indexed": true,
          "internalType": "address",
          "name": "previousOwner",
          "type": "address"
        },
        {
          "indexed": true,
          "internalType": "address",
          "name": "newOwner",
          "type": "address"
        }
      ],
      "name": "OwnershipTransferred",
      "type": "event"
    },
    {
      "anonymous": false,
      "inputs": [
        {
          "indexed": true,
          "internalType": "bytes32",
          "name": "role",
          "type": "bytes32"
        },
        {
          "indexed": true,
          "internalType": "bytes32",
          "name": "previousAdminRole",
          "type": "bytes32"
        },
        {
          "indexed": true,
          "internalType": "bytes32",
          "name": "newAdminRole",
          "type": "bytes32"
        }
      ],
      "name": "RoleAdminChanged",
      "type": "event"
    },
    {
      "anonymous": false,
      "inputs": [
        {
          "indexed": true,
          "internalType": "bytes32",
          "name": "role",
          "type": "bytes32"
        },
        {
          "indexed": true,
          "internalType": "address",
          "name": "account",
          "type": "address"
        },
        {
          "indexed": true,
          "internalType": "address",
          "name": "sender",
          "type": "address"
        }
      ],
      "name": "RoleGranted",
      "type": "event"
    },
    {
      "anonymous": false,
      "inputs": [
        {
          "indexed": true,
          "internalType": "bytes32",
          "name": "role",
          "type": "bytes32"
        },
        {
          "indexed": true,
          "internalType": "address",
          "name": "account",
          "type": "address"
        },
        {
          "indexed": true,
          "internalType": "address",
          "name": "sender",
          "type": "address"
        }
      ],
      "name": "RoleRevoked",
      "type": "event"
    },
    {
      "anonymous": false,
      "inputs": [
        {
          "indexed": true,
          "internalType": "address",
          "name": "operator",
          "type": "address"
        },
        {
          "indexed": true,
          "internalType": "address",
          "name": "from",
          "type": "address"
        },
        {
          "indexed": true,
          "internalType": "address",
          "name": "to",
          "type": "address"
        },
        {
          "indexed": false,
          "internalType": "uint256[]",
          "name": "ids",
          "type": "uint256[]"
        },
        {
          "indexed": false,
          "internalType": "uint256[]",
          "name": "values",
          "type": "uint256[]"
        }
      ],
      "name": "TransferBatch",
      "type": "event"
    },
    {
      "anonymous": false,
      "inputs": [
        {
          "indexed": true,
          "internalType": "address",
          "name": "operator",
          "type": "address"
        },
        {
          "indexed": true,
          "internalType": "address",
          "name": "from",
          "type": "address"
        },
        {
          "indexed": true,
          "internalType": "address",
          "name": "to",
          "type": "address"
        },
        {
          "indexed": false,
          "internalType": "uint256",
          "name": "id",
          "type": "uint256"
        },
        {
          "indexed": false,
          "internalType": "uint256",
          "name": "value",
          "type": "uint256"
        }
      ],
      "name": "TransferSingle",
      "type": "event"
    },
    {
      "anonymous": false,
      "inputs": [
        {
          "indexed": false,
          "internalType": "string",
          "name": "value",
          "type": "string"
        },
        {
          "indexed": true,
          "internalType": "uint256",
          "name": "id",
          "type": "uint256"
        }
      ],
      "name": "URI",
      "type": "event"
    },
    {
      "inputs": [],
      "name": "CREATOR_ADMIN_ROLE",
      "outputs": [
        {
          "internalType": "bytes32",
          "name": "",
          "type": "bytes32"
        }
      ],
      "stateMutability": "view",
      "type": "function",
      "constant": true
    },
    {
      "inputs": [],
      "name": "CREATOR_ROLE",
      "outputs": [
        {
          "internalType": "bytes32",
          "name": "",
          "type": "bytes32"
        }
      ],
      "stateMutability": "view",
      "type": "function",
      "constant": true
    },
    {
      "inputs": [],
      "name": "DEFAULT_ADMIN_ROLE",
      "outputs": [
        {
          "internalType": "bytes32",
          "name": "",
          "type": "bytes32"
        }
      ],
      "stateMutability": "view",
      "type": "function",
      "constant": true
    },
    {
      "inputs": [],
      "name": "MINTER_ADMIN_ROLE",
      "outputs": [
        {
          "internalType": "bytes32",
          "name": "",
          "type": "bytes32"
        }
      ],
      "stateMutability": "view",
      "type": "function",
      "constant": true
    },
    {
      "inputs": [],
      "name": "MINTER_ROLE",
      "outputs": [
        {
          "internalType": "bytes32",
          "name": "",
          "type": "bytes32"
        }
      ],
      "stateMutability": "view",
      "type": "function",
      "constant": true
    },
    {
      "inputs": [
        {
          "internalType": "address",
          "name": "account",
          "type": "address"
        },
        {
          "internalType": "uint256",
          "name": "id",
          "type": "uint256"
        }
      ],
      "name": "balanceOf",
      "outputs": [
        {
          "internalType": "uint256",
          "name": "",
          "type": "uint256"
        }
      ],
      "stateMutability": "view",
      "type": "function",
      "constant": true
    },
    {
      "inputs": [
        {
          "internalType": "address[]",
          "name": "accounts",
          "type": "address[]"
        },
        {
          "internalType": "uint256[]",
          "name": "ids",
          "type": "uint256[]"
        }
      ],
      "name": "balanceOfBatch",
      "outputs": [
        {
          "internalType": "uint256[]",
          "name": "",
          "type": "uint256[]"
        }
      ],
      "stateMutability": "view",
      "type": "function",
      "constant": true
    },
    {
      "inputs": [],
      "name": "esTileContract",
      "outputs": [
        {
          "internalType": "contract ESTile",
          "name": "",
          "type": "address"
        }
      ],
      "stateMutability": "view",
      "type": "function",
      "constant": true
    },
    {
      "inputs": [
        {
          "internalType": "bytes32",
          "name": "role",
          "type": "bytes32"
        }
      ],
      "name": "getRoleAdmin",
      "outputs": [
        {
          "internalType": "bytes32",
          "name": "",
          "type": "bytes32"
        }
      ],
      "stateMutability": "view",
      "type": "function",
      "constant": true
    },
    {
      "inputs": [
        {
          "internalType": "bytes32",
          "name": "role",
          "type": "bytes32"
        },
        {
          "internalType": "uint256",
          "name": "index",
          "type": "uint256"
        }
      ],
      "name": "getRoleMember",
      "outputs": [
        {
          "internalType": "address",
          "name": "",
          "type": "address"
        }
      ],
      "stateMutability": "view",
      "type": "function",
      "constant": true
    },
    {
      "inputs": [
        {
          "internalType": "bytes32",
          "name": "role",
          "type": "bytes32"
        }
      ],
      "name": "getRoleMemberCount",
      "outputs": [
        {
          "internalType": "uint256",
          "name": "",
          "type": "uint256"
        }
      ],
      "stateMutability": "view",
      "type": "function",
      "constant": true
    },
    {
      "inputs": [
        {
          "internalType": "bytes32",
          "name": "_adminRole",
          "type": "bytes32"
        },
        {
          "internalType": "address",
          "name": "_address",
          "type": "address"
        }
      ],
      "name": "grantAdmin",
      "outputs": [],
      "stateMutability": "nonpayable",
      "type": "function"
    },
    {
      "inputs": [
        {
          "internalType": "bytes32",
          "name": "role",
          "type": "bytes32"
        },
        {
          "internalType": "address",
          "name": "account",
          "type": "address"
        }
      ],
      "name": "grantRole",
      "outputs": [],
      "stateMutability": "nonpayable",
      "type": "function"
    },
    {
      "inputs": [
        {
          "internalType": "bytes32",
          "name": "role",
          "type": "bytes32"
        },
        {
          "internalType": "address",
          "name": "account",
          "type": "address"
        }
      ],
      "name": "hasRole",
      "outputs": [
        {
          "internalType": "bool",
          "name": "",
          "type": "bool"
        }
      ],
      "stateMutability": "view",
      "type": "function",
      "constant": true
    },
    {
      "inputs": [
        {
          "internalType": "address",
          "name": "_owner",
          "type": "address"
        },
        {
          "internalType": "address",
          "name": "_operator",
          "type": "address"
        }
      ],
      "name": "isApprovedForAll",
      "outputs": [
        {
          "internalType": "bool",
          "name": "isOperator",
          "type": "bool"
        }
      ],
      "stateMutability": "view",
      "type": "function",
      "constant": true
    },
    {
      "inputs": [],
      "name": "maxTokenID",
      "outputs": [
        {
          "internalType": "uint256",
          "name": "",
          "type": "uint256"
        }
      ],
      "stateMutability": "view",
      "type": "function",
      "constant": true
    },
    {
      "inputs": [],
      "name": "name",
      "outputs": [
        {
          "internalType": "string",
          "name": "",
          "type": "string"
        }
      ],
      "stateMutability": "view",
      "type": "function",
      "constant": true
    },
    {
      "inputs": [],
      "name": "owner",
      "outputs": [
        {
          "internalType": "address",
          "name": "",
          "type": "address"
        }
      ],
      "stateMutability": "view",
      "type": "function",
      "constant": true
    },
    {
      "inputs": [],
      "name": "renounceOwnership",
      "outputs": [],
      "stateMutability": "nonpayable",
      "type": "function"
    },
    {
      "inputs": [
        {
          "internalType": "bytes32",
          "name": "role",
          "type": "bytes32"
        },
        {
          "internalType": "address",
          "name": "account",
          "type": "address"
        }
      ],
      "name": "renounceRole",
      "outputs": [],
      "stateMutability": "nonpayable",
      "type": "function"
    },
    {
      "inputs": [
        {
          "internalType": "bytes32",
          "name": "_adminRole",
          "type": "bytes32"
        },
        {
          "internalType": "address",
          "name": "_address",
          "type": "address"
        }
      ],
      "name": "revokeAdmin",
      "outputs": [],
      "stateMutability": "nonpayable",
      "type": "function"
    },
    {
      "inputs": [
        {
          "internalType": "bytes32",
          "name": "role",
          "type": "bytes32"
        },
        {
          "internalType": "address",
          "name": "account",
          "type": "address"
        }
      ],
      "name": "revokeRole",
      "outputs": [],
      "stateMutability": "nonpayable",
      "type": "function"
    },
    {
      "inputs": [
        {
          "internalType": "address",
          "name": "from",
          "type": "address"
        },
        {
          "internalType": "address",
          "name": "to",
          "type": "address"
        },
        {
          "internalType": "uint256[]",
          "name": "ids",
          "type": "uint256[]"
        },
        {
          "internalType": "uint256[]",
          "name": "amounts",
          "type": "uint256[]"
        },
        {
          "internalType": "bytes",
          "name": "data",
          "type": "bytes"
        }
      ],
      "name": "safeBatchTransferFrom",
      "outputs": [],
      "stateMutability": "nonpayable",
      "type": "function"
    },
    {
      "inputs": [
        {
          "internalType": "address",
          "name": "from",
          "type": "address"
        },
        {
          "internalType": "address",
          "name": "to",
          "type": "address"
        },
        {
          "internalType": "uint256",
          "name": "id",
          "type": "uint256"
        },
        {
          "internalType": "uint256",
          "name": "amount",
          "type": "uint256"
        },
        {
          "internalType": "bytes",
          "name": "data",
          "type": "bytes"
        }
      ],
      "name": "safeTransferFrom",
      "outputs": [],
      "stateMutability": "nonpayable",
      "type": "function"
    },
    {
      "inputs": [
        {
          "internalType": "address",
          "name": "operator",
          "type": "address"
        },
        {
          "internalType": "bool",
          "name": "approved",
          "type": "bool"
        }
      ],
      "name": "setApprovalForAll",
      "outputs": [],
      "stateMutability": "nonpayable",
      "type": "function"
    },
    {
      "inputs": [
        {
          "internalType": "address",
          "name": "_proxyRegistryAddress",
          "type": "address"
        }
      ],
      "name": "setProxyRegistryAddress",
      "outputs": [],
      "stateMutability": "nonpayable",
      "type": "function"
    },
    {
      "inputs": [
        {
          "internalType": "string",
          "name": "_newBaseMetadataURI",
          "type": "string"
        }
      ],
      "name": "setURI",
      "outputs": [],
      "stateMutability": "nonpayable",
      "type": "function"
    },
    {
      "inputs": [
        {
          "internalType": "bytes4",
          "name": "interfaceId",
          "type": "bytes4"
        }
      ],
      "name": "supportsInterface",
      "outputs": [
        {
          "internalType": "bool",
          "name": "",
          "type": "bool"
        }
      ],
      "stateMutability": "view",
      "type": "function",
      "constant": true
    },
    {
      "inputs": [],
      "name": "symbol",
      "outputs": [
        {
          "internalType": "string",
          "name": "",
          "type": "string"
        }
      ],
      "stateMutability": "view",
      "type": "function",
      "constant": true
    },
    {
      "inputs": [
        {
          "internalType": "uint256",
          "name": "",
          "type": "uint256"
        }
      ],
      "name": "totalSupply",
      "outputs": [
        {
          "internalType": "uint256",
          "name": "",
          "type": "uint256"
        }
      ],
      "stateMutability": "view",
      "type": "function",
      "constant": true
    },
    {
      "inputs": [
        {
          "internalType": "address",
          "name": "newOwner",
          "type": "address"
        }
      ],
      "name": "transferOwnership",
      "outputs": [],
      "stateMutability": "nonpayable",
      "type": "function"
    },
    {
      "inputs": [
        {
          "internalType": "uint256",
          "name": "",
          "type": "uint256"
        }
      ],
      "name": "uri",
      "outputs": [
        {
          "internalType": "string",
          "name": "",
          "type": "string"
        }
      ],
      "stateMutability": "view",
      "type": "function",
      "constant": true
    },
    {
      "inputs": [
        {
          "internalType": "uint256",
          "name": "sceneId",
          "type": "uint256"
        },
        {
          "internalType": "uint256",
          "name": "escapeCost",
          "type": "uint256"
        },
        {
          "internalType": "uint256",
          "name": "tilesPerPack",
          "type": "uint256"
        },
        {
          "internalType": "uint256",
          "name": "packQuantity",
          "type": "uint256"
        },
        {
          "internalType": "bool",
          "name": "isPurchaseable",
          "type": "bool"
        }
      ],
      "name": "createPack",
      "outputs": [],
      "stateMutability": "nonpayable",
      "type": "function"
    },
    {
      "inputs": [],
      "name": "numPacksCreated",
      "outputs": [
        {
          "internalType": "uint256",
          "name": "",
          "type": "uint256"
        }
      ],
      "stateMutability": "view",
      "type": "function",
      "constant": true
    },
    {
      "inputs": [
        {
          "internalType": "uint256",
          "name": "packId",
          "type": "uint256"
        }
      ],
      "name": "getPackInfo",
      "outputs": [
        {
          "internalType": "uint256",
          "name": "",
          "type": "uint256"
        },
        {
          "internalType": "uint256",
          "name": "",
          "type": "uint256"
        },
        {
          "internalType": "bool",
          "name": "",
          "type": "bool"
        },
        {
          "internalType": "uint256",
          "name": "",
          "type": "uint256"
        },
        {
          "internalType": "uint256",
          "name": "",
          "type": "uint256"
        },
        {
          "internalType": "uint256",
          "name": "",
          "type": "uint256"
        }
      ],
      "stateMutability": "view",
      "type": "function",
      "constant": true
    },
    {
      "inputs": [
        {
          "internalType": "uint256",
          "name": "_packId",
          "type": "uint256"
        },
        {
          "internalType": "uint256",
          "name": "_amount",
          "type": "uint256"
        }
      ],
      "name": "open",
      "outputs": [],
      "stateMutability": "nonpayable",
      "type": "function"
    },
    {
      "inputs": [
        {
          "internalType": "uint256",
          "name": "_packTokenId",
          "type": "uint256"
        },
        {
          "internalType": "uint256",
          "name": "_amount",
          "type": "uint256"
        },
        {
          "internalType": "address",
          "name": "_recipient",
          "type": "address"
        }
      ],
      "name": "openFor",
      "outputs": [],
      "stateMutability": "nonpayable",
      "type": "function"
    },
    {
      "inputs": [
        {
          "internalType": "address",
          "name": "_to",
          "type": "address"
        },
        {
          "internalType": "uint256",
          "name": "_id",
          "type": "uint256"
        },
        {
          "internalType": "uint256",
          "name": "_amount",
          "type": "uint256"
        },
        {
          "internalType": "bytes",
          "name": "_data",
          "type": "bytes"
        }
      ],
      "name": "mint",
      "outputs": [],
      "stateMutability": "nonpayable",
      "type": "function"
    },
    {
      "inputs": [
        {
          "internalType": "address",
          "name": "_to",
          "type": "address"
        },
        {
          "internalType": "uint256[]",
          "name": "_ids",
          "type": "uint256[]"
        },
        {
          "internalType": "uint256[]",
          "name": "_amounts",
          "type": "uint256[]"
        },
        {
          "internalType": "bytes",
          "name": "_data",
          "type": "bytes"
        }
      ],
      "name": "mintBatch",
      "outputs": [],
      "stateMutability": "nonpayable",
      "type": "function"
    },
    {
      "inputs": [
        {
          "internalType": "uint256",
          "name": "_packId",
          "type": "uint256"
        }
      ],
      "name": "packCosts",
      "outputs": [
        {
          "internalType": "uint256",
          "name": "",
          "type": "uint256"
        },
        {
          "internalType": "bool",
          "name": "",
          "type": "bool"
        }
      ],
      "stateMutability": "view",
      "type": "function",
      "constant": true
    },
    {
      "inputs": [
        {
          "internalType": "uint256",
          "name": "_newSeed",
          "type": "uint256"
        }
      ],
      "name": "setSeed",
      "outputs": [],
      "stateMutability": "nonpayable",
      "type": "function"
    }
  ],
  "bytecode": "0x608060405260006007553480156200001657600080fd5b506040516200626138038062006261833981810160405260608110156200003c57600080fd5b81019080805160405193929190846401000000008211156200005d57600080fd5b838201915060208201858111156200007457600080fd5b82518660018202830111640100000000821117156200009257600080fd5b8083526020830192505050908051906020019080838360005b83811015620000c8578082015181840152602081019050620000ab565b50505050905090810190601f168015620000f65780820380516001836020036101000a031916815260200191505b5060405260200180519060200190929190805190602001909291905050506040518060400160405280601481526020017f457468657253636170652074696c65207061636b0000000000000000000000008152506040518060400160405280600781526020017f4553437061636b00000000000000000000000000000000000000000000000000815250848381600062000195620004f760201b60201c565b905080600160006101000a81548173ffffffffffffffffffffffffffffffffffffffff021916908373ffffffffffffffffffffffffffffffffffffffff1602179055508073ffffffffffffffffffffffffffffffffffffffff16600073ffffffffffffffffffffffffffffffffffffffff167f8be0079c531659141344cd1fd0a4f28419497f9722a3daafe3b4186f6b6457e060405160405180910390a3506200024c6301ffc9a760e01b620004ff60201b60201c565b6200025d816200060960201b60201c565b6200027563d9b67a2660e01b620004ff60201b60201c565b6200028d630e89341c60e01b620004ff60201b60201c565b508360099080519060200190620002a692919062000815565b5082600a9080519060200190620002bf92919062000815565b5080600660006101000a81548173ffffffffffffffffffffffffffffffffffffffff021916908373ffffffffffffffffffffffffffffffffffffffff160217905550620003427f828634d95e775031b9ff576b159a8509d3053581a8c9c4d7d86899e0afcd882f62000336620004f760201b60201c565b6200062560201b60201c565b620003837f9f2df0fed2c77648de5860a4cc508cd0818c85b8b8a1ab4ceeef8d981c8956a662000377620004f760201b60201c565b6200062560201b60201c565b620003d57f828634d95e775031b9ff576b159a8509d3053581a8c9c4d7d86899e0afcd882f7f5721171b1e9186284262a02aac3a681e12de7388ebccd0c2d06623651b6af6f86200063b60201b60201c565b620004277f9f2df0fed2c77648de5860a4cc508cd0818c85b8b8a1ab4ceeef8d981c8956a67f70480ee89cb38eff00b7d23da25713d52ce19c6ed428691d22c58b2f615e3d676200063b60201b60201c565b620004687f5721171b1e9186284262a02aac3a681e12de7388ebccd0c2d06623651b6af6f86200045c620004f760201b60201c565b6200062560201b60201c565b620004a97f70480ee89cb38eff00b7d23da25713d52ce19c6ed428691d22c58b2f615e3d676200049d620004f760201b60201c565b6200062560201b60201c565b5050505081600c60006101000a81548173ffffffffffffffffffffffffffffffffffffffff021916908373ffffffffffffffffffffffffffffffffffffffff160217905550505050620008bb565b600033905090565b63ffffffff60e01b817bffffffffffffffffffffffffffffffffffffffffffffffffffffffff191614156200059c576040517f08c379a000000000000000000000000000000000000000000000000000000000815260040180806020018281038252601c8152602001807f4552433136353a20696e76616c696420696e746572666163652069640000000081525060200191505060405180910390fd5b600160026000837bffffffffffffffffffffffffffffffffffffffffffffffffffffffff19167bffffffffffffffffffffffffffffffffffffffffffffffffffffffff1916815260200190815260200160002060006101000a81548160ff02191690831515021790555050565b80600590805190602001906200062192919062000815565b5050565b6200063782826200069d60201b60201c565b5050565b8060008084815260200190815260200160002060020154837fbd79b86ffe0ab8e8776151514217cd7cacd52c909f66475c3af44e129f0b00ff60405160405180910390a480600080848152602001908152602001600020600201819055505050565b620006cb816000808581526020019081526020016000206000016200074060201b62003bb31790919060201c565b156200073c57620006e1620004f760201b60201c565b73ffffffffffffffffffffffffffffffffffffffff168173ffffffffffffffffffffffffffffffffffffffff16837f2f8788117e7eff1d82e926ec794901d17c78024a50270940304540a733656f0d60405160405180910390a45b5050565b600062000770836000018373ffffffffffffffffffffffffffffffffffffffff1660001b6200077860201b60201c565b905092915050565b60006200078c8383620007f260201b60201c565b620007e7578260000182908060018154018082558091505060019003906000526020600020016000909190919091505582600001805490508360010160008481526020019081526020016000208190555060019050620007ec565b600090505b92915050565b600080836001016000848152602001908152602001600020541415905092915050565b828054600181600116156101000203166002900490600052602060002090601f016020900481019282601f106200085857805160ff191683800117855562000889565b8280016001018555821562000889579182015b82811115620008885782518255916020019190600101906200086b565b5b5090506200089891906200089c565b5090565b5b80821115620008b75760008160009055506001016200089d565b5090565b61599680620008cb6000396000f3fe608060405234801561001057600080fd5b50600436106102525760003560e01c806380502ef411610146578063bd85b039116100c3578063d547741f11610087578063d547741f14611203578063d5e6b49c14611251578063e985e9c5146112b8578063ebe0e1b314611332578063f242432a14611366578063f2fde38b1461147557610252565b8063bd85b039146110ef578063c32a50f914611131578063ca15c8731461115f578063d26ea6c0146111a1578063d5391393146111e557610252565b806391d148541161010a57806391d1485414610f4f57806395d89b4114610fb3578063a217fddf14611036578063a22cb46514611054578063b6a5e5cc146110a457610252565b806380502ef414610deb57806380d724cf14610e435780638aeda25a14610e9b5780638da5cb5b14610eb95780639010d07c14610eed57610252565b80632f2ff15d116101d45780634e1273f4116101985780634e1273f414610ae55780635a570c0c14610c865780635df7d82f14610ca4578063715018a614610cf2578063731133e914610cfc57610252565b80632f2ff15d146109a557806336568abe146109f35780634082de6714610a4157806347bec61214610a795780634df6e60514610a9757610252565b80631339324b1161021b5780631339324b14610501578063197702da1461051f5780631f7fdffa1461053d578063248a9ca3146107405780632eb2c2d61461078257610252565b8062fdd58e1461025757806301ffc9a7146102b957806302fe53051461031c57806306fdde03146103d75780630e89341c1461045a575b600080fd5b6102a36004803603604081101561026d57600080fd5b81019080803573ffffffffffffffffffffffffffffffffffffffff169060200190929190803590602001909291905050506114b9565b6040518082815260200191505060405180910390f35b610304600480360360208110156102cf57600080fd5b8101908080357bffffffffffffffffffffffffffffffffffffffffffffffffffffffff19169060200190929190505050611599565b60405180821515815260200191505060405180910390f35b6103d56004803603602081101561033257600080fd5b810190808035906020019064010000000081111561034f57600080fd5b82018360208201111561036157600080fd5b8035906020019184600183028401116401000000008311171561038357600080fd5b91908080601f016020809104026020016040519081016040528093929190818152602001838380828437600081840152601f19601f820116905080830192505050505050509192919290505050611601565b005b6103df6116bc565b6040518080602001828103825283818151815260200191508051906020019080838360005b8381101561041f578082015181840152602081019050610404565b50505050905090810190601f16801561044c5780820380516001836020036101000a031916815260200191505b509250505060405180910390f35b6104866004803603602081101561047057600080fd5b810190808035906020019092919050505061175a565b6040518080602001828103825283818151815260200191508051906020019080838360005b838110156104c65780820151818401526020810190506104ab565b50505050905090810190601f1680156104f35780820380516001836020036101000a031916815260200191505b509250505060405180910390f35b6105096117fe565b6040518082815260200191505060405180910390f35b610527611822565b6040518082815260200191505060405180910390f35b61073e6004803603608081101561055357600080fd5b81019080803573ffffffffffffffffffffffffffffffffffffffff1690602001909291908035906020019064010000000081111561059057600080fd5b8201836020820111156105a257600080fd5b803590602001918460208302840111640100000000831117156105c457600080fd5b919080806020026020016040519081016040528093929190818152602001838360200280828437600081840152601f19601f8201169050808301925050505050505091929192908035906020019064010000000081111561062457600080fd5b82018360208201111561063657600080fd5b8035906020019184602083028401116401000000008311171561065857600080fd5b919080806020026020016040519081016040528093929190818152602001838360200280828437600081840152601f19601f820116905080830192505050505050509192919290803590602001906401000000008111156106b857600080fd5b8201836020820111156106ca57600080fd5b803590602001918460018302840111640100000000831117156106ec57600080fd5b91908080601f016020809104026020016040519081016040528093929190818152602001838380828437600081840152601f19601f820116905080830192505050505050509192919290505050611846565b005b61076c6004803603602081101561075657600080fd5b81019080803590602001909291905050506118f6565b6040518082815260200191505060405180910390f35b6109a3600480360360a081101561079857600080fd5b81019080803573ffffffffffffffffffffffffffffffffffffffff169060200190929190803573ffffffffffffffffffffffffffffffffffffffff169060200190929190803590602001906401000000008111156107f557600080fd5b82018360208201111561080757600080fd5b8035906020019184602083028401116401000000008311171561082957600080fd5b919080806020026020016040519081016040528093929190818152602001838360200280828437600081840152601f19601f8201169050808301925050505050505091929192908035906020019064010000000081111561088957600080fd5b82018360208201111561089b57600080fd5b803590602001918460208302840111640100000000831117156108bd57600080fd5b919080806020026020016040519081016040528093929190818152602001838360200280828437600081840152601f19601f8201169050808301925050505050505091929192908035906020019064010000000081111561091d57600080fd5b82018360208201111561092f57600080fd5b8035906020019184600183028401116401000000008311171561095157600080fd5b91908080601f016020809104026020016040519081016040528093929190818152602001838380828437600081840152601f19601f820116905080830192505050505050509192919290505050611915565b005b6109f1600480360360408110156109bb57600080fd5b8101908080359060200190929190803573ffffffffffffffffffffffffffffffffffffffff169060200190929190505050611da0565b005b610a3f60048036036040811015610a0957600080fd5b8101908080359060200190929190803573ffffffffffffffffffffffffffffffffffffffff169060200190929190505050611e29565b005b610a7760048036036040811015610a5757600080fd5b810190808035906020019092919080359060200190929190505050611ec2565b005b610a81611f4f565b6040518082815260200191505060405180910390f35b610ae360048036036040811015610aad57600080fd5b8101908080359060200190929190803573ffffffffffffffffffffffffffffffffffffffff169060200190929190505050611f59565b005b610c2f60048036036040811015610afb57600080fd5b8101908080359060200190640100000000811115610b1857600080fd5b820183602082011115610b2a57600080fd5b80359060200191846020830284011164010000000083111715610b4c57600080fd5b919080806020026020016040519081016040528093929190818152602001838360200280828437600081840152601f19601f82011690508083019250505050505050919291929080359060200190640100000000811115610bac57600080fd5b820183602082011115610bbe57600080fd5b80359060200191846020830284011164010000000083111715610be057600080fd5b919080806020026020016040519081016040528093929190818152602001838360200280828437600081840152601f19601f820116905080830192505050505050509192919290505050612098565b6040518080602001828103825283818151815260200191508051906020019060200280838360005b83811015610c72578082015181840152602081019050610c57565b505050509050019250505060405180910390f35b610c8e61228a565b6040518082815260200191505060405180910390f35b610cf060048036036040811015610cba57600080fd5b8101908080359060200190929190803573ffffffffffffffffffffffffffffffffffffffff169060200190929190505050612290565b005b610cfa6123cf565b005b610de960048036036080811015610d1257600080fd5b81019080803573ffffffffffffffffffffffffffffffffffffffff169060200190929190803590602001909291908035906020019092919080359060200190640100000000811115610d6357600080fd5b820183602082011115610d7557600080fd5b80359060200191846001830284011164010000000083111715610d9757600080fd5b91908080601f016020809104026020016040519081016040528093929190818152602001838380828437600081840152601f19601f82011690508083019250505050505050919291929050505061253f565b005b610e4160048036036060811015610e0157600080fd5b810190808035906020019092919080359060200190929190803573ffffffffffffffffffffffffffffffffffffffff1690602001909291905050506125af565b005b610e99600480360360a0811015610e5957600080fd5b8101908080359060200190929190803590602001909291908035906020019092919080359060200190929190803515159060200190929190505050612af5565b005b610ea3612d70565b6040518082815260200191505060405180910390f35b610ec1612d94565b604051808273ffffffffffffffffffffffffffffffffffffffff16815260200191505060405180910390f35b610f2360048036036040811015610f0357600080fd5b810190808035906020019092919080359060200190929190505050612dbe565b604051808273ffffffffffffffffffffffffffffffffffffffff16815260200191505060405180910390f35b610f9b60048036036040811015610f6557600080fd5b8101908080359060200190929190803573ffffffffffffffffffffffffffffffffffffffff169060200190929190505050612def565b60405180821515815260200191505060405180910390f35b610fbb612e20565b6040518080602001828103825283818151815260200191508051906020019080838360005b83811015610ffb578082015181840152602081019050610fe0565b50505050905090810190601f1680156110285780820380516001836020036101000a031916815260200191505b509250505060405180910390f35b61103e612ebe565b6040518082815260200191505060405180910390f35b6110a26004803603604081101561106a57600080fd5b81019080803573ffffffffffffffffffffffffffffffffffffffff169060200190929190803515159060200190929190505050612ec5565b005b6110d0600480360360208110156110ba57600080fd5b810190808035906020019092919050505061305e565b6040518083815260200182151581526020019250505060405180910390f35b61111b6004803603602081101561110557600080fd5b81019080803590602001909291905050506130d2565b6040518082815260200191505060405180910390f35b61115d6004803603602081101561114757600080fd5b81019080803590602001909291905050506130ea565b005b61118b6004803603602081101561117557600080fd5b81019080803590602001909291905050506131a3565b6040518082815260200191505060405180910390f35b6111e3600480360360208110156111b757600080fd5b81019080803573ffffffffffffffffffffffffffffffffffffffff1690602001909291905050506131c9565b005b6111ed6132bc565b6040518082815260200191505060405180910390f35b61124f6004803603604081101561121957600080fd5b8101908080359060200190929190803573ffffffffffffffffffffffffffffffffffffffff1690602001909291905050506132e0565b005b61127d6004803603602081101561126757600080fd5b8101908080359060200190929190505050613369565b604051808781526020018681526020018515158152602001848152602001838152602001828152602001965050505050505060405180910390f35b61131a600480360360408110156112ce57600080fd5b81019080803573ffffffffffffffffffffffffffffffffffffffff169060200190929190803573ffffffffffffffffffffffffffffffffffffffff1690602001909291905050506134b1565b60405180821515815260200191505060405180910390f35b61133a613623565b604051808273ffffffffffffffffffffffffffffffffffffffff16815260200191505060405180910390f35b611473600480360360a081101561137c57600080fd5b81019080803573ffffffffffffffffffffffffffffffffffffffff169060200190929190803573ffffffffffffffffffffffffffffffffffffffff1690602001909291908035906020019092919080359060200190929190803590602001906401000000008111156113ed57600080fd5b8201836020820111156113ff57600080fd5b8035906020019184600183028401116401000000008311171561142157600080fd5b91908080601f016020809104026020016040519081016040528093929190818152602001838380828437600081840152601f19601f820116905080830192505050505050509192919290505050613649565b005b6114b76004803603602081101561148b57600080fd5b81019080803573ffffffffffffffffffffffffffffffffffffffff1690602001909291905050506139be565b005b60008073ffffffffffffffffffffffffffffffffffffffff168373ffffffffffffffffffffffffffffffffffffffff161415611540576040517f08c379a000000000000000000000000000000000000000000000000000000000815260040180806020018281038252602b8152602001806156d3602b913960400191505060405180910390fd5b6003600083815260200190815260200160002060008473ffffffffffffffffffffffffffffffffffffffff1673ffffffffffffffffffffffffffffffffffffffff16815260200190815260200160002054905092915050565b600060026000837bffffffffffffffffffffffffffffffffffffffffffffffffffffffff19167bffffffffffffffffffffffffffffffffffffffffffffffffffffffff1916815260200190815260200160002060009054906101000a900460ff169050919050565b611609613be3565b73ffffffffffffffffffffffffffffffffffffffff16611627612d94565b73ffffffffffffffffffffffffffffffffffffffff16146116b0576040517f08c379a00000000000000000000000000000000000000000000000000000000081526004018080602001828103825260208152602001807f4f776e61626c653a2063616c6c6572206973206e6f7420746865206f776e657281525060200191505060405180910390fd5b6116b981613beb565b50565b60098054600181600116156101000203166002900480601f0160208091040260200160405190810160405280929190818152602001828054600181600116156101000203166002900480156117525780601f1061172757610100808354040283529160200191611752565b820191906000526020600020905b81548152906001019060200180831161173557829003601f168201915b505050505081565b606060058054600181600116156101000203166002900480601f0160208091040260200160405190810160405280929190818152602001828054600181600116156101000203166002900480156117f25780601f106117c7576101008083540402835291602001916117f2565b820191906000526020600020905b8154815290600101906020018083116117d557829003601f168201915b50505050509050919050565b7f70480ee89cb38eff00b7d23da25713d52ce19c6ed428691d22c58b2f615e3d6781565b7f5721171b1e9186284262a02aac3a681e12de7388ebccd0c2d06623651b6af6f881565b60005b83518110156118e3576118d583828151811061186157fe5b60200260200101516040518060400160405280601581526020017f6e6f7420656e6f756768207061636b73206c6566740000000000000000000000815250600e60008886815181106118af57fe5b6020026020010151815260200190815260200160002054613c059092919063ffffffff16565b508080600101915050611849565b506118f084848484613cbf565b50505050565b6000806000838152602001908152602001600020600201549050919050565b815183511461196f576040517f08c379a00000000000000000000000000000000000000000000000000000000081526004018080602001828103825260288152602001806158e96028913960400191505060405180910390fd5b600073ffffffffffffffffffffffffffffffffffffffff168473ffffffffffffffffffffffffffffffffffffffff1614156119f5576040517f08c379a00000000000000000000000000000000000000000000000000000000081526004018080602001828103825260258152602001806157d26025913960400191505060405180910390fd5b6119fd613be3565b73ffffffffffffffffffffffffffffffffffffffff168573ffffffffffffffffffffffffffffffffffffffff161480611a435750611a4285611a3d613be3565b6134b1565b5b611a98576040517f08c379a00000000000000000000000000000000000000000000000000000000081526004018080602001828103825260328152602001806157f76032913960400191505060405180910390fd5b6000611aa2613be3565b9050611ab2818787878787613e04565b60005b8451811015611c83576000858281518110611acc57fe5b602002602001015190506000858381518110611ae457fe5b60200260200101519050611b6b816040518060600160405280602a815260200161584c602a91396003600086815260200190815260200160002060008d73ffffffffffffffffffffffffffffffffffffffff1673ffffffffffffffffffffffffffffffffffffffff16815260200190815260200160002054613c059092919063ffffffff16565b6003600084815260200190815260200160002060008b73ffffffffffffffffffffffffffffffffffffffff1673ffffffffffffffffffffffffffffffffffffffff16815260200190815260200160002081905550611c22816003600085815260200190815260200160002060008b73ffffffffffffffffffffffffffffffffffffffff1673ffffffffffffffffffffffffffffffffffffffff16815260200190815260200160002054613e0c90919063ffffffff16565b6003600084815260200190815260200160002060008a73ffffffffffffffffffffffffffffffffffffffff1673ffffffffffffffffffffffffffffffffffffffff168152602001908152602001600020819055505050806001019050611ab5565b508473ffffffffffffffffffffffffffffffffffffffff168673ffffffffffffffffffffffffffffffffffffffff168273ffffffffffffffffffffffffffffffffffffffff167f4a39dc06d4c0dbc64b70af90fd698a233a518aa5d07e595d983b8c0526c8f7fb8787604051808060200180602001838103835285818151815260200191508051906020019060200280838360005b83811015611d33578082015181840152602081019050611d18565b50505050905001838103825284818151815260200191508051906020019060200280838360005b83811015611d75578082015181840152602081019050611d5a565b5050505090500194505050505060405180910390a4611d98818787878787613e94565b505050505050565b611dc660008084815260200190815260200160002060020154611dc1613be3565b612def565b611e1b576040517f08c379a000000000000000000000000000000000000000000000000000000000815260040180806020018281038252602f8152602001806156a4602f913960400191505060405180910390fd5b611e258282614223565b5050565b611e31613be3565b73ffffffffffffffffffffffffffffffffffffffff168173ffffffffffffffffffffffffffffffffffffffff1614611eb4576040517f08c379a000000000000000000000000000000000000000000000000000000000815260040180806020018281038252602f815260200180615932602f913960400191505060405180910390fd5b611ebe82826142b6565b5050565b6000821415611f39576040517f08c379a00000000000000000000000000000000000000000000000000000000081526004018080602001828103825260198152602001807f696e76616c6964207061636b2c2063616e6e6f74206f70656e0000000000000081525060200191505060405180910390fd5b611f4b8282611f46613be3565b6125af565b5050565b6000600754905090565b7f5721171b1e9186284262a02aac3a681e12de7388ebccd0c2d06623651b6af6f882148015611fb55750611fb47f5721171b1e9186284262a02aac3a681e12de7388ebccd0c2d06623651b6af6f8611faf613be3565b612def565b5b8061201857507f70480ee89cb38eff00b7d23da25713d52ce19c6ed428691d22c58b2f615e3d678214801561201757506120167f70480ee89cb38eff00b7d23da25713d52ce19c6ed428691d22c58b2f615e3d67612011613be3565b612def565b5b5b61208a576040517f08c379a000000000000000000000000000000000000000000000000000000000815260040180806020018281038252600c8152602001807f4e6f7420616e2061646d696e000000000000000000000000000000000000000081525060200191505060405180910390fd5b6120948282614223565b5050565b606081518351146120f4576040517f08c379a00000000000000000000000000000000000000000000000000000000081526004018080602001828103825260298152602001806158c06029913960400191505060405180910390fd5b6060835167ffffffffffffffff8111801561210e57600080fd5b5060405190808252806020026020018201604052801561213d5781602001602082028036833780820191505090505b50905060005b845181101561227f57600073ffffffffffffffffffffffffffffffffffffffff1685828151811061217057fe5b602002602001015173ffffffffffffffffffffffffffffffffffffffff1614156121e5576040517f08c379a00000000000000000000000000000000000000000000000000000000081526004018080602001828103825260318152602001806156fe6031913960400191505060405180910390fd5b600360008583815181106121f557fe5b60200260200101518152602001908152602001600020600086838151811061221957fe5b602002602001015173ffffffffffffffffffffffffffffffffffffffff1673ffffffffffffffffffffffffffffffffffffffff1681526020019081526020016000205482828151811061226857fe5b602002602001018181525050806001019050612143565b508091505092915050565b60075481565b7f5721171b1e9186284262a02aac3a681e12de7388ebccd0c2d06623651b6af6f8821480156122ec57506122eb7f5721171b1e9186284262a02aac3a681e12de7388ebccd0c2d06623651b6af6f86122e6613be3565b612def565b5b8061234f57507f70480ee89cb38eff00b7d23da25713d52ce19c6ed428691d22c58b2f615e3d678214801561234e575061234d7f70480ee89cb38eff00b7d23da25713d52ce19c6ed428691d22c58b2f615e3d67612348613be3565b612def565b5b5b6123c1576040517f08c379a000000000000000000000000000000000000000000000000000000000815260040180806020018281038252600c8152602001807f4e6f7420616e2061646d696e000000000000000000000000000000000000000081525060200191505060405180910390fd5b6123cb82826142b6565b5050565b6123d7613be3565b73ffffffffffffffffffffffffffffffffffffffff166123f5612d94565b73ffffffffffffffffffffffffffffffffffffffff161461247e576040517f08c379a00000000000000000000000000000000000000000000000000000000081526004018080602001828103825260208152602001807f4f776e61626c653a2063616c6c6572206973206e6f7420746865206f776e657281525060200191505060405180910390fd5b600073ffffffffffffffffffffffffffffffffffffffff16600160009054906101000a900473ffffffffffffffffffffffffffffffffffffffff1673ffffffffffffffffffffffffffffffffffffffff167f8be0079c531659141344cd1fd0a4f28419497f9722a3daafe3b4186f6b6457e060405160405180910390a36000600160006101000a81548173ffffffffffffffffffffffffffffffffffffffff021916908373ffffffffffffffffffffffffffffffffffffffff160217905550565b61259c826040518060400160405280601581526020017f6e6f7420656e6f756768207061636b73206c6566740000000000000000000000815250600e600087815260200190815260200160002054613c059092919063ffffffff16565b506125a984848484614349565b50505050565b600d600084815260200190815260200160002060040160019054906101000a900460ff16612645576040517f08c379a000000000000000000000000000000000000000000000000000000000815260040180806020018281038252600b8152602001807f7061636b2065786973747300000000000000000000000000000000000000000081525060200191505060405180910390fd5b61264d613be3565b73ffffffffffffffffffffffffffffffffffffffff168173ffffffffffffffffffffffffffffffffffffffff16148061269357506126928161268d613be3565b6134b1565b5b6126e8576040517f08c379a00000000000000000000000000000000000000000000000000000000081526004018080602001828103825260298152602001806157796029913960400191505060405180910390fd5b6126f38184846144b3565b6127198260086000868152602001908152602001600020546146cf90919063ffffffff16565b6008600085815260200190815260200160002081905550600061275b83600d60008781526020019081526020016000206003015461475290919063ffffffff16565b905060608167ffffffffffffffff8111801561277657600080fd5b506040519080825280602002602001820160405280156127a55781602001602082028036833780820191505090505b50905060608267ffffffffffffffff811180156127c157600080fd5b506040519080825280602002602001820160405280156127f05781602001602082028036833780820191505090505b5090506000806000600c60009054906101000a900473ffffffffffffffffffffffffffffffffffffffff1673ffffffffffffffffffffffffffffffffffffffff166380e6548e600d60008c8152602001908152602001600020600001546040518263ffffffff1660e01b81526004018082815260200191505060606040518083038186803b15801561288157600080fd5b505afa158015612895573d6000803e3d6000fd5b505050506040513d60608110156128ab57600080fd5b8101908080519060200190929190805190602001909291908051906020019092919050505080935081945082955050505060005b600d60008b81526020019081526020016000206003015481101561292457600185828151811061290b57fe5b60200260200101818152505080806001019150506128df565b5060005b88811015612ae95760005b600d60008c8152602001908152602001600020600301548110156129925761296b8461295d6147d8565b61484490919063ffffffff16565b850187828151811061297957fe5b6020026020010181815250508080600101915050612933565b50600c60009054906101000a900473ffffffffffffffffffffffffffffffffffffffff1673ffffffffffffffffffffffffffffffffffffffff16631f7fdffa8988886040518463ffffffff1660e01b8152600401808473ffffffffffffffffffffffffffffffffffffffff168152602001806020018060200180602001848103845286818151815260200191508051906020019060200280838360005b83811015612a4a578082015181840152602081019050612a2f565b50505050905001848103835285818151815260200191508051906020019060200280838360005b83811015612a8c578082015181840152602081019050612a71565b505050509050018481038252600081526020016020019650505050505050600060405180830381600087803b158015612ac457600080fd5b505af1158015612ad8573d6000803e3d6000fd5b505050508080600101915050612928565b50505050505050505050565b612b267f828634d95e775031b9ff576b159a8509d3053581a8c9c4d7d86899e0afcd882f612b21613be3565b612def565b612b98576040517f08c379a000000000000000000000000000000000000000000000000000000000815260040180806020018281038252600d8152602001807f4e6f7420612063726561746f720000000000000000000000000000000000000081525060200191505060405180910390fd5b600c60009054906101000a900473ffffffffffffffffffffffffffffffffffffffff1673ffffffffffffffffffffffffffffffffffffffff1663992d09b6866040518263ffffffff1660e01b81526004018082815260200191505060206040518083038186803b158015612c0b57600080fd5b505afa158015612c1f573d6000803e3d6000fd5b505050506040513d6020811015612c3557600080fd5b8101908080519060200190929190505050612cb8576040517f08c379a00000000000000000000000000000000000000000000000000000000081526004018080602001828103825260118152602001807f6e6f7420612076616c6964207363656e6500000000000000000000000000000081525060200191505060405180910390fd5b612cce6001600754613e0c90919063ffffffff16565b600781905550600060075490506000600d6000838152602001908152602001600020905060018160040160016101000a81548160ff021916908315150217905550868160000181905550858160010181905550828160040160006101000a81548160ff02191690831515021790555084816003018190555083816002018190555083600e60008481526020019081526020016000208190555050505050505050565b7f828634d95e775031b9ff576b159a8509d3053581a8c9c4d7d86899e0afcd882f81565b6000600160009054906101000a900473ffffffffffffffffffffffffffffffffffffffff16905090565b6000612de7826000808681526020019081526020016000206000016148cd90919063ffffffff16565b905092915050565b6000612e18826000808681526020019081526020016000206000016148e790919063ffffffff16565b905092915050565b600a8054600181600116156101000203166002900480601f016020809104026020016040519081016040528092919081815260200182805460018160011615610100020316600290048015612eb65780601f10612e8b57610100808354040283529160200191612eb6565b820191906000526020600020905b815481529060010190602001808311612e9957829003601f168201915b505050505081565b6000801b81565b8173ffffffffffffffffffffffffffffffffffffffff16612ee4613be3565b73ffffffffffffffffffffffffffffffffffffffff161415612f51576040517f08c379a00000000000000000000000000000000000000000000000000000000081526004018080602001828103825260298152602001806158976029913960400191505060405180910390fd5b8060046000612f5e613be3565b73ffffffffffffffffffffffffffffffffffffffff1673ffffffffffffffffffffffffffffffffffffffff16815260200190815260200160002060008473ffffffffffffffffffffffffffffffffffffffff1673ffffffffffffffffffffffffffffffffffffffff16815260200190815260200160002060006101000a81548160ff0219169083151502179055508173ffffffffffffffffffffffffffffffffffffffff1661300b613be3565b73ffffffffffffffffffffffffffffffffffffffff167f17307eab39ab6107e8899845ad3d59bd9653f200f220920489ca2b5937696c318360405180821515815260200191505060405180910390a35050565b600080600d600084815260200190815260200160002060040160019054906101000a900460ff1661308e57600080fd5b600d600084815260200190815260200160002060010154600d600085815260200190815260200160002060040160009054906101000a900460ff1691509150915091565b60086020528060005260406000206000915090505481565b6130f2613be3565b73ffffffffffffffffffffffffffffffffffffffff16613110612d94565b73ffffffffffffffffffffffffffffffffffffffff1614613199576040517f08c379a00000000000000000000000000000000000000000000000000000000081526004018080602001828103825260208152602001807f4f776e61626c653a2063616c6c6572206973206e6f7420746865206f776e657281525060200191505060405180910390fd5b80600b8190555050565b60006131c2600080848152602001908152602001600020600001614917565b9050919050565b6131d1613be3565b73ffffffffffffffffffffffffffffffffffffffff166131ef612d94565b73ffffffffffffffffffffffffffffffffffffffff1614613278576040517f08c379a00000000000000000000000000000000000000000000000000000000081526004018080602001828103825260208152602001807f4f776e61626c653a2063616c6c6572206973206e6f7420746865206f776e657281525060200191505060405180910390fd5b80600660006101000a81548173ffffffffffffffffffffffffffffffffffffffff021916908373ffffffffffffffffffffffffffffffffffffffff16021790555050565b7f9f2df0fed2c77648de5860a4cc508cd0818c85b8b8a1ab4ceeef8d981c8956a681565b61330660008084815260200190815260200160002060020154613301613be3565b612def565b61335b576040517f08c379a00000000000000000000000000000000000000000000000000000000081526004018080602001828103825260308152602001806157a26030913960400191505060405180910390fd5b61336582826142b6565b5050565b600080600080600080600d600088815260200190815260200160002060040160019054906101000a900460ff16613408576040517f08c379a000000000000000000000000000000000000000000000000000000000815260040180806020018281038252600c8152602001807f696e76616c6964207061636b000000000000000000000000000000000000000081525060200191505060405180910390fd5b600d600088815260200190815260200160002060000154600d600089815260200190815260200160002060010154600d60008a815260200190815260200160002060040160009054906101000a900460ff16600d60008b815260200190815260200160002060030154600d60008c815260200190815260200160002060020154600e60008d81526020019081526020016000205495509550955095509550955091939550919395565b60008073ffffffffffffffffffffffffffffffffffffffff16600660009054906101000a900473ffffffffffffffffffffffffffffffffffffffff1673ffffffffffffffffffffffffffffffffffffffff1614613610576000600660009054906101000a900473ffffffffffffffffffffffffffffffffffffffff1690508273ffffffffffffffffffffffffffffffffffffffff168173ffffffffffffffffffffffffffffffffffffffff1663c4552791866040518263ffffffff1660e01b8152600401808273ffffffffffffffffffffffffffffffffffffffff16815260200191505060206040518083038186803b1580156135ad57600080fd5b505afa1580156135c1573d6000803e3d6000fd5b505050506040513d60208110156135d757600080fd5b810190808051906020019092919050505073ffffffffffffffffffffffffffffffffffffffff16141561360e57600191505061361d565b505b61361a838361492c565b90505b92915050565b600c60009054906101000a900473ffffffffffffffffffffffffffffffffffffffff1681565b600073ffffffffffffffffffffffffffffffffffffffff168473ffffffffffffffffffffffffffffffffffffffff1614156136cf576040517f08c379a00000000000000000000000000000000000000000000000000000000081526004018080602001828103825260258152602001806157d26025913960400191505060405180910390fd5b6136d7613be3565b73ffffffffffffffffffffffffffffffffffffffff168573ffffffffffffffffffffffffffffffffffffffff16148061371d575061371c85613717613be3565b6134b1565b5b613772576040517f08c379a00000000000000000000000000000000000000000000000000000000081526004018080602001828103825260298152602001806157796029913960400191505060405180910390fd5b600061377c613be3565b905061379c81878761378d886149c0565b613796886149c0565b87613e04565b613819836040518060600160405280602a815260200161584c602a91396003600088815260200190815260200160002060008a73ffffffffffffffffffffffffffffffffffffffff1673ffffffffffffffffffffffffffffffffffffffff16815260200190815260200160002054613c059092919063ffffffff16565b6003600086815260200190815260200160002060008873ffffffffffffffffffffffffffffffffffffffff1673ffffffffffffffffffffffffffffffffffffffff168152602001908152602001600020819055506138d0836003600087815260200190815260200160002060008873ffffffffffffffffffffffffffffffffffffffff1673ffffffffffffffffffffffffffffffffffffffff16815260200190815260200160002054613e0c90919063ffffffff16565b6003600086815260200190815260200160002060008773ffffffffffffffffffffffffffffffffffffffff1673ffffffffffffffffffffffffffffffffffffffff168152602001908152602001600020819055508473ffffffffffffffffffffffffffffffffffffffff168673ffffffffffffffffffffffffffffffffffffffff168273ffffffffffffffffffffffffffffffffffffffff167fc3d58168c5ae7397731d063d5bbf3d657854427343f4c083240f7aacaa2d0f628787604051808381526020018281526020019250505060405180910390a46139b6818787878787614a30565b505050505050565b6139c6613be3565b73ffffffffffffffffffffffffffffffffffffffff166139e4612d94565b73ffffffffffffffffffffffffffffffffffffffff1614613a6d576040517f08c379a00000000000000000000000000000000000000000000000000000000081526004018080602001828103825260208152602001807f4f776e61626c653a2063616c6c6572206973206e6f7420746865206f776e657281525060200191505060405180910390fd5b600073ffffffffffffffffffffffffffffffffffffffff168173ffffffffffffffffffffffffffffffffffffffff161415613af3576040517f08c379a000000000000000000000000000000000000000000000000000000000815260040180806020018281038252602681526020018061572f6026913960400191505060405180910390fd5b8073ffffffffffffffffffffffffffffffffffffffff16600160009054906101000a900473ffffffffffffffffffffffffffffffffffffffff1673ffffffffffffffffffffffffffffffffffffffff167f8be0079c531659141344cd1fd0a4f28419497f9722a3daafe3b4186f6b6457e060405160405180910390a380600160006101000a81548173ffffffffffffffffffffffffffffffffffffffff021916908373ffffffffffffffffffffffffffffffffffffffff16021790555050565b6000613bdb836000018373ffffffffffffffffffffffffffffffffffffffff1660001b614d3d565b905092915050565b600033905090565b8060059080519060200190613c019291906154b4565b5050565b6000838311158290613cb2576040517f08c379a00000000000000000000000000000000000000000000000000000000081526004018080602001828103825283818151815260200191508051906020019080838360005b83811015613c77578082015181840152602081019050613c5c565b50505050905090810190601f168015613ca45780820380516001836020036101000a031916815260200191505b509250505060405180910390fd5b5082840390509392505050565b613cf07f9f2df0fed2c77648de5860a4cc508cd0818c85b8b8a1ab4ceeef8d981c8956a6613ceb613be3565b612def565b613d62576040517f08c379a00000000000000000000000000000000000000000000000000000000081526004018080602001828103825260148152602001807f43616c6c6572206973206e6f74206d696e74657200000000000000000000000081525060200191505060405180910390fd5b60005b8351811015613df157613dba838281518110613d7d57fe5b602002602001015160086000878581518110613d9557fe5b6020026020010151815260200190815260200160002054613e0c90919063ffffffff16565b60086000868481518110613dca57fe5b60200260200101518152602001908152602001600020819055508080600101915050613d65565b50613dfe84848484614dad565b50505050565b505050505050565b600080828401905083811015613e8a576040517f08c379a000000000000000000000000000000000000000000000000000000000815260040180806020018281038252601b8152602001807f536166654d6174683a206164646974696f6e206f766572666c6f77000000000081525060200191505060405180910390fd5b8091505092915050565b613eb38473ffffffffffffffffffffffffffffffffffffffff166150cf565b1561421b578373ffffffffffffffffffffffffffffffffffffffff1663bc197c8187878686866040518663ffffffff1660e01b8152600401808673ffffffffffffffffffffffffffffffffffffffff1681526020018573ffffffffffffffffffffffffffffffffffffffff168152602001806020018060200180602001848103845287818151815260200191508051906020019060200280838360005b83811015613f6b578082015181840152602081019050613f50565b50505050905001848103835286818151815260200191508051906020019060200280838360005b83811015613fad578082015181840152602081019050613f92565b50505050905001848103825285818151815260200191508051906020019080838360005b83811015613fec578082015181840152602081019050613fd1565b50505050905090810190601f1680156140195780820380516001836020036101000a031916815260200191505b5098505050505050505050602060405180830381600087803b15801561403e57600080fd5b505af192505050801561407257506040513d602081101561405e57600080fd5b810190808051906020019092919050505060015b61417c5761407e61556f565b80614089575061412b565b806040517f08c379a00000000000000000000000000000000000000000000000000000000081526004018080602001828103825283818151815260200191508051906020019080838360005b838110156140f05780820151818401526020810190506140d5565b50505050905090810190601f16801561411d5780820380516001836020036101000a031916815260200191505b509250505060405180910390fd5b6040517f08c379a00000000000000000000000000000000000000000000000000000000081526004018080602001828103825260348152602001806156266034913960400191505060405180910390fd5b63bc197c8160e01b7bffffffffffffffffffffffffffffffffffffffffffffffffffffffff1916817bffffffffffffffffffffffffffffffffffffffffffffffffffffffff191614614219576040517f08c379a000000000000000000000000000000000000000000000000000000000815260040180806020018281038252602881526020018061567c6028913960400191505060405180910390fd5b505b505050505050565b61424a81600080858152602001908152602001600020600001613bb390919063ffffffff16565b156142b257614257613be3565b73ffffffffffffffffffffffffffffffffffffffff168173ffffffffffffffffffffffffffffffffffffffff16837f2f8788117e7eff1d82e926ec794901d17c78024a50270940304540a733656f0d60405160405180910390a45b5050565b6142dd816000808581526020019081526020016000206000016150e290919063ffffffff16565b15614345576142ea613be3565b73ffffffffffffffffffffffffffffffffffffffff168173ffffffffffffffffffffffffffffffffffffffff16837ff6391f5c32d9c69d2a47ea670b442974b53935d1edc7fd64eb21e047a839171b60405160405180910390a45b5050565b61437a7f9f2df0fed2c77648de5860a4cc508cd0818c85b8b8a1ab4ceeef8d981c8956a6614375613be3565b612def565b6143ec576040517f08c379a00000000000000000000000000000000000000000000000000000000081526004018080602001828103825260148152602001807f43616c6c6572206973206e6f74206d696e74657200000000000000000000000081525060200191505060405180910390fd5b600754831115614464576040517f08c379a000000000000000000000000000000000000000000000000000000000815260040180806020018281038252600c8152602001807f546f6b656e20494420444e45000000000000000000000000000000000000000081525060200191505060405180910390fd5b61448a826008600086815260200190815260200160002054613e0c90919063ffffffff16565b60086000858152602001908152602001600020819055506144ad84848484615112565b50505050565b600073ffffffffffffffffffffffffffffffffffffffff168373ffffffffffffffffffffffffffffffffffffffff161415614539576040517f08c379a00000000000000000000000000000000000000000000000000000000081526004018080602001828103825260238152602001806158296023913960400191505060405180910390fd5b6000614543613be3565b905061457381856000614555876149c0565b61455e876149c0565b60405180602001604052806000815250613e04565b6145f082604051806060016040528060248152602001615755602491396003600087815260200190815260200160002060008873ffffffffffffffffffffffffffffffffffffffff1673ffffffffffffffffffffffffffffffffffffffff16815260200190815260200160002054613c059092919063ffffffff16565b6003600085815260200190815260200160002060008673ffffffffffffffffffffffffffffffffffffffff1673ffffffffffffffffffffffffffffffffffffffff16815260200190815260200160002081905550600073ffffffffffffffffffffffffffffffffffffffff168473ffffffffffffffffffffffffffffffffffffffff168273ffffffffffffffffffffffffffffffffffffffff167fc3d58168c5ae7397731d063d5bbf3d657854427343f4c083240f7aacaa2d0f628686604051808381526020018281526020019250505060405180910390a450505050565b600082821115614747576040517f08c379a000000000000000000000000000000000000000000000000000000000815260040180806020018281038252601e8152602001807f536166654d6174683a207375627472616374696f6e206f766572666c6f77000081525060200191505060405180910390fd5b818303905092915050565b60008083141561476557600090506147d2565b600082840290508284828161477657fe5b04146147cd576040517f08c379a00000000000000000000000000000000000000000000000000000000081526004018080602001828103825260218152602001806158766021913960400191505060405180910390fd5b809150505b92915050565b600080600143034033600b54604051602001808481526020018373ffffffffffffffffffffffffffffffffffffffff1660601b815260140182815260200193505050506040516020818303038152906040528051906020012060001c905080600b819055508091505090565b60008082116148bb576040517f08c379a00000000000000000000000000000000000000000000000000000000081526004018080602001828103825260188152602001807f536166654d6174683a206d6f64756c6f206279207a65726f000000000000000081525060200191505060405180910390fd5b8183816148c457fe5b06905092915050565b60006148dc8360000183615315565b60001c905092915050565b600061490f836000018373ffffffffffffffffffffffffffffffffffffffff1660001b615398565b905092915050565b6000614925826000016153bb565b9050919050565b6000600460008473ffffffffffffffffffffffffffffffffffffffff1673ffffffffffffffffffffffffffffffffffffffff16815260200190815260200160002060008373ffffffffffffffffffffffffffffffffffffffff1673ffffffffffffffffffffffffffffffffffffffff16815260200190815260200160002060009054906101000a900460ff16905092915050565b606080600167ffffffffffffffff811180156149db57600080fd5b50604051908082528060200260200182016040528015614a0a5781602001602082028036833780820191505090505b5090508281600081518110614a1b57fe5b60200260200101818152505080915050919050565b614a4f8473ffffffffffffffffffffffffffffffffffffffff166150cf565b15614d35578373ffffffffffffffffffffffffffffffffffffffff1663f23a6e6187878686866040518663ffffffff1660e01b8152600401808673ffffffffffffffffffffffffffffffffffffffff1681526020018573ffffffffffffffffffffffffffffffffffffffff16815260200184815260200183815260200180602001828103825283818151815260200191508051906020019080838360005b83811015614b08578082015181840152602081019050614aed565b50505050905090810190601f168015614b355780820380516001836020036101000a031916815260200191505b509650505050505050602060405180830381600087803b158015614b5857600080fd5b505af1925050508015614b8c57506040513d6020811015614b7857600080fd5b810190808051906020019092919050505060015b614c9657614b9861556f565b80614ba35750614c45565b806040517f08c379a00000000000000000000000000000000000000000000000000000000081526004018080602001828103825283818151815260200191508051906020019080838360005b83811015614c0a578082015181840152602081019050614bef565b50505050905090810190601f168015614c375780820380516001836020036101000a031916815260200191505b509250505060405180910390fd5b6040517f08c379a00000000000000000000000000000000000000000000000000000000081526004018080602001828103825260348152602001806156266034913960400191505060405180910390fd5b63f23a6e6160e01b7bffffffffffffffffffffffffffffffffffffffffffffffffffffffff1916817bffffffffffffffffffffffffffffffffffffffffffffffffffffffff191614614d33576040517f08c379a000000000000000000000000000000000000000000000000000000000815260040180806020018281038252602881526020018061567c6028913960400191505060405180910390fd5b505b505050505050565b6000614d498383615398565b614da2578260000182908060018154018082558091505060019003906000526020600020016000909190919091505582600001805490508360010160008481526020019081526020016000208190555060019050614da7565b600090505b92915050565b600073ffffffffffffffffffffffffffffffffffffffff168473ffffffffffffffffffffffffffffffffffffffff161415614e33576040517f08c379a00000000000000000000000000000000000000000000000000000000081526004018080602001828103825260218152602001806159116021913960400191505060405180910390fd5b8151835114614e8d576040517f08c379a00000000000000000000000000000000000000000000000000000000081526004018080602001828103825260288152602001806158e96028913960400191505060405180910390fd5b6000614e97613be3565b9050614ea881600087878787613e04565b60005b8451811015614fb157614f3d60036000878481518110614ec757fe5b6020026020010151815260200190815260200160002060008873ffffffffffffffffffffffffffffffffffffffff1673ffffffffffffffffffffffffffffffffffffffff16815260200190815260200160002054858381518110614f2757fe5b6020026020010151613e0c90919063ffffffff16565b60036000878481518110614f4d57fe5b6020026020010151815260200190815260200160002060008873ffffffffffffffffffffffffffffffffffffffff1673ffffffffffffffffffffffffffffffffffffffff168152602001908152602001600020819055508080600101915050614eab565b508473ffffffffffffffffffffffffffffffffffffffff16600073ffffffffffffffffffffffffffffffffffffffff168273ffffffffffffffffffffffffffffffffffffffff167f4a39dc06d4c0dbc64b70af90fd698a233a518aa5d07e595d983b8c0526c8f7fb8787604051808060200180602001838103835285818151815260200191508051906020019060200280838360005b83811015615062578082015181840152602081019050615047565b50505050905001838103825284818151815260200191508051906020019060200280838360005b838110156150a4578082015181840152602081019050615089565b5050505090500194505050505060405180910390a46150c881600087878787613e94565b5050505050565b600080823b905060008111915050919050565b600061510a836000018373ffffffffffffffffffffffffffffffffffffffff1660001b6153cc565b905092915050565b600073ffffffffffffffffffffffffffffffffffffffff168473ffffffffffffffffffffffffffffffffffffffff161415615198576040517f08c379a00000000000000000000000000000000000000000000000000000000081526004018080602001828103825260218152602001806159116021913960400191505060405180910390fd5b60006151a2613be3565b90506151c3816000876151b4886149c0565b6151bd886149c0565b87613e04565b615226836003600087815260200190815260200160002060008873ffffffffffffffffffffffffffffffffffffffff1673ffffffffffffffffffffffffffffffffffffffff16815260200190815260200160002054613e0c90919063ffffffff16565b6003600086815260200190815260200160002060008773ffffffffffffffffffffffffffffffffffffffff1673ffffffffffffffffffffffffffffffffffffffff168152602001908152602001600020819055508473ffffffffffffffffffffffffffffffffffffffff16600073ffffffffffffffffffffffffffffffffffffffff168273ffffffffffffffffffffffffffffffffffffffff167fc3d58168c5ae7397731d063d5bbf3d657854427343f4c083240f7aacaa2d0f628787604051808381526020018281526020019250505060405180910390a461530e81600087878787614a30565b5050505050565b600081836000018054905011615376576040517f08c379a000000000000000000000000000000000000000000000000000000000815260040180806020018281038252602281526020018061565a6022913960400191505060405180910390fd5b82600001828154811061538557fe5b9060005260206000200154905092915050565b600080836001016000848152602001908152602001600020541415905092915050565b600081600001805490509050919050565b600080836001016000848152602001908152602001600020549050600081146154a8576000600182039050600060018660000180549050039050600086600001828154811061541757fe5b906000526020600020015490508087600001848154811061543457fe5b906000526020600020018190555060018301876001016000838152602001908152602001600020819055508660000180548061546c57fe5b600190038181906000526020600020016000905590558660010160008781526020019081526020016000206000905560019450505050506154ae565b60009150505b92915050565b828054600181600116156101000203166002900490600052602060002090601f016020900481019282601f106154f557805160ff1916838001178555615523565b82800160010185558215615523579182015b82811115615522578251825591602001919060010190615507565b5b5090506155309190615534565b5090565b5b8082111561554d576000816000905550600101615535565b5090565b6000601f19601f8301169050919050565b60008160e01c9050919050565b600060443d101561557f57615622565b60046000803e615590600051615562565b6308c379a081146155a15750615622565b60405160043d036004823e80513d602482011167ffffffffffffffff821117156155cd57505050615622565b808201805167ffffffffffffffff8111156155ec575050505050615622565b8060208301013d850181111561560757505050505050615622565b61561082615551565b60208401016040528296505050505050505b9056fe455243313135353a207472616e7366657220746f206e6f6e2045524331313535526563656976657220696d706c656d656e746572456e756d657261626c655365743a20696e646578206f7574206f6620626f756e6473455243313135353a204552433131353552656365697665722072656a656374656420746f6b656e73416363657373436f6e74726f6c3a2073656e646572206d75737420626520616e2061646d696e20746f206772616e74455243313135353a2062616c616e636520717565727920666f7220746865207a65726f2061646472657373455243313135353a2062617463682062616c616e636520717565727920666f7220746865207a65726f20616464726573734f776e61626c653a206e6577206f776e657220697320746865207a65726f2061646472657373455243313135353a206275726e20616d6f756e7420657863656564732062616c616e6365455243313135353a2063616c6c6572206973206e6f74206f776e6572206e6f7220617070726f766564416363657373436f6e74726f6c3a2073656e646572206d75737420626520616e2061646d696e20746f207265766f6b65455243313135353a207472616e7366657220746f20746865207a65726f2061646472657373455243313135353a207472616e736665722063616c6c6572206973206e6f74206f776e6572206e6f7220617070726f766564455243313135353a206275726e2066726f6d20746865207a65726f2061646472657373455243313135353a20696e73756666696369656e742062616c616e636520666f72207472616e73666572536166654d6174683a206d756c7469706c69636174696f6e206f766572666c6f77455243313135353a2073657474696e6720617070726f76616c2073746174757320666f722073656c66455243313135353a206163636f756e747320616e6420696473206c656e677468206d69736d61746368455243313135353a2069647320616e6420616d6f756e7473206c656e677468206d69736d61746368455243313135353a206d696e7420746f20746865207a65726f2061646472657373416363657373436f6e74726f6c3a2063616e206f6e6c792072656e6f756e636520726f6c657320666f722073656c66a264697066735822122097ec2af911ea47857a55ef36d1b9e5e271eb4d5818483cf37e44d384dca0e50c64736f6c634300060c0033",
  "immutableReferences": {},
  "source": "// SPDX-License-Identifier: MIT\n\npragma solidity ^0.6.0;\n\n//import \"@openzeppelin/contracts/utils/ReentrancyGuard.sol\";\nimport \"./BaseERC1155.sol\";\nimport \"./ESTile.sol\";\n\n/**\n * @title ESTilePack\n * ESTilePack - a contract for semi-fungible tokens\n */\ncontract ESTilePack is BaseERC1155\n{\n  using SafeMath for uint256;\n\n  // Information for random card pack pulls\n  uint256 seed;\n\n  // NFT Contract\n  ESTile public esTileContract;\n\n  struct PackInfo {\n    uint256 sceneId; // scene that this pack will generate tiles for.\n    uint256 escapeCost; // Cost to buy pack in escape tokens, 0 = cannot buy.\n    uint256 maxQuantity; // Max number of these packs sold.\n    uint256 tilesPerPack; // Num tiles\n    bool isPurchaseable; // If we can buy this for 0.01 eth a pack.\n    bool exists;\n  }\n\n  // Mapping of all pack infos.\n  mapping (uint256 => PackInfo) internal packs;\n\n  // Mapping of packId -> how many of those packs we have left.\n  mapping (uint256 => uint256) internal packsLeft;\n\n  constructor(\n    string memory _uri,\n    address _nftAddress,\n    address _proxyRegistryAddress\n  )\n    BaseERC1155(\n      \"EtherScape tile pack\",\n      \"ESCpack\",\n      _uri,\n      _proxyRegistryAddress\n    )\n    public\n  {\n    esTileContract = ESTile(_nftAddress);\n  }\n\n/**\n * Only Token Creator Functions\n **/\n  function createPack(uint256 sceneId, uint256 escapeCost, uint256 tilesPerPack, uint256 packQuantity, bool isPurchaseable) external {\n    require(hasRole(CREATOR_ROLE, _msgSender()), \"Not a creator\");\n    require(esTileContract.sceneExists(sceneId), \"not a valid scene\");\n\n    // Keep track of the latest ID\n    maxTokenID = maxTokenID.add(1);\n    uint256 packTokenId = maxTokenID;\n    PackInfo storage p = packs[packTokenId];\n    p.exists = true;\n    p.sceneId = sceneId;\n    p.escapeCost = escapeCost;\n    p.isPurchaseable = isPurchaseable;\n    p.tilesPerPack = tilesPerPack;\n    p.maxQuantity = packQuantity;\n    packsLeft[packTokenId] = packQuantity;\n  }\n    \n  function numPacksCreated() view public returns (uint256) {\n    return maxTokenID;\n  }\n\n  /*\n   *  Returns the pack and associated info for the pack. This is usually\n   *  the sceneId, the cost to buy it, how many max and how many are left.\n   *\n   *  Returns:\n   *    sceneId, escapeCost, isPurchaseable, tilesPerPack, maxQuant, packsLeft\n   */\n  function getPackInfo(uint256 packId) view public returns (uint256, uint256, bool, uint256, uint256, uint256) {\n    require(packs[packId].exists, \"invalid pack\");\n    return (packs[packId].sceneId, \n            packs[packId].escapeCost, packs[packId].isPurchaseable, \n            packs[packId].tilesPerPack, \n            packs[packId].maxQuantity, packsLeft[packId]);\n  }\n\n  // Open a pack\n  function open(\n    uint256 _packId,\n    uint256 _amount\n  )\n    external\n  {\n    // Open on behalf of ourself\n    require(_packId != 0, \"invalid pack, cannot open\");\n    openFor(_packId, _amount, _msgSender());\n  }\n\n\n  // Open a pack\n  function openFor(\n    uint256 _packTokenId,\n    uint256 _amount,\n    address _recipient\n  )\n    public\n  {\n    // Operator check occurs here\n    require(packs[_packTokenId].exists, \"pack exists\");\n    require(\n        _recipient == _msgSender() || isApprovedForAll(_recipient, _msgSender()),\n        \"ERC1155: caller is not owner nor approved\"\n    );\n\n    // Burn the packs, decrease total supply\n    _burn(_recipient, _packTokenId, _amount);\n    totalSupply[_packTokenId] = totalSupply[_packTokenId].sub(_amount);\n    \n    // Iterate over the quantity of packs specified\n    uint256 sz = packs[_packTokenId].tilesPerPack.mul(_amount);\n    uint256[] memory tokenIdsToMint = new uint256[](sz);\n    uint256[] memory quantitiesToMint = new uint256[](sz);\n    \n    uint256 tokenStart;\n    uint256 numTiles;\n    uint256 numPuzzles;\n    (tokenStart, numTiles, numPuzzles) = esTileContract.tokenRangeForScene(packs[_packTokenId].sceneId);\n    \n    for (uint256 i = 0; i < packs[_packTokenId].tilesPerPack; i++) {\n      quantitiesToMint[i] = 1;\n    }\n    for (uint256 packId = 0; packId < _amount; packId++) {\n      for (uint256 i = 0; i < packs[_packTokenId].tilesPerPack; i++) {\n        // Keep track of token IDs we're minting and their quantities\n        tokenIdsToMint[i] = tokenStart + _random().mod(numTiles);\n      }\n\n      // Mint all of the tokens for this pack\n      esTileContract.mintBatch(_recipient, tokenIdsToMint, quantitiesToMint, \"\");\n    }\n  }\n\n  /* \n   * Override mint for the opened instantly packs.\n   */\n  function mint(\n    address _to,\n    uint256 _id,\n    uint256 _amount,\n    bytes memory _data\n  )\n    public override\n  {\n    packsLeft[_id].sub(_amount, \"not enough packs left\");\n    super.mint(_to, _id, _amount, _data);\n  }\n\n  function mintBatch(\n    address _to,\n    uint256[] memory _ids,\n    uint256[] memory _amounts,\n    bytes memory _data\n  )\n    public override\n  {\n    for (uint256 i = 0; i < _ids.length; i++) {\n      packsLeft[_ids[i]].sub(_amounts[i], \"not enough packs left\");\n    }\n    super.mintBatch(_to, _ids, _amounts, _data);\n  }\n  \n  function packCosts(uint256 _packId) view public returns (uint256, bool) {\n    require(packs[_packId].exists);\n    return (packs[_packId].escapeCost, packs[_packId].isPurchaseable);\n  }\n\n  /////\n  // HELPER FUNCTIONS\n  /////\n\n\n\n  function _random()\n    internal\n    returns (uint256)\n  {\n    uint256 randomNumber = uint256(\n      keccak256(\n        abi.encodePacked(\n          blockhash(block.number - 1),\n          msg.sender,\n          seed\n        )\n      )\n    );\n    seed = randomNumber;\n    return randomNumber;\n  }\n\n\n  function setSeed(\n    uint256 _newSeed\n  )\n    public\n    onlyOwner\n  {\n    seed = _newSeed;\n  }\n\n}\n",
  "sourcePath": "/Users/shaba/work/github/private/crypto/etherscapes/contract/contracts/ESTilePack.sol",
  "compiler": {
    "name": "solc",
    "version": "0.6.12+commit.27d51765.Emscripten.clang"
  },
  "schemaVersion": "3.3.3",
  "updatedAt": "2021-02-08T22:06:04.489Z",
  "networkType": "ethereum",
  "devdoc": {
    "kind": "dev",
    "methods": {
      "balanceOf(address,uint256)": {
        "details": "See {IERC1155-balanceOf}. Requirements: - `account` cannot be the zero address."
      },
      "balanceOfBatch(address[],uint256[])": {
        "details": "See {IERC1155-balanceOfBatch}. Requirements: - `accounts` and `ids` must have the same length."
      },
      "getRoleAdmin(bytes32)": {
        "details": "Returns the admin role that controls `role`. See {grantRole} and {revokeRole}. To change a role's admin, use {_setRoleAdmin}."
      },
      "getRoleMember(bytes32,uint256)": {
        "details": "Returns one of the accounts that have `role`. `index` must be a value between 0 and {getRoleMemberCount}, non-inclusive. Role bearers are not sorted in any particular way, and their ordering may change at any point. WARNING: When using {getRoleMember} and {getRoleMemberCount}, make sure you perform all queries on the same block. See the following https://forum.openzeppelin.com/t/iterating-over-elements-on-enumerableset-in-openzeppelin-contracts/2296[forum post] for more information."
      },
      "getRoleMemberCount(bytes32)": {
        "details": "Returns the number of accounts that have `role`. Can be used together with {getRoleMember} to enumerate all bearers of a role."
      },
      "grantRole(bytes32,address)": {
        "details": "Grants `role` to `account`. If `account` had not been already granted `role`, emits a {RoleGranted} event. Requirements: - the caller must have ``role``'s admin role."
      },
      "hasRole(bytes32,address)": {
        "details": "Returns `true` if `account` has been granted `role`."
      },
      "owner()": {
        "details": "Returns the address of the current owner."
      },
      "renounceOwnership()": {
        "details": "Leaves the contract without owner. It will not be possible to call `onlyOwner` functions anymore. Can only be called by the current owner. NOTE: Renouncing ownership will leave the contract without an owner, thereby removing any functionality that is only available to the owner."
      },
      "renounceRole(bytes32,address)": {
        "details": "Revokes `role` from the calling account. Roles are often managed via {grantRole} and {revokeRole}: this function's purpose is to provide a mechanism for accounts to lose their privileges if they are compromised (such as when a trusted device is misplaced). If the calling account had been granted `role`, emits a {RoleRevoked} event. Requirements: - the caller must be `account`."
      },
      "revokeRole(bytes32,address)": {
        "details": "Revokes `role` from `account`. If `account` had been granted `role`, emits a {RoleRevoked} event. Requirements: - the caller must have ``role``'s admin role."
      },
      "safeBatchTransferFrom(address,address,uint256[],uint256[],bytes)": {
        "details": "See {IERC1155-safeBatchTransferFrom}."
      },
      "safeTransferFrom(address,address,uint256,uint256,bytes)": {
        "details": "See {IERC1155-safeTransferFrom}."
      },
      "setApprovalForAll(address,bool)": {
        "details": "See {IERC1155-setApprovalForAll}."
      },
      "supportsInterface(bytes4)": {
        "details": "See {IERC165-supportsInterface}. Time complexity O(1), guaranteed to always use less than 30 000 gas."
      },
      "transferOwnership(address)": {
        "details": "Transfers ownership of the contract to a new account (`newOwner`). Can only be called by the current owner."
      },
      "uri(uint256)": {
        "details": "See {IERC1155MetadataURI-uri}. This implementation returns the same URI for *all* token types. It relies on the token type ID substituion mechanism https://eips.ethereum.org/EIPS/eip-1155#metadata[defined in the EIP]. Clients calling this function must replace the `\\{id\\}` substring with the actual token type ID."
      }
    },
    "title": "ESTilePack ESTilePack - a contract for semi-fungible tokens",
    "version": 1
  },
  "userdoc": {
    "kind": "user",
    "methods": {
      "createPack(uint256,uint256,uint256,uint256,bool)": {
        "notice": "Only Token Creator Functions*"
      },
      "grantAdmin(bytes32,address)": {
        "notice": "Only Token Creator Admin Functions*"
      },
      "isApprovedForAll(address,address)": {
        "notice": "Override isApprovedForAll to whitelist user's OpenSea proxy accounts to enable gas-free listings."
      },
      "setProxyRegistryAddress(address)": {
        "notice": "Only Owner Functions*"
      }
    },
    "version": 1
  }
}