{
  "contractName": "ESTileWrapper",
  "abi": [
    {
      "inputs": [
        {
          "internalType": "address",
          "name": "_tendAddress",
          "type": "address"
        },
        {
          "internalType": "address",
          "name": "_boxAddress",
          "type": "address"
        }
      ],
      "stateMutability": "nonpayable",
      "type": "constructor"
    },
    {
      "anonymous": false,
      "inputs": [
        {
          "indexed": true,
          "internalType": "address",
          "name": "previousOwner",
          "type": "address"
        },
        {
          "indexed": true,
          "internalType": "address",
          "name": "newOwner",
          "type": "address"
        }
      ],
      "name": "OwnershipTransferred",
      "type": "event"
    },
    {
      "inputs": [],
      "name": "erc20Contract",
      "outputs": [
        {
          "internalType": "contract ERC20Burnable",
          "name": "",
          "type": "address"
        }
      ],
      "stateMutability": "view",
      "type": "function",
      "constant": true
    },
    {
      "inputs": [],
      "name": "esTilePackInstance",
      "outputs": [
        {
          "internalType": "contract ESTilePack",
          "name": "",
          "type": "address"
        }
      ],
      "stateMutability": "view",
      "type": "function",
      "constant": true
    },
    {
      "inputs": [],
      "name": "escapeTokenContract",
      "outputs": [
        {
          "internalType": "contract EscapeToken",
          "name": "",
          "type": "address"
        }
      ],
      "stateMutability": "view",
      "type": "function",
      "constant": true
    },
    {
      "inputs": [],
      "name": "owner",
      "outputs": [
        {
          "internalType": "address",
          "name": "",
          "type": "address"
        }
      ],
      "stateMutability": "view",
      "type": "function",
      "constant": true
    },
    {
      "inputs": [],
      "name": "renounceOwnership",
      "outputs": [],
      "stateMutability": "nonpayable",
      "type": "function"
    },
    {
      "inputs": [
        {
          "internalType": "address",
          "name": "newOwner",
          "type": "address"
        }
      ],
      "name": "transferOwnership",
      "outputs": [],
      "stateMutability": "nonpayable",
      "type": "function"
    },
    {
      "inputs": [
        {
          "internalType": "address",
          "name": "_address",
          "type": "address"
        }
      ],
      "name": "setEscapeTokenAddress",
      "outputs": [],
      "stateMutability": "nonpayable",
      "type": "function"
    },
    {
      "inputs": [
        {
          "internalType": "address",
          "name": "_address",
          "type": "address"
        }
      ],
      "name": "setTilePackContractAddress",
      "outputs": [],
      "stateMutability": "nonpayable",
      "type": "function"
    },
    {
      "inputs": [
        {
          "internalType": "uint256",
          "name": "_packId",
          "type": "uint256"
        },
        {
          "internalType": "uint256",
          "name": "count",
          "type": "uint256"
        }
      ],
      "name": "buyPacksForCredits",
      "outputs": [],
      "stateMutability": "nonpayable",
      "type": "function"
    },
    {
      "inputs": [
        {
          "internalType": "uint256",
          "name": "_packId",
          "type": "uint256"
        },
        {
          "internalType": "uint256",
          "name": "count",
          "type": "uint256"
        }
      ],
      "name": "buyPacksForETH",
      "outputs": [],
      "stateMutability": "payable",
      "type": "function",
      "payable": true
    },
    {
      "inputs": [],
      "name": "withdrawBalance",
      "outputs": [],
      "stateMutability": "nonpayable",
      "type": "function"
    }
  ],
  "bytecode": "0x608060405234801561001057600080fd5b506040516115423803806115428339818101604052604081101561003357600080fd5b810190808051906020019092919080519060200190929190505050600061005e61018560201b60201c565b9050806000806101000a81548173ffffffffffffffffffffffffffffffffffffffff021916908373ffffffffffffffffffffffffffffffffffffffff1602179055508073ffffffffffffffffffffffffffffffffffffffff16600073ffffffffffffffffffffffffffffffffffffffff167f8be0079c531659141344cd1fd0a4f28419497f9722a3daafe3b4186f6b6457e060405160405180910390a35081600260006101000a81548173ffffffffffffffffffffffffffffffffffffffff021916908373ffffffffffffffffffffffffffffffffffffffff16021790555080600360006101000a81548173ffffffffffffffffffffffffffffffffffffffff021916908373ffffffffffffffffffffffffffffffffffffffff160217905550505061018d565b600033905090565b6113a68061019c6000396000f3fe60806040526004361061009c5760003560e01c80638da5cb5b116100645780638da5cb5b146101b2578063a8f6c913146101f3578063cb2a05a214610234578063e470dc6d14610275578063f2fde38b146102ba578063fd3df7081461030b5761009c565b80631314b5e7146100a157806330a7fba5146100e25780635fd8c710146101335780636a4b88541461014a578063715018a61461019b575b600080fd5b3480156100ad57600080fd5b506100b6610343565b604051808273ffffffffffffffffffffffffffffffffffffffff16815260200191505060405180910390f35b3480156100ee57600080fd5b506101316004803603602081101561010557600080fd5b81019080803573ffffffffffffffffffffffffffffffffffffffff169060200190929190505050610369565b005b34801561013f57600080fd5b506101486104ff565b005b34801561015657600080fd5b506101996004803603602081101561016d57600080fd5b81019080803573ffffffffffffffffffffffffffffffffffffffff169060200190929190505050610680565b005b3480156101a757600080fd5b506101b0610816565b005b3480156101be57600080fd5b506101c7610983565b604051808273ffffffffffffffffffffffffffffffffffffffff16815260200191505060405180910390f35b3480156101ff57600080fd5b506102086109ac565b604051808273ffffffffffffffffffffffffffffffffffffffff16815260200191505060405180910390f35b34801561024057600080fd5b506102496109d2565b604051808273ffffffffffffffffffffffffffffffffffffffff16815260200191505060405180910390f35b34801561028157600080fd5b506102b86004803603604081101561029857600080fd5b8101908080359060200190929190803590602001909291905050506109f8565b005b3480156102c657600080fd5b50610309600480360360208110156102dd57600080fd5b81019080803573ffffffffffffffffffffffffffffffffffffffff169060200190929190505050610e0b565b005b6103416004803603604081101561032157600080fd5b810190808035906020019092919080359060200190929190505050610ffd565b005b600260009054906101000a900473ffffffffffffffffffffffffffffffffffffffff1681565b61037161129b565b73ffffffffffffffffffffffffffffffffffffffff1661038f610983565b73ffffffffffffffffffffffffffffffffffffffff1614610418576040517f08c379a00000000000000000000000000000000000000000000000000000000081526004018080602001828103825260208152602001807f4f776e61626c653a2063616c6c6572206973206e6f7420746865206f776e657281525060200191505060405180910390fd5b600073ffffffffffffffffffffffffffffffffffffffff168173ffffffffffffffffffffffffffffffffffffffff1614156104bb576040517f08c379a00000000000000000000000000000000000000000000000000000000081526004018080602001828103825260168152602001807f43616e277420736574207a65726f20616464726573730000000000000000000081525060200191505060405180910390fd5b80600360006101000a81548173ffffffffffffffffffffffffffffffffffffffff021916908373ffffffffffffffffffffffffffffffffffffffff16021790555050565b61050761129b565b73ffffffffffffffffffffffffffffffffffffffff16610525610983565b73ffffffffffffffffffffffffffffffffffffffff16146105ae576040517f08c379a00000000000000000000000000000000000000000000000000000000081526004018080602001828103825260208152602001807f4f776e61626c653a2063616c6c6572206973206e6f7420746865206f776e657281525060200191505060405180910390fd5b600047905060008111610629576040517f08c379a000000000000000000000000000000000000000000000000000000000815260040180806020018281038252600f8152602001807f6e6f2062616c616e6365206c656674000000000000000000000000000000000081525060200191505060405180910390fd5b6000610633610983565b90508073ffffffffffffffffffffffffffffffffffffffff166108fc839081150290604051600060405180830381858888f1935050505015801561067b573d6000803e3d6000fd5b505050565b61068861129b565b73ffffffffffffffffffffffffffffffffffffffff166106a6610983565b73ffffffffffffffffffffffffffffffffffffffff161461072f576040517f08c379a00000000000000000000000000000000000000000000000000000000081526004018080602001828103825260208152602001807f4f776e61626c653a2063616c6c6572206973206e6f7420746865206f776e657281525060200191505060405180910390fd5b600073ffffffffffffffffffffffffffffffffffffffff168173ffffffffffffffffffffffffffffffffffffffff1614156107d2576040517f08c379a00000000000000000000000000000000000000000000000000000000081526004018080602001828103825260168152602001807f43616e277420736574207a65726f20616464726573730000000000000000000081525060200191505060405180910390fd5b80600260006101000a81548173ffffffffffffffffffffffffffffffffffffffff021916908373ffffffffffffffffffffffffffffffffffffffff16021790555050565b61081e61129b565b73ffffffffffffffffffffffffffffffffffffffff1661083c610983565b73ffffffffffffffffffffffffffffffffffffffff16146108c5576040517f08c379a00000000000000000000000000000000000000000000000000000000081526004018080602001828103825260208152602001807f4f776e61626c653a2063616c6c6572206973206e6f7420746865206f776e657281525060200191505060405180910390fd5b600073ffffffffffffffffffffffffffffffffffffffff1660008054906101000a900473ffffffffffffffffffffffffffffffffffffffff1673ffffffffffffffffffffffffffffffffffffffff167f8be0079c531659141344cd1fd0a4f28419497f9722a3daafe3b4186f6b6457e060405160405180910390a360008060006101000a81548173ffffffffffffffffffffffffffffffffffffffff021916908373ffffffffffffffffffffffffffffffffffffffff160217905550565b60008060009054906101000a900473ffffffffffffffffffffffffffffffffffffffff16905090565b600160009054906101000a900473ffffffffffffffffffffffffffffffffffffffff1681565b600360009054906101000a900473ffffffffffffffffffffffffffffffffffffffff1681565b600080600360009054906101000a900473ffffffffffffffffffffffffffffffffffffffff1673ffffffffffffffffffffffffffffffffffffffff1663b6a5e5cc856040518263ffffffff1660e01b815260040180828152602001915050604080518083038186803b158015610a6d57600080fd5b505afa158015610a81573d6000803e3d6000fd5b505050506040513d6040811015610a9757600080fd5b8101908080519060200190929190805190602001909291905050508092508193505050610acd83836112a390919063ffffffff16565b915060008211610b45576040517f08c379a00000000000000000000000000000000000000000000000000000000081526004018080602001828103825260158152602001807f63616e6e6f7420636f737420302063726564697473000000000000000000000081525060200191505060405180910390fd5b81600260009054906101000a900473ffffffffffffffffffffffffffffffffffffffff1673ffffffffffffffffffffffffffffffffffffffff166370a08231610b8c61129b565b6040518263ffffffff1660e01b8152600401808273ffffffffffffffffffffffffffffffffffffffff16815260200191505060206040518083038186803b158015610bd657600080fd5b505afa158015610bea573d6000803e3d6000fd5b505050506040513d6020811015610c0057600080fd5b81019080805190602001909291905050501015610c85576040517f08c379a00000000000000000000000000000000000000000000000000000000081526004018080602001828103825260198152602001807f6e6f7420656e6f7567682065736361706520746f206275726e0000000000000081525060200191505060405180910390fd5b600260009054906101000a900473ffffffffffffffffffffffffffffffffffffffff1673ffffffffffffffffffffffffffffffffffffffff16639dc29fac610ccb61129b565b846040518363ffffffff1660e01b8152600401808373ffffffffffffffffffffffffffffffffffffffff16815260200182815260200192505050600060405180830381600087803b158015610d1f57600080fd5b505af1158015610d33573d6000803e3d6000fd5b50505050600360009054906101000a900473ffffffffffffffffffffffffffffffffffffffff1673ffffffffffffffffffffffffffffffffffffffff1663731133e9610d7d61129b565b86866040518463ffffffff1660e01b8152600401808473ffffffffffffffffffffffffffffffffffffffff16815260200183815260200182815260200180602001828103825260008152602001602001945050505050600060405180830381600087803b158015610ded57600080fd5b505af1158015610e01573d6000803e3d6000fd5b5050505050505050565b610e1361129b565b73ffffffffffffffffffffffffffffffffffffffff16610e31610983565b73ffffffffffffffffffffffffffffffffffffffff1614610eba576040517f08c379a00000000000000000000000000000000000000000000000000000000081526004018080602001828103825260208152602001807f4f776e61626c653a2063616c6c6572206973206e6f7420746865206f776e657281525060200191505060405180910390fd5b600073ffffffffffffffffffffffffffffffffffffffff168173ffffffffffffffffffffffffffffffffffffffff161415610f40576040517f08c379a000000000000000000000000000000000000000000000000000000000815260040180806020018281038252602681526020018061132a6026913960400191505060405180910390fd5b8073ffffffffffffffffffffffffffffffffffffffff1660008054906101000a900473ffffffffffffffffffffffffffffffffffffffff1673ffffffffffffffffffffffffffffffffffffffff167f8be0079c531659141344cd1fd0a4f28419497f9722a3daafe3b4186f6b6457e060405160405180910390a3806000806101000a81548173ffffffffffffffffffffffffffffffffffffffff021916908373ffffffffffffffffffffffffffffffffffffffff16021790555050565b600080600360009054906101000a900473ffffffffffffffffffffffffffffffffffffffff1673ffffffffffffffffffffffffffffffffffffffff1663b6a5e5cc856040518263ffffffff1660e01b815260040180828152602001915050604080518083038186803b15801561107257600080fd5b505afa158015611086573d6000803e3d6000fd5b505050506040513d604081101561109c57600080fd5b810190808051906020019092919080519060200190929190505050809250819350505080611132576040517f08c379a000000000000000000000000000000000000000000000000000000000815260040180806020018281038252601b8152602001807f736f6d65207468696e6773206d6f6e65792063616e277420627579000000000081525060200191505060405180910390fd5b600061114f67016345785d8a0000856112a390919063ffffffff16565b90508034146111c6576040517f08c379a000000000000000000000000000000000000000000000000000000000815260040180806020018281038252600e8152602001807f6e6f7420656e6f7567682065746800000000000000000000000000000000000081525060200191505060405180910390fd5b600360009054906101000a900473ffffffffffffffffffffffffffffffffffffffff1673ffffffffffffffffffffffffffffffffffffffff1663731133e961120c61129b565b87876040518463ffffffff1660e01b8152600401808473ffffffffffffffffffffffffffffffffffffffff16815260200183815260200182815260200180602001828103825260008152602001602001945050505050600060405180830381600087803b15801561127c57600080fd5b505af1158015611290573d6000803e3d6000fd5b505050505050505050565b600033905090565b6000808314156112b65760009050611323565b60008284029050828482816112c757fe5b041461131e576040517f08c379a00000000000000000000000000000000000000000000000000000000081526004018080602001828103825260218152602001806113506021913960400191505060405180910390fd5b809150505b9291505056fe4f776e61626c653a206e6577206f776e657220697320746865207a65726f2061646472657373536166654d6174683a206d756c7469706c69636174696f6e206f766572666c6f77a26469706673582212208a9848e5bf9e73f3372e76246be030e45806bf5d65a9189c91cc8d9d9bd6047864736f6c634300060c0033",
  "immutableReferences": {},
  "source": "// SPDX-License-Identifier: MIT\n\npragma solidity ^0.6.0;\n\nimport \"@openzeppelin/contracts/access/Ownable.sol\";\nimport \"@openzeppelin/contracts/token/ERC20/ERC20.sol\";\nimport \"@openzeppelin/contracts/token/ERC20/ERC20Burnable.sol\";\nimport \"@openzeppelin/contracts/token/ERC20/SafeERC20.sol\";\nimport \"@openzeppelin/contracts/math/SafeMath.sol\";\nimport \"./escape/EscapeToken.sol\";\nimport \"./ESTilePack.sol\";\n\n/**\n * @title ESTileWrapper\n * ESTileWrapper - a contract to wrap the $TEND contract\n * to allow for calling $TEND functions and mint packs\n */\ncontract ESTileWrapper is Ownable\n{\n  using SafeMath for uint256;\n\n  ERC20Burnable public erc20Contract;\n  EscapeToken public escapeTokenContract;\n  ESTilePack public esTilePackInstance;\n\n  constructor(\n    address _tendAddress,\n    address _boxAddress\n  )\n    Ownable()\n    public\n  {\n    escapeTokenContract = EscapeToken(_tendAddress);\n    esTilePackInstance = ESTilePack(_boxAddress);\n  }\n\n/**\n * Only Owner Functions\n **/\n\n  function setEscapeTokenAddress(\n    address _address\n  )\n    external\n    onlyOwner\n  {\n    require(_address != address(0), \"Can't set zero address\");\n    escapeTokenContract = EscapeToken(_address);\n  }\n\n  function setTilePackContractAddress(\n    address _address\n  )\n    external\n    onlyOwner\n  {\n    require(_address != address(0), \"Can't set zero address\");\n    esTilePackInstance = ESTilePack(_address);\n  }\n\n  function buyPacksForCredits(uint256 _packId, uint256 count) public {\n    uint256 packCostInCredits;\n    bool canBuyForEth;\n    (packCostInCredits, canBuyForEth) = esTilePackInstance.packCosts(_packId);\n    packCostInCredits = packCostInCredits.mul(count);\n    require(packCostInCredits > 0, \"cannot cost 0 credits\");\n    require(escapeTokenContract.balanceOf(_msgSender()) >= packCostInCredits, \"not enough escape to burn\");\n    escapeTokenContract.burn(_msgSender(), packCostInCredits);\n    esTilePackInstance.mint(_msgSender(), _packId, count, \"\");\n  }\n\n  function buyPacksForETH(uint256 _packId, uint256 count) payable public {\n    uint256 packCostInCredits;\n    bool canBuyForEth;\n    (packCostInCredits, canBuyForEth) = esTilePackInstance.packCosts(_packId);\n    require(canBuyForEth, \"some things money can't buy\");\n    uint256 packCost = count.mul(0.1 ether);\n    require(msg.value == packCost, \"not enough eth\");\n    esTilePackInstance.mint(_msgSender(), _packId, count, \"\");\n  }\n\n  function withdrawBalance() public onlyOwner {\n    uint256 balance = address(this).balance;\n    require(balance > 0, \"no balance left\");\n    address payable owner = payable(owner());\n    owner.transfer(balance);\n  }\n}\n",
  "sourcePath": "/Users/shaba/work/github/private/crypto/etherscapes/contract/contracts/ESTileWrapper.sol",
  "compiler": {
    "name": "solc",
    "version": "0.6.12+commit.27d51765.Emscripten.clang"
  },
  "schemaVersion": "3.3.3",
  "updatedAt": "2021-02-08T22:06:04.495Z",
  "networkType": "ethereum",
  "devdoc": {
    "kind": "dev",
    "methods": {
      "owner()": {
        "details": "Returns the address of the current owner."
      },
      "renounceOwnership()": {
        "details": "Leaves the contract without owner. It will not be possible to call `onlyOwner` functions anymore. Can only be called by the current owner. NOTE: Renouncing ownership will leave the contract without an owner, thereby removing any functionality that is only available to the owner."
      },
      "transferOwnership(address)": {
        "details": "Transfers ownership of the contract to a new account (`newOwner`). Can only be called by the current owner."
      }
    },
    "title": "ESTileWrapper ESTileWrapper - a contract to wrap the $TEND contract to allow for calling $TEND functions and mint packs",
    "version": 1
  },
  "userdoc": {
    "kind": "user",
    "methods": {
      "setEscapeTokenAddress(address)": {
        "notice": "Only Owner Functions*"
      }
    },
    "version": 1
  }
}