{
  "contractName": "ESTile",
  "abi": [
    {
      "inputs": [
        {
          "internalType": "string",
          "name": "_uri",
          "type": "string"
        },
        {
          "internalType": "address",
          "name": "_proxyRegistryAddress",
          "type": "address"
        },
        {
          "internalType": "address",
          "name": "_escapeERC20Address",
          "type": "address"
        },
        {
          "internalType": "address",
          "name": "_namingContractAddress",
          "type": "address"
        }
      ],
      "stateMutability": "nonpayable",
      "type": "constructor"
    },
    {
      "anonymous": false,
      "inputs": [
        {
          "indexed": true,
          "internalType": "address",
          "name": "account",
          "type": "address"
        },
        {
          "indexed": true,
          "internalType": "address",
          "name": "operator",
          "type": "address"
        },
        {
          "indexed": false,
          "internalType": "bool",
          "name": "approved",
          "type": "bool"
        }
      ],
      "name": "ApprovalForAll",
      "type": "event"
    },
    {
      "anonymous": false,
      "inputs": [
        {
          "indexed": true,
          "internalType": "address",
          "name": "previousOwner",
          "type": "address"
        },
        {
          "indexed": true,
          "internalType": "address",
          "name": "newOwner",
          "type": "address"
        }
      ],
      "name": "OwnershipTransferred",
      "type": "event"
    },
    {
      "anonymous": false,
      "inputs": [
        {
          "indexed": true,
          "internalType": "bytes32",
          "name": "role",
          "type": "bytes32"
        },
        {
          "indexed": true,
          "internalType": "bytes32",
          "name": "previousAdminRole",
          "type": "bytes32"
        },
        {
          "indexed": true,
          "internalType": "bytes32",
          "name": "newAdminRole",
          "type": "bytes32"
        }
      ],
      "name": "RoleAdminChanged",
      "type": "event"
    },
    {
      "anonymous": false,
      "inputs": [
        {
          "indexed": true,
          "internalType": "bytes32",
          "name": "role",
          "type": "bytes32"
        },
        {
          "indexed": true,
          "internalType": "address",
          "name": "account",
          "type": "address"
        },
        {
          "indexed": true,
          "internalType": "address",
          "name": "sender",
          "type": "address"
        }
      ],
      "name": "RoleGranted",
      "type": "event"
    },
    {
      "anonymous": false,
      "inputs": [
        {
          "indexed": true,
          "internalType": "bytes32",
          "name": "role",
          "type": "bytes32"
        },
        {
          "indexed": true,
          "internalType": "address",
          "name": "account",
          "type": "address"
        },
        {
          "indexed": true,
          "internalType": "address",
          "name": "sender",
          "type": "address"
        }
      ],
      "name": "RoleRevoked",
      "type": "event"
    },
    {
      "anonymous": false,
      "inputs": [
        {
          "indexed": true,
          "internalType": "address",
          "name": "operator",
          "type": "address"
        },
        {
          "indexed": true,
          "internalType": "address",
          "name": "from",
          "type": "address"
        },
        {
          "indexed": true,
          "internalType": "address",
          "name": "to",
          "type": "address"
        },
        {
          "indexed": false,
          "internalType": "uint256[]",
          "name": "ids",
          "type": "uint256[]"
        },
        {
          "indexed": false,
          "internalType": "uint256[]",
          "name": "values",
          "type": "uint256[]"
        }
      ],
      "name": "TransferBatch",
      "type": "event"
    },
    {
      "anonymous": false,
      "inputs": [
        {
          "indexed": true,
          "internalType": "address",
          "name": "operator",
          "type": "address"
        },
        {
          "indexed": true,
          "internalType": "address",
          "name": "from",
          "type": "address"
        },
        {
          "indexed": true,
          "internalType": "address",
          "name": "to",
          "type": "address"
        },
        {
          "indexed": false,
          "internalType": "uint256",
          "name": "id",
          "type": "uint256"
        },
        {
          "indexed": false,
          "internalType": "uint256",
          "name": "value",
          "type": "uint256"
        }
      ],
      "name": "TransferSingle",
      "type": "event"
    },
    {
      "anonymous": false,
      "inputs": [
        {
          "indexed": false,
          "internalType": "string",
          "name": "value",
          "type": "string"
        },
        {
          "indexed": true,
          "internalType": "uint256",
          "name": "id",
          "type": "uint256"
        }
      ],
      "name": "URI",
      "type": "event"
    },
    {
      "inputs": [],
      "name": "CREATOR_ADMIN_ROLE",
      "outputs": [
        {
          "internalType": "bytes32",
          "name": "",
          "type": "bytes32"
        }
      ],
      "stateMutability": "view",
      "type": "function",
      "constant": true
    },
    {
      "inputs": [],
      "name": "CREATOR_ROLE",
      "outputs": [
        {
          "internalType": "bytes32",
          "name": "",
          "type": "bytes32"
        }
      ],
      "stateMutability": "view",
      "type": "function",
      "constant": true
    },
    {
      "inputs": [],
      "name": "DEFAULT_ADMIN_ROLE",
      "outputs": [
        {
          "internalType": "bytes32",
          "name": "",
          "type": "bytes32"
        }
      ],
      "stateMutability": "view",
      "type": "function",
      "constant": true
    },
    {
      "inputs": [],
      "name": "MINTER_ADMIN_ROLE",
      "outputs": [
        {
          "internalType": "bytes32",
          "name": "",
          "type": "bytes32"
        }
      ],
      "stateMutability": "view",
      "type": "function",
      "constant": true
    },
    {
      "inputs": [],
      "name": "MINTER_ROLE",
      "outputs": [
        {
          "internalType": "bytes32",
          "name": "",
          "type": "bytes32"
        }
      ],
      "stateMutability": "view",
      "type": "function",
      "constant": true
    },
    {
      "inputs": [
        {
          "internalType": "address",
          "name": "account",
          "type": "address"
        },
        {
          "internalType": "uint256",
          "name": "id",
          "type": "uint256"
        }
      ],
      "name": "balanceOf",
      "outputs": [
        {
          "internalType": "uint256",
          "name": "",
          "type": "uint256"
        }
      ],
      "stateMutability": "view",
      "type": "function",
      "constant": true
    },
    {
      "inputs": [
        {
          "internalType": "address[]",
          "name": "accounts",
          "type": "address[]"
        },
        {
          "internalType": "uint256[]",
          "name": "ids",
          "type": "uint256[]"
        }
      ],
      "name": "balanceOfBatch",
      "outputs": [
        {
          "internalType": "uint256[]",
          "name": "",
          "type": "uint256[]"
        }
      ],
      "stateMutability": "view",
      "type": "function",
      "constant": true
    },
    {
      "inputs": [
        {
          "internalType": "bytes32",
          "name": "role",
          "type": "bytes32"
        }
      ],
      "name": "getRoleAdmin",
      "outputs": [
        {
          "internalType": "bytes32",
          "name": "",
          "type": "bytes32"
        }
      ],
      "stateMutability": "view",
      "type": "function",
      "constant": true
    },
    {
      "inputs": [
        {
          "internalType": "bytes32",
          "name": "role",
          "type": "bytes32"
        },
        {
          "internalType": "uint256",
          "name": "index",
          "type": "uint256"
        }
      ],
      "name": "getRoleMember",
      "outputs": [
        {
          "internalType": "address",
          "name": "",
          "type": "address"
        }
      ],
      "stateMutability": "view",
      "type": "function",
      "constant": true
    },
    {
      "inputs": [
        {
          "internalType": "bytes32",
          "name": "role",
          "type": "bytes32"
        }
      ],
      "name": "getRoleMemberCount",
      "outputs": [
        {
          "internalType": "uint256",
          "name": "",
          "type": "uint256"
        }
      ],
      "stateMutability": "view",
      "type": "function",
      "constant": true
    },
    {
      "inputs": [
        {
          "internalType": "bytes32",
          "name": "_adminRole",
          "type": "bytes32"
        },
        {
          "internalType": "address",
          "name": "_address",
          "type": "address"
        }
      ],
      "name": "grantAdmin",
      "outputs": [],
      "stateMutability": "nonpayable",
      "type": "function"
    },
    {
      "inputs": [
        {
          "internalType": "bytes32",
          "name": "role",
          "type": "bytes32"
        },
        {
          "internalType": "address",
          "name": "account",
          "type": "address"
        }
      ],
      "name": "grantRole",
      "outputs": [],
      "stateMutability": "nonpayable",
      "type": "function"
    },
    {
      "inputs": [
        {
          "internalType": "bytes32",
          "name": "role",
          "type": "bytes32"
        },
        {
          "internalType": "address",
          "name": "account",
          "type": "address"
        }
      ],
      "name": "hasRole",
      "outputs": [
        {
          "internalType": "bool",
          "name": "",
          "type": "bool"
        }
      ],
      "stateMutability": "view",
      "type": "function",
      "constant": true
    },
    {
      "inputs": [
        {
          "internalType": "address",
          "name": "_owner",
          "type": "address"
        },
        {
          "internalType": "address",
          "name": "_operator",
          "type": "address"
        }
      ],
      "name": "isApprovedForAll",
      "outputs": [
        {
          "internalType": "bool",
          "name": "isOperator",
          "type": "bool"
        }
      ],
      "stateMutability": "view",
      "type": "function",
      "constant": true
    },
    {
      "inputs": [],
      "name": "maxTokenID",
      "outputs": [
        {
          "internalType": "uint256",
          "name": "",
          "type": "uint256"
        }
      ],
      "stateMutability": "view",
      "type": "function",
      "constant": true
    },
    {
      "inputs": [
        {
          "internalType": "address",
          "name": "_to",
          "type": "address"
        },
        {
          "internalType": "uint256",
          "name": "_id",
          "type": "uint256"
        },
        {
          "internalType": "uint256",
          "name": "_quantity",
          "type": "uint256"
        },
        {
          "internalType": "bytes",
          "name": "_data",
          "type": "bytes"
        }
      ],
      "name": "mint",
      "outputs": [],
      "stateMutability": "nonpayable",
      "type": "function"
    },
    {
      "inputs": [
        {
          "internalType": "address",
          "name": "_to",
          "type": "address"
        },
        {
          "internalType": "uint256[]",
          "name": "_ids",
          "type": "uint256[]"
        },
        {
          "internalType": "uint256[]",
          "name": "_quantities",
          "type": "uint256[]"
        },
        {
          "internalType": "bytes",
          "name": "_data",
          "type": "bytes"
        }
      ],
      "name": "mintBatch",
      "outputs": [],
      "stateMutability": "nonpayable",
      "type": "function"
    },
    {
      "inputs": [],
      "name": "name",
      "outputs": [
        {
          "internalType": "string",
          "name": "",
          "type": "string"
        }
      ],
      "stateMutability": "view",
      "type": "function",
      "constant": true
    },
    {
      "inputs": [],
      "name": "owner",
      "outputs": [
        {
          "internalType": "address",
          "name": "",
          "type": "address"
        }
      ],
      "stateMutability": "view",
      "type": "function",
      "constant": true
    },
    {
      "inputs": [],
      "name": "renounceOwnership",
      "outputs": [],
      "stateMutability": "nonpayable",
      "type": "function"
    },
    {
      "inputs": [
        {
          "internalType": "bytes32",
          "name": "role",
          "type": "bytes32"
        },
        {
          "internalType": "address",
          "name": "account",
          "type": "address"
        }
      ],
      "name": "renounceRole",
      "outputs": [],
      "stateMutability": "nonpayable",
      "type": "function"
    },
    {
      "inputs": [
        {
          "internalType": "bytes32",
          "name": "_adminRole",
          "type": "bytes32"
        },
        {
          "internalType": "address",
          "name": "_address",
          "type": "address"
        }
      ],
      "name": "revokeAdmin",
      "outputs": [],
      "stateMutability": "nonpayable",
      "type": "function"
    },
    {
      "inputs": [
        {
          "internalType": "bytes32",
          "name": "role",
          "type": "bytes32"
        },
        {
          "internalType": "address",
          "name": "account",
          "type": "address"
        }
      ],
      "name": "revokeRole",
      "outputs": [],
      "stateMutability": "nonpayable",
      "type": "function"
    },
    {
      "inputs": [
        {
          "internalType": "address",
          "name": "from",
          "type": "address"
        },
        {
          "internalType": "address",
          "name": "to",
          "type": "address"
        },
        {
          "internalType": "uint256[]",
          "name": "ids",
          "type": "uint256[]"
        },
        {
          "internalType": "uint256[]",
          "name": "amounts",
          "type": "uint256[]"
        },
        {
          "internalType": "bytes",
          "name": "data",
          "type": "bytes"
        }
      ],
      "name": "safeBatchTransferFrom",
      "outputs": [],
      "stateMutability": "nonpayable",
      "type": "function"
    },
    {
      "inputs": [
        {
          "internalType": "address",
          "name": "from",
          "type": "address"
        },
        {
          "internalType": "address",
          "name": "to",
          "type": "address"
        },
        {
          "internalType": "uint256",
          "name": "id",
          "type": "uint256"
        },
        {
          "internalType": "uint256",
          "name": "amount",
          "type": "uint256"
        },
        {
          "internalType": "bytes",
          "name": "data",
          "type": "bytes"
        }
      ],
      "name": "safeTransferFrom",
      "outputs": [],
      "stateMutability": "nonpayable",
      "type": "function"
    },
    {
      "inputs": [
        {
          "internalType": "uint256",
          "name": "",
          "type": "uint256"
        }
      ],
      "name": "sceneRewardLeft",
      "outputs": [
        {
          "internalType": "uint256",
          "name": "",
          "type": "uint256"
        }
      ],
      "stateMutability": "view",
      "type": "function",
      "constant": true
    },
    {
      "inputs": [
        {
          "internalType": "uint256",
          "name": "",
          "type": "uint256"
        },
        {
          "internalType": "uint256",
          "name": "",
          "type": "uint256"
        },
        {
          "internalType": "uint256",
          "name": "",
          "type": "uint256"
        }
      ],
      "name": "sceneToPuzzleTileTokens",
      "outputs": [
        {
          "internalType": "uint256",
          "name": "",
          "type": "uint256"
        }
      ],
      "stateMutability": "view",
      "type": "function",
      "constant": true
    },
    {
      "inputs": [
        {
          "internalType": "uint256",
          "name": "",
          "type": "uint256"
        }
      ],
      "name": "scenes",
      "outputs": [
        {
          "internalType": "bool",
          "name": "exists",
          "type": "bool"
        },
        {
          "internalType": "uint256",
          "name": "numPuzzles",
          "type": "uint256"
        },
        {
          "internalType": "uint256",
          "name": "tilesWide",
          "type": "uint256"
        },
        {
          "internalType": "uint256",
          "name": "tilesHigh",
          "type": "uint256"
        },
        {
          "internalType": "uint256",
          "name": "puzzleRewardTotal",
          "type": "uint256"
        },
        {
          "internalType": "uint256",
          "name": "puzzleRewardRate",
          "type": "uint256"
        },
        {
          "internalType": "uint256",
          "name": "startToken",
          "type": "uint256"
        },
        {
          "internalType": "uint256",
          "name": "numTiles",
          "type": "uint256"
        }
      ],
      "stateMutability": "view",
      "type": "function",
      "constant": true
    },
    {
      "inputs": [
        {
          "internalType": "address",
          "name": "operator",
          "type": "address"
        },
        {
          "internalType": "bool",
          "name": "approved",
          "type": "bool"
        }
      ],
      "name": "setApprovalForAll",
      "outputs": [],
      "stateMutability": "nonpayable",
      "type": "function"
    },
    {
      "inputs": [
        {
          "internalType": "address",
          "name": "_proxyRegistryAddress",
          "type": "address"
        }
      ],
      "name": "setProxyRegistryAddress",
      "outputs": [],
      "stateMutability": "nonpayable",
      "type": "function"
    },
    {
      "inputs": [
        {
          "internalType": "string",
          "name": "_newBaseMetadataURI",
          "type": "string"
        }
      ],
      "name": "setURI",
      "outputs": [],
      "stateMutability": "nonpayable",
      "type": "function"
    },
    {
      "inputs": [
        {
          "internalType": "bytes4",
          "name": "interfaceId",
          "type": "bytes4"
        }
      ],
      "name": "supportsInterface",
      "outputs": [
        {
          "internalType": "bool",
          "name": "",
          "type": "bool"
        }
      ],
      "stateMutability": "view",
      "type": "function",
      "constant": true
    },
    {
      "inputs": [],
      "name": "symbol",
      "outputs": [
        {
          "internalType": "string",
          "name": "",
          "type": "string"
        }
      ],
      "stateMutability": "view",
      "type": "function",
      "constant": true
    },
    {
      "inputs": [
        {
          "internalType": "uint256",
          "name": "",
          "type": "uint256"
        }
      ],
      "name": "tokenCounts",
      "outputs": [
        {
          "internalType": "uint256",
          "name": "",
          "type": "uint256"
        }
      ],
      "stateMutability": "view",
      "type": "function",
      "constant": true
    },
    {
      "inputs": [
        {
          "internalType": "uint256",
          "name": "",
          "type": "uint256"
        }
      ],
      "name": "totalSupply",
      "outputs": [
        {
          "internalType": "uint256",
          "name": "",
          "type": "uint256"
        }
      ],
      "stateMutability": "view",
      "type": "function",
      "constant": true
    },
    {
      "inputs": [
        {
          "internalType": "address",
          "name": "newOwner",
          "type": "address"
        }
      ],
      "name": "transferOwnership",
      "outputs": [],
      "stateMutability": "nonpayable",
      "type": "function"
    },
    {
      "inputs": [
        {
          "internalType": "uint256",
          "name": "",
          "type": "uint256"
        }
      ],
      "name": "uri",
      "outputs": [
        {
          "internalType": "string",
          "name": "",
          "type": "string"
        }
      ],
      "stateMutability": "view",
      "type": "function",
      "constant": true
    },
    {
      "inputs": [
        {
          "internalType": "uint256",
          "name": "sceneId",
          "type": "uint256"
        },
        {
          "internalType": "uint256",
          "name": "numPuzzles",
          "type": "uint256"
        },
        {
          "internalType": "uint256",
          "name": "puzzleHeight",
          "type": "uint256"
        },
        {
          "internalType": "uint256",
          "name": "puzzleWidth",
          "type": "uint256"
        },
        {
          "internalType": "uint256",
          "name": "puzzleRewardTotal",
          "type": "uint256"
        },
        {
          "internalType": "uint256",
          "name": "puzzleRewardRate",
          "type": "uint256"
        }
      ],
      "name": "createScene",
      "outputs": [],
      "stateMutability": "nonpayable",
      "type": "function"
    },
    {
      "inputs": [
        {
          "internalType": "uint256",
          "name": "sceneId",
          "type": "uint256"
        }
      ],
      "name": "scenePuzzles",
      "outputs": [
        {
          "internalType": "uint256",
          "name": "",
          "type": "uint256"
        }
      ],
      "stateMutability": "view",
      "type": "function",
      "constant": true
    },
    {
      "inputs": [
        {
          "internalType": "uint256",
          "name": "sceneId",
          "type": "uint256"
        }
      ],
      "name": "sceneTiles",
      "outputs": [
        {
          "internalType": "uint256",
          "name": "",
          "type": "uint256"
        }
      ],
      "stateMutability": "view",
      "type": "function",
      "constant": true
    },
    {
      "inputs": [
        {
          "internalType": "uint256",
          "name": "sceneId",
          "type": "uint256"
        }
      ],
      "name": "sceneExists",
      "outputs": [
        {
          "internalType": "bool",
          "name": "",
          "type": "bool"
        }
      ],
      "stateMutability": "view",
      "type": "function",
      "constant": true
    },
    {
      "inputs": [
        {
          "internalType": "uint256",
          "name": "sceneId",
          "type": "uint256"
        }
      ],
      "name": "puzzleRewardInfo",
      "outputs": [
        {
          "internalType": "uint256",
          "name": "",
          "type": "uint256"
        },
        {
          "internalType": "uint256",
          "name": "",
          "type": "uint256"
        },
        {
          "internalType": "uint256",
          "name": "",
          "type": "uint256"
        }
      ],
      "stateMutability": "view",
      "type": "function",
      "constant": true
    },
    {
      "inputs": [
        {
          "internalType": "uint256",
          "name": "sceneId",
          "type": "uint256"
        }
      ],
      "name": "tokenRangeForScene",
      "outputs": [
        {
          "internalType": "uint256",
          "name": "",
          "type": "uint256"
        },
        {
          "internalType": "uint256",
          "name": "",
          "type": "uint256"
        },
        {
          "internalType": "uint256",
          "name": "",
          "type": "uint256"
        }
      ],
      "stateMutability": "view",
      "type": "function",
      "constant": true
    },
    {
      "inputs": [
        {
          "internalType": "uint256",
          "name": "sceneId",
          "type": "uint256"
        },
        {
          "internalType": "uint256",
          "name": "puzzleId",
          "type": "uint256"
        }
      ],
      "name": "redeemPuzzle",
      "outputs": [
        {
          "internalType": "uint256",
          "name": "",
          "type": "uint256"
        }
      ],
      "stateMutability": "nonpayable",
      "type": "function"
    },
    {
      "inputs": [
        {
          "internalType": "uint256",
          "name": "sceneId",
          "type": "uint256"
        },
        {
          "internalType": "uint256",
          "name": "puzzleId",
          "type": "uint256"
        },
        {
          "internalType": "string",
          "name": "name",
          "type": "string"
        }
      ],
      "name": "nameScenePuzzle",
      "outputs": [],
      "stateMutability": "nonpayable",
      "type": "function"
    },
    {
      "inputs": [
        {
          "internalType": "uint256",
          "name": "sceneId",
          "type": "uint256"
        },
        {
          "internalType": "uint256",
          "name": "puzzleId",
          "type": "uint256"
        }
      ],
      "name": "getScenePuzzleInfo",
      "outputs": [
        {
          "internalType": "uint256",
          "name": "",
          "type": "uint256"
        },
        {
          "internalType": "string",
          "name": "",
          "type": "string"
        },
        {
          "internalType": "address",
          "name": "",
          "type": "address"
        }
      ],
      "stateMutability": "view",
      "type": "function",
      "constant": true
    }
  ],
  "bytecode": "0x608060405260006007553480156200001657600080fd5b50604051620067ce380380620067ce833981810160405260808110156200003c57600080fd5b81019080805160405193929190846401000000008211156200005d57600080fd5b838201915060208201858111156200007457600080fd5b82518660018202830111640100000000821117156200009257600080fd5b8083526020830192505050908051906020019080838360005b83811015620000c8578082015181840152602081019050620000ab565b50505050905090810190601f168015620000f65780820380516001836020036101000a031916815260200191505b506040526020018051906020019092919080519060200190929190805190602001909291905050506040518060400160405280601681526020017f457468657253636170652070757a7a6c652074696c65000000000000000000008152506040518060400160405280600781526020017f45534374696c650000000000000000000000000000000000000000000000000081525085858160006200019f6200054b60201b60201c565b905080600160006101000a81548173ffffffffffffffffffffffffffffffffffffffff021916908373ffffffffffffffffffffffffffffffffffffffff1602179055508073ffffffffffffffffffffffffffffffffffffffff16600073ffffffffffffffffffffffffffffffffffffffff167f8be0079c531659141344cd1fd0a4f28419497f9722a3daafe3b4186f6b6457e060405160405180910390a350620002566301ffc9a760e01b6200055360201b60201c565b62000267816200065d60201b60201c565b6200027f63d9b67a2660e01b6200055360201b60201c565b62000297630e89341c60e01b6200055360201b60201c565b508360099080519060200190620002b092919062000869565b5082600a9080519060200190620002c992919062000869565b5080600660006101000a81548173ffffffffffffffffffffffffffffffffffffffff021916908373ffffffffffffffffffffffffffffffffffffffff1602179055506200034c7f828634d95e775031b9ff576b159a8509d3053581a8c9c4d7d86899e0afcd882f620003406200054b60201b60201c565b6200067960201b60201c565b6200038d7f9f2df0fed2c77648de5860a4cc508cd0818c85b8b8a1ab4ceeef8d981c8956a6620003816200054b60201b60201c565b6200067960201b60201c565b620003df7f828634d95e775031b9ff576b159a8509d3053581a8c9c4d7d86899e0afcd882f7f5721171b1e9186284262a02aac3a681e12de7388ebccd0c2d06623651b6af6f86200068f60201b60201c565b620004317f9f2df0fed2c77648de5860a4cc508cd0818c85b8b8a1ab4ceeef8d981c8956a67f70480ee89cb38eff00b7d23da25713d52ce19c6ed428691d22c58b2f615e3d676200068f60201b60201c565b620004727f5721171b1e9186284262a02aac3a681e12de7388ebccd0c2d06623651b6af6f8620004666200054b60201b60201c565b6200067960201b60201c565b620004b37f70480ee89cb38eff00b7d23da25713d52ce19c6ed428691d22c58b2f615e3d67620004a76200054b60201b60201c565b6200067960201b60201c565b50505050600160078190555081600c60006101000a81548173ffffffffffffffffffffffffffffffffffffffff021916908373ffffffffffffffffffffffffffffffffffffffff16021790555080600d60006101000a81548173ffffffffffffffffffffffffffffffffffffffff021916908373ffffffffffffffffffffffffffffffffffffffff160217905550505050506200090f565b600033905090565b63ffffffff60e01b817bffffffffffffffffffffffffffffffffffffffffffffffffffffffff19161415620005f0576040517f08c379a000000000000000000000000000000000000000000000000000000000815260040180806020018281038252601c8152602001807f4552433136353a20696e76616c696420696e746572666163652069640000000081525060200191505060405180910390fd5b600160026000837bffffffffffffffffffffffffffffffffffffffffffffffffffffffff19167bffffffffffffffffffffffffffffffffffffffffffffffffffffffff1916815260200190815260200160002060006101000a81548160ff02191690831515021790555050565b80600590805190602001906200067592919062000869565b5050565b6200068b8282620006f160201b60201c565b5050565b8060008084815260200190815260200160002060020154837fbd79b86ffe0ab8e8776151514217cd7cacd52c909f66475c3af44e129f0b00ff60405160405180910390a480600080848152602001908152602001600020600201819055505050565b6200071f816000808581526020019081526020016000206000016200079460201b620043e71790919060201c565b156200079057620007356200054b60201b60201c565b73ffffffffffffffffffffffffffffffffffffffff168173ffffffffffffffffffffffffffffffffffffffff16837f2f8788117e7eff1d82e926ec794901d17c78024a50270940304540a733656f0d60405160405180910390a45b5050565b6000620007c4836000018373ffffffffffffffffffffffffffffffffffffffff1660001b620007cc60201b60201c565b905092915050565b6000620007e083836200084660201b60201c565b6200083b57826000018290806001815401808255809150506001900390600052602060002001600090919091909150558260000180549050836001016000848152602001908152602001600020819055506001905062000840565b600090505b92915050565b600080836001016000848152602001908152602001600020541415905092915050565b828054600181600116156101000203166002900490600052602060002090601f016020900481019282601f10620008ac57805160ff1916838001178555620008dd565b82800160010185558215620008dd579182015b82811115620008dc578251825591602001919060010190620008bf565b5b509050620008ec9190620008f0565b5090565b5b808211156200090b576000816000905550600101620008f1565b5090565b615eaf806200091f6000396000f3fe608060405234801561001057600080fd5b50600436106102895760003560e01c806379e0aadc1161015c578063b138ac61116100ce578063d26ea6c011610087578063d26ea6c01461151e578063d539139314611562578063d547741f14611580578063e985e9c5146115ce578063f242432a14611648578063f2fde38b1461175757610289565b8063b138ac6114611333578063bd85b03914611375578063c296ba05146113b7578063c5a113d2146113f9578063c96681a514611486578063ca15c873146114dc57610289565b806391d148541161012057806391d148541461113a57806395d89b411461119e578063992d09b6146112215780639c68276614611265578063a217fddf146112c5578063a22cb465146112e357610289565b806379e0aadc14610ff457806380e6548e146110365780638aeda25a146110865780638da5cb5b146110a45780639010d07c146110d857610289565b80632f2ff15d116102005780634df6e605116101b95780634df6e60514610ca05780634e1273f414610cee5780635a570c0c14610e8f5780635df7d82f14610ead578063715018a614610efb578063731133e914610f0557610289565b80632f2ff15d14610ab1578063323c1c8d14610aff57806332c57cec14610b4f57806336568abe14610bc45780633ae10b1b14610c125780634c83eaa014610c5457610289565b80631339324b116102525780631339324b14610538578063197702da146105565780631f7fdffa14610574578063248a9ca3146107775780632c236ebd146107b95780632eb2c2d61461088e57610289565b8062fdd58e1461028e57806301ffc9a7146102f057806302fe53051461035357806306fdde031461040e5780630e89341c14610491575b600080fd5b6102da600480360360408110156102a457600080fd5b81019080803573ffffffffffffffffffffffffffffffffffffffff1690602001909291908035906020019092919050505061179b565b6040518082815260200191505060405180910390f35b61033b6004803603602081101561030657600080fd5b8101908080357bffffffffffffffffffffffffffffffffffffffffffffffffffffffff1916906020019092919050505061187b565b60405180821515815260200191505060405180910390f35b61040c6004803603602081101561036957600080fd5b810190808035906020019064010000000081111561038657600080fd5b82018360208201111561039857600080fd5b803590602001918460018302840111640100000000831117156103ba57600080fd5b91908080601f016020809104026020016040519081016040528093929190818152602001838380828437600081840152601f19601f8201169050808301925050505050505091929192905050506118e3565b005b61041661199e565b6040518080602001828103825283818151815260200191508051906020019080838360005b8381101561045657808201518184015260208101905061043b565b50505050905090810190601f1680156104835780820380516001836020036101000a031916815260200191505b509250505060405180910390f35b6104bd600480360360208110156104a757600080fd5b8101908080359060200190929190505050611a3c565b6040518080602001828103825283818151815260200191508051906020019080838360005b838110156104fd5780820151818401526020810190506104e2565b50505050905090810190601f16801561052a5780820380516001836020036101000a031916815260200191505b509250505060405180910390f35b610540611ae0565b6040518082815260200191505060405180910390f35b61055e611b04565b6040518082815260200191505060405180910390f35b6107756004803603608081101561058a57600080fd5b81019080803573ffffffffffffffffffffffffffffffffffffffff169060200190929190803590602001906401000000008111156105c757600080fd5b8201836020820111156105d957600080fd5b803590602001918460208302840111640100000000831117156105fb57600080fd5b919080806020026020016040519081016040528093929190818152602001838360200280828437600081840152601f19601f8201169050808301925050505050505091929192908035906020019064010000000081111561065b57600080fd5b82018360208201111561066d57600080fd5b8035906020019184602083028401116401000000008311171561068f57600080fd5b919080806020026020016040519081016040528093929190818152602001838360200280828437600081840152601f19601f820116905080830192505050505050509192919290803590602001906401000000008111156106ef57600080fd5b82018360208201111561070157600080fd5b8035906020019184600183028401116401000000008311171561072357600080fd5b91908080601f016020809104026020016040519081016040528093929190818152602001838380828437600081840152601f19601f820116905080830192505050505050509192919290505050611b28565b005b6107a36004803603602081101561078d57600080fd5b8101908080359060200190929190505050611c6d565b6040518082815260200191505060405180910390f35b6107ef600480360360408110156107cf57600080fd5b810190808035906020019092919080359060200190929190505050611c8c565b60405180848152602001806020018373ffffffffffffffffffffffffffffffffffffffff168152602001828103825284818151815260200191508051906020019080838360005b83811015610851578082015181840152602081019050610836565b50505050905090810190601f16801561087e5780820380516001836020036101000a031916815260200191505b5094505050505060405180910390f35b610aaf600480360360a08110156108a457600080fd5b81019080803573ffffffffffffffffffffffffffffffffffffffff169060200190929190803573ffffffffffffffffffffffffffffffffffffffff1690602001909291908035906020019064010000000081111561090157600080fd5b82018360208201111561091357600080fd5b8035906020019184602083028401116401000000008311171561093557600080fd5b919080806020026020016040519081016040528093929190818152602001838360200280828437600081840152601f19601f8201169050808301925050505050505091929192908035906020019064010000000081111561099557600080fd5b8201836020820111156109a757600080fd5b803590602001918460208302840111640100000000831117156109c957600080fd5b919080806020026020016040519081016040528093929190818152602001838360200280828437600081840152601f19601f82011690508083019250505050505050919291929080359060200190640100000000811115610a2957600080fd5b820183602082011115610a3b57600080fd5b80359060200191846001830284011164010000000083111715610a5d57600080fd5b91908080601f016020809104026020016040519081016040528093929190818152602001838380828437600081840152601f19601f820116905080830192505050505050509192919290505050611e46565b005b610afd60048036036040811015610ac757600080fd5b8101908080359060200190929190803573ffffffffffffffffffffffffffffffffffffffff1690602001909291905050506122d1565b005b610b2b60048036036020811015610b1557600080fd5b810190808035906020019092919050505061235a565b60405180848152602001838152602001828152602001935050505060405180910390f35b610b7b60048036036020811015610b6557600080fd5b81019080803590602001909291905050506123ae565b6040518089151581526020018881526020018781526020018681526020018581526020018481526020018381526020018281526020019850505050505050505060405180910390f35b610c1060048036036040811015610bda57600080fd5b8101908080359060200190929190803573ffffffffffffffffffffffffffffffffffffffff169060200190929190505050612403565b005b610c3e60048036036020811015610c2857600080fd5b810190808035906020019092919050505061249c565b6040518082815260200191505060405180910390f35b610c8a60048036036040811015610c6a57600080fd5b8101908080359060200190929190803590602001909291905050506124bc565b6040518082815260200191505060405180910390f35b610cec60048036036040811015610cb657600080fd5b8101908080359060200190929190803573ffffffffffffffffffffffffffffffffffffffff169060200190929190505050612962565b005b610e3860048036036040811015610d0457600080fd5b8101908080359060200190640100000000811115610d2157600080fd5b820183602082011115610d3357600080fd5b80359060200191846020830284011164010000000083111715610d5557600080fd5b919080806020026020016040519081016040528093929190818152602001838360200280828437600081840152601f19601f82011690508083019250505050505050919291929080359060200190640100000000811115610db557600080fd5b820183602082011115610dc757600080fd5b80359060200191846020830284011164010000000083111715610de957600080fd5b919080806020026020016040519081016040528093929190818152602001838360200280828437600081840152601f19601f820116905080830192505050505050509192919290505050612aa1565b6040518080602001828103825283818151815260200191508051906020019060200280838360005b83811015610e7b578082015181840152602081019050610e60565b505050509050019250505060405180910390f35b610e97612c93565b6040518082815260200191505060405180910390f35b610ef960048036036040811015610ec357600080fd5b8101908080359060200190929190803573ffffffffffffffffffffffffffffffffffffffff169060200190929190505050612c99565b005b610f03612dd8565b005b610ff260048036036080811015610f1b57600080fd5b81019080803573ffffffffffffffffffffffffffffffffffffffff169060200190929190803590602001909291908035906020019092919080359060200190640100000000811115610f6c57600080fd5b820183602082011115610f7e57600080fd5b80359060200191846001830284011164010000000083111715610fa057600080fd5b91908080601f016020809104026020016040519081016040528093929190818152602001838380828437600081840152601f19601f820116905080830192505050505050509192919290505050612f48565b005b6110206004803603602081101561100a57600080fd5b81019080803590602001909291905050506130b2565b6040518082815260200191505060405180910390f35b6110626004803603602081101561104c57600080fd5b81019080803590602001909291905050506130ca565b60405180848152602001838152602001828152602001935050505060405180910390f35b61108e613121565b6040518082815260200191505060405180910390f35b6110ac613145565b604051808273ffffffffffffffffffffffffffffffffffffffff16815260200191505060405180910390f35b61110e600480360360408110156110ee57600080fd5b81019080803590602001909291908035906020019092919050505061316f565b604051808273ffffffffffffffffffffffffffffffffffffffff16815260200191505060405180910390f35b6111866004803603604081101561115057600080fd5b8101908080359060200190929190803573ffffffffffffffffffffffffffffffffffffffff1690602001909291905050506131a0565b60405180821515815260200191505060405180910390f35b6111a66131d1565b6040518080602001828103825283818151815260200191508051906020019080838360005b838110156111e65780820151818401526020810190506111cb565b50505050905090810190601f1680156112135780820380516001836020036101000a031916815260200191505b509250505060405180910390f35b61124d6004803603602081101561123757600080fd5b810190808035906020019092919050505061326f565b60405180821515815260200191505060405180910390f35b6112c3600480360360c081101561127b57600080fd5b810190808035906020019092919080359060200190929190803590602001909291908035906020019092919080359060200190929190803590602001909291905050506132a3565b005b6112cd61363c565b6040518082815260200191505060405180910390f35b611331600480360360408110156112f957600080fd5b81019080803573ffffffffffffffffffffffffffffffffffffffff169060200190929190803515159060200190929190505050613643565b005b61135f6004803603602081101561134957600080fd5b81019080803590602001909291905050506137dc565b6040518082815260200191505060405180910390f35b6113a16004803603602081101561138b57600080fd5b8101908080359060200190929190505050613824565b6040518082815260200191505060405180910390f35b6113e3600480360360208110156113cd57600080fd5b810190808035906020019092919050505061383c565b6040518082815260200191505060405180910390f35b6114846004803603606081101561140f57600080fd5b8101908080359060200190929190803590602001909291908035906020019064010000000081111561144057600080fd5b82018360208201111561145257600080fd5b8035906020019184600183028401116401000000008311171561147457600080fd5b9091929391929390505050613854565b005b6114c66004803603606081101561149c57600080fd5b81019080803590602001909291908035906020019092919080359060200190929190505050613b0a565b6040518082815260200191505060405180910390f35b611508600480360360208110156114f257600080fd5b8101908080359060200190929190505050613b45565b6040518082815260200191505060405180910390f35b6115606004803603602081101561153457600080fd5b81019080803573ffffffffffffffffffffffffffffffffffffffff169060200190929190505050613b6b565b005b61156a613c5e565b6040518082815260200191505060405180910390f35b6115cc6004803603604081101561159657600080fd5b8101908080359060200190929190803573ffffffffffffffffffffffffffffffffffffffff169060200190929190505050613c82565b005b611630600480360360408110156115e457600080fd5b81019080803573ffffffffffffffffffffffffffffffffffffffff169060200190929190803573ffffffffffffffffffffffffffffffffffffffff169060200190929190505050613d0b565b60405180821515815260200191505060405180910390f35b611755600480360360a081101561165e57600080fd5b81019080803573ffffffffffffffffffffffffffffffffffffffff169060200190929190803573ffffffffffffffffffffffffffffffffffffffff1690602001909291908035906020019092919080359060200190929190803590602001906401000000008111156116cf57600080fd5b8201836020820111156116e157600080fd5b8035906020019184600183028401116401000000008311171561170357600080fd5b91908080601f016020809104026020016040519081016040528093929190818152602001838380828437600081840152601f19601f820116905080830192505050505050509192919290505050613e7d565b005b6117996004803603602081101561176d57600080fd5b81019080803573ffffffffffffffffffffffffffffffffffffffff1690602001909291905050506141f2565b005b60008073ffffffffffffffffffffffffffffffffffffffff168373ffffffffffffffffffffffffffffffffffffffff161415611822576040517f08c379a000000000000000000000000000000000000000000000000000000000815260040180806020018281038252602b815260200180615bec602b913960400191505060405180910390fd5b6003600083815260200190815260200160002060008473ffffffffffffffffffffffffffffffffffffffff1673ffffffffffffffffffffffffffffffffffffffff16815260200190815260200160002054905092915050565b600060026000837bffffffffffffffffffffffffffffffffffffffffffffffffffffffff19167bffffffffffffffffffffffffffffffffffffffffffffffffffffffff1916815260200190815260200160002060009054906101000a900460ff169050919050565b6118eb614417565b73ffffffffffffffffffffffffffffffffffffffff16611909613145565b73ffffffffffffffffffffffffffffffffffffffff1614611992576040517f08c379a00000000000000000000000000000000000000000000000000000000081526004018080602001828103825260208152602001807f4f776e61626c653a2063616c6c6572206973206e6f7420746865206f776e657281525060200191505060405180910390fd5b61199b8161441f565b50565b60098054600181600116156101000203166002900480601f016020809104026020016040519081016040528092919081815260200182805460018160011615610100020316600290048015611a345780601f10611a0957610100808354040283529160200191611a34565b820191906000526020600020905b815481529060010190602001808311611a1757829003601f168201915b505050505081565b606060058054600181600116156101000203166002900480601f016020809104026020016040519081016040528092919081815260200182805460018160011615610100020316600290048015611ad45780601f10611aa957610100808354040283529160200191611ad4565b820191906000526020600020905b815481529060010190602001808311611ab757829003601f168201915b50505050509050919050565b7f70480ee89cb38eff00b7d23da25713d52ce19c6ed428691d22c58b2f615e3d6781565b7f5721171b1e9186284262a02aac3a681e12de7388ebccd0c2d06623651b6af6f881565b611b597f9f2df0fed2c77648de5860a4cc508cd0818c85b8b8a1ab4ceeef8d981c8956a6611b54614417565b6131a0565b611bcb576040517f08c379a00000000000000000000000000000000000000000000000000000000081526004018080602001828103825260148152602001807f43616c6c6572206973206e6f74206d696e74657200000000000000000000000081525060200191505060405180910390fd5b60005b8351811015611c5a57611c23838281518110611be657fe5b602002602001015160086000878581518110611bfe57fe5b602002602001015181526020019081526020016000205461443990919063ffffffff16565b60086000868481518110611c3357fe5b60200260200101518152602001908152602001600020819055508080600101915050611bce565b50611c67848484846144c1565b50505050565b6000806000838152602001908152602001600020600201549050919050565b600060606000600d60009054906101000a900473ffffffffffffffffffffffffffffffffffffffff1673ffffffffffffffffffffffffffffffffffffffff1663fcf2aa7f601060008881526020019081526020016000206000878152602001908152602001600020546040518263ffffffff1660e01b81526004018082815260200191505060006040518083038186803b158015611d2957600080fd5b505afa158015611d3d573d6000803e3d6000fd5b505050506040513d6000823e3d601f19601f820116820180604052506060811015611d6757600080fd5b810190808051906020019092919080516040519392919084640100000000821115611d9157600080fd5b83820191506020820185811115611da757600080fd5b8251866001820283011164010000000082111715611dc457600080fd5b8083526020830192505050908051906020019080838360005b83811015611df8578082015181840152602081019050611ddd565b50505050905090810190601f168015611e255780820380516001836020036101000a031916815260200191505b50604052602001805190602001909291905050509250925092509250925092565b8151835114611ea0576040517f08c379a0000000000000000000000000000000000000000000000000000000008152600401808060200182810382526028815260200180615e026028913960400191505060405180910390fd5b600073ffffffffffffffffffffffffffffffffffffffff168473ffffffffffffffffffffffffffffffffffffffff161415611f26576040517f08c379a0000000000000000000000000000000000000000000000000000000008152600401808060200182810382526025815260200180615ceb6025913960400191505060405180910390fd5b611f2e614417565b73ffffffffffffffffffffffffffffffffffffffff168573ffffffffffffffffffffffffffffffffffffffff161480611f745750611f7385611f6e614417565b613d0b565b5b611fc9576040517f08c379a0000000000000000000000000000000000000000000000000000000008152600401808060200182810382526032815260200180615d106032913960400191505060405180910390fd5b6000611fd3614417565b9050611fe38187878787876147e3565b60005b84518110156121b4576000858281518110611ffd57fe5b60200260200101519050600085838151811061201557fe5b6020026020010151905061209c816040518060600160405280602a8152602001615d65602a91396003600086815260200190815260200160002060008d73ffffffffffffffffffffffffffffffffffffffff1673ffffffffffffffffffffffffffffffffffffffff168152602001908152602001600020546147eb9092919063ffffffff16565b6003600084815260200190815260200160002060008b73ffffffffffffffffffffffffffffffffffffffff1673ffffffffffffffffffffffffffffffffffffffff16815260200190815260200160002081905550612153816003600085815260200190815260200160002060008b73ffffffffffffffffffffffffffffffffffffffff1673ffffffffffffffffffffffffffffffffffffffff1681526020019081526020016000205461443990919063ffffffff16565b6003600084815260200190815260200160002060008a73ffffffffffffffffffffffffffffffffffffffff1673ffffffffffffffffffffffffffffffffffffffff168152602001908152602001600020819055505050806001019050611fe6565b508473ffffffffffffffffffffffffffffffffffffffff168673ffffffffffffffffffffffffffffffffffffffff168273ffffffffffffffffffffffffffffffffffffffff167f4a39dc06d4c0dbc64b70af90fd698a233a518aa5d07e595d983b8c0526c8f7fb8787604051808060200180602001838103835285818151815260200191508051906020019060200280838360005b83811015612264578082015181840152602081019050612249565b50505050905001838103825284818151815260200191508051906020019060200280838360005b838110156122a657808201518184015260208101905061228b565b5050505090500194505050505060405180910390a46122c98187878787876148a5565b505050505050565b6122f7600080848152602001908152602001600020600201546122f2614417565b6131a0565b61234c576040517f08c379a000000000000000000000000000000000000000000000000000000000815260040180806020018281038252602f815260200180615bbd602f913960400191505060405180910390fd5b6123568282614c34565b5050565b60008060006012600085815260200190815260200160002060040154601260008681526020019081526020016000206005015460136000878152602001908152602001600020549250925092509193909250565b60126020528060005260406000206000915090508060000160009054906101000a900460ff16908060010154908060020154908060030154908060040154908060050154908060060154908060070154905088565b61240b614417565b73ffffffffffffffffffffffffffffffffffffffff168173ffffffffffffffffffffffffffffffffffffffff161461248e576040517f08c379a000000000000000000000000000000000000000000000000000000000815260040180806020018281038252602f815260200180615e4b602f913960400191505060405180910390fd5b6124988282614cc7565b5050565b600060126000838152602001908152602001600020600101549050919050565b6000600115156012600085815260200190815260200160002060000160009054906101000a900460ff1615151461255b576040517f08c379a00000000000000000000000000000000000000000000000000000000081526004018080602001828103825260148152602001807f7363656e6520646f6573206e6f7420657869737400000000000000000000000081525060200191505060405180910390fd5b601260008481526020019081526020016000206001015482106125e6576040517f08c379a00000000000000000000000000000000000000000000000000000000081526004018080602001828103825260188152602001807f696e76616c69642070757a7a6c6520726571756573746564000000000000000081525060200191505060405180910390fd5b60006010600085815260200190815260200160002060008481526020019081526020016000205490506000811415612686576040517f08c379a00000000000000000000000000000000000000000000000000000000081526004018080602001828103825260148152602001807f696e76616c69642070757a7a6c6520746f6b656e00000000000000000000000081525060200191505060405180910390fd5b60006126c760126000878152602001908152602001600020600201546012600088815260200190815260200160002060030154614d5a90919063ffffffff16565b905060005b8181101561279957600061271933600f60008a81526020019081526020016000206000898152602001908152602001600020848154811061270957fe5b906000526020600020015461179b565b1161278c576040517f08c379a000000000000000000000000000000000000000000000000000000000815260040180806020018281038252601d8152602001807f646f206e6f74206861766520616c6c2070757a7a6c6520746f6b656e7300000081525060200191505060405180910390fd5b80806001019150506126cc565b5060005b818110156127f7576127ea33600f6000898152602001908152602001600020600088815260200190815260200160002083815481106127d857fe5b90600052602060002001546001614de0565b808060010191505061279d565b506128143383600160405180602001604052806000815250614ffc565b60006013600087815260200190815260200160002054111561295a57600061286e6127106128606101f4601360008b815260200190815260200160002054614d5a90919063ffffffff16565b6151ff90919063ffffffff16565b905061289681601360008981526020019081526020016000205461528890919063ffffffff16565b6013600088815260200190815260200160002081905550600c60009054906101000a900473ffffffffffffffffffffffffffffffffffffffff1673ffffffffffffffffffffffffffffffffffffffff16631662b2f933836040518363ffffffff1660e01b8152600401808373ffffffffffffffffffffffffffffffffffffffff16815260200182815260200192505050600060405180830381600087803b15801561294057600080fd5b505af1158015612954573d6000803e3d6000fd5b50505050505b505092915050565b7f5721171b1e9186284262a02aac3a681e12de7388ebccd0c2d06623651b6af6f8821480156129be57506129bd7f5721171b1e9186284262a02aac3a681e12de7388ebccd0c2d06623651b6af6f86129b8614417565b6131a0565b5b80612a2157507f70480ee89cb38eff00b7d23da25713d52ce19c6ed428691d22c58b2f615e3d6782148015612a205750612a1f7f70480ee89cb38eff00b7d23da25713d52ce19c6ed428691d22c58b2f615e3d67612a1a614417565b6131a0565b5b5b612a93576040517f08c379a000000000000000000000000000000000000000000000000000000000815260040180806020018281038252600c8152602001807f4e6f7420616e2061646d696e000000000000000000000000000000000000000081525060200191505060405180910390fd5b612a9d8282614c34565b5050565b60608151835114612afd576040517f08c379a0000000000000000000000000000000000000000000000000000000008152600401808060200182810382526029815260200180615dd96029913960400191505060405180910390fd5b6060835167ffffffffffffffff81118015612b1757600080fd5b50604051908082528060200260200182016040528015612b465781602001602082028036833780820191505090505b50905060005b8451811015612c8857600073ffffffffffffffffffffffffffffffffffffffff16858281518110612b7957fe5b602002602001015173ffffffffffffffffffffffffffffffffffffffff161415612bee576040517f08c379a0000000000000000000000000000000000000000000000000000000008152600401808060200182810382526031815260200180615c176031913960400191505060405180910390fd5b60036000858381518110612bfe57fe5b602002602001015181526020019081526020016000206000868381518110612c2257fe5b602002602001015173ffffffffffffffffffffffffffffffffffffffff1673ffffffffffffffffffffffffffffffffffffffff16815260200190815260200160002054828281518110612c7157fe5b602002602001018181525050806001019050612b4c565b508091505092915050565b60075481565b7f5721171b1e9186284262a02aac3a681e12de7388ebccd0c2d06623651b6af6f882148015612cf55750612cf47f5721171b1e9186284262a02aac3a681e12de7388ebccd0c2d06623651b6af6f8612cef614417565b6131a0565b5b80612d5857507f70480ee89cb38eff00b7d23da25713d52ce19c6ed428691d22c58b2f615e3d6782148015612d575750612d567f70480ee89cb38eff00b7d23da25713d52ce19c6ed428691d22c58b2f615e3d67612d51614417565b6131a0565b5b5b612dca576040517f08c379a000000000000000000000000000000000000000000000000000000000815260040180806020018281038252600c8152602001807f4e6f7420616e2061646d696e000000000000000000000000000000000000000081525060200191505060405180910390fd5b612dd48282614cc7565b5050565b612de0614417565b73ffffffffffffffffffffffffffffffffffffffff16612dfe613145565b73ffffffffffffffffffffffffffffffffffffffff1614612e87576040517f08c379a00000000000000000000000000000000000000000000000000000000081526004018080602001828103825260208152602001807f4f776e61626c653a2063616c6c6572206973206e6f7420746865206f776e657281525060200191505060405180910390fd5b600073ffffffffffffffffffffffffffffffffffffffff16600160009054906101000a900473ffffffffffffffffffffffffffffffffffffffff1673ffffffffffffffffffffffffffffffffffffffff167f8be0079c531659141344cd1fd0a4f28419497f9722a3daafe3b4186f6b6457e060405160405180910390a36000600160006101000a81548173ffffffffffffffffffffffffffffffffffffffff021916908373ffffffffffffffffffffffffffffffffffffffff160217905550565b612f797f9f2df0fed2c77648de5860a4cc508cd0818c85b8b8a1ab4ceeef8d981c8956a6612f74614417565b6131a0565b612feb576040517f08c379a00000000000000000000000000000000000000000000000000000000081526004018080602001828103825260148152602001807f43616c6c6572206973206e6f74206d696e74657200000000000000000000000081525060200191505060405180910390fd5b600754831115613063576040517f08c379a000000000000000000000000000000000000000000000000000000000815260040180806020018281038252600c8152602001807f546f6b656e20494420444e45000000000000000000000000000000000000000081525060200191505060405180910390fd5b61308982600860008681526020019081526020016000205461443990919063ffffffff16565b60086000858152602001908152602001600020819055506130ac84848484614ffc565b50505050565b600e6020528060005260406000206000915090505481565b60008060006012600085815260200190815260200160002060060154601260008681526020019081526020016000206007015460126000878152602001908152602001600020600101549250925092509193909250565b7f828634d95e775031b9ff576b159a8509d3053581a8c9c4d7d86899e0afcd882f81565b6000600160009054906101000a900473ffffffffffffffffffffffffffffffffffffffff16905090565b60006131988260008086815260200190815260200160002060000161530b90919063ffffffff16565b905092915050565b60006131c98260008086815260200190815260200160002060000161532590919063ffffffff16565b905092915050565b600a8054600181600116156101000203166002900480601f0160208091040260200160405190810160405280929190818152602001828054600181600116156101000203166002900480156132675780601f1061323c57610100808354040283529160200191613267565b820191906000526020600020905b81548152906001019060200180831161324a57829003601f168201915b505050505081565b6000600115156012600084815260200190815260200160002060000160009054906101000a900460ff161515149050919050565b6132d47f828634d95e775031b9ff576b159a8509d3053581a8c9c4d7d86899e0afcd882f6132cf614417565b6131a0565b613346576040517f08c379a000000000000000000000000000000000000000000000000000000000815260040180806020018281038252600d8152602001807f6e6f7420612063726561746f720000000000000000000000000000000000000081525060200191505060405180910390fd5b6000851180156133565750600084115b80156133625750600083115b6133d4576040517f08c379a00000000000000000000000000000000000000000000000000000000081526004018080602001828103825260088152602001807f6261642064696d7300000000000000000000000000000000000000000000000081525060200191505060405180910390fd5b600015156012600088815260200190815260200160002060000160009054906101000a900460ff16151514613471576040517f08c379a00000000000000000000000000000000000000000000000000000000081526004018080602001828103825260128152602001807f7363656e6520616c72656164792068657265000000000000000000000000000081525060200191505060405180910390fd5b600060126000888152602001908152602001600020905060018160000160006101000a81548160ff0219169083151502179055508581600101819055508481600301819055508381600201819055508281600401819055508181600501819055508260136000898152602001908152602001600020819055506000600754905080826006018190555061351f6135108787614d5a90919063ffffffff16565b88614d5a90919063ffffffff16565b826007018190555060005b878110156135d25760005b878110156135c45760005b878110156135b657600f60008c815260200190815260200160002060008481526020019081526020016000208490806001815401808255809150506001900390600052602060002001600090919091909150556135a760018561443990919063ffffffff16565b93508080600101915050613540565b508080600101915050613535565b50808060010191505061352a565b5060005b8781101561362a5781601060008b815260200190815260200160002060008381526020019081526020016000208190555061361b60018361443990919063ffffffff16565b915080806001019150506135d6565b50806007819055505050505050505050565b6000801b81565b8173ffffffffffffffffffffffffffffffffffffffff16613662614417565b73ffffffffffffffffffffffffffffffffffffffff1614156136cf576040517f08c379a0000000000000000000000000000000000000000000000000000000008152600401808060200182810382526029815260200180615db06029913960400191505060405180910390fd5b80600460006136dc614417565b73ffffffffffffffffffffffffffffffffffffffff1673ffffffffffffffffffffffffffffffffffffffff16815260200190815260200160002060008473ffffffffffffffffffffffffffffffffffffffff1673ffffffffffffffffffffffffffffffffffffffff16815260200190815260200160002060006101000a81548160ff0219169083151502179055508173ffffffffffffffffffffffffffffffffffffffff16613789614417565b73ffffffffffffffffffffffffffffffffffffffff167f17307eab39ab6107e8899845ad3d59bd9653f200f220920489ca2b5937696c318360405180821515815260200191505060405180910390a35050565b600061381d60126000848152602001908152602001600020600301546012600085815260200190815260200160002060020154614d5a90919063ffffffff16565b9050919050565b60086020528060005260406000206000915090505481565b60136020528060005260406000206000915090505481565b600115156012600086815260200190815260200160002060000160009054906101000a900460ff161515146138f1576040517f08c379a00000000000000000000000000000000000000000000000000000000081526004018080602001828103825260148152602001807f7363656e6520646f6573206e6f7420657869737400000000000000000000000081525060200191505060405180910390fd5b6012600085815260200190815260200160002060010154831061397c576040517f08c379a00000000000000000000000000000000000000000000000000000000081526004018080602001828103825260188152602001807f696e76616c69642070757a7a6c6520726571756573746564000000000000000081525060200191505060405180910390fd5b600060106000868152602001908152602001600020600085815260200190815260200160002054905060006139b1338361179b565b11613a24576040517f08c379a00000000000000000000000000000000000000000000000000000000081526004018080602001828103825260198152602001807f6f6e6c792072656e616d65206f776e65642070757a7a6c65730000000000000081525060200191505060405180910390fd5b600d60009054906101000a900473ffffffffffffffffffffffffffffffffffffffff1673ffffffffffffffffffffffffffffffffffffffff1663245d58c1338386866040518563ffffffff1660e01b8152600401808573ffffffffffffffffffffffffffffffffffffffff168152602001848152602001806020018281038252848482818152602001925080828437600081840152601f19601f82011690508083019250505095505050505050600060405180830381600087803b158015613aeb57600080fd5b505af1158015613aff573d6000803e3d6000fd5b505050505050505050565b600f6020528260005260406000206020528160005260406000208181548110613b2f57fe5b9060005260206000200160009250925050505481565b6000613b64600080848152602001908152602001600020600001615355565b9050919050565b613b73614417565b73ffffffffffffffffffffffffffffffffffffffff16613b91613145565b73ffffffffffffffffffffffffffffffffffffffff1614613c1a576040517f08c379a00000000000000000000000000000000000000000000000000000000081526004018080602001828103825260208152602001807f4f776e61626c653a2063616c6c6572206973206e6f7420746865206f776e657281525060200191505060405180910390fd5b80600660006101000a81548173ffffffffffffffffffffffffffffffffffffffff021916908373ffffffffffffffffffffffffffffffffffffffff16021790555050565b7f9f2df0fed2c77648de5860a4cc508cd0818c85b8b8a1ab4ceeef8d981c8956a681565b613ca860008084815260200190815260200160002060020154613ca3614417565b6131a0565b613cfd576040517f08c379a0000000000000000000000000000000000000000000000000000000008152600401808060200182810382526030815260200180615cbb6030913960400191505060405180910390fd5b613d078282614cc7565b5050565b60008073ffffffffffffffffffffffffffffffffffffffff16600660009054906101000a900473ffffffffffffffffffffffffffffffffffffffff1673ffffffffffffffffffffffffffffffffffffffff1614613e6a576000600660009054906101000a900473ffffffffffffffffffffffffffffffffffffffff1690508273ffffffffffffffffffffffffffffffffffffffff168173ffffffffffffffffffffffffffffffffffffffff1663c4552791866040518263ffffffff1660e01b8152600401808273ffffffffffffffffffffffffffffffffffffffff16815260200191505060206040518083038186803b158015613e0757600080fd5b505afa158015613e1b573d6000803e3d6000fd5b505050506040513d6020811015613e3157600080fd5b810190808051906020019092919050505073ffffffffffffffffffffffffffffffffffffffff161415613e68576001915050613e77565b505b613e74838361536a565b90505b92915050565b600073ffffffffffffffffffffffffffffffffffffffff168473ffffffffffffffffffffffffffffffffffffffff161415613f03576040517f08c379a0000000000000000000000000000000000000000000000000000000008152600401808060200182810382526025815260200180615ceb6025913960400191505060405180910390fd5b613f0b614417565b73ffffffffffffffffffffffffffffffffffffffff168573ffffffffffffffffffffffffffffffffffffffff161480613f515750613f5085613f4b614417565b613d0b565b5b613fa6576040517f08c379a0000000000000000000000000000000000000000000000000000000008152600401808060200182810382526029815260200180615c926029913960400191505060405180910390fd5b6000613fb0614417565b9050613fd0818787613fc1886153fe565b613fca886153fe565b876147e3565b61404d836040518060600160405280602a8152602001615d65602a91396003600088815260200190815260200160002060008a73ffffffffffffffffffffffffffffffffffffffff1673ffffffffffffffffffffffffffffffffffffffff168152602001908152602001600020546147eb9092919063ffffffff16565b6003600086815260200190815260200160002060008873ffffffffffffffffffffffffffffffffffffffff1673ffffffffffffffffffffffffffffffffffffffff16815260200190815260200160002081905550614104836003600087815260200190815260200160002060008873ffffffffffffffffffffffffffffffffffffffff1673ffffffffffffffffffffffffffffffffffffffff1681526020019081526020016000205461443990919063ffffffff16565b6003600086815260200190815260200160002060008773ffffffffffffffffffffffffffffffffffffffff1673ffffffffffffffffffffffffffffffffffffffff168152602001908152602001600020819055508473ffffffffffffffffffffffffffffffffffffffff168673ffffffffffffffffffffffffffffffffffffffff168273ffffffffffffffffffffffffffffffffffffffff167fc3d58168c5ae7397731d063d5bbf3d657854427343f4c083240f7aacaa2d0f628787604051808381526020018281526020019250505060405180910390a46141ea81878787878761546e565b505050505050565b6141fa614417565b73ffffffffffffffffffffffffffffffffffffffff16614218613145565b73ffffffffffffffffffffffffffffffffffffffff16146142a1576040517f08c379a00000000000000000000000000000000000000000000000000000000081526004018080602001828103825260208152602001807f4f776e61626c653a2063616c6c6572206973206e6f7420746865206f776e657281525060200191505060405180910390fd5b600073ffffffffffffffffffffffffffffffffffffffff168173ffffffffffffffffffffffffffffffffffffffff161415614327576040517f08c379a0000000000000000000000000000000000000000000000000000000008152600401808060200182810382526026815260200180615c486026913960400191505060405180910390fd5b8073ffffffffffffffffffffffffffffffffffffffff16600160009054906101000a900473ffffffffffffffffffffffffffffffffffffffff1673ffffffffffffffffffffffffffffffffffffffff167f8be0079c531659141344cd1fd0a4f28419497f9722a3daafe3b4186f6b6457e060405160405180910390a380600160006101000a81548173ffffffffffffffffffffffffffffffffffffffff021916908373ffffffffffffffffffffffffffffffffffffffff16021790555050565b600061440f836000018373ffffffffffffffffffffffffffffffffffffffff1660001b61577b565b905092915050565b600033905090565b80600590805190602001906144359291906159cd565b5050565b6000808284019050838110156144b7576040517f08c379a000000000000000000000000000000000000000000000000000000000815260040180806020018281038252601b8152602001807f536166654d6174683a206164646974696f6e206f766572666c6f77000000000081525060200191505060405180910390fd5b8091505092915050565b600073ffffffffffffffffffffffffffffffffffffffff168473ffffffffffffffffffffffffffffffffffffffff161415614547576040517f08c379a0000000000000000000000000000000000000000000000000000000008152600401808060200182810382526021815260200180615e2a6021913960400191505060405180910390fd5b81518351146145a1576040517f08c379a0000000000000000000000000000000000000000000000000000000008152600401808060200182810382526028815260200180615e026028913960400191505060405180910390fd5b60006145ab614417565b90506145bc816000878787876147e3565b60005b84518110156146c557614651600360008784815181106145db57fe5b6020026020010151815260200190815260200160002060008873ffffffffffffffffffffffffffffffffffffffff1673ffffffffffffffffffffffffffffffffffffffff1681526020019081526020016000205485838151811061463b57fe5b602002602001015161443990919063ffffffff16565b6003600087848151811061466157fe5b6020026020010151815260200190815260200160002060008873ffffffffffffffffffffffffffffffffffffffff1673ffffffffffffffffffffffffffffffffffffffff1681526020019081526020016000208190555080806001019150506145bf565b508473ffffffffffffffffffffffffffffffffffffffff16600073ffffffffffffffffffffffffffffffffffffffff168273ffffffffffffffffffffffffffffffffffffffff167f4a39dc06d4c0dbc64b70af90fd698a233a518aa5d07e595d983b8c0526c8f7fb8787604051808060200180602001838103835285818151815260200191508051906020019060200280838360005b8381101561477657808201518184015260208101905061475b565b50505050905001838103825284818151815260200191508051906020019060200280838360005b838110156147b857808201518184015260208101905061479d565b5050505090500194505050505060405180910390a46147dc816000878787876148a5565b5050505050565b505050505050565b6000838311158290614898576040517f08c379a00000000000000000000000000000000000000000000000000000000081526004018080602001828103825283818151815260200191508051906020019080838360005b8381101561485d578082015181840152602081019050614842565b50505050905090810190601f16801561488a5780820380516001836020036101000a031916815260200191505b509250505060405180910390fd5b5082840390509392505050565b6148c48473ffffffffffffffffffffffffffffffffffffffff166157eb565b15614c2c578373ffffffffffffffffffffffffffffffffffffffff1663bc197c8187878686866040518663ffffffff1660e01b8152600401808673ffffffffffffffffffffffffffffffffffffffff1681526020018573ffffffffffffffffffffffffffffffffffffffff168152602001806020018060200180602001848103845287818151815260200191508051906020019060200280838360005b8381101561497c578082015181840152602081019050614961565b50505050905001848103835286818151815260200191508051906020019060200280838360005b838110156149be5780820151818401526020810190506149a3565b50505050905001848103825285818151815260200191508051906020019080838360005b838110156149fd5780820151818401526020810190506149e2565b50505050905090810190601f168015614a2a5780820380516001836020036101000a031916815260200191505b5098505050505050505050602060405180830381600087803b158015614a4f57600080fd5b505af1925050508015614a8357506040513d6020811015614a6f57600080fd5b810190808051906020019092919050505060015b614b8d57614a8f615a88565b80614a9a5750614b3c565b806040517f08c379a00000000000000000000000000000000000000000000000000000000081526004018080602001828103825283818151815260200191508051906020019080838360005b83811015614b01578082015181840152602081019050614ae6565b50505050905090810190601f168015614b2e5780820380516001836020036101000a031916815260200191505b509250505060405180910390fd5b6040517f08c379a0000000000000000000000000000000000000000000000000000000008152600401808060200182810382526034815260200180615b3f6034913960400191505060405180910390fd5b63bc197c8160e01b7bffffffffffffffffffffffffffffffffffffffffffffffffffffffff1916817bffffffffffffffffffffffffffffffffffffffffffffffffffffffff191614614c2a576040517f08c379a0000000000000000000000000000000000000000000000000000000008152600401808060200182810382526028815260200180615b956028913960400191505060405180910390fd5b505b505050505050565b614c5b816000808581526020019081526020016000206000016143e790919063ffffffff16565b15614cc357614c68614417565b73ffffffffffffffffffffffffffffffffffffffff168173ffffffffffffffffffffffffffffffffffffffff16837f2f8788117e7eff1d82e926ec794901d17c78024a50270940304540a733656f0d60405160405180910390a45b5050565b614cee816000808581526020019081526020016000206000016157fe90919063ffffffff16565b15614d5657614cfb614417565b73ffffffffffffffffffffffffffffffffffffffff168173ffffffffffffffffffffffffffffffffffffffff16837ff6391f5c32d9c69d2a47ea670b442974b53935d1edc7fd64eb21e047a839171b60405160405180910390a45b5050565b600080831415614d6d5760009050614dda565b6000828402905082848281614d7e57fe5b0414614dd5576040517f08c379a0000000000000000000000000000000000000000000000000000000008152600401808060200182810382526021815260200180615d8f6021913960400191505060405180910390fd5b809150505b92915050565b600073ffffffffffffffffffffffffffffffffffffffff168373ffffffffffffffffffffffffffffffffffffffff161415614e66576040517f08c379a0000000000000000000000000000000000000000000000000000000008152600401808060200182810382526023815260200180615d426023913960400191505060405180910390fd5b6000614e70614417565b9050614ea081856000614e82876153fe565b614e8b876153fe565b604051806020016040528060008152506147e3565b614f1d82604051806060016040528060248152602001615c6e602491396003600087815260200190815260200160002060008873ffffffffffffffffffffffffffffffffffffffff1673ffffffffffffffffffffffffffffffffffffffff168152602001908152602001600020546147eb9092919063ffffffff16565b6003600085815260200190815260200160002060008673ffffffffffffffffffffffffffffffffffffffff1673ffffffffffffffffffffffffffffffffffffffff16815260200190815260200160002081905550600073ffffffffffffffffffffffffffffffffffffffff168473ffffffffffffffffffffffffffffffffffffffff168273ffffffffffffffffffffffffffffffffffffffff167fc3d58168c5ae7397731d063d5bbf3d657854427343f4c083240f7aacaa2d0f628686604051808381526020018281526020019250505060405180910390a450505050565b600073ffffffffffffffffffffffffffffffffffffffff168473ffffffffffffffffffffffffffffffffffffffff161415615082576040517f08c379a0000000000000000000000000000000000000000000000000000000008152600401808060200182810382526021815260200180615e2a6021913960400191505060405180910390fd5b600061508c614417565b90506150ad8160008761509e886153fe565b6150a7886153fe565b876147e3565b615110836003600087815260200190815260200160002060008873ffffffffffffffffffffffffffffffffffffffff1673ffffffffffffffffffffffffffffffffffffffff1681526020019081526020016000205461443990919063ffffffff16565b6003600086815260200190815260200160002060008773ffffffffffffffffffffffffffffffffffffffff1673ffffffffffffffffffffffffffffffffffffffff168152602001908152602001600020819055508473ffffffffffffffffffffffffffffffffffffffff16600073ffffffffffffffffffffffffffffffffffffffff168273ffffffffffffffffffffffffffffffffffffffff167fc3d58168c5ae7397731d063d5bbf3d657854427343f4c083240f7aacaa2d0f628787604051808381526020018281526020019250505060405180910390a46151f88160008787878761546e565b5050505050565b6000808211615276576040517f08c379a000000000000000000000000000000000000000000000000000000000815260040180806020018281038252601a8152602001807f536166654d6174683a206469766973696f6e206279207a65726f00000000000081525060200191505060405180910390fd5b81838161527f57fe5b04905092915050565b600082821115615300576040517f08c379a000000000000000000000000000000000000000000000000000000000815260040180806020018281038252601e8152602001807f536166654d6174683a207375627472616374696f6e206f766572666c6f77000081525060200191505060405180910390fd5b818303905092915050565b600061531a836000018361582e565b60001c905092915050565b600061534d836000018373ffffffffffffffffffffffffffffffffffffffff1660001b6158b1565b905092915050565b6000615363826000016158d4565b9050919050565b6000600460008473ffffffffffffffffffffffffffffffffffffffff1673ffffffffffffffffffffffffffffffffffffffff16815260200190815260200160002060008373ffffffffffffffffffffffffffffffffffffffff1673ffffffffffffffffffffffffffffffffffffffff16815260200190815260200160002060009054906101000a900460ff16905092915050565b606080600167ffffffffffffffff8111801561541957600080fd5b506040519080825280602002602001820160405280156154485781602001602082028036833780820191505090505b509050828160008151811061545957fe5b60200260200101818152505080915050919050565b61548d8473ffffffffffffffffffffffffffffffffffffffff166157eb565b15615773578373ffffffffffffffffffffffffffffffffffffffff1663f23a6e6187878686866040518663ffffffff1660e01b8152600401808673ffffffffffffffffffffffffffffffffffffffff1681526020018573ffffffffffffffffffffffffffffffffffffffff16815260200184815260200183815260200180602001828103825283818151815260200191508051906020019080838360005b8381101561554657808201518184015260208101905061552b565b50505050905090810190601f1680156155735780820380516001836020036101000a031916815260200191505b509650505050505050602060405180830381600087803b15801561559657600080fd5b505af19250505080156155ca57506040513d60208110156155b657600080fd5b810190808051906020019092919050505060015b6156d4576155d6615a88565b806155e15750615683565b806040517f08c379a00000000000000000000000000000000000000000000000000000000081526004018080602001828103825283818151815260200191508051906020019080838360005b8381101561564857808201518184015260208101905061562d565b50505050905090810190601f1680156156755780820380516001836020036101000a031916815260200191505b509250505060405180910390fd5b6040517f08c379a0000000000000000000000000000000000000000000000000000000008152600401808060200182810382526034815260200180615b3f6034913960400191505060405180910390fd5b63f23a6e6160e01b7bffffffffffffffffffffffffffffffffffffffffffffffffffffffff1916817bffffffffffffffffffffffffffffffffffffffffffffffffffffffff191614615771576040517f08c379a0000000000000000000000000000000000000000000000000000000008152600401808060200182810382526028815260200180615b956028913960400191505060405180910390fd5b505b505050505050565b600061578783836158b1565b6157e05782600001829080600181540180825580915050600190039060005260206000200160009091909190915055826000018054905083600101600084815260200190815260200160002081905550600190506157e5565b600090505b92915050565b600080823b905060008111915050919050565b6000615826836000018373ffffffffffffffffffffffffffffffffffffffff1660001b6158e5565b905092915050565b60008183600001805490501161588f576040517f08c379a0000000000000000000000000000000000000000000000000000000008152600401808060200182810382526022815260200180615b736022913960400191505060405180910390fd5b82600001828154811061589e57fe5b9060005260206000200154905092915050565b600080836001016000848152602001908152602001600020541415905092915050565b600081600001805490509050919050565b600080836001016000848152602001908152602001600020549050600081146159c1576000600182039050600060018660000180549050039050600086600001828154811061593057fe5b906000526020600020015490508087600001848154811061594d57fe5b906000526020600020018190555060018301876001016000838152602001908152602001600020819055508660000180548061598557fe5b600190038181906000526020600020016000905590558660010160008781526020019081526020016000206000905560019450505050506159c7565b60009150505b92915050565b828054600181600116156101000203166002900490600052602060002090601f016020900481019282601f10615a0e57805160ff1916838001178555615a3c565b82800160010185558215615a3c579182015b82811115615a3b578251825591602001919060010190615a20565b5b509050615a499190615a4d565b5090565b5b80821115615a66576000816000905550600101615a4e565b5090565b6000601f19601f8301169050919050565b60008160e01c9050919050565b600060443d1015615a9857615b3b565b60046000803e615aa9600051615a7b565b6308c379a08114615aba5750615b3b565b60405160043d036004823e80513d602482011167ffffffffffffffff82111715615ae657505050615b3b565b808201805167ffffffffffffffff811115615b05575050505050615b3b565b8060208301013d8501811115615b2057505050505050615b3b565b615b2982615a6a565b60208401016040528296505050505050505b9056fe455243313135353a207472616e7366657220746f206e6f6e2045524331313535526563656976657220696d706c656d656e746572456e756d657261626c655365743a20696e646578206f7574206f6620626f756e6473455243313135353a204552433131353552656365697665722072656a656374656420746f6b656e73416363657373436f6e74726f6c3a2073656e646572206d75737420626520616e2061646d696e20746f206772616e74455243313135353a2062616c616e636520717565727920666f7220746865207a65726f2061646472657373455243313135353a2062617463682062616c616e636520717565727920666f7220746865207a65726f20616464726573734f776e61626c653a206e6577206f776e657220697320746865207a65726f2061646472657373455243313135353a206275726e20616d6f756e7420657863656564732062616c616e6365455243313135353a2063616c6c6572206973206e6f74206f776e6572206e6f7220617070726f766564416363657373436f6e74726f6c3a2073656e646572206d75737420626520616e2061646d696e20746f207265766f6b65455243313135353a207472616e7366657220746f20746865207a65726f2061646472657373455243313135353a207472616e736665722063616c6c6572206973206e6f74206f776e6572206e6f7220617070726f766564455243313135353a206275726e2066726f6d20746865207a65726f2061646472657373455243313135353a20696e73756666696369656e742062616c616e636520666f72207472616e73666572536166654d6174683a206d756c7469706c69636174696f6e206f766572666c6f77455243313135353a2073657474696e6720617070726f76616c2073746174757320666f722073656c66455243313135353a206163636f756e747320616e6420696473206c656e677468206d69736d61746368455243313135353a2069647320616e6420616d6f756e7473206c656e677468206d69736d61746368455243313135353a206d696e7420746f20746865207a65726f2061646472657373416363657373436f6e74726f6c3a2063616e206f6e6c792072656e6f756e636520726f6c657320666f722073656c66a26469706673582212204ddf2184d1448055bf9bd1cf7632593945567c6094306a6635867223df1c0bbf64736f6c634300060c0033",
  "immutableReferences": {},
  "source": "// SPDX-License-Identifier: MIT\n\npragma solidity ^0.6.0;\n\nimport \"./BaseERC1155.sol\";\nimport \"./NamingContract.sol\";\nimport \"./escape/EscapeToken.sol\";\n\n/**\n * @title ESTile\n * ESTile - a contract for semi-fungible tokens\n */\ncontract ESTile is BaseERC1155\n{\n  using SafeMath for uint256;\n\n  uint256 seed;\n\n  EscapeToken internal escapeTokenContract;\n  NamingContract internal namingContract;\n\n  // Keep track of each token type that we allocate - these are the tile tokens\n  // and the full puzzle tokens. \n  mapping (uint256 => uint256) public tokenCounts;\n\n  // For each scene, we have N puzzles with H*W puzzle tiles - keep track of em.\n  mapping (uint256 => mapping( uint256 => uint256[])) public sceneToPuzzleTileTokens;\n\n  // Finally, each scene and each puzzle in that scene has a unique token to \n  // signify burning the tiles and owning the finished puzzle. This also means\n  // that the creator of this token would have earned any possibly credits left\n  // in this scenes reward pool.\n  mapping (uint256 => mapping( uint256 => uint256)) internal sceneToPuzzleToken;\n\n  /*\n   *  Scenes are N number of pictures that have been split into a jigsaw. \n   *  Etherscapes are usually 6x4 tile puzzles and each scene will have N\n   *  number of images within the scene - some unlockable via the packs for \n   *  sale, some unlockable only via solving puzzles (collect all 24 tiles in a\n   *  single puzzle).\n   */\n  struct Scene {\n    bool exists;\n    \n    // The number of purchaseable vs unlockable puzzles.\n    uint256 numPuzzles;\n    \n    // These are the dimensions of all tiles in this scene.\n    uint256 tilesWide;\n    uint256 tilesHigh;\n\n    uint256 puzzleRewardTotal; // Total ESCAPE credits mintable for this scene.\n    uint256 puzzleRewardRate;  // Rate at which each puzzle will drain the total 5 => .05% => 5/10000\n\n    uint256 startToken;\n    uint256 numTiles;\n  }\n\n  // TODO: internal\n  uint256 sceneCount;\n  mapping (uint256 => Scene) public scenes;\n  mapping (uint256 => uint256) public sceneRewardLeft;\n\n  /*\n   *  Constructor!\n   */\n  constructor(\n    string memory _uri,\n    address _proxyRegistryAddress,\n    address _escapeERC20Address,\n    address _namingContractAddress\n  )\n    BaseERC1155(\n      \"EtherScape puzzle tile\",\n      \"ESCtile\",\n      _uri,\n      _proxyRegistryAddress\n    )\n    public\n  {\n      maxTokenID = 1;\n      escapeTokenContract = EscapeToken(_escapeERC20Address);\n      namingContract = NamingContract(_namingContractAddress);\n  }\n\n\n/**\n * Only Token Creator Functions\n **/\n\n  /*\n   *  Assign a scene worth of tokens, this will be based on the sceneId, the\n   *  puzzleId and then width x height of tokens.\n   */\n  function createScene(\n    uint256 sceneId,\n    uint256 numPuzzles,\n    uint256 puzzleHeight,\n    uint256 puzzleWidth,\n    uint256 puzzleRewardTotal,\n    uint256 puzzleRewardRate\n  )\n    external\n  {\n    require(hasRole(CREATOR_ROLE, _msgSender()), \"not a creator\");\n    require(numPuzzles > 0 && puzzleHeight > 0 && puzzleWidth > 0, \"bad dims\");\n    require(scenes[sceneId].exists == false, \"scene already here\");\n\n    Scene storage s = scenes[sceneId];\n    s.exists = true;\n    s.numPuzzles = numPuzzles;\n    s.tilesHigh = puzzleHeight;\n    s.tilesWide = puzzleWidth;\n    s.puzzleRewardTotal = puzzleRewardTotal;\n    s.puzzleRewardRate = puzzleRewardRate;\n    \n    // Setup the total scene reward for this scene that is available.\n    sceneRewardLeft[sceneId] = puzzleRewardTotal;\n\n    uint256 tid = maxTokenID;\n    s.startToken = tid;\n    s.numTiles = numPuzzles.mul(puzzleWidth.mul(puzzleHeight));\n\n    /*\n     *  Create tokens to represent each puzzle in this scene. \n     *\n     *  Each puzzle will have one additional token to track the completed puzzle\n     *  that can only be acquired by burning all the subsequent puzzle tiles (1\n     *  of each that make up the image).\n     */\n    for (uint256 _p = 0; _p < numPuzzles; _p++) {\n      for (uint256 _h = 0; _h < puzzleHeight; _h++) {\n        for (uint256 _w = 0; _w < puzzleWidth; _w++) {\n          sceneToPuzzleTileTokens[sceneId][_p].push(tid);\n          tid = tid.add(1);\n        }\n      }\n    }\n    for (uint256 _p = 0; _p < numPuzzles; _p++) {\n      sceneToPuzzleToken[sceneId][_p] = tid;\n      tid = tid.add(1);\n    }\n\n    // Update latest id with the last \n    maxTokenID = tid;\n  }\n  function scenePuzzles(uint256 sceneId) view external returns (uint256) {\n    return scenes[sceneId].numPuzzles;\n  }\n  function sceneTiles(uint256 sceneId) view external returns (uint256) {\n    return scenes[sceneId].tilesWide.mul(scenes[sceneId].tilesHigh);\n  }\n  function sceneExists(uint256 sceneId) view external returns (bool) {\n    return (scenes[sceneId].exists == true);\n  }\n  function puzzleRewardInfo(uint256 sceneId) view external returns (uint256, uint256, uint256) {\n    return (scenes[sceneId].puzzleRewardTotal, scenes[sceneId].puzzleRewardRate, sceneRewardLeft[sceneId]);\n  }\n\n/*\n *  Public.\n */\n//   function randomSceneTile(uint256 _sceneId) external returns (uint256) {\n//     uint pidx = _random().mod(scenes[_sceneId].numPuzzles);\n//     uint tidx = _random().mod(scenes[_sceneId].tilesHigh.mul(scenes[_sceneId].tilesWide));\n//     return sceneToPuzzleTileTokens[_sceneId][pidx][tidx];\n//   }\n\n\n  function tokenRangeForScene(uint256 sceneId) view public returns (uint256, uint256, uint256) {\n    // Tokens start at (1 -> puzzles in scene * tiles per puzzle) +  puzzles in scene.\n    return (scenes[sceneId].startToken, scenes[sceneId].numTiles, scenes[sceneId].numPuzzles);\n  }\n\n  /*\n   *  For a given scene, and puzzle - checks that the sender owns at-least one \n   *  each of the tile tokens that make up the puzzle. If so the sender burns \n   *  the tokens, and two items are awarded to the sender:\n   *    1. A completed token for the scene / puzzle\n   *    2. A randomly choosen reward pack potentially of a limited scene\n   *    The second reward might have to be figured out by the TilePack. In this\n   *    case the tile pack would need to be the one that `redeemPuzzle`s.\n   */\n  function redeemPuzzle(uint256 sceneId, uint256 puzzleId) external returns (uint256) {\n    require(scenes[sceneId].exists == true, \"scene does not exist\");\n    require(puzzleId < scenes[sceneId].numPuzzles, \"invalid puzzle requested\");\n    \n    uint256 puzzleTokenId = sceneToPuzzleToken[sceneId][puzzleId];\n    require(puzzleTokenId != 0, \"invalid puzzle token\");\n    \n    uint256 tilesPerPuzzle = scenes[sceneId].tilesHigh.mul(scenes[sceneId].tilesWide);\n    for (uint256 i = 0; i < tilesPerPuzzle; i++) {\n        if (balanceOf(msg.sender, sceneToPuzzleTileTokens[sceneId][puzzleId][i]) <= 0) {\n            revert(\"do not have all puzzle tokens\");\n        }\n    }\n    for (uint256 i = 0; i < tilesPerPuzzle; i++) {\n        _burn(msg.sender, sceneToPuzzleTileTokens[sceneId][puzzleId][i], 1);\n    }\n    \n    // Figure out the reward (full image token) for this pictureId and award it\n    // the the sender who just burned all their puzzle tokens!\n    _mint(msg.sender, puzzleTokenId, 1, \"\");\n\n    // Mint additional ESCAPE tokens for the puzzle solver. The reward that the \n    // solver gets is the `left * (rate / 10000)` of the pool. This can be per\n    // scene - and can be set to something like 5% (500) for example.\n    if (sceneRewardLeft[sceneId] > 0) {\n      uint256 amt = sceneRewardLeft[sceneId].mul(500).div(10000);\n      sceneRewardLeft[sceneId] = sceneRewardLeft[sceneId].sub(amt);\n      escapeTokenContract.mintForAccount(msg.sender, amt);\n    }\n  }\n\n  function nameScenePuzzle(uint256 sceneId, uint256 puzzleId, string calldata name) external {\n    require(scenes[sceneId].exists == true, \"scene does not exist\");\n    require(puzzleId < scenes[sceneId].numPuzzles, \"invalid puzzle requested\");\n    uint256 puzzleTokenId = sceneToPuzzleToken[sceneId][puzzleId];\n    require(balanceOf(msg.sender, puzzleTokenId) > 0, \"only rename owned puzzles\");\n    namingContract.nameTokenFor(msg.sender, puzzleTokenId, name);\n  }\n\n  function getScenePuzzleInfo(uint256 sceneId, uint256 puzzleId) public view returns (uint256, string memory, address) {\n    return namingContract.tokenNameInfo(sceneToPuzzleToken[sceneId][puzzleId]);\n  }\n}\n",
  "sourcePath": "/Users/shaba/work/github/private/crypto/etherscapes/contract/contracts/ESTile.sol",
  "compiler": {
    "name": "solc",
    "version": "0.6.12+commit.27d51765.Emscripten.clang"
  },
  "schemaVersion": "3.3.3",
  "updatedAt": "2021-02-08T22:06:04.474Z",
  "networkType": "ethereum",
  "devdoc": {
    "kind": "dev",
    "methods": {
      "balanceOf(address,uint256)": {
        "details": "See {IERC1155-balanceOf}. Requirements: - `account` cannot be the zero address."
      },
      "balanceOfBatch(address[],uint256[])": {
        "details": "See {IERC1155-balanceOfBatch}. Requirements: - `accounts` and `ids` must have the same length."
      },
      "getRoleAdmin(bytes32)": {
        "details": "Returns the admin role that controls `role`. See {grantRole} and {revokeRole}. To change a role's admin, use {_setRoleAdmin}."
      },
      "getRoleMember(bytes32,uint256)": {
        "details": "Returns one of the accounts that have `role`. `index` must be a value between 0 and {getRoleMemberCount}, non-inclusive. Role bearers are not sorted in any particular way, and their ordering may change at any point. WARNING: When using {getRoleMember} and {getRoleMemberCount}, make sure you perform all queries on the same block. See the following https://forum.openzeppelin.com/t/iterating-over-elements-on-enumerableset-in-openzeppelin-contracts/2296[forum post] for more information."
      },
      "getRoleMemberCount(bytes32)": {
        "details": "Returns the number of accounts that have `role`. Can be used together with {getRoleMember} to enumerate all bearers of a role."
      },
      "grantRole(bytes32,address)": {
        "details": "Grants `role` to `account`. If `account` had not been already granted `role`, emits a {RoleGranted} event. Requirements: - the caller must have ``role``'s admin role."
      },
      "hasRole(bytes32,address)": {
        "details": "Returns `true` if `account` has been granted `role`."
      },
      "owner()": {
        "details": "Returns the address of the current owner."
      },
      "renounceOwnership()": {
        "details": "Leaves the contract without owner. It will not be possible to call `onlyOwner` functions anymore. Can only be called by the current owner. NOTE: Renouncing ownership will leave the contract without an owner, thereby removing any functionality that is only available to the owner."
      },
      "renounceRole(bytes32,address)": {
        "details": "Revokes `role` from the calling account. Roles are often managed via {grantRole} and {revokeRole}: this function's purpose is to provide a mechanism for accounts to lose their privileges if they are compromised (such as when a trusted device is misplaced). If the calling account had been granted `role`, emits a {RoleRevoked} event. Requirements: - the caller must be `account`."
      },
      "revokeRole(bytes32,address)": {
        "details": "Revokes `role` from `account`. If `account` had been granted `role`, emits a {RoleRevoked} event. Requirements: - the caller must have ``role``'s admin role."
      },
      "safeBatchTransferFrom(address,address,uint256[],uint256[],bytes)": {
        "details": "See {IERC1155-safeBatchTransferFrom}."
      },
      "safeTransferFrom(address,address,uint256,uint256,bytes)": {
        "details": "See {IERC1155-safeTransferFrom}."
      },
      "setApprovalForAll(address,bool)": {
        "details": "See {IERC1155-setApprovalForAll}."
      },
      "supportsInterface(bytes4)": {
        "details": "See {IERC165-supportsInterface}. Time complexity O(1), guaranteed to always use less than 30 000 gas."
      },
      "transferOwnership(address)": {
        "details": "Transfers ownership of the contract to a new account (`newOwner`). Can only be called by the current owner."
      },
      "uri(uint256)": {
        "details": "See {IERC1155MetadataURI-uri}. This implementation returns the same URI for *all* token types. It relies on the token type ID substituion mechanism https://eips.ethereum.org/EIPS/eip-1155#metadata[defined in the EIP]. Clients calling this function must replace the `\\{id\\}` substring with the actual token type ID."
      }
    },
    "title": "ESTile ESTile - a contract for semi-fungible tokens",
    "version": 1
  },
  "userdoc": {
    "kind": "user",
    "methods": {
      "createScene(uint256,uint256,uint256,uint256,uint256,uint256)": {
        "notice": "Only Token Creator Functions*"
      },
      "grantAdmin(bytes32,address)": {
        "notice": "Only Token Creator Admin Functions*"
      },
      "isApprovedForAll(address,address)": {
        "notice": "Override isApprovedForAll to whitelist user's OpenSea proxy accounts to enable gas-free listings."
      },
      "mint(address,uint256,uint256,bytes)": {
        "notice": "Only Token Minter Functions*"
      },
      "setProxyRegistryAddress(address)": {
        "notice": "Only Owner Functions*"
      }
    },
    "version": 1
  }
}