{
  "contractName": "ESTile",
  "abi": [
    {
      "inputs": [
        {
          "internalType": "string",
          "name": "_uri",
          "type": "string"
        },
        {
          "internalType": "address",
          "name": "_proxyRegistryAddress",
          "type": "address"
        },
        {
          "internalType": "address",
          "name": "_escapeERC20Address",
          "type": "address"
        },
        {
          "internalType": "address",
          "name": "_namingContractAddress",
          "type": "address"
        }
      ],
      "stateMutability": "nonpayable",
      "type": "constructor"
    },
    {
      "anonymous": false,
      "inputs": [
        {
          "indexed": true,
          "internalType": "address",
          "name": "account",
          "type": "address"
        },
        {
          "indexed": true,
          "internalType": "address",
          "name": "operator",
          "type": "address"
        },
        {
          "indexed": false,
          "internalType": "bool",
          "name": "approved",
          "type": "bool"
        }
      ],
      "name": "ApprovalForAll",
      "type": "event"
    },
    {
      "anonymous": false,
      "inputs": [
        {
          "indexed": true,
          "internalType": "address",
          "name": "previousOwner",
          "type": "address"
        },
        {
          "indexed": true,
          "internalType": "address",
          "name": "newOwner",
          "type": "address"
        }
      ],
      "name": "OwnershipTransferred",
      "type": "event"
    },
    {
      "anonymous": false,
      "inputs": [
        {
          "indexed": true,
          "internalType": "bytes32",
          "name": "role",
          "type": "bytes32"
        },
        {
          "indexed": true,
          "internalType": "bytes32",
          "name": "previousAdminRole",
          "type": "bytes32"
        },
        {
          "indexed": true,
          "internalType": "bytes32",
          "name": "newAdminRole",
          "type": "bytes32"
        }
      ],
      "name": "RoleAdminChanged",
      "type": "event"
    },
    {
      "anonymous": false,
      "inputs": [
        {
          "indexed": true,
          "internalType": "bytes32",
          "name": "role",
          "type": "bytes32"
        },
        {
          "indexed": true,
          "internalType": "address",
          "name": "account",
          "type": "address"
        },
        {
          "indexed": true,
          "internalType": "address",
          "name": "sender",
          "type": "address"
        }
      ],
      "name": "RoleGranted",
      "type": "event"
    },
    {
      "anonymous": false,
      "inputs": [
        {
          "indexed": true,
          "internalType": "bytes32",
          "name": "role",
          "type": "bytes32"
        },
        {
          "indexed": true,
          "internalType": "address",
          "name": "account",
          "type": "address"
        },
        {
          "indexed": true,
          "internalType": "address",
          "name": "sender",
          "type": "address"
        }
      ],
      "name": "RoleRevoked",
      "type": "event"
    },
    {
      "anonymous": false,
      "inputs": [
        {
          "indexed": true,
          "internalType": "address",
          "name": "operator",
          "type": "address"
        },
        {
          "indexed": true,
          "internalType": "address",
          "name": "from",
          "type": "address"
        },
        {
          "indexed": true,
          "internalType": "address",
          "name": "to",
          "type": "address"
        },
        {
          "indexed": false,
          "internalType": "uint256[]",
          "name": "ids",
          "type": "uint256[]"
        },
        {
          "indexed": false,
          "internalType": "uint256[]",
          "name": "values",
          "type": "uint256[]"
        }
      ],
      "name": "TransferBatch",
      "type": "event"
    },
    {
      "anonymous": false,
      "inputs": [
        {
          "indexed": true,
          "internalType": "address",
          "name": "operator",
          "type": "address"
        },
        {
          "indexed": true,
          "internalType": "address",
          "name": "from",
          "type": "address"
        },
        {
          "indexed": true,
          "internalType": "address",
          "name": "to",
          "type": "address"
        },
        {
          "indexed": false,
          "internalType": "uint256",
          "name": "id",
          "type": "uint256"
        },
        {
          "indexed": false,
          "internalType": "uint256",
          "name": "value",
          "type": "uint256"
        }
      ],
      "name": "TransferSingle",
      "type": "event"
    },
    {
      "anonymous": false,
      "inputs": [
        {
          "indexed": false,
          "internalType": "string",
          "name": "value",
          "type": "string"
        },
        {
          "indexed": true,
          "internalType": "uint256",
          "name": "id",
          "type": "uint256"
        }
      ],
      "name": "URI",
      "type": "event"
    },
    {
      "inputs": [],
      "name": "CREATOR_ADMIN_ROLE",
      "outputs": [
        {
          "internalType": "bytes32",
          "name": "",
          "type": "bytes32"
        }
      ],
      "stateMutability": "view",
      "type": "function",
      "constant": true
    },
    {
      "inputs": [],
      "name": "CREATOR_ROLE",
      "outputs": [
        {
          "internalType": "bytes32",
          "name": "",
          "type": "bytes32"
        }
      ],
      "stateMutability": "view",
      "type": "function",
      "constant": true
    },
    {
      "inputs": [],
      "name": "DEFAULT_ADMIN_ROLE",
      "outputs": [
        {
          "internalType": "bytes32",
          "name": "",
          "type": "bytes32"
        }
      ],
      "stateMutability": "view",
      "type": "function",
      "constant": true
    },
    {
      "inputs": [],
      "name": "MINTER_ADMIN_ROLE",
      "outputs": [
        {
          "internalType": "bytes32",
          "name": "",
          "type": "bytes32"
        }
      ],
      "stateMutability": "view",
      "type": "function",
      "constant": true
    },
    {
      "inputs": [],
      "name": "MINTER_ROLE",
      "outputs": [
        {
          "internalType": "bytes32",
          "name": "",
          "type": "bytes32"
        }
      ],
      "stateMutability": "view",
      "type": "function",
      "constant": true
    },
    {
      "inputs": [
        {
          "internalType": "address",
          "name": "account",
          "type": "address"
        },
        {
          "internalType": "uint256",
          "name": "id",
          "type": "uint256"
        }
      ],
      "name": "balanceOf",
      "outputs": [
        {
          "internalType": "uint256",
          "name": "",
          "type": "uint256"
        }
      ],
      "stateMutability": "view",
      "type": "function",
      "constant": true
    },
    {
      "inputs": [
        {
          "internalType": "address[]",
          "name": "accounts",
          "type": "address[]"
        },
        {
          "internalType": "uint256[]",
          "name": "ids",
          "type": "uint256[]"
        }
      ],
      "name": "balanceOfBatch",
      "outputs": [
        {
          "internalType": "uint256[]",
          "name": "",
          "type": "uint256[]"
        }
      ],
      "stateMutability": "view",
      "type": "function",
      "constant": true
    },
    {
      "inputs": [
        {
          "internalType": "bytes32",
          "name": "role",
          "type": "bytes32"
        }
      ],
      "name": "getRoleAdmin",
      "outputs": [
        {
          "internalType": "bytes32",
          "name": "",
          "type": "bytes32"
        }
      ],
      "stateMutability": "view",
      "type": "function",
      "constant": true
    },
    {
      "inputs": [
        {
          "internalType": "bytes32",
          "name": "role",
          "type": "bytes32"
        },
        {
          "internalType": "uint256",
          "name": "index",
          "type": "uint256"
        }
      ],
      "name": "getRoleMember",
      "outputs": [
        {
          "internalType": "address",
          "name": "",
          "type": "address"
        }
      ],
      "stateMutability": "view",
      "type": "function",
      "constant": true
    },
    {
      "inputs": [
        {
          "internalType": "bytes32",
          "name": "role",
          "type": "bytes32"
        }
      ],
      "name": "getRoleMemberCount",
      "outputs": [
        {
          "internalType": "uint256",
          "name": "",
          "type": "uint256"
        }
      ],
      "stateMutability": "view",
      "type": "function",
      "constant": true
    },
    {
      "inputs": [
        {
          "internalType": "bytes32",
          "name": "_adminRole",
          "type": "bytes32"
        },
        {
          "internalType": "address",
          "name": "_address",
          "type": "address"
        }
      ],
      "name": "grantAdmin",
      "outputs": [],
      "stateMutability": "nonpayable",
      "type": "function"
    },
    {
      "inputs": [
        {
          "internalType": "bytes32",
          "name": "role",
          "type": "bytes32"
        },
        {
          "internalType": "address",
          "name": "account",
          "type": "address"
        }
      ],
      "name": "grantRole",
      "outputs": [],
      "stateMutability": "nonpayable",
      "type": "function"
    },
    {
      "inputs": [
        {
          "internalType": "bytes32",
          "name": "role",
          "type": "bytes32"
        },
        {
          "internalType": "address",
          "name": "account",
          "type": "address"
        }
      ],
      "name": "hasRole",
      "outputs": [
        {
          "internalType": "bool",
          "name": "",
          "type": "bool"
        }
      ],
      "stateMutability": "view",
      "type": "function",
      "constant": true
    },
    {
      "inputs": [
        {
          "internalType": "address",
          "name": "_owner",
          "type": "address"
        },
        {
          "internalType": "address",
          "name": "_operator",
          "type": "address"
        }
      ],
      "name": "isApprovedForAll",
      "outputs": [
        {
          "internalType": "bool",
          "name": "isOperator",
          "type": "bool"
        }
      ],
      "stateMutability": "view",
      "type": "function",
      "constant": true
    },
    {
      "inputs": [],
      "name": "maxTokenID",
      "outputs": [
        {
          "internalType": "uint256",
          "name": "",
          "type": "uint256"
        }
      ],
      "stateMutability": "view",
      "type": "function",
      "constant": true
    },
    {
      "inputs": [
        {
          "internalType": "address",
          "name": "_to",
          "type": "address"
        },
        {
          "internalType": "uint256",
          "name": "_id",
          "type": "uint256"
        },
        {
          "internalType": "uint256",
          "name": "_quantity",
          "type": "uint256"
        },
        {
          "internalType": "bytes",
          "name": "_data",
          "type": "bytes"
        }
      ],
      "name": "mint",
      "outputs": [],
      "stateMutability": "nonpayable",
      "type": "function"
    },
    {
      "inputs": [
        {
          "internalType": "address",
          "name": "_to",
          "type": "address"
        },
        {
          "internalType": "uint256[]",
          "name": "_ids",
          "type": "uint256[]"
        },
        {
          "internalType": "uint256[]",
          "name": "_quantities",
          "type": "uint256[]"
        },
        {
          "internalType": "bytes",
          "name": "_data",
          "type": "bytes"
        }
      ],
      "name": "mintBatch",
      "outputs": [],
      "stateMutability": "nonpayable",
      "type": "function"
    },
    {
      "inputs": [],
      "name": "name",
      "outputs": [
        {
          "internalType": "string",
          "name": "",
          "type": "string"
        }
      ],
      "stateMutability": "view",
      "type": "function",
      "constant": true
    },
    {
      "inputs": [],
      "name": "owner",
      "outputs": [
        {
          "internalType": "address",
          "name": "",
          "type": "address"
        }
      ],
      "stateMutability": "view",
      "type": "function",
      "constant": true
    },
    {
      "inputs": [],
      "name": "renounceOwnership",
      "outputs": [],
      "stateMutability": "nonpayable",
      "type": "function"
    },
    {
      "inputs": [
        {
          "internalType": "bytes32",
          "name": "role",
          "type": "bytes32"
        },
        {
          "internalType": "address",
          "name": "account",
          "type": "address"
        }
      ],
      "name": "renounceRole",
      "outputs": [],
      "stateMutability": "nonpayable",
      "type": "function"
    },
    {
      "inputs": [
        {
          "internalType": "bytes32",
          "name": "_adminRole",
          "type": "bytes32"
        },
        {
          "internalType": "address",
          "name": "_address",
          "type": "address"
        }
      ],
      "name": "revokeAdmin",
      "outputs": [],
      "stateMutability": "nonpayable",
      "type": "function"
    },
    {
      "inputs": [
        {
          "internalType": "bytes32",
          "name": "role",
          "type": "bytes32"
        },
        {
          "internalType": "address",
          "name": "account",
          "type": "address"
        }
      ],
      "name": "revokeRole",
      "outputs": [],
      "stateMutability": "nonpayable",
      "type": "function"
    },
    {
      "inputs": [
        {
          "internalType": "address",
          "name": "from",
          "type": "address"
        },
        {
          "internalType": "address",
          "name": "to",
          "type": "address"
        },
        {
          "internalType": "uint256[]",
          "name": "ids",
          "type": "uint256[]"
        },
        {
          "internalType": "uint256[]",
          "name": "amounts",
          "type": "uint256[]"
        },
        {
          "internalType": "bytes",
          "name": "data",
          "type": "bytes"
        }
      ],
      "name": "safeBatchTransferFrom",
      "outputs": [],
      "stateMutability": "nonpayable",
      "type": "function"
    },
    {
      "inputs": [
        {
          "internalType": "address",
          "name": "from",
          "type": "address"
        },
        {
          "internalType": "address",
          "name": "to",
          "type": "address"
        },
        {
          "internalType": "uint256",
          "name": "id",
          "type": "uint256"
        },
        {
          "internalType": "uint256",
          "name": "amount",
          "type": "uint256"
        },
        {
          "internalType": "bytes",
          "name": "data",
          "type": "bytes"
        }
      ],
      "name": "safeTransferFrom",
      "outputs": [],
      "stateMutability": "nonpayable",
      "type": "function"
    },
    {
      "inputs": [
        {
          "internalType": "uint256",
          "name": "",
          "type": "uint256"
        },
        {
          "internalType": "uint256",
          "name": "",
          "type": "uint256"
        },
        {
          "internalType": "uint256",
          "name": "",
          "type": "uint256"
        }
      ],
      "name": "sceneToPuzzleTileTokens",
      "outputs": [
        {
          "internalType": "uint256",
          "name": "",
          "type": "uint256"
        }
      ],
      "stateMutability": "view",
      "type": "function",
      "constant": true
    },
    {
      "inputs": [
        {
          "internalType": "address",
          "name": "operator",
          "type": "address"
        },
        {
          "internalType": "bool",
          "name": "approved",
          "type": "bool"
        }
      ],
      "name": "setApprovalForAll",
      "outputs": [],
      "stateMutability": "nonpayable",
      "type": "function"
    },
    {
      "inputs": [
        {
          "internalType": "address",
          "name": "_proxyRegistryAddress",
          "type": "address"
        }
      ],
      "name": "setProxyRegistryAddress",
      "outputs": [],
      "stateMutability": "nonpayable",
      "type": "function"
    },
    {
      "inputs": [
        {
          "internalType": "string",
          "name": "_newBaseMetadataURI",
          "type": "string"
        }
      ],
      "name": "setURI",
      "outputs": [],
      "stateMutability": "nonpayable",
      "type": "function"
    },
    {
      "inputs": [
        {
          "internalType": "bytes4",
          "name": "interfaceId",
          "type": "bytes4"
        }
      ],
      "name": "supportsInterface",
      "outputs": [
        {
          "internalType": "bool",
          "name": "",
          "type": "bool"
        }
      ],
      "stateMutability": "view",
      "type": "function",
      "constant": true
    },
    {
      "inputs": [],
      "name": "symbol",
      "outputs": [
        {
          "internalType": "string",
          "name": "",
          "type": "string"
        }
      ],
      "stateMutability": "view",
      "type": "function",
      "constant": true
    },
    {
      "inputs": [
        {
          "internalType": "uint256",
          "name": "",
          "type": "uint256"
        }
      ],
      "name": "tokenCounts",
      "outputs": [
        {
          "internalType": "uint256",
          "name": "",
          "type": "uint256"
        }
      ],
      "stateMutability": "view",
      "type": "function",
      "constant": true
    },
    {
      "inputs": [
        {
          "internalType": "uint256",
          "name": "",
          "type": "uint256"
        }
      ],
      "name": "totalSupply",
      "outputs": [
        {
          "internalType": "uint256",
          "name": "",
          "type": "uint256"
        }
      ],
      "stateMutability": "view",
      "type": "function",
      "constant": true
    },
    {
      "inputs": [
        {
          "internalType": "address",
          "name": "newOwner",
          "type": "address"
        }
      ],
      "name": "transferOwnership",
      "outputs": [],
      "stateMutability": "nonpayable",
      "type": "function"
    },
    {
      "inputs": [
        {
          "internalType": "uint256",
          "name": "",
          "type": "uint256"
        }
      ],
      "name": "uri",
      "outputs": [
        {
          "internalType": "string",
          "name": "",
          "type": "string"
        }
      ],
      "stateMutability": "view",
      "type": "function",
      "constant": true
    },
    {
      "inputs": [
        {
          "internalType": "uint256",
          "name": "sceneId",
          "type": "uint256"
        },
        {
          "internalType": "uint256",
          "name": "numPuzzles",
          "type": "uint256"
        },
        {
          "internalType": "uint256",
          "name": "puzzleHeight",
          "type": "uint256"
        },
        {
          "internalType": "uint256",
          "name": "puzzleWidth",
          "type": "uint256"
        },
        {
          "internalType": "uint256",
          "name": "puzzleRewardTotal",
          "type": "uint256"
        },
        {
          "internalType": "uint256",
          "name": "puzzleRewardRate",
          "type": "uint256"
        }
      ],
      "name": "createScene",
      "outputs": [],
      "stateMutability": "nonpayable",
      "type": "function"
    },
    {
      "inputs": [],
      "name": "numScenes",
      "outputs": [
        {
          "internalType": "uint256",
          "name": "",
          "type": "uint256"
        }
      ],
      "stateMutability": "view",
      "type": "function",
      "constant": true
    },
    {
      "inputs": [
        {
          "internalType": "uint256",
          "name": "sceneId",
          "type": "uint256"
        }
      ],
      "name": "scenePuzzles",
      "outputs": [
        {
          "internalType": "uint256",
          "name": "",
          "type": "uint256"
        }
      ],
      "stateMutability": "view",
      "type": "function",
      "constant": true
    },
    {
      "inputs": [
        {
          "internalType": "uint256",
          "name": "sceneId",
          "type": "uint256"
        }
      ],
      "name": "sceneTiles",
      "outputs": [
        {
          "internalType": "uint256",
          "name": "",
          "type": "uint256"
        }
      ],
      "stateMutability": "view",
      "type": "function",
      "constant": true
    },
    {
      "inputs": [
        {
          "internalType": "uint256",
          "name": "sceneId",
          "type": "uint256"
        }
      ],
      "name": "sceneExists",
      "outputs": [
        {
          "internalType": "bool",
          "name": "",
          "type": "bool"
        }
      ],
      "stateMutability": "view",
      "type": "function",
      "constant": true
    },
    {
      "inputs": [
        {
          "internalType": "uint256",
          "name": "sceneId",
          "type": "uint256"
        }
      ],
      "name": "puzzleRewardInfo",
      "outputs": [
        {
          "internalType": "uint256",
          "name": "",
          "type": "uint256"
        },
        {
          "internalType": "uint256",
          "name": "",
          "type": "uint256"
        },
        {
          "internalType": "uint256",
          "name": "",
          "type": "uint256"
        }
      ],
      "stateMutability": "view",
      "type": "function",
      "constant": true
    },
    {
      "inputs": [
        {
          "internalType": "uint256",
          "name": "sceneId",
          "type": "uint256"
        }
      ],
      "name": "tokenRangeForScene",
      "outputs": [
        {
          "internalType": "uint256",
          "name": "",
          "type": "uint256"
        },
        {
          "internalType": "uint256",
          "name": "",
          "type": "uint256"
        },
        {
          "internalType": "uint256",
          "name": "",
          "type": "uint256"
        }
      ],
      "stateMutability": "view",
      "type": "function",
      "constant": true
    },
    {
      "inputs": [
        {
          "internalType": "uint256",
          "name": "sceneId",
          "type": "uint256"
        },
        {
          "internalType": "uint256",
          "name": "puzzleId",
          "type": "uint256"
        }
      ],
      "name": "redeemPuzzle",
      "outputs": [
        {
          "internalType": "uint256",
          "name": "",
          "type": "uint256"
        }
      ],
      "stateMutability": "nonpayable",
      "type": "function"
    },
    {
      "inputs": [
        {
          "internalType": "uint256",
          "name": "sceneId",
          "type": "uint256"
        },
        {
          "internalType": "uint256",
          "name": "puzzleId",
          "type": "uint256"
        },
        {
          "internalType": "string",
          "name": "name",
          "type": "string"
        }
      ],
      "name": "nameScenePuzzle",
      "outputs": [],
      "stateMutability": "nonpayable",
      "type": "function"
    },
    {
      "inputs": [
        {
          "internalType": "uint256",
          "name": "sceneId",
          "type": "uint256"
        },
        {
          "internalType": "uint256",
          "name": "puzzleId",
          "type": "uint256"
        }
      ],
      "name": "getScenePuzzleInfo",
      "outputs": [
        {
          "internalType": "uint256",
          "name": "",
          "type": "uint256"
        },
        {
          "internalType": "string",
          "name": "",
          "type": "string"
        },
        {
          "internalType": "address",
          "name": "",
          "type": "address"
        }
      ],
      "stateMutability": "view",
      "type": "function",
      "constant": true
    }
  ],
  "bytecode": "0x608060405260006007553480156200001657600080fd5b50604051620066e3380380620066e3833981810160405260808110156200003c57600080fd5b81019080805160405193929190846401000000008211156200005d57600080fd5b838201915060208201858111156200007457600080fd5b82518660018202830111640100000000821117156200009257600080fd5b8083526020830192505050908051906020019080838360005b83811015620000c8578082015181840152602081019050620000ab565b50505050905090810190601f168015620000f65780820380516001836020036101000a031916815260200191505b506040526020018051906020019092919080519060200190929190805190602001909291905050506040518060400160405280601681526020017f457468657253636170652070757a7a6c652074696c65000000000000000000008152506040518060400160405280600781526020017f45534374696c650000000000000000000000000000000000000000000000000081525085858160006200019f6200054b60201b60201c565b905080600160006101000a81548173ffffffffffffffffffffffffffffffffffffffff021916908373ffffffffffffffffffffffffffffffffffffffff1602179055508073ffffffffffffffffffffffffffffffffffffffff16600073ffffffffffffffffffffffffffffffffffffffff167f8be0079c531659141344cd1fd0a4f28419497f9722a3daafe3b4186f6b6457e060405160405180910390a350620002566301ffc9a760e01b6200055360201b60201c565b62000267816200065d60201b60201c565b6200027f63d9b67a2660e01b6200055360201b60201c565b62000297630e89341c60e01b6200055360201b60201c565b508360099080519060200190620002b092919062000869565b5082600a9080519060200190620002c992919062000869565b5080600660006101000a81548173ffffffffffffffffffffffffffffffffffffffff021916908373ffffffffffffffffffffffffffffffffffffffff1602179055506200034c7f828634d95e775031b9ff576b159a8509d3053581a8c9c4d7d86899e0afcd882f620003406200054b60201b60201c565b6200067960201b60201c565b6200038d7f9f2df0fed2c77648de5860a4cc508cd0818c85b8b8a1ab4ceeef8d981c8956a6620003816200054b60201b60201c565b6200067960201b60201c565b620003df7f828634d95e775031b9ff576b159a8509d3053581a8c9c4d7d86899e0afcd882f7f5721171b1e9186284262a02aac3a681e12de7388ebccd0c2d06623651b6af6f86200068f60201b60201c565b620004317f9f2df0fed2c77648de5860a4cc508cd0818c85b8b8a1ab4ceeef8d981c8956a67f70480ee89cb38eff00b7d23da25713d52ce19c6ed428691d22c58b2f615e3d676200068f60201b60201c565b620004727f5721171b1e9186284262a02aac3a681e12de7388ebccd0c2d06623651b6af6f8620004666200054b60201b60201c565b6200067960201b60201c565b620004b37f70480ee89cb38eff00b7d23da25713d52ce19c6ed428691d22c58b2f615e3d67620004a76200054b60201b60201c565b6200067960201b60201c565b50505050600160078190555081600c60006101000a81548173ffffffffffffffffffffffffffffffffffffffff021916908373ffffffffffffffffffffffffffffffffffffffff16021790555080600d60006101000a81548173ffffffffffffffffffffffffffffffffffffffff021916908373ffffffffffffffffffffffffffffffffffffffff160217905550505050506200090f565b600033905090565b63ffffffff60e01b817bffffffffffffffffffffffffffffffffffffffffffffffffffffffff19161415620005f0576040517f08c379a000000000000000000000000000000000000000000000000000000000815260040180806020018281038252601c8152602001807f4552433136353a20696e76616c696420696e746572666163652069640000000081525060200191505060405180910390fd5b600160026000837bffffffffffffffffffffffffffffffffffffffffffffffffffffffff19167bffffffffffffffffffffffffffffffffffffffffffffffffffffffff1916815260200190815260200160002060006101000a81548160ff02191690831515021790555050565b80600590805190602001906200067592919062000869565b5050565b6200068b8282620006f160201b60201c565b5050565b8060008084815260200190815260200160002060020154837fbd79b86ffe0ab8e8776151514217cd7cacd52c909f66475c3af44e129f0b00ff60405160405180910390a480600080848152602001908152602001600020600201819055505050565b6200071f816000808581526020019081526020016000206000016200079460201b620042fc1790919060201c565b156200079057620007356200054b60201b60201c565b73ffffffffffffffffffffffffffffffffffffffff168173ffffffffffffffffffffffffffffffffffffffff16837f2f8788117e7eff1d82e926ec794901d17c78024a50270940304540a733656f0d60405160405180910390a45b5050565b6000620007c4836000018373ffffffffffffffffffffffffffffffffffffffff1660001b620007cc60201b60201c565b905092915050565b6000620007e083836200084660201b60201c565b6200083b57826000018290806001815401808255809150506001900390600052602060002001600090919091909150558260000180549050836001016000848152602001908152602001600020819055506001905062000840565b600090505b92915050565b600080836001016000848152602001908152602001600020541415905092915050565b828054600181600116156101000203166002900490600052602060002090601f016020900481019282601f10620008ac57805160ff1916838001178555620008dd565b82800160010185558215620008dd579182015b82811115620008dc578251825591602001919060010190620008bf565b5b509050620008ec9190620008f0565b5090565b5b808211156200090b576000816000905550600101620008f1565b5090565b615dc4806200091f6000396000f3fe608060405234801561001057600080fd5b506004361061027e5760003560e01c8063731133e91161015c578063a22cb465116100ce578063d26ea6c011610087578063d26ea6c01461147a578063d5391393146114be578063d547741f146114dc578063e985e9c51461152a578063f242432a146115a4578063f2fde38b146116b35761027e565b8063a22cb46514611281578063b138ac61146112d1578063bd85b03914611313578063c5a113d214611355578063c96681a5146113e2578063ca15c873146114385761027e565b80639010d07c116101205780639010d07c1461107657806391d14854146110d857806395d89b411461113c578063992d09b6146111bf5780639c68276614611203578063a217fddf146112635761027e565b8063731133e914610ea357806379e0aadc14610f9257806380e6548e14610fd45780638aeda25a146110245780638da5cb5b146110425761027e565b80632f2ff15d116101f55780634c83eaa0116101b95780634c83eaa014610bf25780634df6e60514610c3e5780634e1273f414610c8c5780635a570c0c14610e2d5780635df7d82f14610e4b578063715018a614610e995761027e565b80632f2ff15d14610aa6578063323c1c8d14610af457806336568abe14610b4457806336a6d88b14610b925780633ae10b1b14610bb05761027e565b80631339324b116102475780631339324b1461052d578063197702da1461054b5780631f7fdffa14610569578063248a9ca31461076c5780632c236ebd146107ae5780632eb2c2d6146108835761027e565b8062fdd58e1461028357806301ffc9a7146102e557806302fe53051461034857806306fdde03146104035780630e89341c14610486575b600080fd5b6102cf6004803603604081101561029957600080fd5b81019080803573ffffffffffffffffffffffffffffffffffffffff169060200190929190803590602001909291905050506116f7565b6040518082815260200191505060405180910390f35b610330600480360360208110156102fb57600080fd5b8101908080357bffffffffffffffffffffffffffffffffffffffffffffffffffffffff191690602001909291905050506117d7565b60405180821515815260200191505060405180910390f35b6104016004803603602081101561035e57600080fd5b810190808035906020019064010000000081111561037b57600080fd5b82018360208201111561038d57600080fd5b803590602001918460018302840111640100000000831117156103af57600080fd5b91908080601f016020809104026020016040519081016040528093929190818152602001838380828437600081840152601f19601f82011690508083019250505050505050919291929050505061183f565b005b61040b6118fa565b6040518080602001828103825283818151815260200191508051906020019080838360005b8381101561044b578082015181840152602081019050610430565b50505050905090810190601f1680156104785780820380516001836020036101000a031916815260200191505b509250505060405180910390f35b6104b26004803603602081101561049c57600080fd5b8101908080359060200190929190505050611998565b6040518080602001828103825283818151815260200191508051906020019080838360005b838110156104f25780820151818401526020810190506104d7565b50505050905090810190601f16801561051f5780820380516001836020036101000a031916815260200191505b509250505060405180910390f35b610535611a3c565b6040518082815260200191505060405180910390f35b610553611a60565b6040518082815260200191505060405180910390f35b61076a6004803603608081101561057f57600080fd5b81019080803573ffffffffffffffffffffffffffffffffffffffff169060200190929190803590602001906401000000008111156105bc57600080fd5b8201836020820111156105ce57600080fd5b803590602001918460208302840111640100000000831117156105f057600080fd5b919080806020026020016040519081016040528093929190818152602001838360200280828437600081840152601f19601f8201169050808301925050505050505091929192908035906020019064010000000081111561065057600080fd5b82018360208201111561066257600080fd5b8035906020019184602083028401116401000000008311171561068457600080fd5b919080806020026020016040519081016040528093929190818152602001838360200280828437600081840152601f19601f820116905080830192505050505050509192919290803590602001906401000000008111156106e457600080fd5b8201836020820111156106f657600080fd5b8035906020019184600183028401116401000000008311171561071857600080fd5b91908080601f016020809104026020016040519081016040528093929190818152602001838380828437600081840152601f19601f820116905080830192505050505050509192919290505050611a84565b005b6107986004803603602081101561078257600080fd5b8101908080359060200190929190505050611bc9565b6040518082815260200191505060405180910390f35b6107e4600480360360408110156107c457600080fd5b810190808035906020019092919080359060200190929190505050611be8565b60405180848152602001806020018373ffffffffffffffffffffffffffffffffffffffff168152602001828103825284818151815260200191508051906020019080838360005b8381101561084657808201518184015260208101905061082b565b50505050905090810190601f1680156108735780820380516001836020036101000a031916815260200191505b5094505050505060405180910390f35b610aa4600480360360a081101561089957600080fd5b81019080803573ffffffffffffffffffffffffffffffffffffffff169060200190929190803573ffffffffffffffffffffffffffffffffffffffff169060200190929190803590602001906401000000008111156108f657600080fd5b82018360208201111561090857600080fd5b8035906020019184602083028401116401000000008311171561092a57600080fd5b919080806020026020016040519081016040528093929190818152602001838360200280828437600081840152601f19601f8201169050808301925050505050505091929192908035906020019064010000000081111561098a57600080fd5b82018360208201111561099c57600080fd5b803590602001918460208302840111640100000000831117156109be57600080fd5b919080806020026020016040519081016040528093929190818152602001838360200280828437600081840152601f19601f82011690508083019250505050505050919291929080359060200190640100000000811115610a1e57600080fd5b820183602082011115610a3057600080fd5b80359060200191846001830284011164010000000083111715610a5257600080fd5b91908080601f016020809104026020016040519081016040528093929190818152602001838380828437600081840152601f19601f820116905080830192505050505050509192919290505050611da2565b005b610af260048036036040811015610abc57600080fd5b8101908080359060200190929190803573ffffffffffffffffffffffffffffffffffffffff16906020019092919050505061222d565b005b610b2060048036036020811015610b0a57600080fd5b81019080803590602001909291905050506122b6565b60405180848152602001838152602001828152602001935050505060405180910390f35b610b9060048036036040811015610b5a57600080fd5b8101908080359060200190929190803573ffffffffffffffffffffffffffffffffffffffff16906020019092919050505061230a565b005b610b9a6123a3565b6040518082815260200191505060405180910390f35b610bdc60048036036020811015610bc657600080fd5b81019080803590602001909291905050506123ad565b6040518082815260200191505060405180910390f35b610c2860048036036040811015610c0857600080fd5b8101908080359060200190929190803590602001909291905050506123cd565b6040518082815260200191505060405180910390f35b610c8a60048036036040811015610c5457600080fd5b8101908080359060200190929190803573ffffffffffffffffffffffffffffffffffffffff169060200190929190505050612873565b005b610dd660048036036040811015610ca257600080fd5b8101908080359060200190640100000000811115610cbf57600080fd5b820183602082011115610cd157600080fd5b80359060200191846020830284011164010000000083111715610cf357600080fd5b919080806020026020016040519081016040528093929190818152602001838360200280828437600081840152601f19601f82011690508083019250505050505050919291929080359060200190640100000000811115610d5357600080fd5b820183602082011115610d6557600080fd5b80359060200191846020830284011164010000000083111715610d8757600080fd5b919080806020026020016040519081016040528093929190818152602001838360200280828437600081840152601f19601f8201169050808301925050505050505091929192905050506129b2565b6040518080602001828103825283818151815260200191508051906020019060200280838360005b83811015610e19578082015181840152602081019050610dfe565b505050509050019250505060405180910390f35b610e35612ba4565b6040518082815260200191505060405180910390f35b610e9760048036036040811015610e6157600080fd5b8101908080359060200190929190803573ffffffffffffffffffffffffffffffffffffffff169060200190929190505050612baa565b005b610ea1612ce9565b005b610f9060048036036080811015610eb957600080fd5b81019080803573ffffffffffffffffffffffffffffffffffffffff169060200190929190803590602001909291908035906020019092919080359060200190640100000000811115610f0a57600080fd5b820183602082011115610f1c57600080fd5b80359060200191846001830284011164010000000083111715610f3e57600080fd5b91908080601f016020809104026020016040519081016040528093929190818152602001838380828437600081840152601f19601f820116905080830192505050505050509192919290505050612e59565b005b610fbe60048036036020811015610fa857600080fd5b8101908080359060200190929190505050612fc3565b6040518082815260200191505060405180910390f35b61100060048036036020811015610fea57600080fd5b8101908080359060200190929190505050612fdb565b60405180848152602001838152602001828152602001935050505060405180910390f35b61102c613032565b6040518082815260200191505060405180910390f35b61104a613056565b604051808273ffffffffffffffffffffffffffffffffffffffff16815260200191505060405180910390f35b6110ac6004803603604081101561108c57600080fd5b810190808035906020019092919080359060200190929190505050613080565b604051808273ffffffffffffffffffffffffffffffffffffffff16815260200191505060405180910390f35b611124600480360360408110156110ee57600080fd5b8101908080359060200190929190803573ffffffffffffffffffffffffffffffffffffffff1690602001909291905050506130b1565b60405180821515815260200191505060405180910390f35b6111446130e2565b6040518080602001828103825283818151815260200191508051906020019080838360005b83811015611184578082015181840152602081019050611169565b50505050905090810190601f1680156111b15780820380516001836020036101000a031916815260200191505b509250505060405180910390f35b6111eb600480360360208110156111d557600080fd5b8101908080359060200190929190505050613180565b60405180821515815260200191505060405180910390f35b611261600480360360c081101561121957600080fd5b810190808035906020019092919080359060200190929190803590602001909291908035906020019092919080359060200190929190803590602001909291905050506131b4565b005b61126b613569565b6040518082815260200191505060405180910390f35b6112cf6004803603604081101561129757600080fd5b81019080803573ffffffffffffffffffffffffffffffffffffffff169060200190929190803515159060200190929190505050613570565b005b6112fd600480360360208110156112e757600080fd5b8101908080359060200190929190505050613709565b6040518082815260200191505060405180910390f35b61133f6004803603602081101561132957600080fd5b8101908080359060200190929190505050613751565b6040518082815260200191505060405180910390f35b6113e06004803603606081101561136b57600080fd5b8101908080359060200190929190803590602001909291908035906020019064010000000081111561139c57600080fd5b8201836020820111156113ae57600080fd5b803590602001918460018302840111640100000000831117156113d057600080fd5b9091929391929390505050613769565b005b611422600480360360608110156113f857600080fd5b81019080803590602001909291908035906020019092919080359060200190929190505050613a1f565b6040518082815260200191505060405180910390f35b6114646004803603602081101561144e57600080fd5b8101908080359060200190929190505050613a5a565b6040518082815260200191505060405180910390f35b6114bc6004803603602081101561149057600080fd5b81019080803573ffffffffffffffffffffffffffffffffffffffff169060200190929190505050613a80565b005b6114c6613b73565b6040518082815260200191505060405180910390f35b611528600480360360408110156114f257600080fd5b8101908080359060200190929190803573ffffffffffffffffffffffffffffffffffffffff169060200190929190505050613b97565b005b61158c6004803603604081101561154057600080fd5b81019080803573ffffffffffffffffffffffffffffffffffffffff169060200190929190803573ffffffffffffffffffffffffffffffffffffffff169060200190929190505050613c20565b60405180821515815260200191505060405180910390f35b6116b1600480360360a08110156115ba57600080fd5b81019080803573ffffffffffffffffffffffffffffffffffffffff169060200190929190803573ffffffffffffffffffffffffffffffffffffffff16906020019092919080359060200190929190803590602001909291908035906020019064010000000081111561162b57600080fd5b82018360208201111561163d57600080fd5b8035906020019184600183028401116401000000008311171561165f57600080fd5b91908080601f016020809104026020016040519081016040528093929190818152602001838380828437600081840152601f19601f820116905080830192505050505050509192919290505050613d92565b005b6116f5600480360360208110156116c957600080fd5b81019080803573ffffffffffffffffffffffffffffffffffffffff169060200190929190505050614107565b005b60008073ffffffffffffffffffffffffffffffffffffffff168373ffffffffffffffffffffffffffffffffffffffff16141561177e576040517f08c379a000000000000000000000000000000000000000000000000000000000815260040180806020018281038252602b815260200180615b01602b913960400191505060405180910390fd5b6003600083815260200190815260200160002060008473ffffffffffffffffffffffffffffffffffffffff1673ffffffffffffffffffffffffffffffffffffffff16815260200190815260200160002054905092915050565b600060026000837bffffffffffffffffffffffffffffffffffffffffffffffffffffffff19167bffffffffffffffffffffffffffffffffffffffffffffffffffffffff1916815260200190815260200160002060009054906101000a900460ff169050919050565b61184761432c565b73ffffffffffffffffffffffffffffffffffffffff16611865613056565b73ffffffffffffffffffffffffffffffffffffffff16146118ee576040517f08c379a00000000000000000000000000000000000000000000000000000000081526004018080602001828103825260208152602001807f4f776e61626c653a2063616c6c6572206973206e6f7420746865206f776e657281525060200191505060405180910390fd5b6118f781614334565b50565b60098054600181600116156101000203166002900480601f0160208091040260200160405190810160405280929190818152602001828054600181600116156101000203166002900480156119905780601f1061196557610100808354040283529160200191611990565b820191906000526020600020905b81548152906001019060200180831161197357829003601f168201915b505050505081565b606060058054600181600116156101000203166002900480601f016020809104026020016040519081016040528092919081815260200182805460018160011615610100020316600290048015611a305780601f10611a0557610100808354040283529160200191611a30565b820191906000526020600020905b815481529060010190602001808311611a1357829003601f168201915b50505050509050919050565b7f70480ee89cb38eff00b7d23da25713d52ce19c6ed428691d22c58b2f615e3d6781565b7f5721171b1e9186284262a02aac3a681e12de7388ebccd0c2d06623651b6af6f881565b611ab57f9f2df0fed2c77648de5860a4cc508cd0818c85b8b8a1ab4ceeef8d981c8956a6611ab061432c565b6130b1565b611b27576040517f08c379a00000000000000000000000000000000000000000000000000000000081526004018080602001828103825260148152602001807f43616c6c6572206973206e6f74206d696e74657200000000000000000000000081525060200191505060405180910390fd5b60005b8351811015611bb657611b7f838281518110611b4257fe5b602002602001015160086000878581518110611b5a57fe5b602002602001015181526020019081526020016000205461434e90919063ffffffff16565b60086000868481518110611b8f57fe5b60200260200101518152602001908152602001600020819055508080600101915050611b2a565b50611bc3848484846143d6565b50505050565b6000806000838152602001908152602001600020600201549050919050565b600060606000600d60009054906101000a900473ffffffffffffffffffffffffffffffffffffffff1673ffffffffffffffffffffffffffffffffffffffff1663fcf2aa7f601060008881526020019081526020016000206000878152602001908152602001600020546040518263ffffffff1660e01b81526004018082815260200191505060006040518083038186803b158015611c8557600080fd5b505afa158015611c99573d6000803e3d6000fd5b505050506040513d6000823e3d601f19601f820116820180604052506060811015611cc357600080fd5b810190808051906020019092919080516040519392919084640100000000821115611ced57600080fd5b83820191506020820185811115611d0357600080fd5b8251866001820283011164010000000082111715611d2057600080fd5b8083526020830192505050908051906020019080838360005b83811015611d54578082015181840152602081019050611d39565b50505050905090810190601f168015611d815780820380516001836020036101000a031916815260200191505b50604052602001805190602001909291905050509250925092509250925092565b8151835114611dfc576040517f08c379a0000000000000000000000000000000000000000000000000000000008152600401808060200182810382526028815260200180615d176028913960400191505060405180910390fd5b600073ffffffffffffffffffffffffffffffffffffffff168473ffffffffffffffffffffffffffffffffffffffff161415611e82576040517f08c379a0000000000000000000000000000000000000000000000000000000008152600401808060200182810382526025815260200180615c006025913960400191505060405180910390fd5b611e8a61432c565b73ffffffffffffffffffffffffffffffffffffffff168573ffffffffffffffffffffffffffffffffffffffff161480611ed05750611ecf85611eca61432c565b613c20565b5b611f25576040517f08c379a0000000000000000000000000000000000000000000000000000000008152600401808060200182810382526032815260200180615c256032913960400191505060405180910390fd5b6000611f2f61432c565b9050611f3f8187878787876146f8565b60005b8451811015612110576000858281518110611f5957fe5b602002602001015190506000858381518110611f7157fe5b60200260200101519050611ff8816040518060600160405280602a8152602001615c7a602a91396003600086815260200190815260200160002060008d73ffffffffffffffffffffffffffffffffffffffff1673ffffffffffffffffffffffffffffffffffffffff168152602001908152602001600020546147009092919063ffffffff16565b6003600084815260200190815260200160002060008b73ffffffffffffffffffffffffffffffffffffffff1673ffffffffffffffffffffffffffffffffffffffff168152602001908152602001600020819055506120af816003600085815260200190815260200160002060008b73ffffffffffffffffffffffffffffffffffffffff1673ffffffffffffffffffffffffffffffffffffffff1681526020019081526020016000205461434e90919063ffffffff16565b6003600084815260200190815260200160002060008a73ffffffffffffffffffffffffffffffffffffffff1673ffffffffffffffffffffffffffffffffffffffff168152602001908152602001600020819055505050806001019050611f42565b508473ffffffffffffffffffffffffffffffffffffffff168673ffffffffffffffffffffffffffffffffffffffff168273ffffffffffffffffffffffffffffffffffffffff167f4a39dc06d4c0dbc64b70af90fd698a233a518aa5d07e595d983b8c0526c8f7fb8787604051808060200180602001838103835285818151815260200191508051906020019060200280838360005b838110156121c05780820151818401526020810190506121a5565b50505050905001838103825284818151815260200191508051906020019060200280838360005b838110156122025780820151818401526020810190506121e7565b5050505090500194505050505060405180910390a46122258187878787876147ba565b505050505050565b6122536000808481526020019081526020016000206002015461224e61432c565b6130b1565b6122a8576040517f08c379a000000000000000000000000000000000000000000000000000000000815260040180806020018281038252602f815260200180615ad2602f913960400191505060405180910390fd5b6122b28282614b49565b5050565b60008060006012600085815260200190815260200160002060040154601260008681526020019081526020016000206005015460136000878152602001908152602001600020549250925092509193909250565b61231261432c565b73ffffffffffffffffffffffffffffffffffffffff168173ffffffffffffffffffffffffffffffffffffffff1614612395576040517f08c379a000000000000000000000000000000000000000000000000000000000815260040180806020018281038252602f815260200180615d60602f913960400191505060405180910390fd5b61239f8282614bdc565b5050565b6000601154905090565b600060126000838152602001908152602001600020600101549050919050565b6000600115156012600085815260200190815260200160002060000160009054906101000a900460ff1615151461246c576040517f08c379a00000000000000000000000000000000000000000000000000000000081526004018080602001828103825260148152602001807f7363656e6520646f6573206e6f7420657869737400000000000000000000000081525060200191505060405180910390fd5b601260008481526020019081526020016000206001015482106124f7576040517f08c379a00000000000000000000000000000000000000000000000000000000081526004018080602001828103825260188152602001807f696e76616c69642070757a7a6c6520726571756573746564000000000000000081525060200191505060405180910390fd5b60006010600085815260200190815260200160002060008481526020019081526020016000205490506000811415612597576040517f08c379a00000000000000000000000000000000000000000000000000000000081526004018080602001828103825260148152602001807f696e76616c69642070757a7a6c6520746f6b656e00000000000000000000000081525060200191505060405180910390fd5b60006125d860126000878152602001908152602001600020600201546012600088815260200190815260200160002060030154614c6f90919063ffffffff16565b905060005b818110156126aa57600061262a33600f60008a81526020019081526020016000206000898152602001908152602001600020848154811061261a57fe5b90600052602060002001546116f7565b1161269d576040517f08c379a000000000000000000000000000000000000000000000000000000000815260040180806020018281038252601d8152602001807f646f206e6f74206861766520616c6c2070757a7a6c6520746f6b656e7300000081525060200191505060405180910390fd5b80806001019150506125dd565b5060005b81811015612708576126fb33600f6000898152602001908152602001600020600088815260200190815260200160002083815481106126e957fe5b90600052602060002001546001614cf5565b80806001019150506126ae565b506127253383600160405180602001604052806000815250614f11565b60006013600087815260200190815260200160002054111561286b57600061277f6127106127716101f4601360008b815260200190815260200160002054614c6f90919063ffffffff16565b61511490919063ffffffff16565b90506127a781601360008981526020019081526020016000205461519d90919063ffffffff16565b6013600088815260200190815260200160002081905550600c60009054906101000a900473ffffffffffffffffffffffffffffffffffffffff1673ffffffffffffffffffffffffffffffffffffffff16631662b2f933836040518363ffffffff1660e01b8152600401808373ffffffffffffffffffffffffffffffffffffffff16815260200182815260200192505050600060405180830381600087803b15801561285157600080fd5b505af1158015612865573d6000803e3d6000fd5b50505050505b505092915050565b7f5721171b1e9186284262a02aac3a681e12de7388ebccd0c2d06623651b6af6f8821480156128cf57506128ce7f5721171b1e9186284262a02aac3a681e12de7388ebccd0c2d06623651b6af6f86128c961432c565b6130b1565b5b8061293257507f70480ee89cb38eff00b7d23da25713d52ce19c6ed428691d22c58b2f615e3d678214801561293157506129307f70480ee89cb38eff00b7d23da25713d52ce19c6ed428691d22c58b2f615e3d6761292b61432c565b6130b1565b5b5b6129a4576040517f08c379a000000000000000000000000000000000000000000000000000000000815260040180806020018281038252600c8152602001807f4e6f7420616e2061646d696e000000000000000000000000000000000000000081525060200191505060405180910390fd5b6129ae8282614b49565b5050565b60608151835114612a0e576040517f08c379a0000000000000000000000000000000000000000000000000000000008152600401808060200182810382526029815260200180615cee6029913960400191505060405180910390fd5b6060835167ffffffffffffffff81118015612a2857600080fd5b50604051908082528060200260200182016040528015612a575781602001602082028036833780820191505090505b50905060005b8451811015612b9957600073ffffffffffffffffffffffffffffffffffffffff16858281518110612a8a57fe5b602002602001015173ffffffffffffffffffffffffffffffffffffffff161415612aff576040517f08c379a0000000000000000000000000000000000000000000000000000000008152600401808060200182810382526031815260200180615b2c6031913960400191505060405180910390fd5b60036000858381518110612b0f57fe5b602002602001015181526020019081526020016000206000868381518110612b3357fe5b602002602001015173ffffffffffffffffffffffffffffffffffffffff1673ffffffffffffffffffffffffffffffffffffffff16815260200190815260200160002054828281518110612b8257fe5b602002602001018181525050806001019050612a5d565b508091505092915050565b60075481565b7f5721171b1e9186284262a02aac3a681e12de7388ebccd0c2d06623651b6af6f882148015612c065750612c057f5721171b1e9186284262a02aac3a681e12de7388ebccd0c2d06623651b6af6f8612c0061432c565b6130b1565b5b80612c6957507f70480ee89cb38eff00b7d23da25713d52ce19c6ed428691d22c58b2f615e3d6782148015612c685750612c677f70480ee89cb38eff00b7d23da25713d52ce19c6ed428691d22c58b2f615e3d67612c6261432c565b6130b1565b5b5b612cdb576040517f08c379a000000000000000000000000000000000000000000000000000000000815260040180806020018281038252600c8152602001807f4e6f7420616e2061646d696e000000000000000000000000000000000000000081525060200191505060405180910390fd5b612ce58282614bdc565b5050565b612cf161432c565b73ffffffffffffffffffffffffffffffffffffffff16612d0f613056565b73ffffffffffffffffffffffffffffffffffffffff1614612d98576040517f08c379a00000000000000000000000000000000000000000000000000000000081526004018080602001828103825260208152602001807f4f776e61626c653a2063616c6c6572206973206e6f7420746865206f776e657281525060200191505060405180910390fd5b600073ffffffffffffffffffffffffffffffffffffffff16600160009054906101000a900473ffffffffffffffffffffffffffffffffffffffff1673ffffffffffffffffffffffffffffffffffffffff167f8be0079c531659141344cd1fd0a4f28419497f9722a3daafe3b4186f6b6457e060405160405180910390a36000600160006101000a81548173ffffffffffffffffffffffffffffffffffffffff021916908373ffffffffffffffffffffffffffffffffffffffff160217905550565b612e8a7f9f2df0fed2c77648de5860a4cc508cd0818c85b8b8a1ab4ceeef8d981c8956a6612e8561432c565b6130b1565b612efc576040517f08c379a00000000000000000000000000000000000000000000000000000000081526004018080602001828103825260148152602001807f43616c6c6572206973206e6f74206d696e74657200000000000000000000000081525060200191505060405180910390fd5b600754831115612f74576040517f08c379a000000000000000000000000000000000000000000000000000000000815260040180806020018281038252600c8152602001807f546f6b656e20494420444e45000000000000000000000000000000000000000081525060200191505060405180910390fd5b612f9a82600860008681526020019081526020016000205461434e90919063ffffffff16565b6008600085815260200190815260200160002081905550612fbd84848484614f11565b50505050565b600e6020528060005260406000206000915090505481565b60008060006012600085815260200190815260200160002060060154601260008681526020019081526020016000206007015460126000878152602001908152602001600020600101549250925092509193909250565b7f828634d95e775031b9ff576b159a8509d3053581a8c9c4d7d86899e0afcd882f81565b6000600160009054906101000a900473ffffffffffffffffffffffffffffffffffffffff16905090565b60006130a98260008086815260200190815260200160002060000161522090919063ffffffff16565b905092915050565b60006130da8260008086815260200190815260200160002060000161523a90919063ffffffff16565b905092915050565b600a8054600181600116156101000203166002900480601f0160208091040260200160405190810160405280929190818152602001828054600181600116156101000203166002900480156131785780601f1061314d57610100808354040283529160200191613178565b820191906000526020600020905b81548152906001019060200180831161315b57829003601f168201915b505050505081565b6000600115156012600084815260200190815260200160002060000160009054906101000a900460ff161515149050919050565b6131e57f828634d95e775031b9ff576b159a8509d3053581a8c9c4d7d86899e0afcd882f6131e061432c565b6130b1565b613257576040517f08c379a000000000000000000000000000000000000000000000000000000000815260040180806020018281038252600d8152602001807f6e6f7420612063726561746f720000000000000000000000000000000000000081525060200191505060405180910390fd5b6000851180156132675750600084115b80156132735750600083115b6132e5576040517f08c379a00000000000000000000000000000000000000000000000000000000081526004018080602001828103825260088152602001807f6261642064696d7300000000000000000000000000000000000000000000000081525060200191505060405180910390fd5b600015156012600088815260200190815260200160002060000160009054906101000a900460ff16151514613382576040517f08c379a00000000000000000000000000000000000000000000000000000000081526004018080602001828103825260128152602001807f7363656e6520616c72656164792068657265000000000000000000000000000081525060200191505060405180910390fd5b600060126000888152602001908152602001600020905060018160000160006101000a81548160ff021916908315150217905550858160010181905550848160030181905550838160020181905550828160040181905550818160050181905550826013600089815260200190815260200160002081905550600060075490508082600601819055506134306134218787614c6f90919063ffffffff16565b88614c6f90919063ffffffff16565b826007018190555060005b878110156134e35760005b878110156134d55760005b878110156134c757600f60008c815260200190815260200160002060008481526020019081526020016000208490806001815401808255809150506001900390600052602060002001600090919091909150556134b860018561434e90919063ffffffff16565b93508080600101915050613451565b508080600101915050613446565b50808060010191505061343b565b5060005b8781101561353b5781601060008b815260200190815260200160002060008381526020019081526020016000208190555061352c60018361434e90919063ffffffff16565b915080806001019150506134e7565b5080600781905550613559600160115461434e90919063ffffffff16565b6011819055505050505050505050565b6000801b81565b8173ffffffffffffffffffffffffffffffffffffffff1661358f61432c565b73ffffffffffffffffffffffffffffffffffffffff1614156135fc576040517f08c379a0000000000000000000000000000000000000000000000000000000008152600401808060200182810382526029815260200180615cc56029913960400191505060405180910390fd5b806004600061360961432c565b73ffffffffffffffffffffffffffffffffffffffff1673ffffffffffffffffffffffffffffffffffffffff16815260200190815260200160002060008473ffffffffffffffffffffffffffffffffffffffff1673ffffffffffffffffffffffffffffffffffffffff16815260200190815260200160002060006101000a81548160ff0219169083151502179055508173ffffffffffffffffffffffffffffffffffffffff166136b661432c565b73ffffffffffffffffffffffffffffffffffffffff167f17307eab39ab6107e8899845ad3d59bd9653f200f220920489ca2b5937696c318360405180821515815260200191505060405180910390a35050565b600061374a60126000848152602001908152602001600020600301546012600085815260200190815260200160002060020154614c6f90919063ffffffff16565b9050919050565b60086020528060005260406000206000915090505481565b600115156012600086815260200190815260200160002060000160009054906101000a900460ff16151514613806576040517f08c379a00000000000000000000000000000000000000000000000000000000081526004018080602001828103825260148152602001807f7363656e6520646f6573206e6f7420657869737400000000000000000000000081525060200191505060405180910390fd5b60126000858152602001908152602001600020600101548310613891576040517f08c379a00000000000000000000000000000000000000000000000000000000081526004018080602001828103825260188152602001807f696e76616c69642070757a7a6c6520726571756573746564000000000000000081525060200191505060405180910390fd5b600060106000868152602001908152602001600020600085815260200190815260200160002054905060006138c633836116f7565b11613939576040517f08c379a00000000000000000000000000000000000000000000000000000000081526004018080602001828103825260198152602001807f6f6e6c792072656e616d65206f776e65642070757a7a6c65730000000000000081525060200191505060405180910390fd5b600d60009054906101000a900473ffffffffffffffffffffffffffffffffffffffff1673ffffffffffffffffffffffffffffffffffffffff1663245d58c1338386866040518563ffffffff1660e01b8152600401808573ffffffffffffffffffffffffffffffffffffffff168152602001848152602001806020018281038252848482818152602001925080828437600081840152601f19601f82011690508083019250505095505050505050600060405180830381600087803b158015613a0057600080fd5b505af1158015613a14573d6000803e3d6000fd5b505050505050505050565b600f6020528260005260406000206020528160005260406000208181548110613a4457fe5b9060005260206000200160009250925050505481565b6000613a7960008084815260200190815260200160002060000161526a565b9050919050565b613a8861432c565b73ffffffffffffffffffffffffffffffffffffffff16613aa6613056565b73ffffffffffffffffffffffffffffffffffffffff1614613b2f576040517f08c379a00000000000000000000000000000000000000000000000000000000081526004018080602001828103825260208152602001807f4f776e61626c653a2063616c6c6572206973206e6f7420746865206f776e657281525060200191505060405180910390fd5b80600660006101000a81548173ffffffffffffffffffffffffffffffffffffffff021916908373ffffffffffffffffffffffffffffffffffffffff16021790555050565b7f9f2df0fed2c77648de5860a4cc508cd0818c85b8b8a1ab4ceeef8d981c8956a681565b613bbd60008084815260200190815260200160002060020154613bb861432c565b6130b1565b613c12576040517f08c379a0000000000000000000000000000000000000000000000000000000008152600401808060200182810382526030815260200180615bd06030913960400191505060405180910390fd5b613c1c8282614bdc565b5050565b60008073ffffffffffffffffffffffffffffffffffffffff16600660009054906101000a900473ffffffffffffffffffffffffffffffffffffffff1673ffffffffffffffffffffffffffffffffffffffff1614613d7f576000600660009054906101000a900473ffffffffffffffffffffffffffffffffffffffff1690508273ffffffffffffffffffffffffffffffffffffffff168173ffffffffffffffffffffffffffffffffffffffff1663c4552791866040518263ffffffff1660e01b8152600401808273ffffffffffffffffffffffffffffffffffffffff16815260200191505060206040518083038186803b158015613d1c57600080fd5b505afa158015613d30573d6000803e3d6000fd5b505050506040513d6020811015613d4657600080fd5b810190808051906020019092919050505073ffffffffffffffffffffffffffffffffffffffff161415613d7d576001915050613d8c565b505b613d89838361527f565b90505b92915050565b600073ffffffffffffffffffffffffffffffffffffffff168473ffffffffffffffffffffffffffffffffffffffff161415613e18576040517f08c379a0000000000000000000000000000000000000000000000000000000008152600401808060200182810382526025815260200180615c006025913960400191505060405180910390fd5b613e2061432c565b73ffffffffffffffffffffffffffffffffffffffff168573ffffffffffffffffffffffffffffffffffffffff161480613e665750613e6585613e6061432c565b613c20565b5b613ebb576040517f08c379a0000000000000000000000000000000000000000000000000000000008152600401808060200182810382526029815260200180615ba76029913960400191505060405180910390fd5b6000613ec561432c565b9050613ee5818787613ed688615313565b613edf88615313565b876146f8565b613f62836040518060600160405280602a8152602001615c7a602a91396003600088815260200190815260200160002060008a73ffffffffffffffffffffffffffffffffffffffff1673ffffffffffffffffffffffffffffffffffffffff168152602001908152602001600020546147009092919063ffffffff16565b6003600086815260200190815260200160002060008873ffffffffffffffffffffffffffffffffffffffff1673ffffffffffffffffffffffffffffffffffffffff16815260200190815260200160002081905550614019836003600087815260200190815260200160002060008873ffffffffffffffffffffffffffffffffffffffff1673ffffffffffffffffffffffffffffffffffffffff1681526020019081526020016000205461434e90919063ffffffff16565b6003600086815260200190815260200160002060008773ffffffffffffffffffffffffffffffffffffffff1673ffffffffffffffffffffffffffffffffffffffff168152602001908152602001600020819055508473ffffffffffffffffffffffffffffffffffffffff168673ffffffffffffffffffffffffffffffffffffffff168273ffffffffffffffffffffffffffffffffffffffff167fc3d58168c5ae7397731d063d5bbf3d657854427343f4c083240f7aacaa2d0f628787604051808381526020018281526020019250505060405180910390a46140ff818787878787615383565b505050505050565b61410f61432c565b73ffffffffffffffffffffffffffffffffffffffff1661412d613056565b73ffffffffffffffffffffffffffffffffffffffff16146141b6576040517f08c379a00000000000000000000000000000000000000000000000000000000081526004018080602001828103825260208152602001807f4f776e61626c653a2063616c6c6572206973206e6f7420746865206f776e657281525060200191505060405180910390fd5b600073ffffffffffffffffffffffffffffffffffffffff168173ffffffffffffffffffffffffffffffffffffffff16141561423c576040517f08c379a0000000000000000000000000000000000000000000000000000000008152600401808060200182810382526026815260200180615b5d6026913960400191505060405180910390fd5b8073ffffffffffffffffffffffffffffffffffffffff16600160009054906101000a900473ffffffffffffffffffffffffffffffffffffffff1673ffffffffffffffffffffffffffffffffffffffff167f8be0079c531659141344cd1fd0a4f28419497f9722a3daafe3b4186f6b6457e060405160405180910390a380600160006101000a81548173ffffffffffffffffffffffffffffffffffffffff021916908373ffffffffffffffffffffffffffffffffffffffff16021790555050565b6000614324836000018373ffffffffffffffffffffffffffffffffffffffff1660001b615690565b905092915050565b600033905090565b806005908051906020019061434a9291906158e2565b5050565b6000808284019050838110156143cc576040517f08c379a000000000000000000000000000000000000000000000000000000000815260040180806020018281038252601b8152602001807f536166654d6174683a206164646974696f6e206f766572666c6f77000000000081525060200191505060405180910390fd5b8091505092915050565b600073ffffffffffffffffffffffffffffffffffffffff168473ffffffffffffffffffffffffffffffffffffffff16141561445c576040517f08c379a0000000000000000000000000000000000000000000000000000000008152600401808060200182810382526021815260200180615d3f6021913960400191505060405180910390fd5b81518351146144b6576040517f08c379a0000000000000000000000000000000000000000000000000000000008152600401808060200182810382526028815260200180615d176028913960400191505060405180910390fd5b60006144c061432c565b90506144d1816000878787876146f8565b60005b84518110156145da57614566600360008784815181106144f057fe5b6020026020010151815260200190815260200160002060008873ffffffffffffffffffffffffffffffffffffffff1673ffffffffffffffffffffffffffffffffffffffff1681526020019081526020016000205485838151811061455057fe5b602002602001015161434e90919063ffffffff16565b6003600087848151811061457657fe5b6020026020010151815260200190815260200160002060008873ffffffffffffffffffffffffffffffffffffffff1673ffffffffffffffffffffffffffffffffffffffff1681526020019081526020016000208190555080806001019150506144d4565b508473ffffffffffffffffffffffffffffffffffffffff16600073ffffffffffffffffffffffffffffffffffffffff168273ffffffffffffffffffffffffffffffffffffffff167f4a39dc06d4c0dbc64b70af90fd698a233a518aa5d07e595d983b8c0526c8f7fb8787604051808060200180602001838103835285818151815260200191508051906020019060200280838360005b8381101561468b578082015181840152602081019050614670565b50505050905001838103825284818151815260200191508051906020019060200280838360005b838110156146cd5780820151818401526020810190506146b2565b5050505090500194505050505060405180910390a46146f1816000878787876147ba565b5050505050565b505050505050565b60008383111582906147ad576040517f08c379a00000000000000000000000000000000000000000000000000000000081526004018080602001828103825283818151815260200191508051906020019080838360005b83811015614772578082015181840152602081019050614757565b50505050905090810190601f16801561479f5780820380516001836020036101000a031916815260200191505b509250505060405180910390fd5b5082840390509392505050565b6147d98473ffffffffffffffffffffffffffffffffffffffff16615700565b15614b41578373ffffffffffffffffffffffffffffffffffffffff1663bc197c8187878686866040518663ffffffff1660e01b8152600401808673ffffffffffffffffffffffffffffffffffffffff1681526020018573ffffffffffffffffffffffffffffffffffffffff168152602001806020018060200180602001848103845287818151815260200191508051906020019060200280838360005b83811015614891578082015181840152602081019050614876565b50505050905001848103835286818151815260200191508051906020019060200280838360005b838110156148d35780820151818401526020810190506148b8565b50505050905001848103825285818151815260200191508051906020019080838360005b838110156149125780820151818401526020810190506148f7565b50505050905090810190601f16801561493f5780820380516001836020036101000a031916815260200191505b5098505050505050505050602060405180830381600087803b15801561496457600080fd5b505af192505050801561499857506040513d602081101561498457600080fd5b810190808051906020019092919050505060015b614aa2576149a461599d565b806149af5750614a51565b806040517f08c379a00000000000000000000000000000000000000000000000000000000081526004018080602001828103825283818151815260200191508051906020019080838360005b83811015614a165780820151818401526020810190506149fb565b50505050905090810190601f168015614a435780820380516001836020036101000a031916815260200191505b509250505060405180910390fd5b6040517f08c379a0000000000000000000000000000000000000000000000000000000008152600401808060200182810382526034815260200180615a546034913960400191505060405180910390fd5b63bc197c8160e01b7bffffffffffffffffffffffffffffffffffffffffffffffffffffffff1916817bffffffffffffffffffffffffffffffffffffffffffffffffffffffff191614614b3f576040517f08c379a0000000000000000000000000000000000000000000000000000000008152600401808060200182810382526028815260200180615aaa6028913960400191505060405180910390fd5b505b505050505050565b614b70816000808581526020019081526020016000206000016142fc90919063ffffffff16565b15614bd857614b7d61432c565b73ffffffffffffffffffffffffffffffffffffffff168173ffffffffffffffffffffffffffffffffffffffff16837f2f8788117e7eff1d82e926ec794901d17c78024a50270940304540a733656f0d60405160405180910390a45b5050565b614c038160008085815260200190815260200160002060000161571390919063ffffffff16565b15614c6b57614c1061432c565b73ffffffffffffffffffffffffffffffffffffffff168173ffffffffffffffffffffffffffffffffffffffff16837ff6391f5c32d9c69d2a47ea670b442974b53935d1edc7fd64eb21e047a839171b60405160405180910390a45b5050565b600080831415614c825760009050614cef565b6000828402905082848281614c9357fe5b0414614cea576040517f08c379a0000000000000000000000000000000000000000000000000000000008152600401808060200182810382526021815260200180615ca46021913960400191505060405180910390fd5b809150505b92915050565b600073ffffffffffffffffffffffffffffffffffffffff168373ffffffffffffffffffffffffffffffffffffffff161415614d7b576040517f08c379a0000000000000000000000000000000000000000000000000000000008152600401808060200182810382526023815260200180615c576023913960400191505060405180910390fd5b6000614d8561432c565b9050614db581856000614d9787615313565b614da087615313565b604051806020016040528060008152506146f8565b614e3282604051806060016040528060248152602001615b83602491396003600087815260200190815260200160002060008873ffffffffffffffffffffffffffffffffffffffff1673ffffffffffffffffffffffffffffffffffffffff168152602001908152602001600020546147009092919063ffffffff16565b6003600085815260200190815260200160002060008673ffffffffffffffffffffffffffffffffffffffff1673ffffffffffffffffffffffffffffffffffffffff16815260200190815260200160002081905550600073ffffffffffffffffffffffffffffffffffffffff168473ffffffffffffffffffffffffffffffffffffffff168273ffffffffffffffffffffffffffffffffffffffff167fc3d58168c5ae7397731d063d5bbf3d657854427343f4c083240f7aacaa2d0f628686604051808381526020018281526020019250505060405180910390a450505050565b600073ffffffffffffffffffffffffffffffffffffffff168473ffffffffffffffffffffffffffffffffffffffff161415614f97576040517f08c379a0000000000000000000000000000000000000000000000000000000008152600401808060200182810382526021815260200180615d3f6021913960400191505060405180910390fd5b6000614fa161432c565b9050614fc281600087614fb388615313565b614fbc88615313565b876146f8565b615025836003600087815260200190815260200160002060008873ffffffffffffffffffffffffffffffffffffffff1673ffffffffffffffffffffffffffffffffffffffff1681526020019081526020016000205461434e90919063ffffffff16565b6003600086815260200190815260200160002060008773ffffffffffffffffffffffffffffffffffffffff1673ffffffffffffffffffffffffffffffffffffffff168152602001908152602001600020819055508473ffffffffffffffffffffffffffffffffffffffff16600073ffffffffffffffffffffffffffffffffffffffff168273ffffffffffffffffffffffffffffffffffffffff167fc3d58168c5ae7397731d063d5bbf3d657854427343f4c083240f7aacaa2d0f628787604051808381526020018281526020019250505060405180910390a461510d81600087878787615383565b5050505050565b600080821161518b576040517f08c379a000000000000000000000000000000000000000000000000000000000815260040180806020018281038252601a8152602001807f536166654d6174683a206469766973696f6e206279207a65726f00000000000081525060200191505060405180910390fd5b81838161519457fe5b04905092915050565b600082821115615215576040517f08c379a000000000000000000000000000000000000000000000000000000000815260040180806020018281038252601e8152602001807f536166654d6174683a207375627472616374696f6e206f766572666c6f77000081525060200191505060405180910390fd5b818303905092915050565b600061522f8360000183615743565b60001c905092915050565b6000615262836000018373ffffffffffffffffffffffffffffffffffffffff1660001b6157c6565b905092915050565b6000615278826000016157e9565b9050919050565b6000600460008473ffffffffffffffffffffffffffffffffffffffff1673ffffffffffffffffffffffffffffffffffffffff16815260200190815260200160002060008373ffffffffffffffffffffffffffffffffffffffff1673ffffffffffffffffffffffffffffffffffffffff16815260200190815260200160002060009054906101000a900460ff16905092915050565b606080600167ffffffffffffffff8111801561532e57600080fd5b5060405190808252806020026020018201604052801561535d5781602001602082028036833780820191505090505b509050828160008151811061536e57fe5b60200260200101818152505080915050919050565b6153a28473ffffffffffffffffffffffffffffffffffffffff16615700565b15615688578373ffffffffffffffffffffffffffffffffffffffff1663f23a6e6187878686866040518663ffffffff1660e01b8152600401808673ffffffffffffffffffffffffffffffffffffffff1681526020018573ffffffffffffffffffffffffffffffffffffffff16815260200184815260200183815260200180602001828103825283818151815260200191508051906020019080838360005b8381101561545b578082015181840152602081019050615440565b50505050905090810190601f1680156154885780820380516001836020036101000a031916815260200191505b509650505050505050602060405180830381600087803b1580156154ab57600080fd5b505af19250505080156154df57506040513d60208110156154cb57600080fd5b810190808051906020019092919050505060015b6155e9576154eb61599d565b806154f65750615598565b806040517f08c379a00000000000000000000000000000000000000000000000000000000081526004018080602001828103825283818151815260200191508051906020019080838360005b8381101561555d578082015181840152602081019050615542565b50505050905090810190601f16801561558a5780820380516001836020036101000a031916815260200191505b509250505060405180910390fd5b6040517f08c379a0000000000000000000000000000000000000000000000000000000008152600401808060200182810382526034815260200180615a546034913960400191505060405180910390fd5b63f23a6e6160e01b7bffffffffffffffffffffffffffffffffffffffffffffffffffffffff1916817bffffffffffffffffffffffffffffffffffffffffffffffffffffffff191614615686576040517f08c379a0000000000000000000000000000000000000000000000000000000008152600401808060200182810382526028815260200180615aaa6028913960400191505060405180910390fd5b505b505050505050565b600061569c83836157c6565b6156f55782600001829080600181540180825580915050600190039060005260206000200160009091909190915055826000018054905083600101600084815260200190815260200160002081905550600190506156fa565b600090505b92915050565b600080823b905060008111915050919050565b600061573b836000018373ffffffffffffffffffffffffffffffffffffffff1660001b6157fa565b905092915050565b6000818360000180549050116157a4576040517f08c379a0000000000000000000000000000000000000000000000000000000008152600401808060200182810382526022815260200180615a886022913960400191505060405180910390fd5b8260000182815481106157b357fe5b9060005260206000200154905092915050565b600080836001016000848152602001908152602001600020541415905092915050565b600081600001805490509050919050565b600080836001016000848152602001908152602001600020549050600081146158d6576000600182039050600060018660000180549050039050600086600001828154811061584557fe5b906000526020600020015490508087600001848154811061586257fe5b906000526020600020018190555060018301876001016000838152602001908152602001600020819055508660000180548061589a57fe5b600190038181906000526020600020016000905590558660010160008781526020019081526020016000206000905560019450505050506158dc565b60009150505b92915050565b828054600181600116156101000203166002900490600052602060002090601f016020900481019282601f1061592357805160ff1916838001178555615951565b82800160010185558215615951579182015b82811115615950578251825591602001919060010190615935565b5b50905061595e9190615962565b5090565b5b8082111561597b576000816000905550600101615963565b5090565b6000601f19601f8301169050919050565b60008160e01c9050919050565b600060443d10156159ad57615a50565b60046000803e6159be600051615990565b6308c379a081146159cf5750615a50565b60405160043d036004823e80513d602482011167ffffffffffffffff821117156159fb57505050615a50565b808201805167ffffffffffffffff811115615a1a575050505050615a50565b8060208301013d8501811115615a3557505050505050615a50565b615a3e8261597f565b60208401016040528296505050505050505b9056fe455243313135353a207472616e7366657220746f206e6f6e2045524331313535526563656976657220696d706c656d656e746572456e756d657261626c655365743a20696e646578206f7574206f6620626f756e6473455243313135353a204552433131353552656365697665722072656a656374656420746f6b656e73416363657373436f6e74726f6c3a2073656e646572206d75737420626520616e2061646d696e20746f206772616e74455243313135353a2062616c616e636520717565727920666f7220746865207a65726f2061646472657373455243313135353a2062617463682062616c616e636520717565727920666f7220746865207a65726f20616464726573734f776e61626c653a206e6577206f776e657220697320746865207a65726f2061646472657373455243313135353a206275726e20616d6f756e7420657863656564732062616c616e6365455243313135353a2063616c6c6572206973206e6f74206f776e6572206e6f7220617070726f766564416363657373436f6e74726f6c3a2073656e646572206d75737420626520616e2061646d696e20746f207265766f6b65455243313135353a207472616e7366657220746f20746865207a65726f2061646472657373455243313135353a207472616e736665722063616c6c6572206973206e6f74206f776e6572206e6f7220617070726f766564455243313135353a206275726e2066726f6d20746865207a65726f2061646472657373455243313135353a20696e73756666696369656e742062616c616e636520666f72207472616e73666572536166654d6174683a206d756c7469706c69636174696f6e206f766572666c6f77455243313135353a2073657474696e6720617070726f76616c2073746174757320666f722073656c66455243313135353a206163636f756e747320616e6420696473206c656e677468206d69736d61746368455243313135353a2069647320616e6420616d6f756e7473206c656e677468206d69736d61746368455243313135353a206d696e7420746f20746865207a65726f2061646472657373416363657373436f6e74726f6c3a2063616e206f6e6c792072656e6f756e636520726f6c657320666f722073656c66a26469706673582212200c94d410392bbbd9f4655df01c3d81c3e116e07daf5148b558bee697f686776164736f6c634300060c0033",
  "immutableReferences": {},
  "source": "// SPDX-License-Identifier: MIT\n\npragma solidity ^0.6.0;\n\nimport \"./BaseERC1155.sol\";\nimport \"./NamingContract.sol\";\nimport \"./escape/EscapeToken.sol\";\n\n/**\n * @title ESTile\n * ESTile - a contract for semi-fungible tokens\n */\ncontract ESTile is BaseERC1155\n{\n  using SafeMath for uint256;\n\n  uint256 seed;\n\n  EscapeToken internal escapeTokenContract;\n  NamingContract internal namingContract;\n\n  // Keep track of each token type that we allocate - these are the tile tokens\n  // and the full puzzle tokens. \n  mapping (uint256 => uint256) public tokenCounts;\n\n  // For each scene, we have N puzzles with H*W puzzle tiles - keep track of em.\n  mapping (uint256 => mapping( uint256 => uint256[])) public sceneToPuzzleTileTokens;\n\n  // Finally, each scene and each puzzle in that scene has a unique token to \n  // signify burning the tiles and owning the finished puzzle. This also means\n  // that the creator of this token would have earned any possibly credits left\n  // in this scenes reward pool.\n  mapping (uint256 => mapping( uint256 => uint256)) internal sceneToPuzzleToken;\n\n  /*\n   *  Scenes are N number of pictures that have been split into a jigsaw. \n   *  Etherscapes are usually 6x4 tile puzzles and each scene will have N\n   *  number of images within the scene - some unlockable via the packs for \n   *  sale, some unlockable only via solving puzzles (collect all 24 tiles in a\n   *  single puzzle).\n   */\n  struct Scene {\n    bool exists;\n    \n    // The number of purchaseable vs unlockable puzzles.\n    uint256 numPuzzles;\n    \n    // These are the dimensions of all tiles in this scene.\n    uint256 tilesWide;\n    uint256 tilesHigh;\n\n    uint256 puzzleRewardTotal; // Total ESCAPE credits mintable for this scene.\n    uint256 puzzleRewardRate;  // Rate at which each puzzle will drain the total 5 => .05% => 5/10000\n\n    uint256 startToken;\n    uint256 numTiles;\n  }\n\n  uint256 internal sceneCount;\n  mapping (uint256 => Scene) internal scenes;\n  mapping (uint256 => uint256) internal sceneRewardLeft;\n\n  /*\n   *  Constructor!\n   */\n  constructor(\n    string memory _uri,\n    address _proxyRegistryAddress,\n    address _escapeERC20Address,\n    address _namingContractAddress\n  )\n    BaseERC1155(\n      \"EtherScape puzzle tile\",\n      \"ESCtile\",\n      _uri,\n      _proxyRegistryAddress\n    )\n    public\n  {\n      maxTokenID = 1;\n      escapeTokenContract = EscapeToken(_escapeERC20Address);\n      namingContract = NamingContract(_namingContractAddress);\n  }\n\n\n/**\n * Only Token Creator Functions\n **/\n\n  /*\n   *  Assign a scene worth of tokens, this will be based on the sceneId, the\n   *  puzzleId and then width x height of tokens.\n   */\n  function createScene(\n    uint256 sceneId,\n    uint256 numPuzzles,\n    uint256 puzzleHeight,\n    uint256 puzzleWidth,\n    uint256 puzzleRewardTotal,\n    uint256 puzzleRewardRate\n  )\n    external\n  {\n    require(hasRole(CREATOR_ROLE, _msgSender()), \"not a creator\");\n    require(numPuzzles > 0 && puzzleHeight > 0 && puzzleWidth > 0, \"bad dims\");\n    require(scenes[sceneId].exists == false, \"scene already here\");\n\n    Scene storage s = scenes[sceneId];\n    s.exists = true;\n    s.numPuzzles = numPuzzles;\n    s.tilesHigh = puzzleHeight;\n    s.tilesWide = puzzleWidth;\n    s.puzzleRewardTotal = puzzleRewardTotal;\n    s.puzzleRewardRate = puzzleRewardRate;\n    \n    // Setup the total scene reward for this scene that is available.\n    sceneRewardLeft[sceneId] = puzzleRewardTotal;\n\n    uint256 tid = maxTokenID;\n    s.startToken = tid;\n    s.numTiles = numPuzzles.mul(puzzleWidth.mul(puzzleHeight));\n\n    /*\n     *  Create tokens to represent each puzzle in this scene. \n     *\n     *  Each puzzle will have one additional token to track the completed puzzle\n     *  that can only be acquired by burning all the subsequent puzzle tiles (1\n     *  of each that make up the image).\n     */\n    for (uint256 _p = 0; _p < numPuzzles; _p++) {\n      for (uint256 _h = 0; _h < puzzleHeight; _h++) {\n        for (uint256 _w = 0; _w < puzzleWidth; _w++) {\n          sceneToPuzzleTileTokens[sceneId][_p].push(tid);\n          tid = tid.add(1);\n        }\n      }\n    }\n    for (uint256 _p = 0; _p < numPuzzles; _p++) {\n      sceneToPuzzleToken[sceneId][_p] = tid;\n      tid = tid.add(1);\n    }\n\n    // Update latest id with the last \n    maxTokenID = tid;\n    sceneCount = sceneCount.add(1);\n  }\n\n  function numScenes() view external returns (uint256) {\n      return sceneCount;\n  }\n  function scenePuzzles(uint256 sceneId) view external returns (uint256) {\n    return scenes[sceneId].numPuzzles;\n  }\n  function sceneTiles(uint256 sceneId) view external returns (uint256) {\n    return scenes[sceneId].tilesWide.mul(scenes[sceneId].tilesHigh);\n  }\n  function sceneExists(uint256 sceneId) view external returns (bool) {\n    return (scenes[sceneId].exists == true);\n  }\n  function puzzleRewardInfo(uint256 sceneId) view external returns (uint256, uint256, uint256) {\n    return (scenes[sceneId].puzzleRewardTotal, scenes[sceneId].puzzleRewardRate, sceneRewardLeft[sceneId]);\n  }\n\n/*\n *  Public.\n */\n//   function randomSceneTile(uint256 _sceneId) external returns (uint256) {\n//     uint pidx = _random().mod(scenes[_sceneId].numPuzzles);\n//     uint tidx = _random().mod(scenes[_sceneId].tilesHigh.mul(scenes[_sceneId].tilesWide));\n//     return sceneToPuzzleTileTokens[_sceneId][pidx][tidx];\n//   }\n\n\n  function tokenRangeForScene(uint256 sceneId) view public returns (uint256, uint256, uint256) {\n    // Tokens start at (1 -> puzzles in scene * tiles per puzzle) +  puzzles in scene.\n    return (scenes[sceneId].startToken, scenes[sceneId].numTiles, scenes[sceneId].numPuzzles);\n  }\n\n  /*\n   *  For a given scene, and puzzle - checks that the sender owns at-least one \n   *  each of the tile tokens that make up the puzzle. If so the sender burns \n   *  the tokens, and two items are awarded to the sender:\n   *    1. A completed token for the scene / puzzle\n   *    2. A randomly choosen reward pack potentially of a limited scene\n   *    The second reward might have to be figured out by the TilePack. In this\n   *    case the tile pack would need to be the one that `redeemPuzzle`s.\n   */\n  function redeemPuzzle(uint256 sceneId, uint256 puzzleId) external returns (uint256) {\n    require(scenes[sceneId].exists == true, \"scene does not exist\");\n    require(puzzleId < scenes[sceneId].numPuzzles, \"invalid puzzle requested\");\n    \n    uint256 puzzleTokenId = sceneToPuzzleToken[sceneId][puzzleId];\n    require(puzzleTokenId != 0, \"invalid puzzle token\");\n    \n    uint256 tilesPerPuzzle = scenes[sceneId].tilesHigh.mul(scenes[sceneId].tilesWide);\n    for (uint256 i = 0; i < tilesPerPuzzle; i++) {\n        if (balanceOf(msg.sender, sceneToPuzzleTileTokens[sceneId][puzzleId][i]) <= 0) {\n            revert(\"do not have all puzzle tokens\");\n        }\n    }\n    for (uint256 i = 0; i < tilesPerPuzzle; i++) {\n        _burn(msg.sender, sceneToPuzzleTileTokens[sceneId][puzzleId][i], 1);\n    }\n    \n    // Figure out the reward (full image token) for this pictureId and award it\n    // the the sender who just burned all their puzzle tokens!\n    _mint(msg.sender, puzzleTokenId, 1, \"\");\n\n    // Mint additional ESCAPE tokens for the puzzle solver. The reward that the \n    // solver gets is the `left * (rate / 10000)` of the pool. This can be per\n    // scene - and can be set to something like 5% (500) for example.\n    if (sceneRewardLeft[sceneId] > 0) {\n      uint256 amt = sceneRewardLeft[sceneId].mul(500).div(10000);\n      sceneRewardLeft[sceneId] = sceneRewardLeft[sceneId].sub(amt);\n      escapeTokenContract.mintForAccount(msg.sender, amt);\n    }\n  }\n\n  function nameScenePuzzle(uint256 sceneId, uint256 puzzleId, string calldata name) external {\n    require(scenes[sceneId].exists == true, \"scene does not exist\");\n    require(puzzleId < scenes[sceneId].numPuzzles, \"invalid puzzle requested\");\n    uint256 puzzleTokenId = sceneToPuzzleToken[sceneId][puzzleId];\n    require(balanceOf(msg.sender, puzzleTokenId) > 0, \"only rename owned puzzles\");\n    namingContract.nameTokenFor(msg.sender, puzzleTokenId, name);\n  }\n\n  function getScenePuzzleInfo(uint256 sceneId, uint256 puzzleId) public view returns (uint256, string memory, address) {\n    return namingContract.tokenNameInfo(sceneToPuzzleToken[sceneId][puzzleId]);\n  }\n}\n",
  "sourcePath": "/Users/shaba/work/github/private/crypto/etherscapes/contract/contracts/ESTile.sol",
  "compiler": {
    "name": "solc",
    "version": "0.6.12+commit.27d51765.Emscripten.clang"
  },
  "schemaVersion": "3.3.3",
  "updatedAt": "2021-02-08T23:59:00.923Z",
  "networkType": "ethereum",
  "devdoc": {
    "kind": "dev",
    "methods": {
      "balanceOf(address,uint256)": {
        "details": "See {IERC1155-balanceOf}. Requirements: - `account` cannot be the zero address."
      },
      "balanceOfBatch(address[],uint256[])": {
        "details": "See {IERC1155-balanceOfBatch}. Requirements: - `accounts` and `ids` must have the same length."
      },
      "getRoleAdmin(bytes32)": {
        "details": "Returns the admin role that controls `role`. See {grantRole} and {revokeRole}. To change a role's admin, use {_setRoleAdmin}."
      },
      "getRoleMember(bytes32,uint256)": {
        "details": "Returns one of the accounts that have `role`. `index` must be a value between 0 and {getRoleMemberCount}, non-inclusive. Role bearers are not sorted in any particular way, and their ordering may change at any point. WARNING: When using {getRoleMember} and {getRoleMemberCount}, make sure you perform all queries on the same block. See the following https://forum.openzeppelin.com/t/iterating-over-elements-on-enumerableset-in-openzeppelin-contracts/2296[forum post] for more information."
      },
      "getRoleMemberCount(bytes32)": {
        "details": "Returns the number of accounts that have `role`. Can be used together with {getRoleMember} to enumerate all bearers of a role."
      },
      "grantRole(bytes32,address)": {
        "details": "Grants `role` to `account`. If `account` had not been already granted `role`, emits a {RoleGranted} event. Requirements: - the caller must have ``role``'s admin role."
      },
      "hasRole(bytes32,address)": {
        "details": "Returns `true` if `account` has been granted `role`."
      },
      "owner()": {
        "details": "Returns the address of the current owner."
      },
      "renounceOwnership()": {
        "details": "Leaves the contract without owner. It will not be possible to call `onlyOwner` functions anymore. Can only be called by the current owner. NOTE: Renouncing ownership will leave the contract without an owner, thereby removing any functionality that is only available to the owner."
      },
      "renounceRole(bytes32,address)": {
        "details": "Revokes `role` from the calling account. Roles are often managed via {grantRole} and {revokeRole}: this function's purpose is to provide a mechanism for accounts to lose their privileges if they are compromised (such as when a trusted device is misplaced). If the calling account had been granted `role`, emits a {RoleRevoked} event. Requirements: - the caller must be `account`."
      },
      "revokeRole(bytes32,address)": {
        "details": "Revokes `role` from `account`. If `account` had been granted `role`, emits a {RoleRevoked} event. Requirements: - the caller must have ``role``'s admin role."
      },
      "safeBatchTransferFrom(address,address,uint256[],uint256[],bytes)": {
        "details": "See {IERC1155-safeBatchTransferFrom}."
      },
      "safeTransferFrom(address,address,uint256,uint256,bytes)": {
        "details": "See {IERC1155-safeTransferFrom}."
      },
      "setApprovalForAll(address,bool)": {
        "details": "See {IERC1155-setApprovalForAll}."
      },
      "supportsInterface(bytes4)": {
        "details": "See {IERC165-supportsInterface}. Time complexity O(1), guaranteed to always use less than 30 000 gas."
      },
      "transferOwnership(address)": {
        "details": "Transfers ownership of the contract to a new account (`newOwner`). Can only be called by the current owner."
      },
      "uri(uint256)": {
        "details": "See {IERC1155MetadataURI-uri}. This implementation returns the same URI for *all* token types. It relies on the token type ID substituion mechanism https://eips.ethereum.org/EIPS/eip-1155#metadata[defined in the EIP]. Clients calling this function must replace the `\\{id\\}` substring with the actual token type ID."
      }
    },
    "title": "ESTile ESTile - a contract for semi-fungible tokens",
    "version": 1
  },
  "userdoc": {
    "kind": "user",
    "methods": {
      "createScene(uint256,uint256,uint256,uint256,uint256,uint256)": {
        "notice": "Only Token Creator Functions*"
      },
      "grantAdmin(bytes32,address)": {
        "notice": "Only Token Creator Admin Functions*"
      },
      "isApprovedForAll(address,address)": {
        "notice": "Override isApprovedForAll to whitelist user's OpenSea proxy accounts to enable gas-free listings."
      },
      "mint(address,uint256,uint256,bytes)": {
        "notice": "Only Token Minter Functions*"
      },
      "setProxyRegistryAddress(address)": {
        "notice": "Only Owner Functions*"
      }
    },
    "version": 1
  }
}