{
  "contractName": "ESTile",
  "abi": [
    {
      "inputs": [
        {
          "internalType": "string",
          "name": "_uri",
          "type": "string"
        },
        {
          "internalType": "address",
          "name": "_proxyRegistryAddress",
          "type": "address"
        },
        {
          "internalType": "address",
          "name": "_escapeERC20Address",
          "type": "address"
        }
      ],
      "stateMutability": "nonpayable",
      "type": "constructor"
    },
    {
      "anonymous": false,
      "inputs": [
        {
          "indexed": true,
          "internalType": "address",
          "name": "account",
          "type": "address"
        },
        {
          "indexed": true,
          "internalType": "address",
          "name": "operator",
          "type": "address"
        },
        {
          "indexed": false,
          "internalType": "bool",
          "name": "approved",
          "type": "bool"
        }
      ],
      "name": "ApprovalForAll",
      "type": "event"
    },
    {
      "anonymous": false,
      "inputs": [
        {
          "indexed": true,
          "internalType": "address",
          "name": "previousOwner",
          "type": "address"
        },
        {
          "indexed": true,
          "internalType": "address",
          "name": "newOwner",
          "type": "address"
        }
      ],
      "name": "OwnershipTransferred",
      "type": "event"
    },
    {
      "anonymous": false,
      "inputs": [
        {
          "indexed": true,
          "internalType": "bytes32",
          "name": "role",
          "type": "bytes32"
        },
        {
          "indexed": true,
          "internalType": "bytes32",
          "name": "previousAdminRole",
          "type": "bytes32"
        },
        {
          "indexed": true,
          "internalType": "bytes32",
          "name": "newAdminRole",
          "type": "bytes32"
        }
      ],
      "name": "RoleAdminChanged",
      "type": "event"
    },
    {
      "anonymous": false,
      "inputs": [
        {
          "indexed": true,
          "internalType": "bytes32",
          "name": "role",
          "type": "bytes32"
        },
        {
          "indexed": true,
          "internalType": "address",
          "name": "account",
          "type": "address"
        },
        {
          "indexed": true,
          "internalType": "address",
          "name": "sender",
          "type": "address"
        }
      ],
      "name": "RoleGranted",
      "type": "event"
    },
    {
      "anonymous": false,
      "inputs": [
        {
          "indexed": true,
          "internalType": "bytes32",
          "name": "role",
          "type": "bytes32"
        },
        {
          "indexed": true,
          "internalType": "address",
          "name": "account",
          "type": "address"
        },
        {
          "indexed": true,
          "internalType": "address",
          "name": "sender",
          "type": "address"
        }
      ],
      "name": "RoleRevoked",
      "type": "event"
    },
    {
      "anonymous": false,
      "inputs": [
        {
          "indexed": true,
          "internalType": "address",
          "name": "operator",
          "type": "address"
        },
        {
          "indexed": true,
          "internalType": "address",
          "name": "from",
          "type": "address"
        },
        {
          "indexed": true,
          "internalType": "address",
          "name": "to",
          "type": "address"
        },
        {
          "indexed": false,
          "internalType": "uint256[]",
          "name": "ids",
          "type": "uint256[]"
        },
        {
          "indexed": false,
          "internalType": "uint256[]",
          "name": "values",
          "type": "uint256[]"
        }
      ],
      "name": "TransferBatch",
      "type": "event"
    },
    {
      "anonymous": false,
      "inputs": [
        {
          "indexed": true,
          "internalType": "address",
          "name": "operator",
          "type": "address"
        },
        {
          "indexed": true,
          "internalType": "address",
          "name": "from",
          "type": "address"
        },
        {
          "indexed": true,
          "internalType": "address",
          "name": "to",
          "type": "address"
        },
        {
          "indexed": false,
          "internalType": "uint256",
          "name": "id",
          "type": "uint256"
        },
        {
          "indexed": false,
          "internalType": "uint256",
          "name": "value",
          "type": "uint256"
        }
      ],
      "name": "TransferSingle",
      "type": "event"
    },
    {
      "anonymous": false,
      "inputs": [
        {
          "indexed": false,
          "internalType": "string",
          "name": "value",
          "type": "string"
        },
        {
          "indexed": true,
          "internalType": "uint256",
          "name": "id",
          "type": "uint256"
        }
      ],
      "name": "URI",
      "type": "event"
    },
    {
      "inputs": [],
      "name": "CREATOR_ADMIN_ROLE",
      "outputs": [
        {
          "internalType": "bytes32",
          "name": "",
          "type": "bytes32"
        }
      ],
      "stateMutability": "view",
      "type": "function",
      "constant": true
    },
    {
      "inputs": [],
      "name": "CREATOR_ROLE",
      "outputs": [
        {
          "internalType": "bytes32",
          "name": "",
          "type": "bytes32"
        }
      ],
      "stateMutability": "view",
      "type": "function",
      "constant": true
    },
    {
      "inputs": [],
      "name": "DEFAULT_ADMIN_ROLE",
      "outputs": [
        {
          "internalType": "bytes32",
          "name": "",
          "type": "bytes32"
        }
      ],
      "stateMutability": "view",
      "type": "function",
      "constant": true
    },
    {
      "inputs": [],
      "name": "MINTER_ADMIN_ROLE",
      "outputs": [
        {
          "internalType": "bytes32",
          "name": "",
          "type": "bytes32"
        }
      ],
      "stateMutability": "view",
      "type": "function",
      "constant": true
    },
    {
      "inputs": [],
      "name": "MINTER_ROLE",
      "outputs": [
        {
          "internalType": "bytes32",
          "name": "",
          "type": "bytes32"
        }
      ],
      "stateMutability": "view",
      "type": "function",
      "constant": true
    },
    {
      "inputs": [
        {
          "internalType": "address",
          "name": "account",
          "type": "address"
        },
        {
          "internalType": "uint256",
          "name": "id",
          "type": "uint256"
        }
      ],
      "name": "balanceOf",
      "outputs": [
        {
          "internalType": "uint256",
          "name": "",
          "type": "uint256"
        }
      ],
      "stateMutability": "view",
      "type": "function",
      "constant": true
    },
    {
      "inputs": [
        {
          "internalType": "address[]",
          "name": "accounts",
          "type": "address[]"
        },
        {
          "internalType": "uint256[]",
          "name": "ids",
          "type": "uint256[]"
        }
      ],
      "name": "balanceOfBatch",
      "outputs": [
        {
          "internalType": "uint256[]",
          "name": "",
          "type": "uint256[]"
        }
      ],
      "stateMutability": "view",
      "type": "function",
      "constant": true
    },
    {
      "inputs": [
        {
          "internalType": "address",
          "name": "",
          "type": "address"
        }
      ],
      "name": "claimLength",
      "outputs": [
        {
          "internalType": "uint256",
          "name": "",
          "type": "uint256"
        }
      ],
      "stateMutability": "view",
      "type": "function",
      "constant": true
    },
    {
      "inputs": [
        {
          "internalType": "bytes32",
          "name": "role",
          "type": "bytes32"
        }
      ],
      "name": "getRoleAdmin",
      "outputs": [
        {
          "internalType": "bytes32",
          "name": "",
          "type": "bytes32"
        }
      ],
      "stateMutability": "view",
      "type": "function",
      "constant": true
    },
    {
      "inputs": [
        {
          "internalType": "bytes32",
          "name": "role",
          "type": "bytes32"
        },
        {
          "internalType": "uint256",
          "name": "index",
          "type": "uint256"
        }
      ],
      "name": "getRoleMember",
      "outputs": [
        {
          "internalType": "address",
          "name": "",
          "type": "address"
        }
      ],
      "stateMutability": "view",
      "type": "function",
      "constant": true
    },
    {
      "inputs": [
        {
          "internalType": "bytes32",
          "name": "role",
          "type": "bytes32"
        }
      ],
      "name": "getRoleMemberCount",
      "outputs": [
        {
          "internalType": "uint256",
          "name": "",
          "type": "uint256"
        }
      ],
      "stateMutability": "view",
      "type": "function",
      "constant": true
    },
    {
      "inputs": [
        {
          "internalType": "bytes32",
          "name": "_adminRole",
          "type": "bytes32"
        },
        {
          "internalType": "address",
          "name": "_address",
          "type": "address"
        }
      ],
      "name": "grantAdmin",
      "outputs": [],
      "stateMutability": "nonpayable",
      "type": "function"
    },
    {
      "inputs": [
        {
          "internalType": "bytes32",
          "name": "role",
          "type": "bytes32"
        },
        {
          "internalType": "address",
          "name": "account",
          "type": "address"
        }
      ],
      "name": "grantRole",
      "outputs": [],
      "stateMutability": "nonpayable",
      "type": "function"
    },
    {
      "inputs": [
        {
          "internalType": "bytes32",
          "name": "role",
          "type": "bytes32"
        },
        {
          "internalType": "address",
          "name": "account",
          "type": "address"
        }
      ],
      "name": "hasRole",
      "outputs": [
        {
          "internalType": "bool",
          "name": "",
          "type": "bool"
        }
      ],
      "stateMutability": "view",
      "type": "function",
      "constant": true
    },
    {
      "inputs": [
        {
          "internalType": "address",
          "name": "_owner",
          "type": "address"
        },
        {
          "internalType": "address",
          "name": "_operator",
          "type": "address"
        }
      ],
      "name": "isApprovedForAll",
      "outputs": [
        {
          "internalType": "bool",
          "name": "isOperator",
          "type": "bool"
        }
      ],
      "stateMutability": "view",
      "type": "function",
      "constant": true
    },
    {
      "inputs": [],
      "name": "maxTokenID",
      "outputs": [
        {
          "internalType": "uint256",
          "name": "",
          "type": "uint256"
        }
      ],
      "stateMutability": "view",
      "type": "function",
      "constant": true
    },
    {
      "inputs": [
        {
          "internalType": "address",
          "name": "_to",
          "type": "address"
        },
        {
          "internalType": "uint256",
          "name": "_id",
          "type": "uint256"
        },
        {
          "internalType": "uint256",
          "name": "_quantity",
          "type": "uint256"
        },
        {
          "internalType": "bytes",
          "name": "_data",
          "type": "bytes"
        }
      ],
      "name": "mint",
      "outputs": [],
      "stateMutability": "nonpayable",
      "type": "function"
    },
    {
      "inputs": [
        {
          "internalType": "address",
          "name": "_to",
          "type": "address"
        },
        {
          "internalType": "uint256[]",
          "name": "_ids",
          "type": "uint256[]"
        },
        {
          "internalType": "uint256[]",
          "name": "_quantities",
          "type": "uint256[]"
        },
        {
          "internalType": "bytes",
          "name": "_data",
          "type": "bytes"
        }
      ],
      "name": "mintBatch",
      "outputs": [],
      "stateMutability": "nonpayable",
      "type": "function"
    },
    {
      "inputs": [],
      "name": "name",
      "outputs": [
        {
          "internalType": "string",
          "name": "",
          "type": "string"
        }
      ],
      "stateMutability": "view",
      "type": "function",
      "constant": true
    },
    {
      "inputs": [],
      "name": "owner",
      "outputs": [
        {
          "internalType": "address",
          "name": "",
          "type": "address"
        }
      ],
      "stateMutability": "view",
      "type": "function",
      "constant": true
    },
    {
      "inputs": [],
      "name": "renounceOwnership",
      "outputs": [],
      "stateMutability": "nonpayable",
      "type": "function"
    },
    {
      "inputs": [
        {
          "internalType": "bytes32",
          "name": "role",
          "type": "bytes32"
        },
        {
          "internalType": "address",
          "name": "account",
          "type": "address"
        }
      ],
      "name": "renounceRole",
      "outputs": [],
      "stateMutability": "nonpayable",
      "type": "function"
    },
    {
      "inputs": [
        {
          "internalType": "bytes32",
          "name": "_adminRole",
          "type": "bytes32"
        },
        {
          "internalType": "address",
          "name": "_address",
          "type": "address"
        }
      ],
      "name": "revokeAdmin",
      "outputs": [],
      "stateMutability": "nonpayable",
      "type": "function"
    },
    {
      "inputs": [
        {
          "internalType": "bytes32",
          "name": "role",
          "type": "bytes32"
        },
        {
          "internalType": "address",
          "name": "account",
          "type": "address"
        }
      ],
      "name": "revokeRole",
      "outputs": [],
      "stateMutability": "nonpayable",
      "type": "function"
    },
    {
      "inputs": [
        {
          "internalType": "address",
          "name": "from",
          "type": "address"
        },
        {
          "internalType": "address",
          "name": "to",
          "type": "address"
        },
        {
          "internalType": "uint256[]",
          "name": "ids",
          "type": "uint256[]"
        },
        {
          "internalType": "uint256[]",
          "name": "amounts",
          "type": "uint256[]"
        },
        {
          "internalType": "bytes",
          "name": "data",
          "type": "bytes"
        }
      ],
      "name": "safeBatchTransferFrom",
      "outputs": [],
      "stateMutability": "nonpayable",
      "type": "function"
    },
    {
      "inputs": [
        {
          "internalType": "address",
          "name": "from",
          "type": "address"
        },
        {
          "internalType": "address",
          "name": "to",
          "type": "address"
        },
        {
          "internalType": "uint256",
          "name": "id",
          "type": "uint256"
        },
        {
          "internalType": "uint256",
          "name": "amount",
          "type": "uint256"
        },
        {
          "internalType": "bytes",
          "name": "data",
          "type": "bytes"
        }
      ],
      "name": "safeTransferFrom",
      "outputs": [],
      "stateMutability": "nonpayable",
      "type": "function"
    },
    {
      "inputs": [],
      "name": "sceneCount",
      "outputs": [
        {
          "internalType": "uint256",
          "name": "",
          "type": "uint256"
        }
      ],
      "stateMutability": "view",
      "type": "function",
      "constant": true
    },
    {
      "inputs": [
        {
          "internalType": "address",
          "name": "operator",
          "type": "address"
        },
        {
          "internalType": "bool",
          "name": "approved",
          "type": "bool"
        }
      ],
      "name": "setApprovalForAll",
      "outputs": [],
      "stateMutability": "nonpayable",
      "type": "function"
    },
    {
      "inputs": [
        {
          "internalType": "address",
          "name": "_proxyRegistryAddress",
          "type": "address"
        }
      ],
      "name": "setProxyRegistryAddress",
      "outputs": [],
      "stateMutability": "nonpayable",
      "type": "function"
    },
    {
      "inputs": [
        {
          "internalType": "string",
          "name": "_newBaseMetadataURI",
          "type": "string"
        }
      ],
      "name": "setURI",
      "outputs": [],
      "stateMutability": "nonpayable",
      "type": "function"
    },
    {
      "inputs": [
        {
          "internalType": "bytes4",
          "name": "interfaceId",
          "type": "bytes4"
        }
      ],
      "name": "supportsInterface",
      "outputs": [
        {
          "internalType": "bool",
          "name": "",
          "type": "bool"
        }
      ],
      "stateMutability": "view",
      "type": "function",
      "constant": true
    },
    {
      "inputs": [],
      "name": "symbol",
      "outputs": [
        {
          "internalType": "string",
          "name": "",
          "type": "string"
        }
      ],
      "stateMutability": "view",
      "type": "function",
      "constant": true
    },
    {
      "inputs": [
        {
          "internalType": "uint256",
          "name": "",
          "type": "uint256"
        }
      ],
      "name": "totalSupply",
      "outputs": [
        {
          "internalType": "uint256",
          "name": "",
          "type": "uint256"
        }
      ],
      "stateMutability": "view",
      "type": "function",
      "constant": true
    },
    {
      "inputs": [
        {
          "internalType": "address",
          "name": "newOwner",
          "type": "address"
        }
      ],
      "name": "transferOwnership",
      "outputs": [],
      "stateMutability": "nonpayable",
      "type": "function"
    },
    {
      "inputs": [
        {
          "internalType": "uint256",
          "name": "",
          "type": "uint256"
        }
      ],
      "name": "uri",
      "outputs": [
        {
          "internalType": "string",
          "name": "",
          "type": "string"
        }
      ],
      "stateMutability": "view",
      "type": "function",
      "constant": true
    },
    {
      "inputs": [
        {
          "internalType": "uint256",
          "name": "numPuzzles",
          "type": "uint256"
        },
        {
          "internalType": "uint256",
          "name": "numTilesPerPuzzle",
          "type": "uint256"
        },
        {
          "internalType": "uint256",
          "name": "maxTilesForSale",
          "type": "uint256"
        },
        {
          "internalType": "uint256",
          "name": "ethCost",
          "type": "uint256"
        },
        {
          "internalType": "uint256",
          "name": "escapeCost",
          "type": "uint256"
        }
      ],
      "name": "createScene",
      "outputs": [],
      "stateMutability": "nonpayable",
      "type": "function"
    },
    {
      "inputs": [
        {
          "internalType": "uint256",
          "name": "sceneId",
          "type": "uint256"
        }
      ],
      "name": "sceneExists",
      "outputs": [
        {
          "internalType": "bool",
          "name": "",
          "type": "bool"
        }
      ],
      "stateMutability": "view",
      "type": "function",
      "constant": true
    },
    {
      "inputs": [
        {
          "internalType": "uint256",
          "name": "sceneId",
          "type": "uint256"
        }
      ],
      "name": "sceneShardInfo",
      "outputs": [
        {
          "internalType": "uint256",
          "name": "",
          "type": "uint256"
        },
        {
          "internalType": "uint256",
          "name": "",
          "type": "uint256"
        },
        {
          "internalType": "uint256",
          "name": "",
          "type": "uint256"
        }
      ],
      "stateMutability": "view",
      "type": "function",
      "constant": true
    },
    {
      "inputs": [
        {
          "internalType": "uint256",
          "name": "sceneId",
          "type": "uint256"
        }
      ],
      "name": "tokenRangeForScene",
      "outputs": [
        {
          "internalType": "uint256",
          "name": "",
          "type": "uint256"
        },
        {
          "internalType": "uint256",
          "name": "",
          "type": "uint256"
        },
        {
          "internalType": "uint256",
          "name": "",
          "type": "uint256"
        }
      ],
      "stateMutability": "view",
      "type": "function",
      "constant": true
    },
    {
      "inputs": [
        {
          "internalType": "uint256",
          "name": "sceneId",
          "type": "uint256"
        },
        {
          "internalType": "uint256",
          "name": "puzzleId",
          "type": "uint256"
        }
      ],
      "name": "redeemPuzzle",
      "outputs": [
        {
          "internalType": "uint256",
          "name": "",
          "type": "uint256"
        }
      ],
      "stateMutability": "nonpayable",
      "type": "function"
    },
    {
      "inputs": [],
      "name": "getClaimInfo",
      "outputs": [
        {
          "internalType": "uint256",
          "name": "",
          "type": "uint256"
        }
      ],
      "stateMutability": "view",
      "type": "function",
      "constant": true
    },
    {
      "inputs": [],
      "name": "claimReward",
      "outputs": [],
      "stateMutability": "nonpayable",
      "type": "function"
    },
    {
      "inputs": [
        {
          "internalType": "uint256",
          "name": "sceneId",
          "type": "uint256"
        },
        {
          "internalType": "uint256",
          "name": "puzzleId",
          "type": "uint256"
        }
      ],
      "name": "getPuzzleToken",
      "outputs": [
        {
          "internalType": "uint256",
          "name": "",
          "type": "uint256"
        }
      ],
      "stateMutability": "view",
      "type": "function",
      "constant": true
    }
  ],
  "bytecode": "0x608060405260006007553480156200001657600080fd5b506040516200660b3803806200660b833981810160405260608110156200003c57600080fd5b81019080805160405193929190846401000000008211156200005d57600080fd5b838201915060208201858111156200007457600080fd5b82518660018202830111640100000000821117156200009257600080fd5b8083526020830192505050908051906020019080838360005b83811015620000c8578082015181840152602081019050620000ab565b50505050905090810190601f168015620000f65780820380516001836020036101000a031916815260200191505b5060405260200180519060200190929190805190602001909291905050506040518060400160405280601281526020017f45746865725363617065732073686172647300000000000000000000000000008152506040518060400160405280600581526020017f53484152440000000000000000000000000000000000000000000000000000008152508484816000620001956200050760201b60201c565b905080600160006101000a81548173ffffffffffffffffffffffffffffffffffffffff021916908373ffffffffffffffffffffffffffffffffffffffff1602179055508073ffffffffffffffffffffffffffffffffffffffff16600073ffffffffffffffffffffffffffffffffffffffff167f8be0079c531659141344cd1fd0a4f28419497f9722a3daafe3b4186f6b6457e060405160405180910390a3506200024c6301ffc9a760e01b6200050f60201b60201c565b6200025d816200061960201b60201c565b6200027563d9b67a2660e01b6200050f60201b60201c565b6200028d630e89341c60e01b6200050f60201b60201c565b508360099080519060200190620002a692919062000825565b5082600a9080519060200190620002bf92919062000825565b5080600660006101000a81548173ffffffffffffffffffffffffffffffffffffffff021916908373ffffffffffffffffffffffffffffffffffffffff160217905550620003427f828634d95e775031b9ff576b159a8509d3053581a8c9c4d7d86899e0afcd882f620003366200050760201b60201c565b6200063560201b60201c565b620003837f9f2df0fed2c77648de5860a4cc508cd0818c85b8b8a1ab4ceeef8d981c8956a6620003776200050760201b60201c565b6200063560201b60201c565b620003d57f828634d95e775031b9ff576b159a8509d3053581a8c9c4d7d86899e0afcd882f7f5721171b1e9186284262a02aac3a681e12de7388ebccd0c2d06623651b6af6f86200064b60201b60201c565b620004277f9f2df0fed2c77648de5860a4cc508cd0818c85b8b8a1ab4ceeef8d981c8956a67f70480ee89cb38eff00b7d23da25713d52ce19c6ed428691d22c58b2f615e3d676200064b60201b60201c565b620004687f5721171b1e9186284262a02aac3a681e12de7388ebccd0c2d06623651b6af6f86200045c6200050760201b60201c565b6200063560201b60201c565b620004a97f70480ee89cb38eff00b7d23da25713d52ce19c6ed428691d22c58b2f615e3d676200049d6200050760201b60201c565b6200063560201b60201c565b5050505060016007819055506000600e8190555080600d60006101000a81548173ffffffffffffffffffffffffffffffffffffffff021916908373ffffffffffffffffffffffffffffffffffffffff160217905550505050620008cb565b600033905090565b63ffffffff60e01b817bffffffffffffffffffffffffffffffffffffffffffffffffffffffff19161415620005ac576040517f08c379a000000000000000000000000000000000000000000000000000000000815260040180806020018281038252601c8152602001807f4552433136353a20696e76616c696420696e746572666163652069640000000081525060200191505060405180910390fd5b600160026000837bffffffffffffffffffffffffffffffffffffffffffffffffffffffff19167bffffffffffffffffffffffffffffffffffffffffffffffffffffffff1916815260200190815260200160002060006101000a81548160ff02191690831515021790555050565b80600590805190602001906200063192919062000825565b5050565b620006478282620006ad60201b60201c565b5050565b8060008084815260200190815260200160002060020154837fbd79b86ffe0ab8e8776151514217cd7cacd52c909f66475c3af44e129f0b00ff60405160405180910390a480600080848152602001908152602001600020600201819055505050565b620006db816000808581526020019081526020016000206000016200075060201b62003b111790919060201c565b156200074c57620006f16200050760201b60201c565b73ffffffffffffffffffffffffffffffffffffffff168173ffffffffffffffffffffffffffffffffffffffff16837f2f8788117e7eff1d82e926ec794901d17c78024a50270940304540a733656f0d60405160405180910390a45b5050565b600062000780836000018373ffffffffffffffffffffffffffffffffffffffff1660001b6200078860201b60201c565b905092915050565b60006200079c83836200080260201b60201c565b620007f7578260000182908060018154018082558091505060019003906000526020600020016000909190919091505582600001805490508360010160008481526020019081526020016000208190555060019050620007fc565b600090505b92915050565b600080836001016000848152602001908152602001600020541415905092915050565b828054600181600116156101000203166002900490600052602060002090601f016020900481019282601f106200086857805160ff191683800117855562000899565b8280016001018555821562000899579182015b82811115620008985782518255916020019190600101906200087b565b5b509050620008a89190620008ac565b5090565b5b80821115620008c7576000816000905550600101620008ad565b5090565b615d3080620008db6000396000f3fe608060405234801561001057600080fd5b50600436106102685760003560e01c8063715018a611610151578063a217fddf116100c3578063d26ea6c011610087578063d26ea6c0146112a8578063d5391393146112ec578063d547741f1461130a578063e985e9c514611358578063f242432a146113d2578063f2fde38b146114e157610268565b8063a217fddf146111ac578063a22cb465146111ca578063b88a802f1461121a578063bd85b03914611224578063ca15c8731461126657610268565b80638aeda25a116101155780638aeda25a14610fcd5780638da5cb5b14610feb5780639010d07c1461101f57806391d148541461108157806395d89b41146110e5578063992d09b61461116857610268565b8063715018a614610e10578063731133e914610e1a57806380e6548e14610f095780638518241614610f59578063851d4eca14610f7757610268565b8063248a9ca3116101ea5780634c83eaa0116101ae5780634c83eaa014610b115780634df6e60514610b5d5780634e1273f414610bab5780635a570c0c14610d4c5780635df7d82f14610d6a5780636ca556e614610db857610268565b8063248a9ca3146107c45780632eb2c2d6146108065780632f2ff15d14610a2957806336568abe14610a775780634623d80f14610ac557610268565b80630e89341c116102315780630e89341c1461048e57806310fafd0d146105355780631339324b14610585578063197702da146105a35780631f7fdffa146105c157610268565b8062fdd58e1461026d57806301ffc9a7146102cf57806302fe530514610332578063052b9da7146103ed57806306fdde031461040b575b600080fd5b6102b96004803603604081101561028357600080fd5b81019080803573ffffffffffffffffffffffffffffffffffffffff16906020019092919080359060200190929190505050611525565b6040518082815260200191505060405180910390f35b61031a600480360360208110156102e557600080fd5b8101908080357bffffffffffffffffffffffffffffffffffffffffffffffffffffffff19169060200190929190505050611605565b60405180821515815260200191505060405180910390f35b6103eb6004803603602081101561034857600080fd5b810190808035906020019064010000000081111561036557600080fd5b82018360208201111561037757600080fd5b8035906020019184600183028401116401000000008311171561039957600080fd5b91908080601f016020809104026020016040519081016040528093929190818152602001838380828437600081840152601f19601f82011690508083019250505050505050919291929050505061166d565b005b6103f5611728565b6040518082815260200191505060405180910390f35b61041361172e565b6040518080602001828103825283818151815260200191508051906020019080838360005b83811015610453578082015181840152602081019050610438565b50505050905090810190601f1680156104805780820380516001836020036101000a031916815260200191505b509250505060405180910390f35b6104ba600480360360208110156104a457600080fd5b81019080803590602001909291905050506117cc565b6040518080602001828103825283818151815260200191508051906020019080838360005b838110156104fa5780820151818401526020810190506104df565b50505050905090810190601f1680156105275780820380516001836020036101000a031916815260200191505b509250505060405180910390f35b6105616004803603602081101561054b57600080fd5b8101908080359060200190929190505050611870565b60405180848152602001838152602001828152602001935050505060405180910390f35b61058d6118c7565b6040518082815260200191505060405180910390f35b6105ab6118eb565b6040518082815260200191505060405180910390f35b6107c2600480360360808110156105d757600080fd5b81019080803573ffffffffffffffffffffffffffffffffffffffff1690602001909291908035906020019064010000000081111561061457600080fd5b82018360208201111561062657600080fd5b8035906020019184602083028401116401000000008311171561064857600080fd5b919080806020026020016040519081016040528093929190818152602001838360200280828437600081840152601f19601f820116905080830192505050505050509192919290803590602001906401000000008111156106a857600080fd5b8201836020820111156106ba57600080fd5b803590602001918460208302840111640100000000831117156106dc57600080fd5b919080806020026020016040519081016040528093929190818152602001838360200280828437600081840152601f19601f8201169050808301925050505050505091929192908035906020019064010000000081111561073c57600080fd5b82018360208201111561074e57600080fd5b8035906020019184600183028401116401000000008311171561077057600080fd5b91908080601f016020809104026020016040519081016040528093929190818152602001838380828437600081840152601f19601f82011690508083019250505050505050919291929050505061190f565b005b6107f0600480360360208110156107da57600080fd5b8101908080359060200190929190505050611a54565b6040518082815260200191505060405180910390f35b610a27600480360360a081101561081c57600080fd5b81019080803573ffffffffffffffffffffffffffffffffffffffff169060200190929190803573ffffffffffffffffffffffffffffffffffffffff1690602001909291908035906020019064010000000081111561087957600080fd5b82018360208201111561088b57600080fd5b803590602001918460208302840111640100000000831117156108ad57600080fd5b919080806020026020016040519081016040528093929190818152602001838360200280828437600081840152601f19601f8201169050808301925050505050505091929192908035906020019064010000000081111561090d57600080fd5b82018360208201111561091f57600080fd5b8035906020019184602083028401116401000000008311171561094157600080fd5b919080806020026020016040519081016040528093929190818152602001838360200280828437600081840152601f19601f820116905080830192505050505050509192919290803590602001906401000000008111156109a157600080fd5b8201836020820111156109b357600080fd5b803590602001918460018302840111640100000000831117156109d557600080fd5b91908080601f016020809104026020016040519081016040528093929190818152602001838380828437600081840152601f19601f820116905080830192505050505050509192919290505050611a73565b005b610a7560048036036040811015610a3f57600080fd5b8101908080359060200190929190803573ffffffffffffffffffffffffffffffffffffffff169060200190929190505050611efe565b005b610ac360048036036040811015610a8d57600080fd5b8101908080359060200190929190803573ffffffffffffffffffffffffffffffffffffffff169060200190929190505050611f87565b005b610afb60048036036040811015610adb57600080fd5b810190808035906020019092919080359060200190929190505050612020565b6040518082815260200191505060405180910390f35b610b4760048036036040811015610b2757600080fd5b810190808035906020019092919080359060200190929190505050612162565b6040518082815260200191505060405180910390f35b610ba960048036036040811015610b7357600080fd5b8101908080359060200190929190803573ffffffffffffffffffffffffffffffffffffffff16906020019092919050505061227a565b005b610cf560048036036040811015610bc157600080fd5b8101908080359060200190640100000000811115610bde57600080fd5b820183602082011115610bf057600080fd5b80359060200191846020830284011164010000000083111715610c1257600080fd5b919080806020026020016040519081016040528093929190818152602001838360200280828437600081840152601f19601f82011690508083019250505050505050919291929080359060200190640100000000811115610c7257600080fd5b820183602082011115610c8457600080fd5b80359060200191846020830284011164010000000083111715610ca657600080fd5b919080806020026020016040519081016040528093929190818152602001838360200280828437600081840152601f19601f8201169050808301925050505050505091929192905050506123b9565b6040518080602001828103825283818151815260200191508051906020019060200280838360005b83811015610d38578082015181840152602081019050610d1d565b505050509050019250505060405180910390f35b610d546125ab565b6040518082815260200191505060405180910390f35b610db660048036036040811015610d8057600080fd5b8101908080359060200190929190803573ffffffffffffffffffffffffffffffffffffffff1690602001909291905050506125b1565b005b610dfa60048036036020811015610dce57600080fd5b81019080803573ffffffffffffffffffffffffffffffffffffffff1690602001909291905050506126f0565b6040518082815260200191505060405180910390f35b610e18612708565b005b610f0760048036036080811015610e3057600080fd5b81019080803573ffffffffffffffffffffffffffffffffffffffff169060200190929190803590602001909291908035906020019092919080359060200190640100000000811115610e8157600080fd5b820183602082011115610e9357600080fd5b80359060200191846001830284011164010000000083111715610eb557600080fd5b91908080601f016020809104026020016040519081016040528093929190818152602001838380828437600081840152601f19601f820116905080830192505050505050509192919290505050612878565b005b610f3560048036036020811015610f1f57600080fd5b81019080803590602001909291905050506129e2565b60405180848152602001838152602001828152602001935050505060405180910390f35b610f61612a39565b6040518082815260200191505060405180910390f35b610fcb600480360360a0811015610f8d57600080fd5b810190808035906020019092919080359060200190929190803590602001909291908035906020019092919080359060200190929190505050612b35565b005b610fd5612dbd565b6040518082815260200191505060405180910390f35b610ff3612de1565b604051808273ffffffffffffffffffffffffffffffffffffffff16815260200191505060405180910390f35b6110556004803603604081101561103557600080fd5b810190808035906020019092919080359060200190929190505050612e0b565b604051808273ffffffffffffffffffffffffffffffffffffffff16815260200191505060405180910390f35b6110cd6004803603604081101561109757600080fd5b8101908080359060200190929190803573ffffffffffffffffffffffffffffffffffffffff169060200190929190505050612e3c565b60405180821515815260200191505060405180910390f35b6110ed612e6d565b6040518080602001828103825283818151815260200191508051906020019080838360005b8381101561112d578082015181840152602081019050611112565b50505050905090810190601f16801561115a5780820380516001836020036101000a031916815260200191505b509250505060405180910390f35b6111946004803603602081101561117e57600080fd5b8101908080359060200190929190505050612f0b565b60405180821515815260200191505060405180910390f35b6111b4612f3f565b6040518082815260200191505060405180910390f35b611218600480360360408110156111e057600080fd5b81019080803573ffffffffffffffffffffffffffffffffffffffff169060200190929190803515159060200190929190505050612f46565b005b6112226130df565b005b6112506004803603602081101561123a57600080fd5b8101908080359060200190929190505050613257565b6040518082815260200191505060405180910390f35b6112926004803603602081101561127c57600080fd5b810190808035906020019092919050505061326f565b6040518082815260200191505060405180910390f35b6112ea600480360360208110156112be57600080fd5b81019080803573ffffffffffffffffffffffffffffffffffffffff169060200190929190505050613295565b005b6112f4613388565b6040518082815260200191505060405180910390f35b6113566004803603604081101561132057600080fd5b8101908080359060200190929190803573ffffffffffffffffffffffffffffffffffffffff1690602001909291905050506133ac565b005b6113ba6004803603604081101561136e57600080fd5b81019080803573ffffffffffffffffffffffffffffffffffffffff169060200190929190803573ffffffffffffffffffffffffffffffffffffffff169060200190929190505050613435565b60405180821515815260200191505060405180910390f35b6114df600480360360a08110156113e857600080fd5b81019080803573ffffffffffffffffffffffffffffffffffffffff169060200190929190803573ffffffffffffffffffffffffffffffffffffffff16906020019092919080359060200190929190803590602001909291908035906020019064010000000081111561145957600080fd5b82018360208201111561146b57600080fd5b8035906020019184600183028401116401000000008311171561148d57600080fd5b91908080601f016020809104026020016040519081016040528093929190818152602001838380828437600081840152601f19601f8201169050808301925050505050505091929192905050506135a7565b005b611523600480360360208110156114f757600080fd5b81019080803573ffffffffffffffffffffffffffffffffffffffff16906020019092919050505061391c565b005b60008073ffffffffffffffffffffffffffffffffffffffff168373ffffffffffffffffffffffffffffffffffffffff1614156115ac576040517f08c379a000000000000000000000000000000000000000000000000000000000815260040180806020018281038252602b815260200180615a6d602b913960400191505060405180910390fd5b6003600083815260200190815260200160002060008473ffffffffffffffffffffffffffffffffffffffff1673ffffffffffffffffffffffffffffffffffffffff16815260200190815260200160002054905092915050565b600060026000837bffffffffffffffffffffffffffffffffffffffffffffffffffffffff19167bffffffffffffffffffffffffffffffffffffffffffffffffffffffff1916815260200190815260200160002060009054906101000a900460ff169050919050565b611675613b41565b73ffffffffffffffffffffffffffffffffffffffff16611693612de1565b73ffffffffffffffffffffffffffffffffffffffff161461171c576040517f08c379a00000000000000000000000000000000000000000000000000000000081526004018080602001828103825260208152602001807f4f776e61626c653a2063616c6c6572206973206e6f7420746865206f776e657281525060200191505060405180910390fd5b61172581613b49565b50565b600e5481565b60098054600181600116156101000203166002900480601f0160208091040260200160405190810160405280929190818152602001828054600181600116156101000203166002900480156117c45780601f10611799576101008083540402835291602001916117c4565b820191906000526020600020905b8154815290600101906020018083116117a757829003601f168201915b505050505081565b606060058054600181600116156101000203166002900480601f0160208091040260200160405190810160405280929190818152602001828054600181600116156101000203166002900480156118645780601f1061183957610100808354040283529160200191611864565b820191906000526020600020905b81548152906001019060200180831161184757829003601f168201915b50505050509050919050565b6000806000600f600085815260200190815260200160002060050154600f600086815260200190815260200160002060070154600f6000878152602001908152602001600020600601549250925092509193909250565b7f70480ee89cb38eff00b7d23da25713d52ce19c6ed428691d22c58b2f615e3d6781565b7f5721171b1e9186284262a02aac3a681e12de7388ebccd0c2d06623651b6af6f881565b6119407f9f2df0fed2c77648de5860a4cc508cd0818c85b8b8a1ab4ceeef8d981c8956a661193b613b41565b612e3c565b6119b2576040517f08c379a00000000000000000000000000000000000000000000000000000000081526004018080602001828103825260148152602001807f43616c6c6572206973206e6f74206d696e74657200000000000000000000000081525060200191505060405180910390fd5b60005b8351811015611a4157611a0a8382815181106119cd57fe5b6020026020010151600860008785815181106119e557fe5b6020026020010151815260200190815260200160002054613b6390919063ffffffff16565b60086000868481518110611a1a57fe5b602002602001015181526020019081526020016000208190555080806001019150506119b5565b50611a4e84848484613beb565b50505050565b6000806000838152602001908152602001600020600201549050919050565b8151835114611acd576040517f08c379a0000000000000000000000000000000000000000000000000000000008152600401808060200182810382526028815260200180615c836028913960400191505060405180910390fd5b600073ffffffffffffffffffffffffffffffffffffffff168473ffffffffffffffffffffffffffffffffffffffff161415611b53576040517f08c379a0000000000000000000000000000000000000000000000000000000008152600401808060200182810382526025815260200180615b6c6025913960400191505060405180910390fd5b611b5b613b41565b73ffffffffffffffffffffffffffffffffffffffff168573ffffffffffffffffffffffffffffffffffffffff161480611ba15750611ba085611b9b613b41565b613435565b5b611bf6576040517f08c379a0000000000000000000000000000000000000000000000000000000008152600401808060200182810382526032815260200180615b916032913960400191505060405180910390fd5b6000611c00613b41565b9050611c10818787878787613f0d565b60005b8451811015611de1576000858281518110611c2a57fe5b602002602001015190506000858381518110611c4257fe5b60200260200101519050611cc9816040518060600160405280602a8152602001615be6602a91396003600086815260200190815260200160002060008d73ffffffffffffffffffffffffffffffffffffffff1673ffffffffffffffffffffffffffffffffffffffff168152602001908152602001600020546142ef9092919063ffffffff16565b6003600084815260200190815260200160002060008b73ffffffffffffffffffffffffffffffffffffffff1673ffffffffffffffffffffffffffffffffffffffff16815260200190815260200160002081905550611d80816003600085815260200190815260200160002060008b73ffffffffffffffffffffffffffffffffffffffff1673ffffffffffffffffffffffffffffffffffffffff16815260200190815260200160002054613b6390919063ffffffff16565b6003600084815260200190815260200160002060008a73ffffffffffffffffffffffffffffffffffffffff1673ffffffffffffffffffffffffffffffffffffffff168152602001908152602001600020819055505050806001019050611c13565b508473ffffffffffffffffffffffffffffffffffffffff168673ffffffffffffffffffffffffffffffffffffffff168273ffffffffffffffffffffffffffffffffffffffff167f4a39dc06d4c0dbc64b70af90fd698a233a518aa5d07e595d983b8c0526c8f7fb8787604051808060200180602001838103835285818151815260200191508051906020019060200280838360005b83811015611e91578082015181840152602081019050611e76565b50505050905001838103825284818151815260200191508051906020019060200280838360005b83811015611ed3578082015181840152602081019050611eb8565b5050505090500194505050505060405180910390a4611ef68187878787876143a9565b505050505050565b611f2460008084815260200190815260200160002060020154611f1f613b41565b612e3c565b611f79576040517f08c379a000000000000000000000000000000000000000000000000000000000815260040180806020018281038252602f815260200180615a3e602f913960400191505060405180910390fd5b611f838282614738565b5050565b611f8f613b41565b73ffffffffffffffffffffffffffffffffffffffff168173ffffffffffffffffffffffffffffffffffffffff1614612012576040517f08c379a000000000000000000000000000000000000000000000000000000000815260040180806020018281038252602f815260200180615ccc602f913960400191505060405180910390fd5b61201c82826147cb565b5050565b600060011515600f600085815260200190815260200160002060000160009054906101000a900460ff161515146120bf576040517f08c379a00000000000000000000000000000000000000000000000000000000081526004018080602001828103825260148152602001807f7363656e6520646f6573206e6f7420657869737400000000000000000000000081525060200191505060405180910390fd5b81600f600085815260200190815260200160002060010154116120e157600080fd5b61215a612123600f600086815260200190815260200160002060010154600f60008781526020019081526020016000206002015461485e90919063ffffffff16565b61214c84600f600088815260200190815260200160002060030154613b6390919063ffffffff16565b613b6390919063ffffffff16565b905092915050565b60008061216f8484612020565b9050600061217f858560006148e4565b90506000600f600087815260200190815260200160002060020154905060005b818110156122165760006121bc8285613b6390919063ffffffff16565b90506121e560016008600084815260200190815260200160002054614a3390919063ffffffff16565b600860008381526020019081526020016000208190555061220833826001614ab6565b50808060010191505061219f565b5061223e60016008600086815260200190815260200160002054613b6390919063ffffffff16565b60086000858152602001908152602001600020819055506122713384600160405180602001604052806000815250614cd2565b50505092915050565b7f5721171b1e9186284262a02aac3a681e12de7388ebccd0c2d06623651b6af6f8821480156122d657506122d57f5721171b1e9186284262a02aac3a681e12de7388ebccd0c2d06623651b6af6f86122d0613b41565b612e3c565b5b8061233957507f70480ee89cb38eff00b7d23da25713d52ce19c6ed428691d22c58b2f615e3d678214801561233857506123377f70480ee89cb38eff00b7d23da25713d52ce19c6ed428691d22c58b2f615e3d67612332613b41565b612e3c565b5b5b6123ab576040517f08c379a000000000000000000000000000000000000000000000000000000000815260040180806020018281038252600c8152602001807f4e6f7420616e2061646d696e000000000000000000000000000000000000000081525060200191505060405180910390fd5b6123b58282614738565b5050565b60608151835114612415576040517f08c379a0000000000000000000000000000000000000000000000000000000008152600401808060200182810382526029815260200180615c5a6029913960400191505060405180910390fd5b6060835167ffffffffffffffff8111801561242f57600080fd5b5060405190808252806020026020018201604052801561245e5781602001602082028036833780820191505090505b50905060005b84518110156125a057600073ffffffffffffffffffffffffffffffffffffffff1685828151811061249157fe5b602002602001015173ffffffffffffffffffffffffffffffffffffffff161415612506576040517f08c379a0000000000000000000000000000000000000000000000000000000008152600401808060200182810382526031815260200180615a986031913960400191505060405180910390fd5b6003600085838151811061251657fe5b60200260200101518152602001908152602001600020600086838151811061253a57fe5b602002602001015173ffffffffffffffffffffffffffffffffffffffff1673ffffffffffffffffffffffffffffffffffffffff1681526020019081526020016000205482828151811061258957fe5b602002602001018181525050806001019050612464565b508091505092915050565b60075481565b7f5721171b1e9186284262a02aac3a681e12de7388ebccd0c2d06623651b6af6f88214801561260d575061260c7f5721171b1e9186284262a02aac3a681e12de7388ebccd0c2d06623651b6af6f8612607613b41565b612e3c565b5b8061267057507f70480ee89cb38eff00b7d23da25713d52ce19c6ed428691d22c58b2f615e3d678214801561266f575061266e7f70480ee89cb38eff00b7d23da25713d52ce19c6ed428691d22c58b2f615e3d67612669613b41565b612e3c565b5b5b6126e2576040517f08c379a000000000000000000000000000000000000000000000000000000000815260040180806020018281038252600c8152602001807f4e6f7420616e2061646d696e000000000000000000000000000000000000000081525060200191505060405180910390fd5b6126ec82826147cb565b5050565b600c6020528060005260406000206000915090505481565b612710613b41565b73ffffffffffffffffffffffffffffffffffffffff1661272e612de1565b73ffffffffffffffffffffffffffffffffffffffff16146127b7576040517f08c379a00000000000000000000000000000000000000000000000000000000081526004018080602001828103825260208152602001807f4f776e61626c653a2063616c6c6572206973206e6f7420746865206f776e657281525060200191505060405180910390fd5b600073ffffffffffffffffffffffffffffffffffffffff16600160009054906101000a900473ffffffffffffffffffffffffffffffffffffffff1673ffffffffffffffffffffffffffffffffffffffff167f8be0079c531659141344cd1fd0a4f28419497f9722a3daafe3b4186f6b6457e060405160405180910390a36000600160006101000a81548173ffffffffffffffffffffffffffffffffffffffff021916908373ffffffffffffffffffffffffffffffffffffffff160217905550565b6128a97f9f2df0fed2c77648de5860a4cc508cd0818c85b8b8a1ab4ceeef8d981c8956a66128a4613b41565b612e3c565b61291b576040517f08c379a00000000000000000000000000000000000000000000000000000000081526004018080602001828103825260148152602001807f43616c6c6572206973206e6f74206d696e74657200000000000000000000000081525060200191505060405180910390fd5b600754831115612993576040517f08c379a000000000000000000000000000000000000000000000000000000000815260040180806020018281038252600c8152602001807f546f6b656e20494420444e45000000000000000000000000000000000000000081525060200191505060405180910390fd5b6129b9826008600086815260200190815260200160002054613b6390919063ffffffff16565b60086000858152602001908152602001600020819055506129dc84848484614cd2565b50505050565b6000806000600f600085815260200190815260200160002060030154600f600086815260200190815260200160002060020154600f6000878152602001908152602001600020600101549250925092509193909250565b6000806000905060005b600c60003373ffffffffffffffffffffffffffffffffffffffff1673ffffffffffffffffffffffffffffffffffffffff16815260200190815260200160002054811015612b2d576000612b0862015180612afa600b60003373ffffffffffffffffffffffffffffffffffffffff1673ffffffffffffffffffffffffffffffffffffffff1681526020019081526020016000208581548110612ae057fe5b906000526020600020015442614a3390919063ffffffff16565b614ed590919063ffffffff16565b9050612b1d8184613b6390919063ffffffff16565b9250508080600101915050612a43565b508091505090565b612b667f828634d95e775031b9ff576b159a8509d3053581a8c9c4d7d86899e0afcd882f612b61613b41565b612e3c565b612bd8576040517f08c379a000000000000000000000000000000000000000000000000000000000815260040180806020018281038252600d8152602001807f6e6f7420612063726561746f720000000000000000000000000000000000000081525060200191505060405180910390fd5b600085118015612be85750600084115b612c5a576040517f08c379a00000000000000000000000000000000000000000000000000000000081526004018080602001828103825260088152602001807f6261642064696d7300000000000000000000000000000000000000000000000081525060200191505060405180910390fd5b60008111612cd0576040517f08c379a00000000000000000000000000000000000000000000000000000000081526004018080602001828103825260088152602001807f62616420636f737400000000000000000000000000000000000000000000000081525060200191505060405180910390fd5b612ce66001600e54613b6390919063ffffffff16565b600e819055506000600e549050600060075490506000612d2288612d1460018a613b6390919063ffffffff16565b61485e90919063ffffffff16565b9050612d3981600754613b6390919063ffffffff16565b6007819055506000600f6000858152602001908152602001600020905060018160000160006101000a81548160ff021916908315150217905550888160010181905550878160020181905550828160030181905550868160050181905550868160040181905550858160070181905550848160060181905550505050505050505050565b7f828634d95e775031b9ff576b159a8509d3053581a8c9c4d7d86899e0afcd882f81565b6000600160009054906101000a900473ffffffffffffffffffffffffffffffffffffffff16905090565b6000612e3482600080868152602001908152602001600020600001614f5e90919063ffffffff16565b905092915050565b6000612e6582600080868152602001908152602001600020600001614f7890919063ffffffff16565b905092915050565b600a8054600181600116156101000203166002900480601f016020809104026020016040519081016040528092919081815260200182805460018160011615610100020316600290048015612f035780601f10612ed857610100808354040283529160200191612f03565b820191906000526020600020905b815481529060010190602001808311612ee657829003601f168201915b505050505081565b600060011515600f600084815260200190815260200160002060000160009054906101000a900460ff161515149050919050565b6000801b81565b8173ffffffffffffffffffffffffffffffffffffffff16612f65613b41565b73ffffffffffffffffffffffffffffffffffffffff161415612fd2576040517f08c379a0000000000000000000000000000000000000000000000000000000008152600401808060200182810382526029815260200180615c316029913960400191505060405180910390fd5b8060046000612fdf613b41565b73ffffffffffffffffffffffffffffffffffffffff1673ffffffffffffffffffffffffffffffffffffffff16815260200190815260200160002060008473ffffffffffffffffffffffffffffffffffffffff1673ffffffffffffffffffffffffffffffffffffffff16815260200190815260200160002060006101000a81548160ff0219169083151502179055508173ffffffffffffffffffffffffffffffffffffffff1661308c613b41565b73ffffffffffffffffffffffffffffffffffffffff167f17307eab39ab6107e8899845ad3d59bd9653f200f220920489ca2b5937696c318360405180821515815260200191505060405180910390a35050565b60006130e9612a39565b9050600081116130f857600080fd5b60005b600c60003373ffffffffffffffffffffffffffffffffffffffff1673ffffffffffffffffffffffffffffffffffffffff168152602001908152602001600020548110156131a85742600b60003373ffffffffffffffffffffffffffffffffffffffff1673ffffffffffffffffffffffffffffffffffffffff168152602001908152602001600020828154811061318d57fe5b906000526020600020018190555080806001019150506130fb565b50600d60009054906101000a900473ffffffffffffffffffffffffffffffffffffffff1673ffffffffffffffffffffffffffffffffffffffff16631662b2f933836040518363ffffffff1660e01b8152600401808373ffffffffffffffffffffffffffffffffffffffff16815260200182815260200192505050600060405180830381600087803b15801561323c57600080fd5b505af1158015613250573d6000803e3d6000fd5b5050505050565b60086020528060005260406000206000915090505481565b600061328e600080848152602001908152602001600020600001614fa8565b9050919050565b61329d613b41565b73ffffffffffffffffffffffffffffffffffffffff166132bb612de1565b73ffffffffffffffffffffffffffffffffffffffff1614613344576040517f08c379a00000000000000000000000000000000000000000000000000000000081526004018080602001828103825260208152602001807f4f776e61626c653a2063616c6c6572206973206e6f7420746865206f776e657281525060200191505060405180910390fd5b80600660006101000a81548173ffffffffffffffffffffffffffffffffffffffff021916908373ffffffffffffffffffffffffffffffffffffffff16021790555050565b7f9f2df0fed2c77648de5860a4cc508cd0818c85b8b8a1ab4ceeef8d981c8956a681565b6133d2600080848152602001908152602001600020600201546133cd613b41565b612e3c565b613427576040517f08c379a0000000000000000000000000000000000000000000000000000000008152600401808060200182810382526030815260200180615b3c6030913960400191505060405180910390fd5b61343182826147cb565b5050565b60008073ffffffffffffffffffffffffffffffffffffffff16600660009054906101000a900473ffffffffffffffffffffffffffffffffffffffff1673ffffffffffffffffffffffffffffffffffffffff1614613594576000600660009054906101000a900473ffffffffffffffffffffffffffffffffffffffff1690508273ffffffffffffffffffffffffffffffffffffffff168173ffffffffffffffffffffffffffffffffffffffff1663c4552791866040518263ffffffff1660e01b8152600401808273ffffffffffffffffffffffffffffffffffffffff16815260200191505060206040518083038186803b15801561353157600080fd5b505afa158015613545573d6000803e3d6000fd5b505050506040513d602081101561355b57600080fd5b810190808051906020019092919050505073ffffffffffffffffffffffffffffffffffffffff1614156135925760019150506135a1565b505b61359e8383614fbd565b90505b92915050565b600073ffffffffffffffffffffffffffffffffffffffff168473ffffffffffffffffffffffffffffffffffffffff16141561362d576040517f08c379a0000000000000000000000000000000000000000000000000000000008152600401808060200182810382526025815260200180615b6c6025913960400191505060405180910390fd5b613635613b41565b73ffffffffffffffffffffffffffffffffffffffff168573ffffffffffffffffffffffffffffffffffffffff16148061367b575061367a85613675613b41565b613435565b5b6136d0576040517f08c379a0000000000000000000000000000000000000000000000000000000008152600401808060200182810382526029815260200180615b136029913960400191505060405180910390fd5b60006136da613b41565b90506136fa8187876136eb88615051565b6136f488615051565b87613f0d565b613777836040518060600160405280602a8152602001615be6602a91396003600088815260200190815260200160002060008a73ffffffffffffffffffffffffffffffffffffffff1673ffffffffffffffffffffffffffffffffffffffff168152602001908152602001600020546142ef9092919063ffffffff16565b6003600086815260200190815260200160002060008873ffffffffffffffffffffffffffffffffffffffff1673ffffffffffffffffffffffffffffffffffffffff1681526020019081526020016000208190555061382e836003600087815260200190815260200160002060008873ffffffffffffffffffffffffffffffffffffffff1673ffffffffffffffffffffffffffffffffffffffff16815260200190815260200160002054613b6390919063ffffffff16565b6003600086815260200190815260200160002060008773ffffffffffffffffffffffffffffffffffffffff1673ffffffffffffffffffffffffffffffffffffffff168152602001908152602001600020819055508473ffffffffffffffffffffffffffffffffffffffff168673ffffffffffffffffffffffffffffffffffffffff168273ffffffffffffffffffffffffffffffffffffffff167fc3d58168c5ae7397731d063d5bbf3d657854427343f4c083240f7aacaa2d0f628787604051808381526020018281526020019250505060405180910390a46139148187878787876150c1565b505050505050565b613924613b41565b73ffffffffffffffffffffffffffffffffffffffff16613942612de1565b73ffffffffffffffffffffffffffffffffffffffff16146139cb576040517f08c379a00000000000000000000000000000000000000000000000000000000081526004018080602001828103825260208152602001807f4f776e61626c653a2063616c6c6572206973206e6f7420746865206f776e657281525060200191505060405180910390fd5b600073ffffffffffffffffffffffffffffffffffffffff168173ffffffffffffffffffffffffffffffffffffffff161415613a51576040517f08c379a0000000000000000000000000000000000000000000000000000000008152600401808060200182810382526026815260200180615ac96026913960400191505060405180910390fd5b8073ffffffffffffffffffffffffffffffffffffffff16600160009054906101000a900473ffffffffffffffffffffffffffffffffffffffff1673ffffffffffffffffffffffffffffffffffffffff167f8be0079c531659141344cd1fd0a4f28419497f9722a3daafe3b4186f6b6457e060405160405180910390a380600160006101000a81548173ffffffffffffffffffffffffffffffffffffffff021916908373ffffffffffffffffffffffffffffffffffffffff16021790555050565b6000613b39836000018373ffffffffffffffffffffffffffffffffffffffff1660001b6153ce565b905092915050565b600033905090565b8060059080519060200190613b5f92919061584e565b5050565b600080828401905083811015613be1576040517f08c379a000000000000000000000000000000000000000000000000000000000815260040180806020018281038252601b8152602001807f536166654d6174683a206164646974696f6e206f766572666c6f77000000000081525060200191505060405180910390fd5b8091505092915050565b600073ffffffffffffffffffffffffffffffffffffffff168473ffffffffffffffffffffffffffffffffffffffff161415613c71576040517f08c379a0000000000000000000000000000000000000000000000000000000008152600401808060200182810382526021815260200180615cab6021913960400191505060405180910390fd5b8151835114613ccb576040517f08c379a0000000000000000000000000000000000000000000000000000000008152600401808060200182810382526028815260200180615c836028913960400191505060405180910390fd5b6000613cd5613b41565b9050613ce681600087878787613f0d565b60005b8451811015613def57613d7b60036000878481518110613d0557fe5b6020026020010151815260200190815260200160002060008873ffffffffffffffffffffffffffffffffffffffff1673ffffffffffffffffffffffffffffffffffffffff16815260200190815260200160002054858381518110613d6557fe5b6020026020010151613b6390919063ffffffff16565b60036000878481518110613d8b57fe5b6020026020010151815260200190815260200160002060008873ffffffffffffffffffffffffffffffffffffffff1673ffffffffffffffffffffffffffffffffffffffff168152602001908152602001600020819055508080600101915050613ce9565b508473ffffffffffffffffffffffffffffffffffffffff16600073ffffffffffffffffffffffffffffffffffffffff168273ffffffffffffffffffffffffffffffffffffffff167f4a39dc06d4c0dbc64b70af90fd698a233a518aa5d07e595d983b8c0526c8f7fb8787604051808060200180602001838103835285818151815260200191508051906020019060200280838360005b83811015613ea0578082015181840152602081019050613e85565b50505050905001838103825284818151815260200191508051906020019060200280838360005b83811015613ee2578082015181840152602081019050613ec7565b5050505090500194505050505060405180910390a4613f06816000878787876143a9565b5050505050565b60005b83518110156142e657613f35848281518110613f2857fe5b602002602001015161543e565b1561422b57600073ffffffffffffffffffffffffffffffffffffffff168573ffffffffffffffffffffffffffffffffffffffff1614614149576000600c60008773ffffffffffffffffffffffffffffffffffffffff1673ffffffffffffffffffffffffffffffffffffffff16815260200190815260200160002054905060005b848381518110613fc157fe5b60200260200101518110156141025781600b60008973ffffffffffffffffffffffffffffffffffffffff1673ffffffffffffffffffffffffffffffffffffffff1681526020019081526020016000208054905011156140785742600b60008973ffffffffffffffffffffffffffffffffffffffff1673ffffffffffffffffffffffffffffffffffffffff168152602001908152602001600020838154811061406557fe5b90600052602060002001819055506140df565b600b60008873ffffffffffffffffffffffffffffffffffffffff1673ffffffffffffffffffffffffffffffffffffffff1681526020019081526020016000204290806001815401808255809150506001900390600052602060002001600090919091909150555b6140f3600183613b6390919063ffffffff16565b91508080600101915050613fb5565b5080600c60008873ffffffffffffffffffffffffffffffffffffffff1673ffffffffffffffffffffffffffffffffffffffff16815260200190815260200160002081905550505b600073ffffffffffffffffffffffffffffffffffffffff168673ffffffffffffffffffffffffffffffffffffffff1614614226576141e283828151811061418c57fe5b6020026020010151600c60008973ffffffffffffffffffffffffffffffffffffffff1673ffffffffffffffffffffffffffffffffffffffff16815260200190815260200160002054614a3390919063ffffffff16565b600c60008873ffffffffffffffffffffffffffffffffffffffff1673ffffffffffffffffffffffffffffffffffffffff168152602001908152602001600020819055505b6142d9565b600061424985838151811061423c57fe5b6020026020010151615521565b9050600073ffffffffffffffffffffffffffffffffffffffff168773ffffffffffffffffffffffffffffffffffffffff1614156142d7576142bc84838151811061428f57fe5b6020026020010151600f600084815260200190815260200160002060050154614a3390919063ffffffff16565b600f6000838152602001908152602001600020600501819055505b505b8080600101915050613f10565b50505050505050565b600083831115829061439c576040517f08c379a00000000000000000000000000000000000000000000000000000000081526004018080602001828103825283818151815260200191508051906020019080838360005b83811015614361578082015181840152602081019050614346565b50505050905090810190601f16801561438e5780820380516001836020036101000a031916815260200191505b509250505060405180910390fd5b5082840390509392505050565b6143c88473ffffffffffffffffffffffffffffffffffffffff1661566c565b15614730578373ffffffffffffffffffffffffffffffffffffffff1663bc197c8187878686866040518663ffffffff1660e01b8152600401808673ffffffffffffffffffffffffffffffffffffffff1681526020018573ffffffffffffffffffffffffffffffffffffffff168152602001806020018060200180602001848103845287818151815260200191508051906020019060200280838360005b83811015614480578082015181840152602081019050614465565b50505050905001848103835286818151815260200191508051906020019060200280838360005b838110156144c25780820151818401526020810190506144a7565b50505050905001848103825285818151815260200191508051906020019080838360005b838110156145015780820151818401526020810190506144e6565b50505050905090810190601f16801561452e5780820380516001836020036101000a031916815260200191505b5098505050505050505050602060405180830381600087803b15801561455357600080fd5b505af192505050801561458757506040513d602081101561457357600080fd5b810190808051906020019092919050505060015b61469157614593615909565b8061459e5750614640565b806040517f08c379a00000000000000000000000000000000000000000000000000000000081526004018080602001828103825283818151815260200191508051906020019080838360005b838110156146055780820151818401526020810190506145ea565b50505050905090810190601f1680156146325780820380516001836020036101000a031916815260200191505b509250505060405180910390fd5b6040517f08c379a00000000000000000000000000000000000000000000000000000000081526004018080602001828103825260348152602001806159c06034913960400191505060405180910390fd5b63bc197c8160e01b7bffffffffffffffffffffffffffffffffffffffffffffffffffffffff1916817bffffffffffffffffffffffffffffffffffffffffffffffffffffffff19161461472e576040517f08c379a0000000000000000000000000000000000000000000000000000000008152600401808060200182810382526028815260200180615a166028913960400191505060405180910390fd5b505b505050505050565b61475f81600080858152602001908152602001600020600001613b1190919063ffffffff16565b156147c75761476c613b41565b73ffffffffffffffffffffffffffffffffffffffff168173ffffffffffffffffffffffffffffffffffffffff16837f2f8788117e7eff1d82e926ec794901d17c78024a50270940304540a733656f0d60405160405180910390a45b5050565b6147f28160008085815260200190815260200160002060000161567f90919063ffffffff16565b1561485a576147ff613b41565b73ffffffffffffffffffffffffffffffffffffffff168173ffffffffffffffffffffffffffffffffffffffff16837ff6391f5c32d9c69d2a47ea670b442974b53935d1edc7fd64eb21e047a839171b60405160405180910390a45b5050565b60008083141561487157600090506148de565b600082840290508284828161488257fe5b04146148d9576040517f08c379a0000000000000000000000000000000000000000000000000000000008152600401808060200182810382526021815260200180615c106021913960400191505060405180910390fd5b809150505b92915050565b600060011515600f600086815260200190815260200160002060000160009054906101000a900460ff16151514614983576040517f08c379a00000000000000000000000000000000000000000000000000000000081526004018080602001828103825260148152602001807f7363656e6520646f6573206e6f7420657869737400000000000000000000000081525060200191505060405180910390fd5b82600f600086815260200190815260200160002060010154116149a557600080fd5b81600f600086815260200190815260200160002060020154116149c757600080fd5b614a2a6149f384600f60008881526020019081526020016000206002015461485e90919063ffffffff16565b614a1c84600f600089815260200190815260200160002060030154613b6390919063ffffffff16565b613b6390919063ffffffff16565b90509392505050565b600082821115614aab576040517f08c379a000000000000000000000000000000000000000000000000000000000815260040180806020018281038252601e8152602001807f536166654d6174683a207375627472616374696f6e206f766572666c6f77000081525060200191505060405180910390fd5b818303905092915050565b600073ffffffffffffffffffffffffffffffffffffffff168373ffffffffffffffffffffffffffffffffffffffff161415614b3c576040517f08c379a0000000000000000000000000000000000000000000000000000000008152600401808060200182810382526023815260200180615bc36023913960400191505060405180910390fd5b6000614b46613b41565b9050614b7681856000614b5887615051565b614b6187615051565b60405180602001604052806000815250613f0d565b614bf382604051806060016040528060248152602001615aef602491396003600087815260200190815260200160002060008873ffffffffffffffffffffffffffffffffffffffff1673ffffffffffffffffffffffffffffffffffffffff168152602001908152602001600020546142ef9092919063ffffffff16565b6003600085815260200190815260200160002060008673ffffffffffffffffffffffffffffffffffffffff1673ffffffffffffffffffffffffffffffffffffffff16815260200190815260200160002081905550600073ffffffffffffffffffffffffffffffffffffffff168473ffffffffffffffffffffffffffffffffffffffff168273ffffffffffffffffffffffffffffffffffffffff167fc3d58168c5ae7397731d063d5bbf3d657854427343f4c083240f7aacaa2d0f628686604051808381526020018281526020019250505060405180910390a450505050565b600073ffffffffffffffffffffffffffffffffffffffff168473ffffffffffffffffffffffffffffffffffffffff161415614d58576040517f08c379a0000000000000000000000000000000000000000000000000000000008152600401808060200182810382526021815260200180615cab6021913960400191505060405180910390fd5b6000614d62613b41565b9050614d8381600087614d7488615051565b614d7d88615051565b87613f0d565b614de6836003600087815260200190815260200160002060008873ffffffffffffffffffffffffffffffffffffffff1673ffffffffffffffffffffffffffffffffffffffff16815260200190815260200160002054613b6390919063ffffffff16565b6003600086815260200190815260200160002060008773ffffffffffffffffffffffffffffffffffffffff1673ffffffffffffffffffffffffffffffffffffffff168152602001908152602001600020819055508473ffffffffffffffffffffffffffffffffffffffff16600073ffffffffffffffffffffffffffffffffffffffff168273ffffffffffffffffffffffffffffffffffffffff167fc3d58168c5ae7397731d063d5bbf3d657854427343f4c083240f7aacaa2d0f628787604051808381526020018281526020019250505060405180910390a4614ece816000878787876150c1565b5050505050565b6000808211614f4c576040517f08c379a000000000000000000000000000000000000000000000000000000000815260040180806020018281038252601a8152602001807f536166654d6174683a206469766973696f6e206279207a65726f00000000000081525060200191505060405180910390fd5b818381614f5557fe5b04905092915050565b6000614f6d83600001836156af565b60001c905092915050565b6000614fa0836000018373ffffffffffffffffffffffffffffffffffffffff1660001b615732565b905092915050565b6000614fb682600001615755565b9050919050565b6000600460008473ffffffffffffffffffffffffffffffffffffffff1673ffffffffffffffffffffffffffffffffffffffff16815260200190815260200160002060008373ffffffffffffffffffffffffffffffffffffffff1673ffffffffffffffffffffffffffffffffffffffff16815260200190815260200160002060009054906101000a900460ff16905092915050565b606080600167ffffffffffffffff8111801561506c57600080fd5b5060405190808252806020026020018201604052801561509b5781602001602082028036833780820191505090505b50905082816000815181106150ac57fe5b60200260200101818152505080915050919050565b6150e08473ffffffffffffffffffffffffffffffffffffffff1661566c565b156153c6578373ffffffffffffffffffffffffffffffffffffffff1663f23a6e6187878686866040518663ffffffff1660e01b8152600401808673ffffffffffffffffffffffffffffffffffffffff1681526020018573ffffffffffffffffffffffffffffffffffffffff16815260200184815260200183815260200180602001828103825283818151815260200191508051906020019080838360005b8381101561519957808201518184015260208101905061517e565b50505050905090810190601f1680156151c65780820380516001836020036101000a031916815260200191505b509650505050505050602060405180830381600087803b1580156151e957600080fd5b505af192505050801561521d57506040513d602081101561520957600080fd5b810190808051906020019092919050505060015b61532757615229615909565b8061523457506152d6565b806040517f08c379a00000000000000000000000000000000000000000000000000000000081526004018080602001828103825283818151815260200191508051906020019080838360005b8381101561529b578082015181840152602081019050615280565b50505050905090810190601f1680156152c85780820380516001836020036101000a031916815260200191505b509250505060405180910390fd5b6040517f08c379a00000000000000000000000000000000000000000000000000000000081526004018080602001828103825260348152602001806159c06034913960400191505060405180910390fd5b63f23a6e6160e01b7bffffffffffffffffffffffffffffffffffffffffffffffffffffffff1916817bffffffffffffffffffffffffffffffffffffffffffffffffffffffff1916146153c4576040517f08c379a0000000000000000000000000000000000000000000000000000000008152600401808060200182810382526028815260200180615a166028913960400191505060405180910390fd5b505b505050505050565b60006153da8383615732565b615433578260000182908060018154018082558091505060019003906000526020600020016000909190919091505582600001805490508360010160008481526020019081526020016000208190555060019050615438565b600090505b92915050565b600080600190505b600e5481116155165760006154b8615493600f600085815260200190815260200160002060020154600f60008681526020019081526020016000206001015461485e90919063ffffffff16565b600f600085815260200190815260200160002060030154613b6390919063ffffffff16565b905060006154e5600f60008581526020019081526020016000206001015483613b6390919063ffffffff16565b90508185101580156154f657508085105b15615507576001935050505061551c565b50508080600101915050615446565b50600090505b919050565b600080600190505b600e5481116155f8576000600f600083815260200190815260200160002060030154905060006155c8615591600f600086815260200190815260200160002060020154600f60008781526020019081526020016000206001015461485e90919063ffffffff16565b6155ba600f60008781526020019081526020016000206001015485613b6390919063ffffffff16565b613b6390919063ffffffff16565b90508185101580156155d957508085105b156155e957829350505050615667565b50508080600101915050615529565b506040517f08c379a00000000000000000000000000000000000000000000000000000000081526004018080602001828103825260098152602001807f626164207363656e65000000000000000000000000000000000000000000000081525060200191505060405180910390fd5b919050565b600080823b905060008111915050919050565b60006156a7836000018373ffffffffffffffffffffffffffffffffffffffff1660001b615766565b905092915050565b600081836000018054905011615710576040517f08c379a00000000000000000000000000000000000000000000000000000000081526004018080602001828103825260228152602001806159f46022913960400191505060405180910390fd5b82600001828154811061571f57fe5b9060005260206000200154905092915050565b600080836001016000848152602001908152602001600020541415905092915050565b600081600001805490509050919050565b6000808360010160008481526020019081526020016000205490506000811461584257600060018203905060006001866000018054905003905060008660000182815481106157b157fe5b90600052602060002001549050808760000184815481106157ce57fe5b906000526020600020018190555060018301876001016000838152602001908152602001600020819055508660000180548061580657fe5b60019003818190600052602060002001600090559055866001016000878152602001908152602001600020600090556001945050505050615848565b60009150505b92915050565b828054600181600116156101000203166002900490600052602060002090601f016020900481019282601f1061588f57805160ff19168380011785556158bd565b828001600101855582156158bd579182015b828111156158bc5782518255916020019190600101906158a1565b5b5090506158ca91906158ce565b5090565b5b808211156158e75760008160009055506001016158cf565b5090565b6000601f19601f8301169050919050565b60008160e01c9050919050565b600060443d1015615919576159bc565b60046000803e61592a6000516158fc565b6308c379a0811461593b57506159bc565b60405160043d036004823e80513d602482011167ffffffffffffffff82111715615967575050506159bc565b808201805167ffffffffffffffff8111156159865750505050506159bc565b8060208301013d85018111156159a1575050505050506159bc565b6159aa826158eb565b60208401016040528296505050505050505b9056fe455243313135353a207472616e7366657220746f206e6f6e2045524331313535526563656976657220696d706c656d656e746572456e756d657261626c655365743a20696e646578206f7574206f6620626f756e6473455243313135353a204552433131353552656365697665722072656a656374656420746f6b656e73416363657373436f6e74726f6c3a2073656e646572206d75737420626520616e2061646d696e20746f206772616e74455243313135353a2062616c616e636520717565727920666f7220746865207a65726f2061646472657373455243313135353a2062617463682062616c616e636520717565727920666f7220746865207a65726f20616464726573734f776e61626c653a206e6577206f776e657220697320746865207a65726f2061646472657373455243313135353a206275726e20616d6f756e7420657863656564732062616c616e6365455243313135353a2063616c6c6572206973206e6f74206f776e6572206e6f7220617070726f766564416363657373436f6e74726f6c3a2073656e646572206d75737420626520616e2061646d696e20746f207265766f6b65455243313135353a207472616e7366657220746f20746865207a65726f2061646472657373455243313135353a207472616e736665722063616c6c6572206973206e6f74206f776e6572206e6f7220617070726f766564455243313135353a206275726e2066726f6d20746865207a65726f2061646472657373455243313135353a20696e73756666696369656e742062616c616e636520666f72207472616e73666572536166654d6174683a206d756c7469706c69636174696f6e206f766572666c6f77455243313135353a2073657474696e6720617070726f76616c2073746174757320666f722073656c66455243313135353a206163636f756e747320616e6420696473206c656e677468206d69736d61746368455243313135353a2069647320616e6420616d6f756e7473206c656e677468206d69736d61746368455243313135353a206d696e7420746f20746865207a65726f2061646472657373416363657373436f6e74726f6c3a2063616e206f6e6c792072656e6f756e636520726f6c657320666f722073656c66a26469706673582212207b467385f4d631538a59fe3e865453f6dd6554ed69d3a29d899ef8d5ad4643f864736f6c634300060c0033",
  "immutableReferences": {},
  "source": "// SPDX-License-Identifier: MIT\n\npragma solidity ^0.6.0;\n\nimport \"./BaseERC1155.sol\";\nimport \"./NamingContract.sol\";\nimport \"./escape/EscapeToken.sol\";\n\n/*\n *  ESTile - This is a ERC1155 contract which allows for tiles and completed \n *  puzzles to be tokenized. Scenes are a collection of puzzles, and puzzles\n *  are a collection of tiles. \n *\n *  Basic rules:\n *  \n *  Only this contract can mint the finished puzzle tokens, and it will only\n *  do so when the a user tx trades in all N puzzle tiles for the said puzzle.\n *\n *  Only the creator can create scenes.\n *\n *  Only the minter can mint tiles and tokens.\n */\ncontract ESTile is BaseERC1155\n{\n  using SafeMath for uint256;\n\n  /*\n   *  Scenes are N number of pictures that have been split into a jigsaw. \n   *  Etherscapes are usually 6x4 tile puzzles and each scene will have N\n   *  number of images within the scene - some unlockable via the packs for \n   *  sale, some unlockable only via solving puzzles (collect all N tiles in a\n   *  single puzzle).\n   */\n  struct Scene {\n    bool exists;\n    \n    // The number of purchaseable vs unlockable puzzles.\n    uint256 numPuzzles;\n    \n    // Number of shards in a single puzzle.\n    uint256 numTilesPerPuzzle;\n\n    // The startToken for a scene is the first tile token of the first puzzle in\n    // the scene. The startToken + (i * numTilesPerPuzzle) gets us the i'th \n    // puzzle's first tile token and so on. The start token + (numPuzzles * \n    // numTilesPerPuzzle) will get us to the first completed puzzle token.\n    uint256 startToken;\n\n    uint256 maxTiles;\n    uint256 tilesLeft;\n\n    uint256 escapeCost;\n    uint256 ethCost;\n  }\n\n  // Collect a way to keep track of all full puzzle token holders. This is a \n  // claim database which tracks the block at which a user has a claim for, this\n  // is unique per completed puzzle token and per user.\n  mapping (address => uint256[]) claims;\n  mapping (address => uint256) public claimLength;\n  \n  /*\n   *  Deployed contracts that we interact with. \n   *\n   *  The EscapeToken is needed so we can issue ESCAPE credits based on the \n   *  scene bonus pool (if applicable).\n   *\n   *  The NamingContract is needed to rename finished puzzles that the owner has\n   *  solved (and owns the finished puzzle tile for).\n   */\n  EscapeToken internal escapeTokenContract;\n\n  uint256 public sceneCount;\n  mapping (uint256 => Scene) internal scenes;\n\n  // Debugging ... \n  // uint256 constant REWARD_INTERVAL = 2 seconds;\n  uint256 constant REWARD_INTERVAL = 1 days;\n    \n  //////////////////////////////////////////////////////////////////////////////\n\n  /*\n   *  Constructor!\n   */\n  constructor(\n    string memory _uri,\n    address _proxyRegistryAddress,\n    address _escapeERC20Address\n  )\n    BaseERC1155(\n      \"EtherScapes shards\",\n      \"SHARD\",\n      _uri,\n      _proxyRegistryAddress\n    )\n    public\n  {\n      maxTokenID = 1;\n      sceneCount = 0;\n      escapeTokenContract = EscapeToken(_escapeERC20Address);\n  }\n\n  //////////////////////////////////////////////////////////////////////////////\n\n  /*\n   *  Assign a scene worth of tokens, this will be based on the sceneId, the\n   *  puzzleId and then width x height of tokens.\n   */\n  function createScene(\n    uint256 numPuzzles,\n    uint256 numTilesPerPuzzle,\n    uint256 maxTilesForSale,\n    uint256 ethCost,\n    uint256 escapeCost\n  )\n    external\n  {\n    require(hasRole(CREATOR_ROLE, _msgSender()), \"not a creator\");\n    require(numPuzzles > 0 && numTilesPerPuzzle > 0, \"bad dims\");\n    require(escapeCost > 0, \"bad cost\");\n    \n    /*\n     *  Create tokens to represent each puzzle in this scene. \n     *\n     *  Each puzzle will have one additional token to track the completed puzzle\n     *  that can only be acquired by burning all the subsequent puzzle tiles (1\n     *  of each that make up the image).\n     */\n    sceneCount = sceneCount.add(1);\n\n    uint256 sceneId = sceneCount;\n    uint256 tid = maxTokenID;\n    uint256 numTokens = numTilesPerPuzzle\n                          .add(1)\n                          .mul(numPuzzles);\n    maxTokenID = maxTokenID.add(numTokens);\n\n    Scene storage s = scenes[sceneId];\n    s.exists = true;\n    s.numPuzzles = numPuzzles;\n    s.numTilesPerPuzzle = numTilesPerPuzzle;\n    s.startToken = tid;\n    s.tilesLeft = maxTilesForSale;\n    s.maxTiles = maxTilesForSale;\n    s.ethCost = ethCost;\n    s.escapeCost = escapeCost;\n  }\n\n  //////////////////////////////////////////////////////////////////////////////\n\n  /*\n   *  Public and inter-contract queries for scene desc info.\n   */\n  function sceneExists(uint256 sceneId) view external returns (bool) { return (scenes[sceneId].exists == true); }\n  function sceneShardInfo(uint256 sceneId) view external returns (uint256, uint256, uint256) { return (scenes[sceneId].tilesLeft, scenes[sceneId].ethCost, scenes[sceneId].escapeCost); }\n  function tokenRangeForScene(uint256 sceneId) view public returns (uint256, uint256, uint256) {\n    return (scenes[sceneId].startToken, scenes[sceneId].numTilesPerPuzzle, scenes[sceneId].numPuzzles);\n  }\n  \n  //////////////////////////////////////////////////////////////////////////////\n\n  /*\n   *  User - contract interaction.\n   */\n\n  /*\n   *  For a given scene, and puzzle - checks that the sender owns at-least one \n   *  each of the tile tokens that make up the puzzle. If so the sender burns \n   *  the tokens, and earns ESC and the completed token for the puzzle.\n   */\n  function redeemPuzzle(\n    uint256 sceneId,\n    uint256 puzzleId\n  ) \n    external \n    returns (uint256) \n  {\n    uint256 puzzleTokenId = getPuzzleToken(sceneId, puzzleId);\n    uint256 tileTokenStart = getTileToken(sceneId, puzzleId, 0);\n    uint256 tilesPerPuzzle = scenes[sceneId].numTilesPerPuzzle;\n    for (uint256 i = 0; i < tilesPerPuzzle; i++) {\n      uint256 tid = tileTokenStart.add(i);\n      totalSupply[tid] = totalSupply[tid].sub(1);\n      _burn(msg.sender, tid, 1);\n    }\n    \n    // Figure out the reward (full image token) for this pictureId and award it\n    // the the sender who just burned all their puzzle tokens! In this case we \n    // bypass the mint() logic and directly award the token here as this is now\n    // mintable by the redemption.\n    totalSupply[puzzleTokenId] = totalSupply[puzzleTokenId].add(1);\n    _mint(msg.sender, puzzleTokenId, 1, \"\");\n  }\n\n  /*\n   *  A claim is opened anytime a puzzle is solved, each claim is worth one \n   *  ESCAPE per day. When a token is transferred - you give up your oldest \n   *  claim! So it is best to claim rewards before transferring any completed \n   *  puzzle tokens.\n   */\n  function getClaimInfo()\n    view \n    public \n    returns (uint256) \n  {\n    uint256 total = 0;\n    for (uint256 i = 0; i < claimLength[msg.sender]; i++) {\n      uint256 reward = now.sub(claims[msg.sender][i])\n                          .div(REWARD_INTERVAL);\n      total = total.add(reward);\n    }\n    return total;\n  } \n\n  function claimReward()\n    public \n  {\n    uint256 total = getClaimInfo();\n    require(total > 0);\n    for (uint256 i = 0; i < claimLength[msg.sender]; i++) {\n      claims[msg.sender][i] = now;\n    }\n    escapeTokenContract.mintForAccount(msg.sender, total);\n  } \n\n  function isPuzzleTokenId\n  (\n    uint256 id\n  ) \n    view\n    internal\n    returns (bool) \n  {\n    for (uint s = 1; s <= sceneCount; s++) {\n      uint256 pts = scenes[s].startToken\n                      .add(scenes[s].numPuzzles.mul(scenes[s].numTilesPerPuzzle));\n      uint256 pte = pts.add(scenes[s].numPuzzles);\n      if (id >= pts && id < pte) return true;\n    }\n    return false;\n  }\n\n  function getSceneForToken\n  (\n    uint256 id\n  ) \n    view\n    internal\n    returns (uint256) \n  {\n    for (uint s = 1; s <= sceneCount; s++) {\n      uint256 pts = scenes[s].startToken;\n      uint256 pte = pts\n                      .add(scenes[s].numPuzzles)\n                      .add(scenes[s].numPuzzles.mul(scenes[s].numTilesPerPuzzle));\n      if (id >= pts && id < pte) return s;\n    }\n    revert(\"bad scene\");\n  }\n\n  function _beforeTokenTransfer\n  (\n    address /*operator*/,\n    address from,\n    address to,\n    uint256[] memory ids,\n    uint256[] memory amounts,\n    bytes memory /*data*/\n  )\n    internal\n    override\n  {\n    /*\n     *  A new token was minted! If it is a full piece token - add the tracking\n     *  for its claim here.\n     */\n    for (uint i = 0; i < ids.length; i++) {\n      if (isPuzzleTokenId(ids[i])) {\n        if (to != address(0)) {\n          // New token minted, and its a puzzle token - add a claim for the \n          // count minted here.\n          uint256 claimIdx = claimLength[to];\n          for (uint n = 0; n < amounts[i]; n++) {\n            if (claims[to].length > claimIdx) {\n              claims[to][claimIdx] = now;\n            } else {\n              claims[to].push(now);\n            }\n            claimIdx = claimIdx.add(1);\n          }\n          claimLength[to] = claimIdx;\n        }\n        if (from != address(0)) {\n          // This is a burn or a transfer, remove claims.\n          claimLength[from] = claimLength[from].sub(amounts[i]);\n        }\n      } else {\n        /* else this is a non puzzle token, these are limited by scene */\n        uint256 sid = getSceneForToken(ids[i]);\n        if (from == address(0)) {\n          scenes[sid].tilesLeft = scenes[sid].tilesLeft.sub(amounts[i]);\n        }\n      }\n    }\n  }\n  \n  function getTileToken(\n    uint256 sceneId,\n    uint256 puzzleId,\n    uint256 tileNum\n  )\n    internal \n    view\n    returns (uint256) \n  {\n    require(scenes[sceneId].exists == true, \"scene does not exist\");\n    require(scenes[sceneId].numPuzzles > puzzleId);\n    require(scenes[sceneId].numTilesPerPuzzle > tileNum);\n    return scenes[sceneId].startToken\n            .add(tileNum)\n            .add(scenes[sceneId].numTilesPerPuzzle.mul(puzzleId));\n  }\n\n  function getPuzzleToken(\n    uint256 sceneId,\n    uint256 puzzleId\n  )\n    public\n    view\n    returns (uint256) \n  {\n    require(scenes[sceneId].exists == true, \"scene does not exist\");\n    require(scenes[sceneId].numPuzzles > puzzleId);\n    return scenes[sceneId].startToken\n            .add(puzzleId)\n            .add(scenes[sceneId].numTilesPerPuzzle.mul(scenes[sceneId].numPuzzles));\n  }\n}\n",
  "sourcePath": "/Users/shaba/work/github/private/crypto/etherscapes/contract/contracts/ESTile.sol",
  "compiler": {
    "name": "solc",
    "version": "0.6.12+commit.27d51765.Emscripten.clang"
  },
  "schemaVersion": "3.3.3",
  "updatedAt": "2021-03-03T05:57:00.876Z",
  "networkType": "ethereum",
  "devdoc": {
    "kind": "dev",
    "methods": {
      "balanceOf(address,uint256)": {
        "details": "See {IERC1155-balanceOf}. Requirements: - `account` cannot be the zero address."
      },
      "balanceOfBatch(address[],uint256[])": {
        "details": "See {IERC1155-balanceOfBatch}. Requirements: - `accounts` and `ids` must have the same length."
      },
      "getRoleAdmin(bytes32)": {
        "details": "Returns the admin role that controls `role`. See {grantRole} and {revokeRole}. To change a role's admin, use {_setRoleAdmin}."
      },
      "getRoleMember(bytes32,uint256)": {
        "details": "Returns one of the accounts that have `role`. `index` must be a value between 0 and {getRoleMemberCount}, non-inclusive. Role bearers are not sorted in any particular way, and their ordering may change at any point. WARNING: When using {getRoleMember} and {getRoleMemberCount}, make sure you perform all queries on the same block. See the following https://forum.openzeppelin.com/t/iterating-over-elements-on-enumerableset-in-openzeppelin-contracts/2296[forum post] for more information."
      },
      "getRoleMemberCount(bytes32)": {
        "details": "Returns the number of accounts that have `role`. Can be used together with {getRoleMember} to enumerate all bearers of a role."
      },
      "grantRole(bytes32,address)": {
        "details": "Grants `role` to `account`. If `account` had not been already granted `role`, emits a {RoleGranted} event. Requirements: - the caller must have ``role``'s admin role."
      },
      "hasRole(bytes32,address)": {
        "details": "Returns `true` if `account` has been granted `role`."
      },
      "owner()": {
        "details": "Returns the address of the current owner."
      },
      "renounceOwnership()": {
        "details": "Leaves the contract without owner. It will not be possible to call `onlyOwner` functions anymore. Can only be called by the current owner. NOTE: Renouncing ownership will leave the contract without an owner, thereby removing any functionality that is only available to the owner."
      },
      "renounceRole(bytes32,address)": {
        "details": "Revokes `role` from the calling account. Roles are often managed via {grantRole} and {revokeRole}: this function's purpose is to provide a mechanism for accounts to lose their privileges if they are compromised (such as when a trusted device is misplaced). If the calling account had been granted `role`, emits a {RoleRevoked} event. Requirements: - the caller must be `account`."
      },
      "revokeRole(bytes32,address)": {
        "details": "Revokes `role` from `account`. If `account` had been granted `role`, emits a {RoleRevoked} event. Requirements: - the caller must have ``role``'s admin role."
      },
      "safeBatchTransferFrom(address,address,uint256[],uint256[],bytes)": {
        "details": "See {IERC1155-safeBatchTransferFrom}."
      },
      "safeTransferFrom(address,address,uint256,uint256,bytes)": {
        "details": "See {IERC1155-safeTransferFrom}."
      },
      "setApprovalForAll(address,bool)": {
        "details": "See {IERC1155-setApprovalForAll}."
      },
      "supportsInterface(bytes4)": {
        "details": "See {IERC165-supportsInterface}. Time complexity O(1), guaranteed to always use less than 30 000 gas."
      },
      "transferOwnership(address)": {
        "details": "Transfers ownership of the contract to a new account (`newOwner`). Can only be called by the current owner."
      },
      "uri(uint256)": {
        "details": "See {IERC1155MetadataURI-uri}. This implementation returns the same URI for *all* token types. It relies on the token type ID substituion mechanism https://eips.ethereum.org/EIPS/eip-1155#metadata[defined in the EIP]. Clients calling this function must replace the `\\{id\\}` substring with the actual token type ID."
      }
    },
    "version": 1
  },
  "userdoc": {
    "kind": "user",
    "methods": {
      "grantAdmin(bytes32,address)": {
        "notice": "Only Token Creator Admin Functions*"
      },
      "isApprovedForAll(address,address)": {
        "notice": "Override isApprovedForAll to whitelist user's OpenSea proxy accounts to enable gas-free listings."
      },
      "mint(address,uint256,uint256,bytes)": {
        "notice": "Only Token Minter Functions*"
      },
      "setProxyRegistryAddress(address)": {
        "notice": "Only Owner Functions*"
      }
    },
    "version": 1
  }
}