{
  "contractName": "ESTileWrapper",
  "abi": [
    {
      "inputs": [
        {
          "internalType": "address",
          "name": "_escapeAddress",
          "type": "address"
        },
        {
          "internalType": "address",
          "name": "_estileAddress",
          "type": "address"
        }
      ],
      "stateMutability": "nonpayable",
      "type": "constructor"
    },
    {
      "anonymous": false,
      "inputs": [
        {
          "indexed": true,
          "internalType": "address",
          "name": "previousOwner",
          "type": "address"
        },
        {
          "indexed": true,
          "internalType": "address",
          "name": "newOwner",
          "type": "address"
        }
      ],
      "name": "OwnershipTransferred",
      "type": "event"
    },
    {
      "inputs": [],
      "name": "esTileContract",
      "outputs": [
        {
          "internalType": "contract ESTile",
          "name": "",
          "type": "address"
        }
      ],
      "stateMutability": "view",
      "type": "function",
      "constant": true
    },
    {
      "inputs": [],
      "name": "escapeTokenContract",
      "outputs": [
        {
          "internalType": "contract EscapeToken",
          "name": "",
          "type": "address"
        }
      ],
      "stateMutability": "view",
      "type": "function",
      "constant": true
    },
    {
      "inputs": [],
      "name": "owner",
      "outputs": [
        {
          "internalType": "address",
          "name": "",
          "type": "address"
        }
      ],
      "stateMutability": "view",
      "type": "function",
      "constant": true
    },
    {
      "inputs": [],
      "name": "renounceOwnership",
      "outputs": [],
      "stateMutability": "nonpayable",
      "type": "function"
    },
    {
      "inputs": [
        {
          "internalType": "address",
          "name": "newOwner",
          "type": "address"
        }
      ],
      "name": "transferOwnership",
      "outputs": [],
      "stateMutability": "nonpayable",
      "type": "function"
    },
    {
      "inputs": [
        {
          "internalType": "address",
          "name": "_address",
          "type": "address"
        }
      ],
      "name": "setEscapeTokenAddress",
      "outputs": [],
      "stateMutability": "nonpayable",
      "type": "function"
    },
    {
      "inputs": [
        {
          "internalType": "address",
          "name": "_address",
          "type": "address"
        }
      ],
      "name": "setESTileAddress",
      "outputs": [],
      "stateMutability": "nonpayable",
      "type": "function"
    },
    {
      "inputs": [
        {
          "internalType": "uint256",
          "name": "sceneId",
          "type": "uint256"
        },
        {
          "internalType": "uint256",
          "name": "count",
          "type": "uint256"
        }
      ],
      "name": "buyTilesForEscape",
      "outputs": [],
      "stateMutability": "nonpayable",
      "type": "function"
    },
    {
      "inputs": [
        {
          "internalType": "uint256",
          "name": "sceneId",
          "type": "uint256"
        },
        {
          "internalType": "uint256",
          "name": "count",
          "type": "uint256"
        }
      ],
      "name": "buyTilesForETH",
      "outputs": [],
      "stateMutability": "payable",
      "type": "function",
      "payable": true
    },
    {
      "inputs": [
        {
          "internalType": "uint256",
          "name": "sceneId",
          "type": "uint256"
        },
        {
          "internalType": "address[]",
          "name": "tos",
          "type": "address[]"
        },
        {
          "internalType": "uint256",
          "name": "count",
          "type": "uint256"
        }
      ],
      "name": "airdropTiles",
      "outputs": [],
      "stateMutability": "nonpayable",
      "type": "function"
    },
    {
      "inputs": [],
      "name": "withdrawBalance",
      "outputs": [],
      "stateMutability": "nonpayable",
      "type": "function"
    },
    {
      "inputs": [
        {
          "internalType": "uint256",
          "name": "_newSeed",
          "type": "uint256"
        }
      ],
      "name": "setSeed",
      "outputs": [],
      "stateMutability": "nonpayable",
      "type": "function"
    }
  ],
  "bytecode": "0x608060405234801561001057600080fd5b50604051611b7a380380611b7a8339818101604052604081101561003357600080fd5b810190808051906020019092919080519060200190929190505050600061005e61018560201b60201c565b9050806000806101000a81548173ffffffffffffffffffffffffffffffffffffffff021916908373ffffffffffffffffffffffffffffffffffffffff1602179055508073ffffffffffffffffffffffffffffffffffffffff16600073ffffffffffffffffffffffffffffffffffffffff167f8be0079c531659141344cd1fd0a4f28419497f9722a3daafe3b4186f6b6457e060405160405180910390a35081600160006101000a81548173ffffffffffffffffffffffffffffffffffffffff021916908373ffffffffffffffffffffffffffffffffffffffff16021790555080600260006101000a81548173ffffffffffffffffffffffffffffffffffffffff021916908373ffffffffffffffffffffffffffffffffffffffff160217905550505061018d565b600033905090565b6119de8061019c6000396000f3fe6080604052600436106100a75760003560e01c8063857ac4bb11610064578063857ac4bb146101e95780638d84b50f1461023a5780638da5cb5b14610313578063c32a50f914610354578063ebe0e1b31461038f578063f2fde38b146103d0576100a7565b80631314b5e7146100ac57806356e20044146100ed5780635fd8c710146101255780636a4b88541461013c578063715018a61461018d5780637a8bd2dc146101a4575b600080fd5b3480156100b857600080fd5b506100c1610421565b604051808273ffffffffffffffffffffffffffffffffffffffff16815260200191505060405180910390f35b6101236004803603604081101561010357600080fd5b810190808035906020019092919080359060200190929190505050610447565b005b34801561013157600080fd5b5061013a6104eb565b005b34801561014857600080fd5b5061018b6004803603602081101561015f57600080fd5b81019080803573ffffffffffffffffffffffffffffffffffffffff16906020019092919050505061066c565b005b34801561019957600080fd5b506101a2610802565b005b3480156101b057600080fd5b506101e7600480360360408110156101c757600080fd5b81019080803590602001909291908035906020019092919050505061096f565b005b3480156101f557600080fd5b506102386004803603602081101561020c57600080fd5b81019080803573ffffffffffffffffffffffffffffffffffffffff169060200190929190505050610a56565b005b34801561024657600080fd5b506103116004803603606081101561025d57600080fd5b81019080803590602001909291908035906020019064010000000081111561028457600080fd5b82018360208201111561029657600080fd5b803590602001918460208302840111640100000000831117156102b857600080fd5b919080806020026020016040519081016040528093929190818152602001838360200280828437600081840152601f19601f82011690508083019250505050505050919291929080359060200190929190505050610bec565b005b34801561031f57600080fd5b50610328611068565b604051808273ffffffffffffffffffffffffffffffffffffffff16815260200191505060405180910390f35b34801561036057600080fd5b5061038d6004803603602081101561037757600080fd5b8101908080359060200190929190505050611091565b005b34801561039b57600080fd5b506103a461114a565b604051808273ffffffffffffffffffffffffffffffffffffffff16815260200191505060405180910390f35b3480156103dc57600080fd5b5061041f600480360360208110156103f357600080fd5b81019080803573ffffffffffffffffffffffffffffffffffffffff169060200190929190505050611170565b005b600160009054906101000a900473ffffffffffffffffffffffffffffffffffffffff1681565b6000610463662386f26fc100008361136290919063ffffffff16565b9050803410156104db576040517f08c379a000000000000000000000000000000000000000000000000000000000815260040180806020018281038252600e8152602001807f6e6f7420656e6f7567682065746800000000000000000000000000000000000081525060200191505060405180910390fd5b6104e63384846113e8565b505050565b6104f3611734565b73ffffffffffffffffffffffffffffffffffffffff16610511611068565b73ffffffffffffffffffffffffffffffffffffffff161461059a576040517f08c379a00000000000000000000000000000000000000000000000000000000081526004018080602001828103825260208152602001807f4f776e61626c653a2063616c6c6572206973206e6f7420746865206f776e657281525060200191505060405180910390fd5b600047905060008111610615576040517f08c379a000000000000000000000000000000000000000000000000000000000815260040180806020018281038252600f8152602001807f6e6f2062616c616e6365206c656674000000000000000000000000000000000081525060200191505060405180910390fd5b600061061f611068565b90508073ffffffffffffffffffffffffffffffffffffffff166108fc839081150290604051600060405180830381858888f19350505050158015610667573d6000803e3d6000fd5b505050565b610674611734565b73ffffffffffffffffffffffffffffffffffffffff16610692611068565b73ffffffffffffffffffffffffffffffffffffffff161461071b576040517f08c379a00000000000000000000000000000000000000000000000000000000081526004018080602001828103825260208152602001807f4f776e61626c653a2063616c6c6572206973206e6f7420746865206f776e657281525060200191505060405180910390fd5b600073ffffffffffffffffffffffffffffffffffffffff168173ffffffffffffffffffffffffffffffffffffffff1614156107be576040517f08c379a00000000000000000000000000000000000000000000000000000000081526004018080602001828103825260168152602001807f43616e277420736574207a65726f20616464726573730000000000000000000081525060200191505060405180910390fd5b80600160006101000a81548173ffffffffffffffffffffffffffffffffffffffff021916908373ffffffffffffffffffffffffffffffffffffffff16021790555050565b61080a611734565b73ffffffffffffffffffffffffffffffffffffffff16610828611068565b73ffffffffffffffffffffffffffffffffffffffff16146108b1576040517f08c379a00000000000000000000000000000000000000000000000000000000081526004018080602001828103825260208152602001807f4f776e61626c653a2063616c6c6572206973206e6f7420746865206f776e657281525060200191505060405180910390fd5b600073ffffffffffffffffffffffffffffffffffffffff1660008054906101000a900473ffffffffffffffffffffffffffffffffffffffff1673ffffffffffffffffffffffffffffffffffffffff167f8be0079c531659141344cd1fd0a4f28419497f9722a3daafe3b4186f6b6457e060405160405180910390a360008060006101000a81548173ffffffffffffffffffffffffffffffffffffffff021916908373ffffffffffffffffffffffffffffffffffffffff160217905550565b600061098560058361136290919063ffffffff16565b90506000811161099457600080fd5b600160009054906101000a900473ffffffffffffffffffffffffffffffffffffffff1673ffffffffffffffffffffffffffffffffffffffff16639dc29fac6109da611734565b836040518363ffffffff1660e01b8152600401808373ffffffffffffffffffffffffffffffffffffffff16815260200182815260200192505050600060405180830381600087803b158015610a2e57600080fd5b505af1158015610a42573d6000803e3d6000fd5b50505050610a513384846113e8565b505050565b610a5e611734565b73ffffffffffffffffffffffffffffffffffffffff16610a7c611068565b73ffffffffffffffffffffffffffffffffffffffff1614610b05576040517f08c379a00000000000000000000000000000000000000000000000000000000081526004018080602001828103825260208152602001807f4f776e61626c653a2063616c6c6572206973206e6f7420746865206f776e657281525060200191505060405180910390fd5b600073ffffffffffffffffffffffffffffffffffffffff168173ffffffffffffffffffffffffffffffffffffffff161415610ba8576040517f08c379a00000000000000000000000000000000000000000000000000000000081526004018080602001828103825260168152602001807f43616e277420736574207a65726f20616464726573730000000000000000000081525060200191505060405180910390fd5b80600260006101000a81548173ffffffffffffffffffffffffffffffffffffffff021916908373ffffffffffffffffffffffffffffffffffffffff16021790555050565b610bf4611734565b73ffffffffffffffffffffffffffffffffffffffff16610c12611068565b73ffffffffffffffffffffffffffffffffffffffff1614610c9b576040517f08c379a00000000000000000000000000000000000000000000000000000000081526004018080602001828103825260208152602001807f4f776e61626c653a2063616c6c6572206973206e6f7420746865206f776e657281525060200191505060405180910390fd5b60008111610ca857600080fd5b6000806000600260009054906101000a900473ffffffffffffffffffffffffffffffffffffffff1673ffffffffffffffffffffffffffffffffffffffff166380e6548e876040518263ffffffff1660e01b81526004018082815260200191505060606040518083038186803b158015610d2057600080fd5b505afa158015610d34573d6000803e3d6000fd5b505050506040513d6060811015610d4a57600080fd5b810190808051906020019092919080519060200190929190805190602001909291905050508093508194508295505050506000610d90828461136290919063ffffffff16565b905060608567ffffffffffffffff81118015610dab57600080fd5b50604051908082528060200260200182016040528015610dda5781602001602082028036833780820191505090505b50905060608667ffffffffffffffff81118015610df657600080fd5b50604051908082528060200260200182016040528015610e255781602001602082028036833780820191505090505b5090506000610e333361173c565b905060005b895181101561105b5760005b89811015610ef157610e71610e6287856117c790919063ffffffff16565b8a61185090919063ffffffff16565b858281518110610e7d57fe5b6020026020010181815250506001848281518110610e9757fe5b60200260200101818152505085831115610ec557610ebe86846118d890919063ffffffff16565b9250610ee4565b610ee18b8381518110610ed457fe5b602002602001015161173c565b92505b8080600101915050610e44565b50600260009054906101000a900473ffffffffffffffffffffffffffffffffffffffff1673ffffffffffffffffffffffffffffffffffffffff16631f7fdffa8b8381518110610f3c57fe5b602002602001015186866040518463ffffffff1660e01b8152600401808473ffffffffffffffffffffffffffffffffffffffff168152602001806020018060200180602001848103845286818151815260200191508051906020019060200280838360005b83811015610fbc578082015181840152602081019050610fa1565b50505050905001848103835285818151815260200191508051906020019060200280838360005b83811015610ffe578082015181840152602081019050610fe3565b505050509050018481038252600081526020016020019650505050505050600060405180830381600087803b15801561103657600080fd5b505af115801561104a573d6000803e3d6000fd5b505050508080600101915050610e38565b5050505050505050505050565b60008060009054906101000a900473ffffffffffffffffffffffffffffffffffffffff16905090565b611099611734565b73ffffffffffffffffffffffffffffffffffffffff166110b7611068565b73ffffffffffffffffffffffffffffffffffffffff1614611140576040517f08c379a00000000000000000000000000000000000000000000000000000000081526004018080602001828103825260208152602001807f4f776e61626c653a2063616c6c6572206973206e6f7420746865206f776e657281525060200191505060405180910390fd5b8060038190555050565b600260009054906101000a900473ffffffffffffffffffffffffffffffffffffffff1681565b611178611734565b73ffffffffffffffffffffffffffffffffffffffff16611196611068565b73ffffffffffffffffffffffffffffffffffffffff161461121f576040517f08c379a00000000000000000000000000000000000000000000000000000000081526004018080602001828103825260208152602001807f4f776e61626c653a2063616c6c6572206973206e6f7420746865206f776e657281525060200191505060405180910390fd5b600073ffffffffffffffffffffffffffffffffffffffff168173ffffffffffffffffffffffffffffffffffffffff1614156112a5576040517f08c379a00000000000000000000000000000000000000000000000000000000081526004018080602001828103825260268152602001806119626026913960400191505060405180910390fd5b8073ffffffffffffffffffffffffffffffffffffffff1660008054906101000a900473ffffffffffffffffffffffffffffffffffffffff1673ffffffffffffffffffffffffffffffffffffffff167f8be0079c531659141344cd1fd0a4f28419497f9722a3daafe3b4186f6b6457e060405160405180910390a3806000806101000a81548173ffffffffffffffffffffffffffffffffffffffff021916908373ffffffffffffffffffffffffffffffffffffffff16021790555050565b60008083141561137557600090506113e2565b600082840290508284828161138657fe5b04146113dd576040517f08c379a00000000000000000000000000000000000000000000000000000000081526004018080602001828103825260218152602001806119886021913960400191505060405180910390fd5b809150505b92915050565b6000806000600260009054906101000a900473ffffffffffffffffffffffffffffffffffffffff1673ffffffffffffffffffffffffffffffffffffffff166380e6548e866040518263ffffffff1660e01b81526004018082815260200191505060606040518083038186803b15801561146057600080fd5b505afa158015611474573d6000803e3d6000fd5b505050506040513d606081101561148a57600080fd5b8101908080519060200190929190805190602001909291908051906020019092919050505080935081945082955050505060006114d0828461136290919063ffffffff16565b905060608567ffffffffffffffff811180156114eb57600080fd5b5060405190808252806020026020018201604052801561151a5781602001602082028036833780820191505090505b50905060608667ffffffffffffffff8111801561153657600080fd5b506040519080825280602002602001820160405280156115655781602001602082028036833780820191505090505b50905060005b878110156115df576115a0611591856115838d61173c565b6117c790919063ffffffff16565b8861185090919063ffffffff16565b8382815181106115ac57fe5b60200260200101818152505060018282815181106115c657fe5b602002602001018181525050808060010191505061156b565b50600260009054906101000a900473ffffffffffffffffffffffffffffffffffffffff1673ffffffffffffffffffffffffffffffffffffffff16631f7fdffa8a84846040518463ffffffff1660e01b8152600401808473ffffffffffffffffffffffffffffffffffffffff168152602001806020018060200180602001848103845286818151815260200191508051906020019060200280838360005b8381101561169757808201518184015260208101905061167c565b50505050905001848103835285818151815260200191508051906020019060200280838360005b838110156116d95780820151818401526020810190506116be565b505050509050018481038252600081526020016020019650505050505050600060405180830381600087803b15801561171157600080fd5b505af1158015611725573d6000803e3d6000fd5b50505050505050505050505050565b600033905090565b60006004600081548092919060010191905055506000600143034083600454600354604051602001808581526020018473ffffffffffffffffffffffffffffffffffffffff1660601b81526014018381526020018281526020019450505050506040516020818303038152906040528051906020012060001c90508060038190555080915050919050565b600080821161183e576040517f08c379a00000000000000000000000000000000000000000000000000000000081526004018080602001828103825260188152602001807f536166654d6174683a206d6f64756c6f206279207a65726f000000000000000081525060200191505060405180910390fd5b81838161184757fe5b06905092915050565b6000808284019050838110156118ce576040517f08c379a000000000000000000000000000000000000000000000000000000000815260040180806020018281038252601b8152602001807f536166654d6174683a206164646974696f6e206f766572666c6f77000000000081525060200191505060405180910390fd5b8091505092915050565b600080821161194f576040517f08c379a000000000000000000000000000000000000000000000000000000000815260040180806020018281038252601a8152602001807f536166654d6174683a206469766973696f6e206279207a65726f00000000000081525060200191505060405180910390fd5b81838161195857fe5b0490509291505056fe4f776e61626c653a206e6577206f776e657220697320746865207a65726f2061646472657373536166654d6174683a206d756c7469706c69636174696f6e206f766572666c6f77a26469706673582212200df939b67703a464f4f05fc10d3a70f357ffbf07d356e6b5be2fe59228b5491d64736f6c634300060c0033",
  "immutableReferences": {},
  "source": "// SPDX-License-Identifier: MIT\n\npragma solidity ^0.6.0;\n\nimport \"@openzeppelin/contracts/access/Ownable.sol\";\nimport \"@openzeppelin/contracts/token/ERC20/ERC20.sol\";\nimport \"@openzeppelin/contracts/token/ERC20/ERC20Burnable.sol\";\nimport \"@openzeppelin/contracts/token/ERC20/SafeERC20.sol\";\nimport \"@openzeppelin/contracts/math/SafeMath.sol\";\n\n//////////////////////////////////////////////////////////////////////////////\n\nimport \"./escape/EscapeToken.sol\";\nimport \"./ESTile.sol\";\n\n//////////////////////////////////////////////////////////////////////////////\n\n/*\n *  ESTileWrapper implements a contract which allows tile packs to be purcahsed\n *  for ESCAPE or ETH.\n */\ncontract ESTileWrapper is Ownable\n{\n  using SafeMath for uint256;\n\n  //////////////////////////////////////////////////////////////////////////////\n\n  EscapeToken public escapeTokenContract;\n  ESTile public esTileContract;\n\n  //////////////////////////////////////////////////////////////////////////////\n\n  uint256 seed;\n\n  constructor(\n    address _escapeAddress,\n    address _estileAddress\n  )\n    Ownable()\n    public\n  {\n    escapeTokenContract = EscapeToken(_escapeAddress);\n    esTileContract = ESTile(_estileAddress);\n  }\n\n  //////////////////////////////////////////////////////////////////////////////\n\n  /*\n   *  Update contract address for the ESCAPE token.\n   */\n  function setEscapeTokenAddress(\n    address _address\n  )\n    external\n    onlyOwner\n  {\n    require(_address != address(0), \"Can't set zero address\");\n    escapeTokenContract = EscapeToken(_address);\n  }\n  \n  /*\n   *  Update contract address for the ESTile contract.\n   */\n  function setESTileAddress(\n    address _address\n  )\n    external\n    onlyOwner\n  {\n    require(_address != address(0), \"Can't set zero address\");\n    esTileContract = ESTile(_address);\n  }\n\n  //////////////////////////////////////////////////////////////////////////////\n\n  function _mintTokensForScene(\n    address recipient,\n    uint256 sceneId,\n    uint256 count\n  )\n    internal \n  {\n    uint256 tokenStart;\n    uint256 numTiles;\n    uint256 numPuzzles;\n    (tokenStart, numTiles, numPuzzles) = esTileContract.tokenRangeForScene(sceneId);\n    uint256 numTilesInScene = numTiles.mul(numPuzzles);\n    \n    uint256[] memory tokenIdsToMint = new uint256[](count);\n    uint256[] memory quantitiesToMint = new uint256[](count);\n\n    for (uint256 i = 0; i < count; i++) {\n      tokenIdsToMint[i] = tokenStart.add(_random(recipient).mod(numTilesInScene));\n      quantitiesToMint[i] = 1;\n    }\n\n    esTileContract.mintBatch(recipient, tokenIdsToMint, quantitiesToMint, \"\");\n  }\n\n  function buyTilesForEscape(\n    uint256 sceneId,\n    uint256 count\n  )\n    public \n  {\n    uint256 cost = count.mul(5 wei);\n    require(cost > 0);\n    escapeTokenContract.burn(_msgSender(), cost);\n    _mintTokensForScene(msg.sender, sceneId, count);\n  }\n\n  function buyTilesForETH(\n    uint256 sceneId,\n    uint256 count\n  )\n    payable public \n  {\n    uint256 tilesCost = count.mul(0.01 ether);\n    require(msg.value >= tilesCost, \"not enough eth\");\n    _mintTokensForScene(msg.sender, sceneId, count);\n  }\n\n  function airdropTiles(\n    uint256 sceneId,\n    address[] memory tos,\n    uint256 count\n  )\n    public \n    onlyOwner\n  {\n    // emit LOG(\"airdrop\", sceneId);\n    require(count > 0);\n    uint256 tokenStart;\n    uint256 numTiles;\n    uint256 numPuzzles;\n    (tokenStart, numTiles, numPuzzles) = esTileContract.tokenRangeForScene(sceneId);\n    uint256 numTilesInScene = numTiles.mul(numPuzzles);\n    \n    uint256[] memory tokenIdsToMint = new uint256[](count);\n    uint256[] memory quantitiesToMint = new uint256[](count);\n    uint256 r = _random(msg.sender);\n    \n    for (uint256 ti = 0; ti < tos.length; ti++) {\n      for (uint256 i = 0; i < count; i++) {\n        tokenIdsToMint[i] = tokenStart.add(r.mod(numTilesInScene));\n        quantitiesToMint[i] = 1;\n        if (r > numTilesInScene) {\n          r = r.div(numTilesInScene);\n        } else {\n          r = _random(tos[ti]);\n        }\n      }\n      esTileContract.mintBatch(tos[ti], tokenIdsToMint, quantitiesToMint, \"\");\n    }\n  }\n\n  //////////////////////////////////////////////////////////////////////////////\n\n  function withdrawBalance() \n    public \n    onlyOwner \n  {\n    uint256 balance = address(this).balance;\n    require(balance > 0, \"no balance left\");\n    address payable owner = payable(owner());\n    owner.transfer(balance);\n  }\n\n  uint256 internal nonce;\n\n  function _random(address behalf)\n    internal\n    returns (uint256)\n  {\n    nonce++;\n    uint256 randomNumber = uint256(\n      keccak256(\n        abi.encodePacked(\n          blockhash(block.number - 1),\n          behalf,\n          nonce,\n          seed\n        )\n      )\n    );\n    seed = randomNumber;\n    return randomNumber;\n  }\n  \n  function setSeed(\n    uint256 _newSeed\n  )\n    public\n    onlyOwner\n  {\n    seed = _newSeed;\n  }\n}\n",
  "sourcePath": "/Users/shaba/work/github/private/crypto/etherscapes/contract/contracts/ESTileWrapper.sol",
  "compiler": {
    "name": "solc",
    "version": "0.6.12+commit.27d51765.Emscripten.clang"
  },
  "schemaVersion": "3.3.3",
  "updatedAt": "2021-02-28T23:55:03.914Z",
  "networkType": "ethereum",
  "devdoc": {
    "kind": "dev",
    "methods": {
      "owner()": {
        "details": "Returns the address of the current owner."
      },
      "renounceOwnership()": {
        "details": "Leaves the contract without owner. It will not be possible to call `onlyOwner` functions anymore. Can only be called by the current owner. NOTE: Renouncing ownership will leave the contract without an owner, thereby removing any functionality that is only available to the owner."
      },
      "transferOwnership(address)": {
        "details": "Transfers ownership of the contract to a new account (`newOwner`). Can only be called by the current owner."
      }
    },
    "version": 1
  },
  "userdoc": {
    "kind": "user",
    "methods": {},
    "version": 1
  }
}