{
  "contractName": "ESTileWrapper",
  "abi": [
    {
      "inputs": [
        {
          "internalType": "address",
          "name": "_tendAddress",
          "type": "address"
        },
        {
          "internalType": "address",
          "name": "_boxAddress",
          "type": "address"
        }
      ],
      "stateMutability": "nonpayable",
      "type": "constructor"
    },
    {
      "anonymous": false,
      "inputs": [
        {
          "indexed": true,
          "internalType": "address",
          "name": "previousOwner",
          "type": "address"
        },
        {
          "indexed": true,
          "internalType": "address",
          "name": "newOwner",
          "type": "address"
        }
      ],
      "name": "OwnershipTransferred",
      "type": "event"
    },
    {
      "inputs": [],
      "name": "esTilePackInstance",
      "outputs": [
        {
          "internalType": "contract ESTilePack",
          "name": "",
          "type": "address"
        }
      ],
      "stateMutability": "view",
      "type": "function",
      "constant": true
    },
    {
      "inputs": [],
      "name": "escapeTokenContract",
      "outputs": [
        {
          "internalType": "contract EscapeToken",
          "name": "",
          "type": "address"
        }
      ],
      "stateMutability": "view",
      "type": "function",
      "constant": true
    },
    {
      "inputs": [],
      "name": "owner",
      "outputs": [
        {
          "internalType": "address",
          "name": "",
          "type": "address"
        }
      ],
      "stateMutability": "view",
      "type": "function",
      "constant": true
    },
    {
      "inputs": [],
      "name": "renounceOwnership",
      "outputs": [],
      "stateMutability": "nonpayable",
      "type": "function"
    },
    {
      "inputs": [
        {
          "internalType": "address",
          "name": "newOwner",
          "type": "address"
        }
      ],
      "name": "transferOwnership",
      "outputs": [],
      "stateMutability": "nonpayable",
      "type": "function"
    },
    {
      "inputs": [
        {
          "internalType": "address",
          "name": "_address",
          "type": "address"
        }
      ],
      "name": "setEscapeTokenAddress",
      "outputs": [],
      "stateMutability": "nonpayable",
      "type": "function"
    },
    {
      "inputs": [
        {
          "internalType": "address",
          "name": "_address",
          "type": "address"
        }
      ],
      "name": "setTilePackContractAddress",
      "outputs": [],
      "stateMutability": "nonpayable",
      "type": "function"
    },
    {
      "inputs": [
        {
          "internalType": "uint256",
          "name": "_packId",
          "type": "uint256"
        },
        {
          "internalType": "uint256",
          "name": "count",
          "type": "uint256"
        }
      ],
      "name": "buyPacksForCredits",
      "outputs": [],
      "stateMutability": "nonpayable",
      "type": "function"
    },
    {
      "inputs": [
        {
          "internalType": "uint256",
          "name": "_packId",
          "type": "uint256"
        },
        {
          "internalType": "uint256",
          "name": "count",
          "type": "uint256"
        }
      ],
      "name": "buyPacksForETH",
      "outputs": [],
      "stateMutability": "payable",
      "type": "function",
      "payable": true
    },
    {
      "inputs": [],
      "name": "withdrawBalance",
      "outputs": [],
      "stateMutability": "nonpayable",
      "type": "function"
    }
  ],
  "bytecode": "0x608060405234801561001057600080fd5b506040516114d03803806114d08339818101604052604081101561003357600080fd5b810190808051906020019092919080519060200190929190505050600061005e61018560201b60201c565b9050806000806101000a81548173ffffffffffffffffffffffffffffffffffffffff021916908373ffffffffffffffffffffffffffffffffffffffff1602179055508073ffffffffffffffffffffffffffffffffffffffff16600073ffffffffffffffffffffffffffffffffffffffff167f8be0079c531659141344cd1fd0a4f28419497f9722a3daafe3b4186f6b6457e060405160405180910390a35081600160006101000a81548173ffffffffffffffffffffffffffffffffffffffff021916908373ffffffffffffffffffffffffffffffffffffffff16021790555080600260006101000a81548173ffffffffffffffffffffffffffffffffffffffff021916908373ffffffffffffffffffffffffffffffffffffffff160217905550505061018d565b600033905090565b6113348061019c6000396000f3fe6080604052600436106100915760003560e01c80638da5cb5b116100595780638da5cb5b146101a7578063cb2a05a2146101e8578063e470dc6d14610229578063f2fde38b1461026e578063fd3df708146102bf57610091565b80631314b5e71461009657806330a7fba5146100d75780635fd8c710146101285780636a4b88541461013f578063715018a614610190575b600080fd5b3480156100a257600080fd5b506100ab6102f7565b604051808273ffffffffffffffffffffffffffffffffffffffff16815260200191505060405180910390f35b3480156100e357600080fd5b50610126600480360360208110156100fa57600080fd5b81019080803573ffffffffffffffffffffffffffffffffffffffff16906020019092919050505061031d565b005b34801561013457600080fd5b5061013d6104b3565b005b34801561014b57600080fd5b5061018e6004803603602081101561016257600080fd5b81019080803573ffffffffffffffffffffffffffffffffffffffff169060200190929190505050610634565b005b34801561019c57600080fd5b506101a56107ca565b005b3480156101b357600080fd5b506101bc610937565b604051808273ffffffffffffffffffffffffffffffffffffffff16815260200191505060405180910390f35b3480156101f457600080fd5b506101fd610960565b604051808273ffffffffffffffffffffffffffffffffffffffff16815260200191505060405180910390f35b34801561023557600080fd5b5061026c6004803603604081101561024c57600080fd5b810190808035906020019092919080359060200190929190505050610986565b005b34801561027a57600080fd5b506102bd6004803603602081101561029157600080fd5b81019080803573ffffffffffffffffffffffffffffffffffffffff169060200190929190505050610d99565b005b6102f5600480360360408110156102d557600080fd5b810190808035906020019092919080359060200190929190505050610f8b565b005b600160009054906101000a900473ffffffffffffffffffffffffffffffffffffffff1681565b610325611229565b73ffffffffffffffffffffffffffffffffffffffff16610343610937565b73ffffffffffffffffffffffffffffffffffffffff16146103cc576040517f08c379a00000000000000000000000000000000000000000000000000000000081526004018080602001828103825260208152602001807f4f776e61626c653a2063616c6c6572206973206e6f7420746865206f776e657281525060200191505060405180910390fd5b600073ffffffffffffffffffffffffffffffffffffffff168173ffffffffffffffffffffffffffffffffffffffff16141561046f576040517f08c379a00000000000000000000000000000000000000000000000000000000081526004018080602001828103825260168152602001807f43616e277420736574207a65726f20616464726573730000000000000000000081525060200191505060405180910390fd5b80600260006101000a81548173ffffffffffffffffffffffffffffffffffffffff021916908373ffffffffffffffffffffffffffffffffffffffff16021790555050565b6104bb611229565b73ffffffffffffffffffffffffffffffffffffffff166104d9610937565b73ffffffffffffffffffffffffffffffffffffffff1614610562576040517f08c379a00000000000000000000000000000000000000000000000000000000081526004018080602001828103825260208152602001807f4f776e61626c653a2063616c6c6572206973206e6f7420746865206f776e657281525060200191505060405180910390fd5b6000479050600081116105dd576040517f08c379a000000000000000000000000000000000000000000000000000000000815260040180806020018281038252600f8152602001807f6e6f2062616c616e6365206c656674000000000000000000000000000000000081525060200191505060405180910390fd5b60006105e7610937565b90508073ffffffffffffffffffffffffffffffffffffffff166108fc839081150290604051600060405180830381858888f1935050505015801561062f573d6000803e3d6000fd5b505050565b61063c611229565b73ffffffffffffffffffffffffffffffffffffffff1661065a610937565b73ffffffffffffffffffffffffffffffffffffffff16146106e3576040517f08c379a00000000000000000000000000000000000000000000000000000000081526004018080602001828103825260208152602001807f4f776e61626c653a2063616c6c6572206973206e6f7420746865206f776e657281525060200191505060405180910390fd5b600073ffffffffffffffffffffffffffffffffffffffff168173ffffffffffffffffffffffffffffffffffffffff161415610786576040517f08c379a00000000000000000000000000000000000000000000000000000000081526004018080602001828103825260168152602001807f43616e277420736574207a65726f20616464726573730000000000000000000081525060200191505060405180910390fd5b80600160006101000a81548173ffffffffffffffffffffffffffffffffffffffff021916908373ffffffffffffffffffffffffffffffffffffffff16021790555050565b6107d2611229565b73ffffffffffffffffffffffffffffffffffffffff166107f0610937565b73ffffffffffffffffffffffffffffffffffffffff1614610879576040517f08c379a00000000000000000000000000000000000000000000000000000000081526004018080602001828103825260208152602001807f4f776e61626c653a2063616c6c6572206973206e6f7420746865206f776e657281525060200191505060405180910390fd5b600073ffffffffffffffffffffffffffffffffffffffff1660008054906101000a900473ffffffffffffffffffffffffffffffffffffffff1673ffffffffffffffffffffffffffffffffffffffff167f8be0079c531659141344cd1fd0a4f28419497f9722a3daafe3b4186f6b6457e060405160405180910390a360008060006101000a81548173ffffffffffffffffffffffffffffffffffffffff021916908373ffffffffffffffffffffffffffffffffffffffff160217905550565b60008060009054906101000a900473ffffffffffffffffffffffffffffffffffffffff16905090565b600260009054906101000a900473ffffffffffffffffffffffffffffffffffffffff1681565b600080600260009054906101000a900473ffffffffffffffffffffffffffffffffffffffff1673ffffffffffffffffffffffffffffffffffffffff1663b6a5e5cc856040518263ffffffff1660e01b815260040180828152602001915050604080518083038186803b1580156109fb57600080fd5b505afa158015610a0f573d6000803e3d6000fd5b505050506040513d6040811015610a2557600080fd5b8101908080519060200190929190805190602001909291905050508092508193505050610a5b838361123190919063ffffffff16565b915060008211610ad3576040517f08c379a00000000000000000000000000000000000000000000000000000000081526004018080602001828103825260158152602001807f63616e6e6f7420636f737420302063726564697473000000000000000000000081525060200191505060405180910390fd5b81600160009054906101000a900473ffffffffffffffffffffffffffffffffffffffff1673ffffffffffffffffffffffffffffffffffffffff166370a08231610b1a611229565b6040518263ffffffff1660e01b8152600401808273ffffffffffffffffffffffffffffffffffffffff16815260200191505060206040518083038186803b158015610b6457600080fd5b505afa158015610b78573d6000803e3d6000fd5b505050506040513d6020811015610b8e57600080fd5b81019080805190602001909291905050501015610c13576040517f08c379a00000000000000000000000000000000000000000000000000000000081526004018080602001828103825260198152602001807f6e6f7420656e6f7567682065736361706520746f206275726e0000000000000081525060200191505060405180910390fd5b600160009054906101000a900473ffffffffffffffffffffffffffffffffffffffff1673ffffffffffffffffffffffffffffffffffffffff16639dc29fac610c59611229565b846040518363ffffffff1660e01b8152600401808373ffffffffffffffffffffffffffffffffffffffff16815260200182815260200192505050600060405180830381600087803b158015610cad57600080fd5b505af1158015610cc1573d6000803e3d6000fd5b50505050600260009054906101000a900473ffffffffffffffffffffffffffffffffffffffff1673ffffffffffffffffffffffffffffffffffffffff1663731133e9610d0b611229565b86866040518463ffffffff1660e01b8152600401808473ffffffffffffffffffffffffffffffffffffffff16815260200183815260200182815260200180602001828103825260008152602001602001945050505050600060405180830381600087803b158015610d7b57600080fd5b505af1158015610d8f573d6000803e3d6000fd5b5050505050505050565b610da1611229565b73ffffffffffffffffffffffffffffffffffffffff16610dbf610937565b73ffffffffffffffffffffffffffffffffffffffff1614610e48576040517f08c379a00000000000000000000000000000000000000000000000000000000081526004018080602001828103825260208152602001807f4f776e61626c653a2063616c6c6572206973206e6f7420746865206f776e657281525060200191505060405180910390fd5b600073ffffffffffffffffffffffffffffffffffffffff168173ffffffffffffffffffffffffffffffffffffffff161415610ece576040517f08c379a00000000000000000000000000000000000000000000000000000000081526004018080602001828103825260268152602001806112b86026913960400191505060405180910390fd5b8073ffffffffffffffffffffffffffffffffffffffff1660008054906101000a900473ffffffffffffffffffffffffffffffffffffffff1673ffffffffffffffffffffffffffffffffffffffff167f8be0079c531659141344cd1fd0a4f28419497f9722a3daafe3b4186f6b6457e060405160405180910390a3806000806101000a81548173ffffffffffffffffffffffffffffffffffffffff021916908373ffffffffffffffffffffffffffffffffffffffff16021790555050565b600080600260009054906101000a900473ffffffffffffffffffffffffffffffffffffffff1673ffffffffffffffffffffffffffffffffffffffff1663b6a5e5cc856040518263ffffffff1660e01b815260040180828152602001915050604080518083038186803b15801561100057600080fd5b505afa158015611014573d6000803e3d6000fd5b505050506040513d604081101561102a57600080fd5b8101908080519060200190929190805190602001909291905050508092508193505050806110c0576040517f08c379a000000000000000000000000000000000000000000000000000000000815260040180806020018281038252601b8152602001807f736f6d65207468696e6773206d6f6e65792063616e277420627579000000000081525060200191505060405180910390fd5b60006110dd67016345785d8a00008561123190919063ffffffff16565b9050803414611154576040517f08c379a000000000000000000000000000000000000000000000000000000000815260040180806020018281038252600e8152602001807f6e6f7420656e6f7567682065746800000000000000000000000000000000000081525060200191505060405180910390fd5b600260009054906101000a900473ffffffffffffffffffffffffffffffffffffffff1673ffffffffffffffffffffffffffffffffffffffff1663731133e961119a611229565b87876040518463ffffffff1660e01b8152600401808473ffffffffffffffffffffffffffffffffffffffff16815260200183815260200182815260200180602001828103825260008152602001602001945050505050600060405180830381600087803b15801561120a57600080fd5b505af115801561121e573d6000803e3d6000fd5b505050505050505050565b600033905090565b60008083141561124457600090506112b1565b600082840290508284828161125557fe5b04146112ac576040517f08c379a00000000000000000000000000000000000000000000000000000000081526004018080602001828103825260218152602001806112de6021913960400191505060405180910390fd5b809150505b9291505056fe4f776e61626c653a206e6577206f776e657220697320746865207a65726f2061646472657373536166654d6174683a206d756c7469706c69636174696f6e206f766572666c6f77a2646970667358221220cca97a1f304ebfa0ac35752ecb1881d636675aaa2f72f208fe8a02eccc6d3cfb64736f6c634300060c0033",
  "immutableReferences": {},
  "source": "// SPDX-License-Identifier: MIT\n\npragma solidity ^0.6.0;\n\nimport \"@openzeppelin/contracts/access/Ownable.sol\";\nimport \"@openzeppelin/contracts/token/ERC20/ERC20.sol\";\nimport \"@openzeppelin/contracts/token/ERC20/ERC20Burnable.sol\";\nimport \"@openzeppelin/contracts/token/ERC20/SafeERC20.sol\";\nimport \"@openzeppelin/contracts/math/SafeMath.sol\";\nimport \"./escape/EscapeToken.sol\";\nimport \"./ESTilePack.sol\";\n\n/*\n *  ESTileWrapper implements a contract which allows tile packs to be purcahsed\n *  for ESCAPE or ETH.\n */\ncontract ESTileWrapper is Ownable\n{\n  using SafeMath for uint256;\n\n  //////////////////////////////////////////////////////////////////////////////\n\n  EscapeToken public escapeTokenContract;\n  ESTilePack public esTilePackInstance;\n\n  //////////////////////////////////////////////////////////////////////////////\n\n  constructor(\n    address _tendAddress,\n    address _boxAddress\n  )\n    Ownable()\n    public\n  {\n    escapeTokenContract = EscapeToken(_tendAddress);\n    esTilePackInstance = ESTilePack(_boxAddress);\n  }\n\n  //////////////////////////////////////////////////////////////////////////////\n\n  /*\n   *  Update contract address for the ESCAPE token.\n   */\n  function setEscapeTokenAddress(\n    address _address\n  )\n    external\n    onlyOwner\n  {\n    require(_address != address(0), \"Can't set zero address\");\n    escapeTokenContract = EscapeToken(_address);\n  }\n  \n  /*\n   *  Update contract address for the ESTilePack contract.\n   */\n  function setTilePackContractAddress(\n    address _address\n  )\n    external\n    onlyOwner\n  {\n    require(_address != address(0), \"Can't set zero address\");\n    esTilePackInstance = ESTilePack(_address);\n  }\n\n  //////////////////////////////////////////////////////////////////////////////\n\n  function buyPacksForCredits(\n    uint256 _packId, \n    uint256 count\n  ) \n    public \n  {\n    uint256 packCostInCredits;\n    bool canBuyForEth;\n    (packCostInCredits, canBuyForEth) = esTilePackInstance.packCosts(_packId);\n    packCostInCredits = packCostInCredits.mul(count);\n    require(packCostInCredits > 0, \"cannot cost 0 credits\");\n    require(escapeTokenContract.balanceOf(_msgSender()) >= packCostInCredits, \"not enough escape to burn\");\n    escapeTokenContract.burn(_msgSender(), packCostInCredits);\n    esTilePackInstance.mint(_msgSender(), _packId, count, \"\");\n  }\n\n  function buyPacksForETH(\n    uint256 _packId,\n    uint256 count\n  ) \n    payable public \n  {\n    uint256 packCostInCredits;\n    bool canBuyForEth;\n    (packCostInCredits, canBuyForEth) = esTilePackInstance.packCosts(_packId);\n    require(canBuyForEth, \"some things money can't buy\");\n    uint256 packCost = count.mul(0.1 ether);\n    require(msg.value == packCost, \"not enough eth\");\n    esTilePackInstance.mint(_msgSender(), _packId, count, \"\");\n  }\n\n  //////////////////////////////////////////////////////////////////////////////\n\n  function withdrawBalance() \n    public \n    onlyOwner \n  {\n    uint256 balance = address(this).balance;\n    require(balance > 0, \"no balance left\");\n    address payable owner = payable(owner());\n    owner.transfer(balance);\n  }\n}\n",
  "sourcePath": "/Users/shaba/work/github/private/crypto/etherscapes/contract/contracts/ESTileWrapper.sol",
  "compiler": {
    "name": "solc",
    "version": "0.6.12+commit.27d51765.Emscripten.clang"
  },
  "schemaVersion": "3.3.3",
  "updatedAt": "2021-02-18T06:30:20.511Z",
  "networkType": "ethereum",
  "devdoc": {
    "kind": "dev",
    "methods": {
      "owner()": {
        "details": "Returns the address of the current owner."
      },
      "renounceOwnership()": {
        "details": "Leaves the contract without owner. It will not be possible to call `onlyOwner` functions anymore. Can only be called by the current owner. NOTE: Renouncing ownership will leave the contract without an owner, thereby removing any functionality that is only available to the owner."
      },
      "transferOwnership(address)": {
        "details": "Transfers ownership of the contract to a new account (`newOwner`). Can only be called by the current owner."
      }
    },
    "version": 1
  },
  "userdoc": {
    "kind": "user",
    "methods": {},
    "version": 1
  }
}