{
  "contractName": "NamingContract",
  "abi": [
    {
      "inputs": [
        {
          "internalType": "address",
          "name": "_escapeERC20Address",
          "type": "address"
        },
        {
          "internalType": "address",
          "name": "_estileAddress",
          "type": "address"
        }
      ],
      "stateMutability": "nonpayable",
      "type": "constructor"
    },
    {
      "anonymous": false,
      "inputs": [
        {
          "indexed": true,
          "internalType": "address",
          "name": "previousOwner",
          "type": "address"
        },
        {
          "indexed": true,
          "internalType": "address",
          "name": "newOwner",
          "type": "address"
        }
      ],
      "name": "OwnershipTransferred",
      "type": "event"
    },
    {
      "inputs": [],
      "name": "escapeContractInstance",
      "outputs": [
        {
          "internalType": "contract EscapeToken",
          "name": "",
          "type": "address"
        }
      ],
      "stateMutability": "view",
      "type": "function",
      "constant": true
    },
    {
      "inputs": [],
      "name": "estileContract",
      "outputs": [
        {
          "internalType": "contract ESTile",
          "name": "",
          "type": "address"
        }
      ],
      "stateMutability": "view",
      "type": "function",
      "constant": true
    },
    {
      "inputs": [],
      "name": "owner",
      "outputs": [
        {
          "internalType": "address",
          "name": "",
          "type": "address"
        }
      ],
      "stateMutability": "view",
      "type": "function",
      "constant": true
    },
    {
      "inputs": [],
      "name": "renounceOwnership",
      "outputs": [],
      "stateMutability": "nonpayable",
      "type": "function"
    },
    {
      "inputs": [
        {
          "internalType": "address",
          "name": "newOwner",
          "type": "address"
        }
      ],
      "name": "transferOwnership",
      "outputs": [],
      "stateMutability": "nonpayable",
      "type": "function"
    },
    {
      "inputs": [
        {
          "internalType": "uint256",
          "name": "sceneId",
          "type": "uint256"
        },
        {
          "internalType": "uint256",
          "name": "puzzleId",
          "type": "uint256"
        },
        {
          "internalType": "string",
          "name": "name",
          "type": "string"
        }
      ],
      "name": "nameScenePuzzle",
      "outputs": [],
      "stateMutability": "nonpayable",
      "type": "function"
    },
    {
      "inputs": [
        {
          "internalType": "uint256",
          "name": "sceneId",
          "type": "uint256"
        },
        {
          "internalType": "uint256",
          "name": "puzzleId",
          "type": "uint256"
        }
      ],
      "name": "getScenePuzzleInfo",
      "outputs": [
        {
          "internalType": "uint256",
          "name": "",
          "type": "uint256"
        },
        {
          "internalType": "string",
          "name": "",
          "type": "string"
        },
        {
          "internalType": "address",
          "name": "",
          "type": "address"
        }
      ],
      "stateMutability": "view",
      "type": "function",
      "constant": true
    }
  ],
  "bytecode": "0x608060405234801561001057600080fd5b50604051610fa8380380610fa88339818101604052604081101561003357600080fd5b810190808051906020019092919080519060200190929190505050600061005e61018560201b60201c565b9050806000806101000a81548173ffffffffffffffffffffffffffffffffffffffff021916908373ffffffffffffffffffffffffffffffffffffffff1602179055508073ffffffffffffffffffffffffffffffffffffffff16600073ffffffffffffffffffffffffffffffffffffffff167f8be0079c531659141344cd1fd0a4f28419497f9722a3daafe3b4186f6b6457e060405160405180910390a35081600160006101000a81548173ffffffffffffffffffffffffffffffffffffffff021916908373ffffffffffffffffffffffffffffffffffffffff16021790555080600260006101000a81548173ffffffffffffffffffffffffffffffffffffffff021916908373ffffffffffffffffffffffffffffffffffffffff160217905550505061018d565b600033905090565b610e0c8061019c6000396000f3fe608060405234801561001057600080fd5b506004361061007d5760003560e01c80638da5cb5b1161005b5780638da5cb5b14610195578063c5a113d2146101c9578063f2003f6b14610256578063f2fde38b1461028a5761007d565b806307e0b757146100825780632c236ebd146100b6578063715018a61461018b575b600080fd5b61008a6102ce565b604051808273ffffffffffffffffffffffffffffffffffffffff16815260200191505060405180910390f35b6100ec600480360360408110156100cc57600080fd5b8101908080359060200190929190803590602001909291905050506102f4565b60405180848152602001806020018373ffffffffffffffffffffffffffffffffffffffff168152602001828103825284818151815260200191508051906020019080838360005b8381101561014e578082015181840152602081019050610133565b50505050905090810190601f16801561017b5780820380516001836020036101000a031916815260200191505b5094505050505060405180910390f35b610193610543565b005b61019d6106b0565b604051808273ffffffffffffffffffffffffffffffffffffffff16815260200191505060405180910390f35b610254600480360360608110156101df57600080fd5b8101908080359060200190929190803590602001909291908035906020019064010000000081111561021057600080fd5b82018360208201111561022257600080fd5b8035906020019184600183028401116401000000008311171561024457600080fd5b90919293919293905050506106d9565b005b61025e610a4c565b604051808273ffffffffffffffffffffffffffffffffffffffff16815260200191505060405180910390f35b6102cc600480360360208110156102a057600080fd5b81019080803573ffffffffffffffffffffffffffffffffffffffff169060200190929190505050610a72565b005b600160009054906101000a900473ffffffffffffffffffffffffffffffffffffffff1681565b60006060600080600260009054906101000a900473ffffffffffffffffffffffffffffffffffffffff1673ffffffffffffffffffffffffffffffffffffffff16634623d80f87876040518363ffffffff1660e01b8152600401808381526020018281526020019250505060206040518083038186803b15801561037657600080fd5b505afa15801561038a573d6000803e3d6000fd5b505050506040513d60208110156103a057600080fd5b81019080805190602001909291905050509050600081141561042a576040517f08c379a000000000000000000000000000000000000000000000000000000000815260040180806020018281038252600d8152602001807f696e76616c696420746f6b656e0000000000000000000000000000000000000081525060200191505060405180910390fd5b600060046000838152602001908152602001600020549050600081141561045057600590505b80600360008481526020019081526020016000206005600085815260200190815260200160002060009054906101000a900473ffffffffffffffffffffffffffffffffffffffff16818054600181600116156101000203166002900480601f01602080910402602001604051908101604052809291908181526020018280546001816001161561010002031660029004801561052d5780601f106105025761010080835404028352916020019161052d565b820191906000526020600020905b81548152906001019060200180831161051057829003601f168201915b5050505050915094509450945050509250925092565b61054b610c64565b73ffffffffffffffffffffffffffffffffffffffff166105696106b0565b73ffffffffffffffffffffffffffffffffffffffff16146105f2576040517f08c379a00000000000000000000000000000000000000000000000000000000081526004018080602001828103825260208152602001807f4f776e61626c653a2063616c6c6572206973206e6f7420746865206f776e657281525060200191505060405180910390fd5b600073ffffffffffffffffffffffffffffffffffffffff1660008054906101000a900473ffffffffffffffffffffffffffffffffffffffff1673ffffffffffffffffffffffffffffffffffffffff167f8be0079c531659141344cd1fd0a4f28419497f9722a3daafe3b4186f6b6457e060405160405180910390a360008060006101000a81548173ffffffffffffffffffffffffffffffffffffffff021916908373ffffffffffffffffffffffffffffffffffffffff160217905550565b60008060009054906101000a900473ffffffffffffffffffffffffffffffffffffffff16905090565b6000600260009054906101000a900473ffffffffffffffffffffffffffffffffffffffff1673ffffffffffffffffffffffffffffffffffffffff16634623d80f86866040518363ffffffff1660e01b8152600401808381526020018281526020019250505060206040518083038186803b15801561075657600080fd5b505afa15801561076a573d6000803e3d6000fd5b505050506040513d602081101561078057600080fd5b810190808051906020019092919050505090506000600260009054906101000a900473ffffffffffffffffffffffffffffffffffffffff1673ffffffffffffffffffffffffffffffffffffffff1662fdd58e33846040518363ffffffff1660e01b8152600401808373ffffffffffffffffffffffffffffffffffffffff1681526020018281526020019250505060206040518083038186803b15801561082557600080fd5b505afa158015610839573d6000803e3d6000fd5b505050506040513d602081101561084f57600080fd5b8101908080519060200190929190505050116108d3576040517f08c379a00000000000000000000000000000000000000000000000000000000081526004018080602001828103825260198152602001807f6f6e6c792072656e616d65206f776e65642070757a7a6c65730000000000000081525060200191505060405180910390fd5b60006004600083815260200190815260200160002054905060008114156108f957600590505b600160009054906101000a900473ffffffffffffffffffffffffffffffffffffffff1673ffffffffffffffffffffffffffffffffffffffff16639dc29fac33836040518363ffffffff1660e01b8152600401808373ffffffffffffffffffffffffffffffffffffffff16815260200182815260200192505050600060405180830381600087803b15801561098c57600080fd5b505af11580156109a0573d6000803e3d6000fd5b5050505083836003600085815260200190815260200160002091906109c6929190610cf2565b506109db600282610c6c90919063ffffffff16565b6004600084815260200190815260200160002081905550336005600084815260200190815260200160002060006101000a81548173ffffffffffffffffffffffffffffffffffffffff021916908373ffffffffffffffffffffffffffffffffffffffff160217905550505050505050565b600260009054906101000a900473ffffffffffffffffffffffffffffffffffffffff1681565b610a7a610c64565b73ffffffffffffffffffffffffffffffffffffffff16610a986106b0565b73ffffffffffffffffffffffffffffffffffffffff1614610b21576040517f08c379a00000000000000000000000000000000000000000000000000000000081526004018080602001828103825260208152602001807f4f776e61626c653a2063616c6c6572206973206e6f7420746865206f776e657281525060200191505060405180910390fd5b600073ffffffffffffffffffffffffffffffffffffffff168173ffffffffffffffffffffffffffffffffffffffff161415610ba7576040517f08c379a0000000000000000000000000000000000000000000000000000000008152600401808060200182810382526026815260200180610d906026913960400191505060405180910390fd5b8073ffffffffffffffffffffffffffffffffffffffff1660008054906101000a900473ffffffffffffffffffffffffffffffffffffffff1673ffffffffffffffffffffffffffffffffffffffff167f8be0079c531659141344cd1fd0a4f28419497f9722a3daafe3b4186f6b6457e060405160405180910390a3806000806101000a81548173ffffffffffffffffffffffffffffffffffffffff021916908373ffffffffffffffffffffffffffffffffffffffff16021790555050565b600033905090565b600080831415610c7f5760009050610cec565b6000828402905082848281610c9057fe5b0414610ce7576040517f08c379a0000000000000000000000000000000000000000000000000000000008152600401808060200182810382526021815260200180610db66021913960400191505060405180910390fd5b809150505b92915050565b828054600181600116156101000203166002900490600052602060002090601f016020900481019282601f10610d3357803560ff1916838001178555610d61565b82800160010185558215610d61579182015b82811115610d60578235825591602001919060010190610d45565b5b509050610d6e9190610d72565b5090565b5b80821115610d8b576000816000905550600101610d73565b509056fe4f776e61626c653a206e6577206f776e657220697320746865207a65726f2061646472657373536166654d6174683a206d756c7469706c69636174696f6e206f766572666c6f77a2646970667358221220df4946043996f890bf874cf1b1d1d4aece94302307896698bcf4c70197abd1a464736f6c634300060c0033",
  "immutableReferences": {},
  "source": "// SPDX-License-Identifier: MIT\n\npragma solidity ^0.6.0;\n\nimport \"@openzeppelin/contracts/access/Ownable.sol\";\nimport \"./escape/EscapeToken.sol\";\nimport \"./ESTile.sol\";\n\n/**\n * @title NamingContract\n * NamingContract - a contract to name etherscape solved puzzle tokens.\n */\ncontract NamingContract is Ownable\n{\n  using SafeMath for uint256;\n\n  EscapeToken public escapeContractInstance;\n  ESTile public estileContract;\n\n  uint256 constant SCENE_NAMING_START_COST = 5; \n  uint256 constant SCENE_NAMING_MULTIPLIER = 2; // 2x after each naming.\n\n  // Each scene puzzle may also have a unique name (up to 32 bytes). Note that\n  // this is a mapping from the puzzleTokenToPuzzleName which means it is \n  // indexed by the token of the completed puzzle not the scene / puzzle etc.\n  mapping (uint256 => string) puzzleTokenToPuzzleName;\n  \n  // Since each puzzle's naming cost goes up by N* each time it is renamed, \n  // we maintian the current cost for each tile etc. All cost starts off at\n  // SCENE_NAMING_START_COST credits.\n  mapping (uint256 => uint256) puzzleTokenNamingCost;\n  mapping (uint256 => address) puzzleTokenNamedBy;\n\n  /*\n   *  Constructor!\n   */\n  constructor(\n    address _escapeERC20Address,\n    address _estileAddress\n  )\n    Ownable()\n    public\n  {\n      escapeContractInstance = EscapeToken(_escapeERC20Address);\n      estileContract = ESTile(_estileAddress);\n  }\n\n/*\n *  Public.\n */\n\n  /*\n   *  Puzzle naming!\n   */\n\n  /*\n   *  Name a puzzle in a scene using the NamingContract (which has no idea about\n   *  scenes or puzzles, just tokens). This will only invoke the naming contract\n   *  if we have the appropriate puzzle token (solved picture).\n   */\n  function nameScenePuzzle(\n    uint256 sceneId,\n    uint256 puzzleId,\n    string calldata name\n  )\n    external \n  {\n    uint256 puzzleTokenId = estileContract.getPuzzleToken(sceneId, puzzleId);\n    require(estileContract.balanceOf(msg.sender, puzzleTokenId) > 0, \"only rename owned puzzles\");\n    \n    uint256 cost = puzzleTokenNamingCost[puzzleTokenId];\n    if (cost == 0) {\n      cost = SCENE_NAMING_START_COST;\n    }\n\n    escapeContractInstance.burn(msg.sender, cost);\n    puzzleTokenToPuzzleName[puzzleTokenId] = name;\n    puzzleTokenNamingCost[puzzleTokenId] = cost.mul(SCENE_NAMING_MULTIPLIER);\n    puzzleTokenNamedBy[puzzleTokenId] = msg.sender;\n  }\n\n  function getScenePuzzleInfo(\n    uint256 sceneId, \n    uint256 puzzleId\n  ) \n    public \n    view \n    returns (uint256, string memory, address) \n  {\n    uint256 puzzleTokenId = estileContract.getPuzzleToken(sceneId, puzzleId);\n    require(puzzleTokenId != 0, \"invalid token\");\n    uint256 cost = puzzleTokenNamingCost[puzzleTokenId];\n    if (cost == 0) {\n        cost = SCENE_NAMING_START_COST;\n    }\n    return (cost, puzzleTokenToPuzzleName[puzzleTokenId], puzzleTokenNamedBy[puzzleTokenId]);\n  }\n  \n}\n",
  "sourcePath": "/Users/shaba/work/github/private/crypto/etherscapes/contract/contracts/NamingContract.sol",
  "compiler": {
    "name": "solc",
    "version": "0.6.12+commit.27d51765.Emscripten.clang"
  },
  "schemaVersion": "3.3.3",
  "updatedAt": "2021-03-03T05:57:00.910Z",
  "networkType": "ethereum",
  "devdoc": {
    "kind": "dev",
    "methods": {
      "owner()": {
        "details": "Returns the address of the current owner."
      },
      "renounceOwnership()": {
        "details": "Leaves the contract without owner. It will not be possible to call `onlyOwner` functions anymore. Can only be called by the current owner. NOTE: Renouncing ownership will leave the contract without an owner, thereby removing any functionality that is only available to the owner."
      },
      "transferOwnership(address)": {
        "details": "Transfers ownership of the contract to a new account (`newOwner`). Can only be called by the current owner."
      }
    },
    "title": "NamingContract NamingContract - a contract to name etherscape solved puzzle tokens.",
    "version": 1
  },
  "userdoc": {
    "kind": "user",
    "methods": {},
    "version": 1
  }
}